{"contracts/IndexFund.sol":{"MockIndexFund":{"abi":[{"inputs":[{"internalType":"uint256","name":"_min_holding_update_diff_duration","type":"uint256"}],"stateMutability":"nonpayable","type":"constructor"},{"stateMutability":"payable","type":"fallback"},{"inputs":[{"internalType":"uint256","name":"","type":"uint256"}],"name":"asset_ids","outputs":[{"internalType":"uint256","name":"","type":"uint256"}],"stateMutability":"view","type":"function"},{"inputs":[{"internalType":"uint256","name":"asset_id","type":"uint256"},{"internalType":"uint256","name":"quantity","type":"uint256"}],"name":"buyAssetQuantity","outputs":[{"internalType":"uint256","name":"","type":"uint256"}],"stateMutability":"view","type":"function"},{"inputs":[{"internalType":"uint256","name":"asset_id","type":"uint256"}],"name":"getAssetAbsoluteWeight","outputs":[{"internalType":"uint256","name":"","type":"uint256"}],"stateMutability":"view","type":"function"},{"inputs":[],"name":"getAssets","outputs":[{"internalType":"uint256[]","name":"","type":"uint256[]"}],"stateMutability":"nonpayable","type":"function"},{"inputs":[],"name":"getExistingFundsWei","outputs":[{"internalType":"uint256","name":"","type":"uint256"}],"stateMutability":"view","type":"function"},{"inputs":[{"internalType":"uint256","name":"asset_id","type":"uint256"}],"name":"getPrice","outputs":[{"internalType":"uint256","name":"","type":"uint256"}],"stateMutability":"view","type":"function"},{"inputs":[{"internalType":"uint256","name":"","type":"uint256"}],"name":"holdings","outputs":[{"internalType":"uint256","name":"","type":"uint256"}],"stateMutability":"view","type":"function"},{"inputs":[{"internalType":"address","name":"depositing_shareholder","type":"address"},{"internalType":"uint256","name":"deposited_wei","type":"uint256"}],"name":"inputFunds","outputs":[{"internalType":"string","name":"","type":"string"}],"stateMutability":"nonpayable","type":"function"},{"inputs":[],"name":"last_holding_update_time","outputs":[{"internalType":"uint256","name":"","type":"uint256"}],"stateMutability":"view","type":"function"},{"inputs":[],"name":"min_holding_update_diff_duration","outputs":[{"internalType":"uint256","name":"","type":"uint256"}],"stateMutability":"view","type":"function"},{"inputs":[{"internalType":"address payable","name":"withdrawing_shareholder","type":"address"},{"internalType":"uint256","name":"withdrawn_share_micro_units","type":"uint256"}],"name":"outputFunds","outputs":[{"internalType":"string","name":"","type":"string"}],"stateMutability":"nonpayable","type":"function"},{"inputs":[{"internalType":"uint256","name":"","type":"uint256"}],"name":"prices","outputs":[{"internalType":"uint256","name":"","type":"uint256"}],"stateMutability":"view","type":"function"},{"inputs":[],"name":"refreshAssets","outputs":[],"stateMutability":"nonpayable","type":"function"},{"inputs":[{"internalType":"uint256","name":"","type":"uint256"}],"name":"scratch_arr","outputs":[{"internalType":"uint256","name":"","type":"uint256"}],"stateMutability":"view","type":"function"},{"inputs":[{"internalType":"uint256","name":"asset_id","type":"uint256"},{"internalType":"uint256","name":"quantity","type":"uint256"}],"name":"sellAssetQuantity","outputs":[{"internalType":"uint256","name":"","type":"uint256"}],"stateMutability":"view","type":"function"},{"inputs":[{"internalType":"address","name":"","type":"address"}],"name":"shareholder_to_share","outputs":[{"internalType":"uint256","name":"","type":"uint256"}],"stateMutability":"view","type":"function"},{"inputs":[{"internalType":"address","name":"","type":"address"}],"name":"shareholder_to_wei","outputs":[{"internalType":"uint256","name":"","type":"uint256"}],"stateMutability":"view","type":"function"},{"inputs":[{"internalType":"uint256","name":"","type":"uint256"}],"name":"shareholders","outputs":[{"internalType":"address","name":"","type":"address"}],"stateMutability":"view","type":"function"},{"inputs":[{"internalType":"uint256","name":"","type":"uint256"}],"name":"target_holdings","outputs":[{"internalType":"uint256","name":"","type":"uint256"}],"stateMutability":"view","type":"function"},{"inputs":[],"name":"updateHoldings","outputs":[{"internalType":"string","name":"","type":"string"}],"stateMutability":"nonpayable","type":"function"},{"inputs":[{"internalType":"uint256","name":"existing_funds_wei","type":"uint256"}],"name":"updateShareHolderToShare","outputs":[],"stateMutability":"nonpayable","type":"function"},{"stateMutability":"payable","type":"receive"}],"evm":{"bytecode":{"linkReferences":{},"object":"60806040523480156200001157600080fd5b5060405162001db538038062001db583398181016040528101906200003791906200030e565b80806004819055506200004f6200005760201b60201c565b50506200049d565b60005b600580549050811015620000b8576000600160006005848154811062000085576200008462000340565b5b90600052602060002001548152602001908152602001600020819055508080620000af906200039e565b9150506200005a565b5060056000620000c991906200023a565b620000d96200016a60201b60201c565b60059080519060200190620000f09291906200025d565b5060005b60058054905081101562000167576000600582815481106200011b576200011a62000340565b5b906000526020600020015490506200013981620001fe60201b60201c565b60016000838152602001908152602001600020819055505080806200015e906200039e565b915050620000f4565b50565b6060600760006200017c91906200023a565b6007600090806001815401808255809150506001900390600052602060002001600090919091909150556007805480602002602001604051908101604052809291908181526020018280548015620001f457602002820191906000526020600020905b815481526020019060010190808311620001df575b5050505050905090565b60008082036200021457620f4240905062000235565b600a826200022391906200041a565b6103e862000232919062000452565b90505b919050565b50805460008255906000526020600020908101906200025a9190620002af565b50565b8280548282559060005260206000209081019282156200029c579160200282015b828111156200029b5782518255916020019190600101906200027e565b5b509050620002ab9190620002af565b5090565b5b80821115620002ca576000816000905550600101620002b0565b5090565b600080fd5b6000819050919050565b620002e881620002d3565b8114620002f457600080fd5b50565b6000815190506200030881620002dd565b92915050565b600060208284031215620003275762000326620002ce565b5b60006200033784828501620002f7565b91505092915050565b7f4e487b7100000000000000000000000000000000000000000000000000000000600052603260045260246000fd5b7f4e487b7100000000000000000000000000000000000000000000000000000000600052601160045260246000fd5b6000620003ab82620002d3565b91507fffffffffffffffffffffffffffffffffffffffffffffffffffffffffffffffff8203620003e057620003df6200036f565b5b600182019050919050565b7f4e487b7100000000000000000000000000000000000000000000000000000000600052601260045260246000fd5b60006200042782620002d3565b91506200043483620002d3565b925082620004475762000446620003eb565b5b828206905092915050565b60006200045f82620002d3565b91506200046c83620002d3565b92508282026200047c81620002d3565b915082820484148315176200049657620004956200036f565b5b5092915050565b61190880620004ad6000396000f3fe60806040526004361061012e5760003560e01c80637aefbd0b116100ab578063b36fdf331161006f578063b36fdf3314610482578063bc31c1c114610499578063ddf2afba146104d6578063e757223014610501578063e852cbf31461053e578063f039842f1461057b5761013f565b80637aefbd0b1461037557806387002c59146103b257806399d65d74146103dd578063ab377daa14610408578063af503309146104455761013f565b80634b2305c5116100f25780634b2305c51461026a57806364220c971461029357806367e4ac2c146102d05780637148cbec146102fb5780637a968f98146103385761013f565b80630e8a242a1461014b57806321e2d94e1461018857806329f85ab0146101c55780632b35e77a1461020257806331bccadd1461022d5761013f565b3661013f5761013d33346105b8565b005b61014933346105b8565b005b34801561015757600080fd5b50610172600480360381019061016d9190611355565b610889565b60405161017f9190611391565b60405180910390f35b34801561019457600080fd5b506101af60048036038101906101aa9190611355565b6108ab565b6040516101bc9190611391565b60405180910390f35b3480156101d157600080fd5b506101ec60048036038101906101e7919061140a565b6108cf565b6040516101f99190611391565b60405180910390f35b34801561020e57600080fd5b506102176108e7565b6040516102249190611391565b60405180910390f35b34801561023957600080fd5b50610254600480360381019061024f9190611437565b6108ed565b6040516102619190611391565b60405180910390f35b34801561027657600080fd5b50610291600480360381019061028c9190611355565b610910565b005b34801561029f57600080fd5b506102ba60048036038101906102b59190611477565b6105b8565b6040516102c79190611547565b60405180910390f35b3480156102dc57600080fd5b506102e5610a5c565b6040516102f29190611627565b60405180910390f35b34801561030757600080fd5b50610322600480360381019061031d9190611437565b610aec565b60405161032f9190611391565b60405180910390f35b34801561034457600080fd5b5061035f600480360381019061035a919061140a565b610b0f565b60405161036c9190611391565b60405180910390f35b34801561038157600080fd5b5061039c60048036038101906103979190611355565b610b27565b6040516103a99190611391565b60405180910390f35b3480156103be57600080fd5b506103c7610b3f565b6040516103d49190611547565b60405180910390f35b3480156103e957600080fd5b506103f2610da3565b6040516103ff9190611391565b60405180910390f35b34801561041457600080fd5b5061042f600480360381019061042a9190611355565b610da9565b60405161043c9190611658565b60405180910390f35b34801561045157600080fd5b5061046c60048036038101906104679190611355565b610de8565b6040516104799190611391565b60405180910390f35b34801561048e57600080fd5b50610497610e00565b005b3480156104a557600080fd5b506104c060048036038101906104bb9190611355565b610ef1565b6040516104cd9190611391565b60405180910390f35b3480156104e257600080fd5b506104eb610f09565b6040516104f89190611391565b60405180910390f35b34801561050d57600080fd5b5061052860048036038101906105239190611355565b610fb0565b6040516105359190611391565b60405180910390f35b34801561054a57600080fd5b5061056560048036038101906105609190611355565b610fe6565b6040516105729190611391565b60405180910390f35b34801561058757600080fd5b506105a2600480360381019061059d91906116b1565b61100a565b6040516105af9190611547565b60405180910390f35b606060006105c4610f09565b905060005b6006805490508110156106c9576000600682815481106105ec576105eb6116f1565b5b9060005260206000200160009054906101000a900473ffffffffffffffffffffffffffffffffffffffff169050620f4240600260008373ffffffffffffffffffffffffffffffffffffffff1673ffffffffffffffffffffffffffffffffffffffff1681526020019081526020016000205484610668919061174f565b61067291906117c0565b600860008373ffffffffffffffffffffffffffffffffffffffff1673ffffffffffffffffffffffffffffffffffffffff168152602001908152602001600020819055505080806106c1906117f1565b9150506105c9565b5082600860008673ffffffffffffffffffffffffffffffffffffffff1673ffffffffffffffffffffffffffffffffffffffff16815260200190815260200160002060008282546107199190611839565b92505081905550828161072c9190611839565b90506000805b6006805490508110156107d357600060068281548110610755576107546116f1565b5b9060005260206000200160009054906101000a900473ffffffffffffffffffffffffffffffffffffffff1690508673ffffffffffffffffffffffffffffffffffffffff168173ffffffffffffffffffffffffffffffffffffffff16036107bf5760019250506107d3565b5080806107cb906117f1565b915050610732565b508061083d576006859080600181540180825580915050600190039060005260206000200160009091909190916101000a81548173ffffffffffffffffffffffffffffffffffffffff021916908373ffffffffffffffffffffffffffffffffffffffff1602179055505b61084682610910565b8360008080815260200190815260200160002060008282546108689190611839565b92505081905550604051806020016040528060008152509250505092915050565b6000600a82610898919061186d565b60646108a4919061174f565b9050919050565b600781815481106108bb57600080fd5b906000526020600020016000915090505481565b60086020528060005260406000206000915090505481565b60035481565b6000806108f984610fb0565b90508083610907919061174f565b91505092915050565b60005b600680549050811015610a5857600060068281548110610936576109356116f1565b5b9060005260206000200160009054906101000a900473ffffffffffffffffffffffffffffffffffffffff16905082600860008373ffffffffffffffffffffffffffffffffffffffff1673ffffffffffffffffffffffffffffffffffffffff16815260200190815260200160002054620f42406109b2919061174f565b6109bc91906117c0565b600260008373ffffffffffffffffffffffffffffffffffffffff1673ffffffffffffffffffffffffffffffffffffffff168152602001908152602001600020819055506000600860008373ffffffffffffffffffffffffffffffffffffffff1673ffffffffffffffffffffffffffffffffffffffff16815260200190815260200160002081905550508080610a50906117f1565b915050610913565b5050565b606060076000610a6c919061128f565b6007600090806001815401808255809150506001900390600052602060002001600090919091909150556007805480602002602001604051908101604052809291908181526020018280548015610ae257602002820191906000526020600020905b815481526020019060010190808311610ace575b5050505050905090565b600080610af884610fb0565b90508083610b06919061174f565b91505092915050565b60026020528060005260406000206000915090505481565b60096020528060005260406000206000915090505481565b6060610b49610e00565b6000805b600580549050811015610bc557600060058281548110610b7057610b6f6116f1565b5b906000526020600020015490506000610b8882610889565b90508084610b969190611839565b935080600960008481526020019081526020016000208190555050508080610bbd906117f1565b915050610b4d565b5060005b600580549050811015610c5157600060058281548110610bec57610beb6116f1565b5b906000526020600020015490506000610c0482610889565b905083670de0b6b3a764000082610c1b919061174f565b610c2591906117c0565b600960008481526020019081526020016000208190555050508080610c49906117f1565b915050610bc9565b5060005b600580549050811015610d8c57600060058281548110610c7857610c776116f1565b5b90600052602060002001549050600080600083815260200190815260200160002054905060006009600084815260200190815260200160002054905080821115610d155760008183610cca919061189e565b9050610ce984670de0b6b3a764000083610ce491906117c0565b610aec565b50806000808681526020019081526020016000206000828254610d0c919061189e565b92505081905550505b80821015610d765760008282610d2b919061189e565b9050610d4a84670de0b6b3a764000083610d4591906117c0565b6108ed565b50806000808681526020019081526020016000206000828254610d6d9190611839565b92505081905550505b5050508080610d84906117f1565b915050610c55565b506040518060200160405280600081525091505090565b60045481565b60068181548110610db957600080fd5b906000526020600020016000915054906101000a900473ffffffffffffffffffffffffffffffffffffffff1681565b60006020528060005260406000206000915090505481565b60005b600580549050811015610e5a5760006001600060058481548110610e2a57610e296116f1565b5b90600052602060002001548152602001908152602001600020819055508080610e52906117f1565b915050610e03565b5060056000610e69919061128f565b610e71610a5c565b60059080519060200190610e869291906112b0565b5060005b600580549050811015610eee57600060058281548110610ead57610eac6116f1565b5b90600052602060002001549050610ec381610fb0565b6001600083815260200190815260200160002081905550508080610ee6906117f1565b915050610e8a565b50565b60016020528060005260406000206000915090505481565b6000806000905060005b600580549050811015610fa857600060058281548110610f3657610f356116f1565b5b90600052602060002001549050670de0b6b3a7640000600080838152602001908152602001600020546001600084815260200190815260200160002054610f7d919061174f565b610f8791906117c0565b83610f929190611839565b9250508080610fa0906117f1565b915050610f13565b508091505090565b6000808203610fc457620f42409050610fe1565b600a82610fd1919061186d565b6103e8610fde919061174f565b90505b919050565b60058181548110610ff657600080fd5b906000526020600020016000915090505481565b60606000611016610f09565b905060005b60068054905081101561111b5760006006828154811061103e5761103d6116f1565b5b9060005260206000200160009054906101000a900473ffffffffffffffffffffffffffffffffffffffff169050620f4240600260008373ffffffffffffffffffffffffffffffffffffffff1673ffffffffffffffffffffffffffffffffffffffff16815260200190815260200160002054846110ba919061174f565b6110c491906117c0565b600860008373ffffffffffffffffffffffffffffffffffffffff1673ffffffffffffffffffffffffffffffffffffffff16815260200190815260200160002081905550508080611113906117f1565b91505061101b565b506000600260008673ffffffffffffffffffffffffffffffffffffffff1673ffffffffffffffffffffffffffffffffffffffff168152602001908152602001600020549050600084620f4240611171919061174f565b82620f4240611180919061174f565b8461118b919061174f565b611195919061174f565b905080600860008873ffffffffffffffffffffffffffffffffffffffff1673ffffffffffffffffffffffffffffffffffffffff16815260200190815260200160002060008282546111e6919061189e565b9250508190555080836111f9919061189e565b925061120483610910565b806000808081526020019081526020016000206000828254611226919061189e565b925050819055508573ffffffffffffffffffffffffffffffffffffffff166108fc829081150290604051600060405180830381858888f19350505050158015611273573d6000803e3d6000fd5b5060405180602001604052806000815250935050505092915050565b50805460008255906000526020600020908101906112ad91906112fd565b50565b8280548282559060005260206000209081019282156112ec579160200282015b828111156112eb5782518255916020019190600101906112d0565b5b5090506112f991906112fd565b5090565b5b808211156113165760008160009055506001016112fe565b5090565b600080fd5b6000819050919050565b6113328161131f565b811461133d57600080fd5b50565b60008135905061134f81611329565b92915050565b60006020828403121561136b5761136a61131a565b5b600061137984828501611340565b91505092915050565b61138b8161131f565b82525050565b60006020820190506113a66000830184611382565b92915050565b600073ffffffffffffffffffffffffffffffffffffffff82169050919050565b60006113d7826113ac565b9050919050565b6113e7816113cc565b81146113f257600080fd5b50565b600081359050611404816113de565b92915050565b6000602082840312156114205761141f61131a565b5b600061142e848285016113f5565b91505092915050565b6000806040838503121561144e5761144d61131a565b5b600061145c85828601611340565b925050602061146d85828601611340565b9150509250929050565b6000806040838503121561148e5761148d61131a565b5b600061149c858286016113f5565b92505060206114ad85828601611340565b9150509250929050565b600081519050919050565b600082825260208201905092915050565b60005b838110156114f15780820151818401526020810190506114d6565b60008484015250505050565b6000601f19601f8301169050919050565b6000611519826114b7565b61152381856114c2565b93506115338185602086016114d3565b61153c816114fd565b840191505092915050565b60006020820190508181036000830152611561818461150e565b905092915050565b600081519050919050565b600082825260208201905092915050565b6000819050602082019050919050565b61159e8161131f565b82525050565b60006115b08383611595565b60208301905092915050565b6000602082019050919050565b60006115d482611569565b6115de8185611574565b93506115e983611585565b8060005b8381101561161a57815161160188826115a4565b975061160c836115bc565b9250506001810190506115ed565b5085935050505092915050565b6000602082019050818103600083015261164181846115c9565b905092915050565b611652816113cc565b82525050565b600060208201905061166d6000830184611649565b92915050565b600061167e826113ac565b9050919050565b61168e81611673565b811461169957600080fd5b50565b6000813590506116ab81611685565b92915050565b600080604083850312156116c8576116c761131a565b5b60006116d68582860161169c565b92505060206116e785828601611340565b9150509250929050565b7f4e487b7100000000000000000000000000000000000000000000000000000000600052603260045260246000fd5b7f4e487b7100000000000000000000000000000000000000000000000000000000600052601160045260246000fd5b600061175a8261131f565b91506117658361131f565b92508282026117738161131f565b9150828204841483151761178a57611789611720565b5b5092915050565b7f4e487b7100000000000000000000000000000000000000000000000000000000600052601260045260246000fd5b60006117cb8261131f565b91506117d68361131f565b9250826117e6576117e5611791565b5b828204905092915050565b60006117fc8261131f565b91507fffffffffffffffffffffffffffffffffffffffffffffffffffffffffffffffff820361182e5761182d611720565b5b600182019050919050565b60006118448261131f565b915061184f8361131f565b925082820190508082111561186757611866611720565b5b92915050565b60006118788261131f565b91506118838361131f565b92508261189357611892611791565b5b828206905092915050565b60006118a98261131f565b91506118b48361131f565b92508282039050818111156118cc576118cb611720565b5b9291505056fea2646970667358221220c36bda0ece8a406ddeb78c70582e49fb85f96a2fca182233041e2ef27f1dcc9e64736f6c63430008110033","opcodes":"PUSH1 0x80 PUSH1 0x40 MSTORE CALLVALUE DUP1 ISZERO PUSH3 0x11 JUMPI PUSH1 0x0 DUP1 REVERT JUMPDEST POP PUSH1 0x40 MLOAD PUSH3 0x1DB5 CODESIZE SUB DUP1 PUSH3 0x1DB5 DUP4 CODECOPY DUP2 DUP2 ADD PUSH1 0x40 MSTORE DUP2 ADD SWAP1 PUSH3 0x37 SWAP2 SWAP1 PUSH3 0x30E JUMP JUMPDEST DUP1 DUP1 PUSH1 0x4 DUP2 SWAP1 SSTORE POP PUSH3 0x4F PUSH3 0x57 PUSH1 0x20 SHL PUSH1 0x20 SHR JUMP JUMPDEST POP POP PUSH3 0x49D JUMP JUMPDEST PUSH1 0x0 JUMPDEST PUSH1 0x5 DUP1 SLOAD SWAP1 POP DUP2 LT ISZERO PUSH3 0xB8 JUMPI PUSH1 0x0 PUSH1 0x1 PUSH1 0x0 PUSH1 0x5 DUP5 DUP2 SLOAD DUP2 LT PUSH3 0x85 JUMPI PUSH3 0x84 PUSH3 0x340 JUMP JUMPDEST JUMPDEST SWAP1 PUSH1 0x0 MSTORE PUSH1 0x20 PUSH1 0x0 KECCAK256 ADD SLOAD DUP2 MSTORE PUSH1 0x20 ADD SWAP1 DUP2 MSTORE PUSH1 0x20 ADD PUSH1 0x0 KECCAK256 DUP2 SWAP1 SSTORE POP DUP1 DUP1 PUSH3 0xAF SWAP1 PUSH3 0x39E JUMP JUMPDEST SWAP2 POP POP PUSH3 0x5A JUMP JUMPDEST POP PUSH1 0x5 PUSH1 0x0 PUSH3 0xC9 SWAP2 SWAP1 PUSH3 0x23A JUMP JUMPDEST PUSH3 0xD9 PUSH3 0x16A PUSH1 0x20 SHL PUSH1 0x20 SHR JUMP JUMPDEST PUSH1 0x5 SWAP1 DUP1 MLOAD SWAP1 PUSH1 0x20 ADD SWAP1 PUSH3 0xF0 SWAP3 SWAP2 SWAP1 PUSH3 0x25D JUMP JUMPDEST POP PUSH1 0x0 JUMPDEST PUSH1 0x5 DUP1 SLOAD SWAP1 POP DUP2 LT ISZERO PUSH3 0x167 JUMPI PUSH1 0x0 PUSH1 0x5 DUP3 DUP2 SLOAD DUP2 LT PUSH3 0x11B JUMPI PUSH3 0x11A PUSH3 0x340 JUMP JUMPDEST JUMPDEST SWAP1 PUSH1 0x0 MSTORE PUSH1 0x20 PUSH1 0x0 KECCAK256 ADD SLOAD SWAP1 POP PUSH3 0x139 DUP2 PUSH3 0x1FE PUSH1 0x20 SHL PUSH1 0x20 SHR JUMP JUMPDEST PUSH1 0x1 PUSH1 0x0 DUP4 DUP2 MSTORE PUSH1 0x20 ADD SWAP1 DUP2 MSTORE PUSH1 0x20 ADD PUSH1 0x0 KECCAK256 DUP2 SWAP1 SSTORE POP POP DUP1 DUP1 PUSH3 0x15E SWAP1 PUSH3 0x39E JUMP JUMPDEST SWAP2 POP POP PUSH3 0xF4 JUMP JUMPDEST POP JUMP JUMPDEST PUSH1 0x60 PUSH1 0x7 PUSH1 0x0 PUSH3 0x17C SWAP2 SWAP1 PUSH3 0x23A JUMP JUMPDEST PUSH1 0x7 PUSH1 0x0 SWAP1 DUP1 PUSH1 0x1 DUP2 SLOAD ADD DUP1 DUP3 SSTORE DUP1 SWAP2 POP POP PUSH1 0x1 SWAP1 SUB SWAP1 PUSH1 0x0 MSTORE PUSH1 0x20 PUSH1 0x0 KECCAK256 ADD PUSH1 0x0 SWAP1 SWAP2 SWAP1 SWAP2 SWAP1 SWAP2 POP SSTORE PUSH1 0x7 DUP1 SLOAD DUP1 PUSH1 0x20 MUL PUSH1 0x20 ADD PUSH1 0x40 MLOAD SWAP1 DUP2 ADD PUSH1 0x40 MSTORE DUP1 SWAP3 SWAP2 SWAP1 DUP2 DUP2 MSTORE PUSH1 0x20 ADD DUP3 DUP1 SLOAD DUP1 ISZERO PUSH3 0x1F4 JUMPI PUSH1 0x20 MUL DUP3 ADD SWAP2 SWAP1 PUSH1 0x0 MSTORE PUSH1 0x20 PUSH1 0x0 KECCAK256 SWAP1 JUMPDEST DUP2 SLOAD DUP2 MSTORE PUSH1 0x20 ADD SWAP1 PUSH1 0x1 ADD SWAP1 DUP1 DUP4 GT PUSH3 0x1DF JUMPI JUMPDEST POP POP POP POP POP SWAP1 POP SWAP1 JUMP JUMPDEST PUSH1 0x0 DUP1 DUP3 SUB PUSH3 0x214 JUMPI PUSH3 0xF4240 SWAP1 POP PUSH3 0x235 JUMP JUMPDEST PUSH1 0xA DUP3 PUSH3 0x223 SWAP2 SWAP1 PUSH3 0x41A JUMP JUMPDEST PUSH2 0x3E8 PUSH3 0x232 SWAP2 SWAP1 PUSH3 0x452 JUMP JUMPDEST SWAP1 POP JUMPDEST SWAP2 SWAP1 POP JUMP JUMPDEST POP DUP1 SLOAD PUSH1 0x0 DUP3 SSTORE SWAP1 PUSH1 0x0 MSTORE PUSH1 0x20 PUSH1 0x0 KECCAK256 SWAP1 DUP2 ADD SWAP1 PUSH3 0x25A SWAP2 SWAP1 PUSH3 0x2AF JUMP JUMPDEST POP JUMP JUMPDEST DUP3 DUP1 SLOAD DUP3 DUP3 SSTORE SWAP1 PUSH1 0x0 MSTORE PUSH1 0x20 PUSH1 0x0 KECCAK256 SWAP1 DUP2 ADD SWAP3 DUP3 ISZERO PUSH3 0x29C JUMPI SWAP2 PUSH1 0x20 MUL DUP3 ADD JUMPDEST DUP3 DUP2 GT ISZERO PUSH3 0x29B JUMPI DUP3 MLOAD DUP3 SSTORE SWAP2 PUSH1 0x20 ADD SWAP2 SWAP1 PUSH1 0x1 ADD SWAP1 PUSH3 0x27E JUMP JUMPDEST JUMPDEST POP SWAP1 POP PUSH3 0x2AB SWAP2 SWAP1 PUSH3 0x2AF JUMP JUMPDEST POP SWAP1 JUMP JUMPDEST JUMPDEST DUP1 DUP3 GT ISZERO PUSH3 0x2CA JUMPI PUSH1 0x0 DUP2 PUSH1 0x0 SWAP1 SSTORE POP PUSH1 0x1 ADD PUSH3 0x2B0 JUMP JUMPDEST POP SWAP1 JUMP JUMPDEST PUSH1 0x0 DUP1 REVERT JUMPDEST PUSH1 0x0 DUP2 SWAP1 POP SWAP2 SWAP1 POP JUMP JUMPDEST PUSH3 0x2E8 DUP2 PUSH3 0x2D3 JUMP JUMPDEST DUP2 EQ PUSH3 0x2F4 JUMPI PUSH1 0x0 DUP1 REVERT JUMPDEST POP JUMP JUMPDEST PUSH1 0x0 DUP2 MLOAD SWAP1 POP PUSH3 0x308 DUP2 PUSH3 0x2DD JUMP JUMPDEST SWAP3 SWAP2 POP POP JUMP JUMPDEST PUSH1 0x0 PUSH1 0x20 DUP3 DUP5 SUB SLT ISZERO PUSH3 0x327 JUMPI PUSH3 0x326 PUSH3 0x2CE JUMP JUMPDEST JUMPDEST PUSH1 0x0 PUSH3 0x337 DUP5 DUP3 DUP6 ADD PUSH3 0x2F7 JUMP JUMPDEST SWAP2 POP POP SWAP3 SWAP2 POP POP JUMP JUMPDEST PUSH32 0x4E487B7100000000000000000000000000000000000000000000000000000000 PUSH1 0x0 MSTORE PUSH1 0x32 PUSH1 0x4 MSTORE PUSH1 0x24 PUSH1 0x0 REVERT JUMPDEST PUSH32 0x4E487B7100000000000000000000000000000000000000000000000000000000 PUSH1 0x0 MSTORE PUSH1 0x11 PUSH1 0x4 MSTORE PUSH1 0x24 PUSH1 0x0 REVERT JUMPDEST PUSH1 0x0 PUSH3 0x3AB DUP3 PUSH3 0x2D3 JUMP JUMPDEST SWAP2 POP PUSH32 0xFFFFFFFFFFFFFFFFFFFFFFFFFFFFFFFFFFFFFFFFFFFFFFFFFFFFFFFFFFFFFFFF DUP3 SUB PUSH3 0x3E0 JUMPI PUSH3 0x3DF PUSH3 0x36F JUMP JUMPDEST JUMPDEST PUSH1 0x1 DUP3 ADD SWAP1 POP SWAP2 SWAP1 POP JUMP JUMPDEST PUSH32 0x4E487B7100000000000000000000000000000000000000000000000000000000 PUSH1 0x0 MSTORE PUSH1 0x12 PUSH1 0x4 MSTORE PUSH1 0x24 PUSH1 0x0 REVERT JUMPDEST PUSH1 0x0 PUSH3 0x427 DUP3 PUSH3 0x2D3 JUMP JUMPDEST SWAP2 POP PUSH3 0x434 DUP4 PUSH3 0x2D3 JUMP JUMPDEST SWAP3 POP DUP3 PUSH3 0x447 JUMPI PUSH3 0x446 PUSH3 0x3EB JUMP JUMPDEST JUMPDEST DUP3 DUP3 MOD SWAP1 POP SWAP3 SWAP2 POP POP JUMP JUMPDEST PUSH1 0x0 PUSH3 0x45F DUP3 PUSH3 0x2D3 JUMP JUMPDEST SWAP2 POP PUSH3 0x46C DUP4 PUSH3 0x2D3 JUMP JUMPDEST SWAP3 POP DUP3 DUP3 MUL PUSH3 0x47C DUP2 PUSH3 0x2D3 JUMP JUMPDEST SWAP2 POP DUP3 DUP3 DIV DUP5 EQ DUP4 ISZERO OR PUSH3 0x496 JUMPI PUSH3 0x495 PUSH3 0x36F JUMP JUMPDEST JUMPDEST POP SWAP3 SWAP2 POP POP JUMP JUMPDEST PUSH2 0x1908 DUP1 PUSH3 0x4AD PUSH1 0x0 CODECOPY PUSH1 0x0 RETURN INVALID PUSH1 0x80 PUSH1 0x40 MSTORE PUSH1 0x4 CALLDATASIZE LT PUSH2 0x12E JUMPI PUSH1 0x0 CALLDATALOAD PUSH1 0xE0 SHR DUP1 PUSH4 0x7AEFBD0B GT PUSH2 0xAB JUMPI DUP1 PUSH4 0xB36FDF33 GT PUSH2 0x6F JUMPI DUP1 PUSH4 0xB36FDF33 EQ PUSH2 0x482 JUMPI DUP1 PUSH4 0xBC31C1C1 EQ PUSH2 0x499 JUMPI DUP1 PUSH4 0xDDF2AFBA EQ PUSH2 0x4D6 JUMPI DUP1 PUSH4 0xE7572230 EQ PUSH2 0x501 JUMPI DUP1 PUSH4 0xE852CBF3 EQ PUSH2 0x53E JUMPI DUP1 PUSH4 0xF039842F EQ PUSH2 0x57B JUMPI PUSH2 0x13F JUMP JUMPDEST DUP1 PUSH4 0x7AEFBD0B EQ PUSH2 0x375 JUMPI DUP1 PUSH4 0x87002C59 EQ PUSH2 0x3B2 JUMPI DUP1 PUSH4 0x99D65D74 EQ PUSH2 0x3DD JUMPI DUP1 PUSH4 0xAB377DAA EQ PUSH2 0x408 JUMPI DUP1 PUSH4 0xAF503309 EQ PUSH2 0x445 JUMPI PUSH2 0x13F JUMP JUMPDEST DUP1 PUSH4 0x4B2305C5 GT PUSH2 0xF2 JUMPI DUP1 PUSH4 0x4B2305C5 EQ PUSH2 0x26A JUMPI DUP1 PUSH4 0x64220C97 EQ PUSH2 0x293 JUMPI DUP1 PUSH4 0x67E4AC2C EQ PUSH2 0x2D0 JUMPI DUP1 PUSH4 0x7148CBEC EQ PUSH2 0x2FB JUMPI DUP1 PUSH4 0x7A968F98 EQ PUSH2 0x338 JUMPI PUSH2 0x13F JUMP JUMPDEST DUP1 PUSH4 0xE8A242A EQ PUSH2 0x14B JUMPI DUP1 PUSH4 0x21E2D94E EQ PUSH2 0x188 JUMPI DUP1 PUSH4 0x29F85AB0 EQ PUSH2 0x1C5 JUMPI DUP1 PUSH4 0x2B35E77A EQ PUSH2 0x202 JUMPI DUP1 PUSH4 0x31BCCADD EQ PUSH2 0x22D JUMPI PUSH2 0x13F JUMP JUMPDEST CALLDATASIZE PUSH2 0x13F JUMPI PUSH2 0x13D CALLER CALLVALUE PUSH2 0x5B8 JUMP JUMPDEST STOP JUMPDEST PUSH2 0x149 CALLER CALLVALUE PUSH2 0x5B8 JUMP JUMPDEST STOP JUMPDEST CALLVALUE DUP1 ISZERO PUSH2 0x157 JUMPI PUSH1 0x0 DUP1 REVERT JUMPDEST POP PUSH2 0x172 PUSH1 0x4 DUP1 CALLDATASIZE SUB DUP2 ADD SWAP1 PUSH2 0x16D SWAP2 SWAP1 PUSH2 0x1355 JUMP JUMPDEST PUSH2 0x889 JUMP JUMPDEST PUSH1 0x40 MLOAD PUSH2 0x17F SWAP2 SWAP1 PUSH2 0x1391 JUMP JUMPDEST PUSH1 0x40 MLOAD DUP1 SWAP2 SUB SWAP1 RETURN JUMPDEST CALLVALUE DUP1 ISZERO PUSH2 0x194 JUMPI PUSH1 0x0 DUP1 REVERT JUMPDEST POP PUSH2 0x1AF PUSH1 0x4 DUP1 CALLDATASIZE SUB DUP2 ADD SWAP1 PUSH2 0x1AA SWAP2 SWAP1 PUSH2 0x1355 JUMP JUMPDEST PUSH2 0x8AB JUMP JUMPDEST PUSH1 0x40 MLOAD PUSH2 0x1BC SWAP2 SWAP1 PUSH2 0x1391 JUMP JUMPDEST PUSH1 0x40 MLOAD DUP1 SWAP2 SUB SWAP1 RETURN JUMPDEST CALLVALUE DUP1 ISZERO PUSH2 0x1D1 JUMPI PUSH1 0x0 DUP1 REVERT JUMPDEST POP PUSH2 0x1EC PUSH1 0x4 DUP1 CALLDATASIZE SUB DUP2 ADD SWAP1 PUSH2 0x1E7 SWAP2 SWAP1 PUSH2 0x140A JUMP JUMPDEST PUSH2 0x8CF JUMP JUMPDEST PUSH1 0x40 MLOAD PUSH2 0x1F9 SWAP2 SWAP1 PUSH2 0x1391 JUMP JUMPDEST PUSH1 0x40 MLOAD DUP1 SWAP2 SUB SWAP1 RETURN JUMPDEST CALLVALUE DUP1 ISZERO PUSH2 0x20E JUMPI PUSH1 0x0 DUP1 REVERT JUMPDEST POP PUSH2 0x217 PUSH2 0x8E7 JUMP JUMPDEST PUSH1 0x40 MLOAD PUSH2 0x224 SWAP2 SWAP1 PUSH2 0x1391 JUMP JUMPDEST PUSH1 0x40 MLOAD DUP1 SWAP2 SUB SWAP1 RETURN JUMPDEST CALLVALUE DUP1 ISZERO PUSH2 0x239 JUMPI PUSH1 0x0 DUP1 REVERT JUMPDEST POP PUSH2 0x254 PUSH1 0x4 DUP1 CALLDATASIZE SUB DUP2 ADD SWAP1 PUSH2 0x24F SWAP2 SWAP1 PUSH2 0x1437 JUMP JUMPDEST PUSH2 0x8ED JUMP JUMPDEST PUSH1 0x40 MLOAD PUSH2 0x261 SWAP2 SWAP1 PUSH2 0x1391 JUMP JUMPDEST PUSH1 0x40 MLOAD DUP1 SWAP2 SUB SWAP1 RETURN JUMPDEST CALLVALUE DUP1 ISZERO PUSH2 0x276 JUMPI PUSH1 0x0 DUP1 REVERT JUMPDEST POP PUSH2 0x291 PUSH1 0x4 DUP1 CALLDATASIZE SUB DUP2 ADD SWAP1 PUSH2 0x28C SWAP2 SWAP1 PUSH2 0x1355 JUMP JUMPDEST PUSH2 0x910 JUMP JUMPDEST STOP JUMPDEST CALLVALUE DUP1 ISZERO PUSH2 0x29F JUMPI PUSH1 0x0 DUP1 REVERT JUMPDEST POP PUSH2 0x2BA PUSH1 0x4 DUP1 CALLDATASIZE SUB DUP2 ADD SWAP1 PUSH2 0x2B5 SWAP2 SWAP1 PUSH2 0x1477 JUMP JUMPDEST PUSH2 0x5B8 JUMP JUMPDEST PUSH1 0x40 MLOAD PUSH2 0x2C7 SWAP2 SWAP1 PUSH2 0x1547 JUMP JUMPDEST PUSH1 0x40 MLOAD DUP1 SWAP2 SUB SWAP1 RETURN JUMPDEST CALLVALUE DUP1 ISZERO PUSH2 0x2DC JUMPI PUSH1 0x0 DUP1 REVERT JUMPDEST POP PUSH2 0x2E5 PUSH2 0xA5C JUMP JUMPDEST PUSH1 0x40 MLOAD PUSH2 0x2F2 SWAP2 SWAP1 PUSH2 0x1627 JUMP JUMPDEST PUSH1 0x40 MLOAD DUP1 SWAP2 SUB SWAP1 RETURN JUMPDEST CALLVALUE DUP1 ISZERO PUSH2 0x307 JUMPI PUSH1 0x0 DUP1 REVERT JUMPDEST POP PUSH2 0x322 PUSH1 0x4 DUP1 CALLDATASIZE SUB DUP2 ADD SWAP1 PUSH2 0x31D SWAP2 SWAP1 PUSH2 0x1437 JUMP JUMPDEST PUSH2 0xAEC JUMP JUMPDEST PUSH1 0x40 MLOAD PUSH2 0x32F SWAP2 SWAP1 PUSH2 0x1391 JUMP JUMPDEST PUSH1 0x40 MLOAD DUP1 SWAP2 SUB SWAP1 RETURN JUMPDEST CALLVALUE DUP1 ISZERO PUSH2 0x344 JUMPI PUSH1 0x0 DUP1 REVERT JUMPDEST POP PUSH2 0x35F PUSH1 0x4 DUP1 CALLDATASIZE SUB DUP2 ADD SWAP1 PUSH2 0x35A SWAP2 SWAP1 PUSH2 0x140A JUMP JUMPDEST PUSH2 0xB0F JUMP JUMPDEST PUSH1 0x40 MLOAD PUSH2 0x36C SWAP2 SWAP1 PUSH2 0x1391 JUMP JUMPDEST PUSH1 0x40 MLOAD DUP1 SWAP2 SUB SWAP1 RETURN JUMPDEST CALLVALUE DUP1 ISZERO PUSH2 0x381 JUMPI PUSH1 0x0 DUP1 REVERT JUMPDEST POP PUSH2 0x39C PUSH1 0x4 DUP1 CALLDATASIZE SUB DUP2 ADD SWAP1 PUSH2 0x397 SWAP2 SWAP1 PUSH2 0x1355 JUMP JUMPDEST PUSH2 0xB27 JUMP JUMPDEST PUSH1 0x40 MLOAD PUSH2 0x3A9 SWAP2 SWAP1 PUSH2 0x1391 JUMP JUMPDEST PUSH1 0x40 MLOAD DUP1 SWAP2 SUB SWAP1 RETURN JUMPDEST CALLVALUE DUP1 ISZERO PUSH2 0x3BE JUMPI PUSH1 0x0 DUP1 REVERT JUMPDEST POP PUSH2 0x3C7 PUSH2 0xB3F JUMP JUMPDEST PUSH1 0x40 MLOAD PUSH2 0x3D4 SWAP2 SWAP1 PUSH2 0x1547 JUMP JUMPDEST PUSH1 0x40 MLOAD DUP1 SWAP2 SUB SWAP1 RETURN JUMPDEST CALLVALUE DUP1 ISZERO PUSH2 0x3E9 JUMPI PUSH1 0x0 DUP1 REVERT JUMPDEST POP PUSH2 0x3F2 PUSH2 0xDA3 JUMP JUMPDEST PUSH1 0x40 MLOAD PUSH2 0x3FF SWAP2 SWAP1 PUSH2 0x1391 JUMP JUMPDEST PUSH1 0x40 MLOAD DUP1 SWAP2 SUB SWAP1 RETURN JUMPDEST CALLVALUE DUP1 ISZERO PUSH2 0x414 JUMPI PUSH1 0x0 DUP1 REVERT JUMPDEST POP PUSH2 0x42F PUSH1 0x4 DUP1 CALLDATASIZE SUB DUP2 ADD SWAP1 PUSH2 0x42A SWAP2 SWAP1 PUSH2 0x1355 JUMP JUMPDEST PUSH2 0xDA9 JUMP JUMPDEST PUSH1 0x40 MLOAD PUSH2 0x43C SWAP2 SWAP1 PUSH2 0x1658 JUMP JUMPDEST PUSH1 0x40 MLOAD DUP1 SWAP2 SUB SWAP1 RETURN JUMPDEST CALLVALUE DUP1 ISZERO PUSH2 0x451 JUMPI PUSH1 0x0 DUP1 REVERT JUMPDEST POP PUSH2 0x46C PUSH1 0x4 DUP1 CALLDATASIZE SUB DUP2 ADD SWAP1 PUSH2 0x467 SWAP2 SWAP1 PUSH2 0x1355 JUMP JUMPDEST PUSH2 0xDE8 JUMP JUMPDEST PUSH1 0x40 MLOAD PUSH2 0x479 SWAP2 SWAP1 PUSH2 0x1391 JUMP JUMPDEST PUSH1 0x40 MLOAD DUP1 SWAP2 SUB SWAP1 RETURN JUMPDEST CALLVALUE DUP1 ISZERO PUSH2 0x48E JUMPI PUSH1 0x0 DUP1 REVERT JUMPDEST POP PUSH2 0x497 PUSH2 0xE00 JUMP JUMPDEST STOP JUMPDEST CALLVALUE DUP1 ISZERO PUSH2 0x4A5 JUMPI PUSH1 0x0 DUP1 REVERT JUMPDEST POP PUSH2 0x4C0 PUSH1 0x4 DUP1 CALLDATASIZE SUB DUP2 ADD SWAP1 PUSH2 0x4BB SWAP2 SWAP1 PUSH2 0x1355 JUMP JUMPDEST PUSH2 0xEF1 JUMP JUMPDEST PUSH1 0x40 MLOAD PUSH2 0x4CD SWAP2 SWAP1 PUSH2 0x1391 JUMP JUMPDEST PUSH1 0x40 MLOAD DUP1 SWAP2 SUB SWAP1 RETURN JUMPDEST CALLVALUE DUP1 ISZERO PUSH2 0x4E2 JUMPI PUSH1 0x0 DUP1 REVERT JUMPDEST POP PUSH2 0x4EB PUSH2 0xF09 JUMP JUMPDEST PUSH1 0x40 MLOAD PUSH2 0x4F8 SWAP2 SWAP1 PUSH2 0x1391 JUMP JUMPDEST PUSH1 0x40 MLOAD DUP1 SWAP2 SUB SWAP1 RETURN JUMPDEST CALLVALUE DUP1 ISZERO PUSH2 0x50D JUMPI PUSH1 0x0 DUP1 REVERT JUMPDEST POP PUSH2 0x528 PUSH1 0x4 DUP1 CALLDATASIZE SUB DUP2 ADD SWAP1 PUSH2 0x523 SWAP2 SWAP1 PUSH2 0x1355 JUMP JUMPDEST PUSH2 0xFB0 JUMP JUMPDEST PUSH1 0x40 MLOAD PUSH2 0x535 SWAP2 SWAP1 PUSH2 0x1391 JUMP JUMPDEST PUSH1 0x40 MLOAD DUP1 SWAP2 SUB SWAP1 RETURN JUMPDEST CALLVALUE DUP1 ISZERO PUSH2 0x54A JUMPI PUSH1 0x0 DUP1 REVERT JUMPDEST POP PUSH2 0x565 PUSH1 0x4 DUP1 CALLDATASIZE SUB DUP2 ADD SWAP1 PUSH2 0x560 SWAP2 SWAP1 PUSH2 0x1355 JUMP JUMPDEST PUSH2 0xFE6 JUMP JUMPDEST PUSH1 0x40 MLOAD PUSH2 0x572 SWAP2 SWAP1 PUSH2 0x1391 JUMP JUMPDEST PUSH1 0x40 MLOAD DUP1 SWAP2 SUB SWAP1 RETURN JUMPDEST CALLVALUE DUP1 ISZERO PUSH2 0x587 JUMPI PUSH1 0x0 DUP1 REVERT JUMPDEST POP PUSH2 0x5A2 PUSH1 0x4 DUP1 CALLDATASIZE SUB DUP2 ADD SWAP1 PUSH2 0x59D SWAP2 SWAP1 PUSH2 0x16B1 JUMP JUMPDEST PUSH2 0x100A JUMP JUMPDEST PUSH1 0x40 MLOAD PUSH2 0x5AF SWAP2 SWAP1 PUSH2 0x1547 JUMP JUMPDEST PUSH1 0x40 MLOAD DUP1 SWAP2 SUB SWAP1 RETURN JUMPDEST PUSH1 0x60 PUSH1 0x0 PUSH2 0x5C4 PUSH2 0xF09 JUMP JUMPDEST SWAP1 POP PUSH1 0x0 JUMPDEST PUSH1 0x6 DUP1 SLOAD SWAP1 POP DUP2 LT ISZERO PUSH2 0x6C9 JUMPI PUSH1 0x0 PUSH1 0x6 DUP3 DUP2 SLOAD DUP2 LT PUSH2 0x5EC JUMPI PUSH2 0x5EB PUSH2 0x16F1 JUMP JUMPDEST JUMPDEST SWAP1 PUSH1 0x0 MSTORE PUSH1 0x20 PUSH1 0x0 KECCAK256 ADD PUSH1 0x0 SWAP1 SLOAD SWAP1 PUSH2 0x100 EXP SWAP1 DIV PUSH20 0xFFFFFFFFFFFFFFFFFFFFFFFFFFFFFFFFFFFFFFFF AND SWAP1 POP PUSH3 0xF4240 PUSH1 0x2 PUSH1 0x0 DUP4 PUSH20 0xFFFFFFFFFFFFFFFFFFFFFFFFFFFFFFFFFFFFFFFF AND PUSH20 0xFFFFFFFFFFFFFFFFFFFFFFFFFFFFFFFFFFFFFFFF AND DUP2 MSTORE PUSH1 0x20 ADD SWAP1 DUP2 MSTORE PUSH1 0x20 ADD PUSH1 0x0 KECCAK256 SLOAD DUP5 PUSH2 0x668 SWAP2 SWAP1 PUSH2 0x174F JUMP JUMPDEST PUSH2 0x672 SWAP2 SWAP1 PUSH2 0x17C0 JUMP JUMPDEST PUSH1 0x8 PUSH1 0x0 DUP4 PUSH20 0xFFFFFFFFFFFFFFFFFFFFFFFFFFFFFFFFFFFFFFFF AND PUSH20 0xFFFFFFFFFFFFFFFFFFFFFFFFFFFFFFFFFFFFFFFF AND DUP2 MSTORE PUSH1 0x20 ADD SWAP1 DUP2 MSTORE PUSH1 0x20 ADD PUSH1 0x0 KECCAK256 DUP2 SWAP1 SSTORE POP POP DUP1 DUP1 PUSH2 0x6C1 SWAP1 PUSH2 0x17F1 JUMP JUMPDEST SWAP2 POP POP PUSH2 0x5C9 JUMP JUMPDEST POP DUP3 PUSH1 0x8 PUSH1 0x0 DUP7 PUSH20 0xFFFFFFFFFFFFFFFFFFFFFFFFFFFFFFFFFFFFFFFF AND PUSH20 0xFFFFFFFFFFFFFFFFFFFFFFFFFFFFFFFFFFFFFFFF AND DUP2 MSTORE PUSH1 0x20 ADD SWAP1 DUP2 MSTORE PUSH1 0x20 ADD PUSH1 0x0 KECCAK256 PUSH1 0x0 DUP3 DUP3 SLOAD PUSH2 0x719 SWAP2 SWAP1 PUSH2 0x1839 JUMP JUMPDEST SWAP3 POP POP DUP2 SWAP1 SSTORE POP DUP3 DUP2 PUSH2 0x72C SWAP2 SWAP1 PUSH2 0x1839 JUMP JUMPDEST SWAP1 POP PUSH1 0x0 DUP1 JUMPDEST PUSH1 0x6 DUP1 SLOAD SWAP1 POP DUP2 LT ISZERO PUSH2 0x7D3 JUMPI PUSH1 0x0 PUSH1 0x6 DUP3 DUP2 SLOAD DUP2 LT PUSH2 0x755 JUMPI PUSH2 0x754 PUSH2 0x16F1 JUMP JUMPDEST JUMPDEST SWAP1 PUSH1 0x0 MSTORE PUSH1 0x20 PUSH1 0x0 KECCAK256 ADD PUSH1 0x0 SWAP1 SLOAD SWAP1 PUSH2 0x100 EXP SWAP1 DIV PUSH20 0xFFFFFFFFFFFFFFFFFFFFFFFFFFFFFFFFFFFFFFFF AND SWAP1 POP DUP7 PUSH20 0xFFFFFFFFFFFFFFFFFFFFFFFFFFFFFFFFFFFFFFFF AND DUP2 PUSH20 0xFFFFFFFFFFFFFFFFFFFFFFFFFFFFFFFFFFFFFFFF AND SUB PUSH2 0x7BF JUMPI PUSH1 0x1 SWAP3 POP POP PUSH2 0x7D3 JUMP JUMPDEST POP DUP1 DUP1 PUSH2 0x7CB SWAP1 PUSH2 0x17F1 JUMP JUMPDEST SWAP2 POP POP PUSH2 0x732 JUMP JUMPDEST POP DUP1 PUSH2 0x83D JUMPI PUSH1 0x6 DUP6 SWAP1 DUP1 PUSH1 0x1 DUP2 SLOAD ADD DUP1 DUP3 SSTORE DUP1 SWAP2 POP POP PUSH1 0x1 SWAP1 SUB SWAP1 PUSH1 0x0 MSTORE PUSH1 0x20 PUSH1 0x0 KECCAK256 ADD PUSH1 0x0 SWAP1 SWAP2 SWAP1 SWAP2 SWAP1 SWAP2 PUSH2 0x100 EXP DUP2 SLOAD DUP2 PUSH20 0xFFFFFFFFFFFFFFFFFFFFFFFFFFFFFFFFFFFFFFFF MUL NOT AND SWAP1 DUP4 PUSH20 0xFFFFFFFFFFFFFFFFFFFFFFFFFFFFFFFFFFFFFFFF AND MUL OR SWAP1 SSTORE POP JUMPDEST PUSH2 0x846 DUP3 PUSH2 0x910 JUMP JUMPDEST DUP4 PUSH1 0x0 DUP1 DUP1 DUP2 MSTORE PUSH1 0x20 ADD SWAP1 DUP2 MSTORE PUSH1 0x20 ADD PUSH1 0x0 KECCAK256 PUSH1 0x0 DUP3 DUP3 SLOAD PUSH2 0x868 SWAP2 SWAP1 PUSH2 0x1839 JUMP JUMPDEST SWAP3 POP POP DUP2 SWAP1 SSTORE POP PUSH1 0x40 MLOAD DUP1 PUSH1 0x20 ADD PUSH1 0x40 MSTORE DUP1 PUSH1 0x0 DUP2 MSTORE POP SWAP3 POP POP POP SWAP3 SWAP2 POP POP JUMP JUMPDEST PUSH1 0x0 PUSH1 0xA DUP3 PUSH2 0x898 SWAP2 SWAP1 PUSH2 0x186D JUMP JUMPDEST PUSH1 0x64 PUSH2 0x8A4 SWAP2 SWAP1 PUSH2 0x174F JUMP JUMPDEST SWAP1 POP SWAP2 SWAP1 POP JUMP JUMPDEST PUSH1 0x7 DUP2 DUP2 SLOAD DUP2 LT PUSH2 0x8BB JUMPI PUSH1 0x0 DUP1 REVERT JUMPDEST SWAP1 PUSH1 0x0 MSTORE PUSH1 0x20 PUSH1 0x0 KECCAK256 ADD PUSH1 0x0 SWAP2 POP SWAP1 POP SLOAD DUP2 JUMP JUMPDEST PUSH1 0x8 PUSH1 0x20 MSTORE DUP1 PUSH1 0x0 MSTORE PUSH1 0x40 PUSH1 0x0 KECCAK256 PUSH1 0x0 SWAP2 POP SWAP1 POP SLOAD DUP2 JUMP JUMPDEST PUSH1 0x3 SLOAD DUP2 JUMP JUMPDEST PUSH1 0x0 DUP1 PUSH2 0x8F9 DUP5 PUSH2 0xFB0 JUMP JUMPDEST SWAP1 POP DUP1 DUP4 PUSH2 0x907 SWAP2 SWAP1 PUSH2 0x174F JUMP JUMPDEST SWAP2 POP POP SWAP3 SWAP2 POP POP JUMP JUMPDEST PUSH1 0x0 JUMPDEST PUSH1 0x6 DUP1 SLOAD SWAP1 POP DUP2 LT ISZERO PUSH2 0xA58 JUMPI PUSH1 0x0 PUSH1 0x6 DUP3 DUP2 SLOAD DUP2 LT PUSH2 0x936 JUMPI PUSH2 0x935 PUSH2 0x16F1 JUMP JUMPDEST JUMPDEST SWAP1 PUSH1 0x0 MSTORE PUSH1 0x20 PUSH1 0x0 KECCAK256 ADD PUSH1 0x0 SWAP1 SLOAD SWAP1 PUSH2 0x100 EXP SWAP1 DIV PUSH20 0xFFFFFFFFFFFFFFFFFFFFFFFFFFFFFFFFFFFFFFFF AND SWAP1 POP DUP3 PUSH1 0x8 PUSH1 0x0 DUP4 PUSH20 0xFFFFFFFFFFFFFFFFFFFFFFFFFFFFFFFFFFFFFFFF AND PUSH20 0xFFFFFFFFFFFFFFFFFFFFFFFFFFFFFFFFFFFFFFFF AND DUP2 MSTORE PUSH1 0x20 ADD SWAP1 DUP2 MSTORE PUSH1 0x20 ADD PUSH1 0x0 KECCAK256 SLOAD PUSH3 0xF4240 PUSH2 0x9B2 SWAP2 SWAP1 PUSH2 0x174F JUMP JUMPDEST PUSH2 0x9BC SWAP2 SWAP1 PUSH2 0x17C0 JUMP JUMPDEST PUSH1 0x2 PUSH1 0x0 DUP4 PUSH20 0xFFFFFFFFFFFFFFFFFFFFFFFFFFFFFFFFFFFFFFFF AND PUSH20 0xFFFFFFFFFFFFFFFFFFFFFFFFFFFFFFFFFFFFFFFF AND DUP2 MSTORE PUSH1 0x20 ADD SWAP1 DUP2 MSTORE PUSH1 0x20 ADD PUSH1 0x0 KECCAK256 DUP2 SWAP1 SSTORE POP PUSH1 0x0 PUSH1 0x8 PUSH1 0x0 DUP4 PUSH20 0xFFFFFFFFFFFFFFFFFFFFFFFFFFFFFFFFFFFFFFFF AND PUSH20 0xFFFFFFFFFFFFFFFFFFFFFFFFFFFFFFFFFFFFFFFF AND DUP2 MSTORE PUSH1 0x20 ADD SWAP1 DUP2 MSTORE PUSH1 0x20 ADD PUSH1 0x0 KECCAK256 DUP2 SWAP1 SSTORE POP POP DUP1 DUP1 PUSH2 0xA50 SWAP1 PUSH2 0x17F1 JUMP JUMPDEST SWAP2 POP POP PUSH2 0x913 JUMP JUMPDEST POP POP JUMP JUMPDEST PUSH1 0x60 PUSH1 0x7 PUSH1 0x0 PUSH2 0xA6C SWAP2 SWAP1 PUSH2 0x128F JUMP JUMPDEST PUSH1 0x7 PUSH1 0x0 SWAP1 DUP1 PUSH1 0x1 DUP2 SLOAD ADD DUP1 DUP3 SSTORE DUP1 SWAP2 POP POP PUSH1 0x1 SWAP1 SUB SWAP1 PUSH1 0x0 MSTORE PUSH1 0x20 PUSH1 0x0 KECCAK256 ADD PUSH1 0x0 SWAP1 SWAP2 SWAP1 SWAP2 SWAP1 SWAP2 POP SSTORE PUSH1 0x7 DUP1 SLOAD DUP1 PUSH1 0x20 MUL PUSH1 0x20 ADD PUSH1 0x40 MLOAD SWAP1 DUP2 ADD PUSH1 0x40 MSTORE DUP1 SWAP3 SWAP2 SWAP1 DUP2 DUP2 MSTORE PUSH1 0x20 ADD DUP3 DUP1 SLOAD DUP1 ISZERO PUSH2 0xAE2 JUMPI PUSH1 0x20 MUL DUP3 ADD SWAP2 SWAP1 PUSH1 0x0 MSTORE PUSH1 0x20 PUSH1 0x0 KECCAK256 SWAP1 JUMPDEST DUP2 SLOAD DUP2 MSTORE PUSH1 0x20 ADD SWAP1 PUSH1 0x1 ADD SWAP1 DUP1 DUP4 GT PUSH2 0xACE JUMPI JUMPDEST POP POP POP POP POP SWAP1 POP SWAP1 JUMP JUMPDEST PUSH1 0x0 DUP1 PUSH2 0xAF8 DUP5 PUSH2 0xFB0 JUMP JUMPDEST SWAP1 POP DUP1 DUP4 PUSH2 0xB06 SWAP2 SWAP1 PUSH2 0x174F JUMP JUMPDEST SWAP2 POP POP SWAP3 SWAP2 POP POP JUMP JUMPDEST PUSH1 0x2 PUSH1 0x20 MSTORE DUP1 PUSH1 0x0 MSTORE PUSH1 0x40 PUSH1 0x0 KECCAK256 PUSH1 0x0 SWAP2 POP SWAP1 POP SLOAD DUP2 JUMP JUMPDEST PUSH1 0x9 PUSH1 0x20 MSTORE DUP1 PUSH1 0x0 MSTORE PUSH1 0x40 PUSH1 0x0 KECCAK256 PUSH1 0x0 SWAP2 POP SWAP1 POP SLOAD DUP2 JUMP JUMPDEST PUSH1 0x60 PUSH2 0xB49 PUSH2 0xE00 JUMP JUMPDEST PUSH1 0x0 DUP1 JUMPDEST PUSH1 0x5 DUP1 SLOAD SWAP1 POP DUP2 LT ISZERO PUSH2 0xBC5 JUMPI PUSH1 0x0 PUSH1 0x5 DUP3 DUP2 SLOAD DUP2 LT PUSH2 0xB70 JUMPI PUSH2 0xB6F PUSH2 0x16F1 JUMP JUMPDEST JUMPDEST SWAP1 PUSH1 0x0 MSTORE PUSH1 0x20 PUSH1 0x0 KECCAK256 ADD SLOAD SWAP1 POP PUSH1 0x0 PUSH2 0xB88 DUP3 PUSH2 0x889 JUMP JUMPDEST SWAP1 POP DUP1 DUP5 PUSH2 0xB96 SWAP2 SWAP1 PUSH2 0x1839 JUMP JUMPDEST SWAP4 POP DUP1 PUSH1 0x9 PUSH1 0x0 DUP5 DUP2 MSTORE PUSH1 0x20 ADD SWAP1 DUP2 MSTORE PUSH1 0x20 ADD PUSH1 0x0 KECCAK256 DUP2 SWAP1 SSTORE POP POP POP DUP1 DUP1 PUSH2 0xBBD SWAP1 PUSH2 0x17F1 JUMP JUMPDEST SWAP2 POP POP PUSH2 0xB4D JUMP JUMPDEST POP PUSH1 0x0 JUMPDEST PUSH1 0x5 DUP1 SLOAD SWAP1 POP DUP2 LT ISZERO PUSH2 0xC51 JUMPI PUSH1 0x0 PUSH1 0x5 DUP3 DUP2 SLOAD DUP2 LT PUSH2 0xBEC JUMPI PUSH2 0xBEB PUSH2 0x16F1 JUMP JUMPDEST JUMPDEST SWAP1 PUSH1 0x0 MSTORE PUSH1 0x20 PUSH1 0x0 KECCAK256 ADD SLOAD SWAP1 POP PUSH1 0x0 PUSH2 0xC04 DUP3 PUSH2 0x889 JUMP JUMPDEST SWAP1 POP DUP4 PUSH8 0xDE0B6B3A7640000 DUP3 PUSH2 0xC1B SWAP2 SWAP1 PUSH2 0x174F JUMP JUMPDEST PUSH2 0xC25 SWAP2 SWAP1 PUSH2 0x17C0 JUMP JUMPDEST PUSH1 0x9 PUSH1 0x0 DUP5 DUP2 MSTORE PUSH1 0x20 ADD SWAP1 DUP2 MSTORE PUSH1 0x20 ADD PUSH1 0x0 KECCAK256 DUP2 SWAP1 SSTORE POP POP POP DUP1 DUP1 PUSH2 0xC49 SWAP1 PUSH2 0x17F1 JUMP JUMPDEST SWAP2 POP POP PUSH2 0xBC9 JUMP JUMPDEST POP PUSH1 0x0 JUMPDEST PUSH1 0x5 DUP1 SLOAD SWAP1 POP DUP2 LT ISZERO PUSH2 0xD8C JUMPI PUSH1 0x0 PUSH1 0x5 DUP3 DUP2 SLOAD DUP2 LT PUSH2 0xC78 JUMPI PUSH2 0xC77 PUSH2 0x16F1 JUMP JUMPDEST JUMPDEST SWAP1 PUSH1 0x0 MSTORE PUSH1 0x20 PUSH1 0x0 KECCAK256 ADD SLOAD SWAP1 POP PUSH1 0x0 DUP1 PUSH1 0x0 DUP4 DUP2 MSTORE PUSH1 0x20 ADD SWAP1 DUP2 MSTORE PUSH1 0x20 ADD PUSH1 0x0 KECCAK256 SLOAD SWAP1 POP PUSH1 0x0 PUSH1 0x9 PUSH1 0x0 DUP5 DUP2 MSTORE PUSH1 0x20 ADD SWAP1 DUP2 MSTORE PUSH1 0x20 ADD PUSH1 0x0 KECCAK256 SLOAD SWAP1 POP DUP1 DUP3 GT ISZERO PUSH2 0xD15 JUMPI PUSH1 0x0 DUP2 DUP4 PUSH2 0xCCA SWAP2 SWAP1 PUSH2 0x189E JUMP JUMPDEST SWAP1 POP PUSH2 0xCE9 DUP5 PUSH8 0xDE0B6B3A7640000 DUP4 PUSH2 0xCE4 SWAP2 SWAP1 PUSH2 0x17C0 JUMP JUMPDEST PUSH2 0xAEC JUMP JUMPDEST POP DUP1 PUSH1 0x0 DUP1 DUP7 DUP2 MSTORE PUSH1 0x20 ADD SWAP1 DUP2 MSTORE PUSH1 0x20 ADD PUSH1 0x0 KECCAK256 PUSH1 0x0 DUP3 DUP3 SLOAD PUSH2 0xD0C SWAP2 SWAP1 PUSH2 0x189E JUMP JUMPDEST SWAP3 POP POP DUP2 SWAP1 SSTORE POP POP JUMPDEST DUP1 DUP3 LT ISZERO PUSH2 0xD76 JUMPI PUSH1 0x0 DUP3 DUP3 PUSH2 0xD2B SWAP2 SWAP1 PUSH2 0x189E JUMP JUMPDEST SWAP1 POP PUSH2 0xD4A DUP5 PUSH8 0xDE0B6B3A7640000 DUP4 PUSH2 0xD45 SWAP2 SWAP1 PUSH2 0x17C0 JUMP JUMPDEST PUSH2 0x8ED JUMP JUMPDEST POP DUP1 PUSH1 0x0 DUP1 DUP7 DUP2 MSTORE PUSH1 0x20 ADD SWAP1 DUP2 MSTORE PUSH1 0x20 ADD PUSH1 0x0 KECCAK256 PUSH1 0x0 DUP3 DUP3 SLOAD PUSH2 0xD6D SWAP2 SWAP1 PUSH2 0x1839 JUMP JUMPDEST SWAP3 POP POP DUP2 SWAP1 SSTORE POP POP JUMPDEST POP POP POP DUP1 DUP1 PUSH2 0xD84 SWAP1 PUSH2 0x17F1 JUMP JUMPDEST SWAP2 POP POP PUSH2 0xC55 JUMP JUMPDEST POP PUSH1 0x40 MLOAD DUP1 PUSH1 0x20 ADD PUSH1 0x40 MSTORE DUP1 PUSH1 0x0 DUP2 MSTORE POP SWAP2 POP POP SWAP1 JUMP JUMPDEST PUSH1 0x4 SLOAD DUP2 JUMP JUMPDEST PUSH1 0x6 DUP2 DUP2 SLOAD DUP2 LT PUSH2 0xDB9 JUMPI PUSH1 0x0 DUP1 REVERT JUMPDEST SWAP1 PUSH1 0x0 MSTORE PUSH1 0x20 PUSH1 0x0 KECCAK256 ADD PUSH1 0x0 SWAP2 POP SLOAD SWAP1 PUSH2 0x100 EXP SWAP1 DIV PUSH20 0xFFFFFFFFFFFFFFFFFFFFFFFFFFFFFFFFFFFFFFFF AND DUP2 JUMP JUMPDEST PUSH1 0x0 PUSH1 0x20 MSTORE DUP1 PUSH1 0x0 MSTORE PUSH1 0x40 PUSH1 0x0 KECCAK256 PUSH1 0x0 SWAP2 POP SWAP1 POP SLOAD DUP2 JUMP JUMPDEST PUSH1 0x0 JUMPDEST PUSH1 0x5 DUP1 SLOAD SWAP1 POP DUP2 LT ISZERO PUSH2 0xE5A JUMPI PUSH1 0x0 PUSH1 0x1 PUSH1 0x0 PUSH1 0x5 DUP5 DUP2 SLOAD DUP2 LT PUSH2 0xE2A JUMPI PUSH2 0xE29 PUSH2 0x16F1 JUMP JUMPDEST JUMPDEST SWAP1 PUSH1 0x0 MSTORE PUSH1 0x20 PUSH1 0x0 KECCAK256 ADD SLOAD DUP2 MSTORE PUSH1 0x20 ADD SWAP1 DUP2 MSTORE PUSH1 0x20 ADD PUSH1 0x0 KECCAK256 DUP2 SWAP1 SSTORE POP DUP1 DUP1 PUSH2 0xE52 SWAP1 PUSH2 0x17F1 JUMP JUMPDEST SWAP2 POP POP PUSH2 0xE03 JUMP JUMPDEST POP PUSH1 0x5 PUSH1 0x0 PUSH2 0xE69 SWAP2 SWAP1 PUSH2 0x128F JUMP JUMPDEST PUSH2 0xE71 PUSH2 0xA5C JUMP JUMPDEST PUSH1 0x5 SWAP1 DUP1 MLOAD SWAP1 PUSH1 0x20 ADD SWAP1 PUSH2 0xE86 SWAP3 SWAP2 SWAP1 PUSH2 0x12B0 JUMP JUMPDEST POP PUSH1 0x0 JUMPDEST PUSH1 0x5 DUP1 SLOAD SWAP1 POP DUP2 LT ISZERO PUSH2 0xEEE JUMPI PUSH1 0x0 PUSH1 0x5 DUP3 DUP2 SLOAD DUP2 LT PUSH2 0xEAD JUMPI PUSH2 0xEAC PUSH2 0x16F1 JUMP JUMPDEST JUMPDEST SWAP1 PUSH1 0x0 MSTORE PUSH1 0x20 PUSH1 0x0 KECCAK256 ADD SLOAD SWAP1 POP PUSH2 0xEC3 DUP2 PUSH2 0xFB0 JUMP JUMPDEST PUSH1 0x1 PUSH1 0x0 DUP4 DUP2 MSTORE PUSH1 0x20 ADD SWAP1 DUP2 MSTORE PUSH1 0x20 ADD PUSH1 0x0 KECCAK256 DUP2 SWAP1 SSTORE POP POP DUP1 DUP1 PUSH2 0xEE6 SWAP1 PUSH2 0x17F1 JUMP JUMPDEST SWAP2 POP POP PUSH2 0xE8A JUMP JUMPDEST POP JUMP JUMPDEST PUSH1 0x1 PUSH1 0x20 MSTORE DUP1 PUSH1 0x0 MSTORE PUSH1 0x40 PUSH1 0x0 KECCAK256 PUSH1 0x0 SWAP2 POP SWAP1 POP SLOAD DUP2 JUMP JUMPDEST PUSH1 0x0 DUP1 PUSH1 0x0 SWAP1 POP PUSH1 0x0 JUMPDEST PUSH1 0x5 DUP1 SLOAD SWAP1 POP DUP2 LT ISZERO PUSH2 0xFA8 JUMPI PUSH1 0x0 PUSH1 0x5 DUP3 DUP2 SLOAD DUP2 LT PUSH2 0xF36 JUMPI PUSH2 0xF35 PUSH2 0x16F1 JUMP JUMPDEST JUMPDEST SWAP1 PUSH1 0x0 MSTORE PUSH1 0x20 PUSH1 0x0 KECCAK256 ADD SLOAD SWAP1 POP PUSH8 0xDE0B6B3A7640000 PUSH1 0x0 DUP1 DUP4 DUP2 MSTORE PUSH1 0x20 ADD SWAP1 DUP2 MSTORE PUSH1 0x20 ADD PUSH1 0x0 KECCAK256 SLOAD PUSH1 0x1 PUSH1 0x0 DUP5 DUP2 MSTORE PUSH1 0x20 ADD SWAP1 DUP2 MSTORE PUSH1 0x20 ADD PUSH1 0x0 KECCAK256 SLOAD PUSH2 0xF7D SWAP2 SWAP1 PUSH2 0x174F JUMP JUMPDEST PUSH2 0xF87 SWAP2 SWAP1 PUSH2 0x17C0 JUMP JUMPDEST DUP4 PUSH2 0xF92 SWAP2 SWAP1 PUSH2 0x1839 JUMP JUMPDEST SWAP3 POP POP DUP1 DUP1 PUSH2 0xFA0 SWAP1 PUSH2 0x17F1 JUMP JUMPDEST SWAP2 POP POP PUSH2 0xF13 JUMP JUMPDEST POP DUP1 SWAP2 POP POP SWAP1 JUMP JUMPDEST PUSH1 0x0 DUP1 DUP3 SUB PUSH2 0xFC4 JUMPI PUSH3 0xF4240 SWAP1 POP PUSH2 0xFE1 JUMP JUMPDEST PUSH1 0xA DUP3 PUSH2 0xFD1 SWAP2 SWAP1 PUSH2 0x186D JUMP JUMPDEST PUSH2 0x3E8 PUSH2 0xFDE SWAP2 SWAP1 PUSH2 0x174F JUMP JUMPDEST SWAP1 POP JUMPDEST SWAP2 SWAP1 POP JUMP JUMPDEST PUSH1 0x5 DUP2 DUP2 SLOAD DUP2 LT PUSH2 0xFF6 JUMPI PUSH1 0x0 DUP1 REVERT JUMPDEST SWAP1 PUSH1 0x0 MSTORE PUSH1 0x20 PUSH1 0x0 KECCAK256 ADD PUSH1 0x0 SWAP2 POP SWAP1 POP SLOAD DUP2 JUMP JUMPDEST PUSH1 0x60 PUSH1 0x0 PUSH2 0x1016 PUSH2 0xF09 JUMP JUMPDEST SWAP1 POP PUSH1 0x0 JUMPDEST PUSH1 0x6 DUP1 SLOAD SWAP1 POP DUP2 LT ISZERO PUSH2 0x111B JUMPI PUSH1 0x0 PUSH1 0x6 DUP3 DUP2 SLOAD DUP2 LT PUSH2 0x103E JUMPI PUSH2 0x103D PUSH2 0x16F1 JUMP JUMPDEST JUMPDEST SWAP1 PUSH1 0x0 MSTORE PUSH1 0x20 PUSH1 0x0 KECCAK256 ADD PUSH1 0x0 SWAP1 SLOAD SWAP1 PUSH2 0x100 EXP SWAP1 DIV PUSH20 0xFFFFFFFFFFFFFFFFFFFFFFFFFFFFFFFFFFFFFFFF AND SWAP1 POP PUSH3 0xF4240 PUSH1 0x2 PUSH1 0x0 DUP4 PUSH20 0xFFFFFFFFFFFFFFFFFFFFFFFFFFFFFFFFFFFFFFFF AND PUSH20 0xFFFFFFFFFFFFFFFFFFFFFFFFFFFFFFFFFFFFFFFF AND DUP2 MSTORE PUSH1 0x20 ADD SWAP1 DUP2 MSTORE PUSH1 0x20 ADD PUSH1 0x0 KECCAK256 SLOAD DUP5 PUSH2 0x10BA SWAP2 SWAP1 PUSH2 0x174F JUMP JUMPDEST PUSH2 0x10C4 SWAP2 SWAP1 PUSH2 0x17C0 JUMP JUMPDEST PUSH1 0x8 PUSH1 0x0 DUP4 PUSH20 0xFFFFFFFFFFFFFFFFFFFFFFFFFFFFFFFFFFFFFFFF AND PUSH20 0xFFFFFFFFFFFFFFFFFFFFFFFFFFFFFFFFFFFFFFFF AND DUP2 MSTORE PUSH1 0x20 ADD SWAP1 DUP2 MSTORE PUSH1 0x20 ADD PUSH1 0x0 KECCAK256 DUP2 SWAP1 SSTORE POP POP DUP1 DUP1 PUSH2 0x1113 SWAP1 PUSH2 0x17F1 JUMP JUMPDEST SWAP2 POP POP PUSH2 0x101B JUMP JUMPDEST POP PUSH1 0x0 PUSH1 0x2 PUSH1 0x0 DUP7 PUSH20 0xFFFFFFFFFFFFFFFFFFFFFFFFFFFFFFFFFFFFFFFF AND PUSH20 0xFFFFFFFFFFFFFFFFFFFFFFFFFFFFFFFFFFFFFFFF AND DUP2 MSTORE PUSH1 0x20 ADD SWAP1 DUP2 MSTORE PUSH1 0x20 ADD PUSH1 0x0 KECCAK256 SLOAD SWAP1 POP PUSH1 0x0 DUP5 PUSH3 0xF4240 PUSH2 0x1171 SWAP2 SWAP1 PUSH2 0x174F JUMP JUMPDEST DUP3 PUSH3 0xF4240 PUSH2 0x1180 SWAP2 SWAP1 PUSH2 0x174F JUMP JUMPDEST DUP5 PUSH2 0x118B SWAP2 SWAP1 PUSH2 0x174F JUMP JUMPDEST PUSH2 0x1195 SWAP2 SWAP1 PUSH2 0x174F JUMP JUMPDEST SWAP1 POP DUP1 PUSH1 0x8 PUSH1 0x0 DUP9 PUSH20 0xFFFFFFFFFFFFFFFFFFFFFFFFFFFFFFFFFFFFFFFF AND PUSH20 0xFFFFFFFFFFFFFFFFFFFFFFFFFFFFFFFFFFFFFFFF AND DUP2 MSTORE PUSH1 0x20 ADD SWAP1 DUP2 MSTORE PUSH1 0x20 ADD PUSH1 0x0 KECCAK256 PUSH1 0x0 DUP3 DUP3 SLOAD PUSH2 0x11E6 SWAP2 SWAP1 PUSH2 0x189E JUMP JUMPDEST SWAP3 POP POP DUP2 SWAP1 SSTORE POP DUP1 DUP4 PUSH2 0x11F9 SWAP2 SWAP1 PUSH2 0x189E JUMP JUMPDEST SWAP3 POP PUSH2 0x1204 DUP4 PUSH2 0x910 JUMP JUMPDEST DUP1 PUSH1 0x0 DUP1 DUP1 DUP2 MSTORE PUSH1 0x20 ADD SWAP1 DUP2 MSTORE PUSH1 0x20 ADD PUSH1 0x0 KECCAK256 PUSH1 0x0 DUP3 DUP3 SLOAD PUSH2 0x1226 SWAP2 SWAP1 PUSH2 0x189E JUMP JUMPDEST SWAP3 POP POP DUP2 SWAP1 SSTORE POP DUP6 PUSH20 0xFFFFFFFFFFFFFFFFFFFFFFFFFFFFFFFFFFFFFFFF AND PUSH2 0x8FC DUP3 SWAP1 DUP2 ISZERO MUL SWAP1 PUSH1 0x40 MLOAD PUSH1 0x0 PUSH1 0x40 MLOAD DUP1 DUP4 SUB DUP2 DUP6 DUP9 DUP9 CALL SWAP4 POP POP POP POP ISZERO DUP1 ISZERO PUSH2 0x1273 JUMPI RETURNDATASIZE PUSH1 0x0 DUP1 RETURNDATACOPY RETURNDATASIZE PUSH1 0x0 REVERT JUMPDEST POP PUSH1 0x40 MLOAD DUP1 PUSH1 0x20 ADD PUSH1 0x40 MSTORE DUP1 PUSH1 0x0 DUP2 MSTORE POP SWAP4 POP POP POP POP SWAP3 SWAP2 POP POP JUMP JUMPDEST POP DUP1 SLOAD PUSH1 0x0 DUP3 SSTORE SWAP1 PUSH1 0x0 MSTORE PUSH1 0x20 PUSH1 0x0 KECCAK256 SWAP1 DUP2 ADD SWAP1 PUSH2 0x12AD SWAP2 SWAP1 PUSH2 0x12FD JUMP JUMPDEST POP JUMP JUMPDEST DUP3 DUP1 SLOAD DUP3 DUP3 SSTORE SWAP1 PUSH1 0x0 MSTORE PUSH1 0x20 PUSH1 0x0 KECCAK256 SWAP1 DUP2 ADD SWAP3 DUP3 ISZERO PUSH2 0x12EC JUMPI SWAP2 PUSH1 0x20 MUL DUP3 ADD JUMPDEST DUP3 DUP2 GT ISZERO PUSH2 0x12EB JUMPI DUP3 MLOAD DUP3 SSTORE SWAP2 PUSH1 0x20 ADD SWAP2 SWAP1 PUSH1 0x1 ADD SWAP1 PUSH2 0x12D0 JUMP JUMPDEST JUMPDEST POP SWAP1 POP PUSH2 0x12F9 SWAP2 SWAP1 PUSH2 0x12FD JUMP JUMPDEST POP SWAP1 JUMP JUMPDEST JUMPDEST DUP1 DUP3 GT ISZERO PUSH2 0x1316 JUMPI PUSH1 0x0 DUP2 PUSH1 0x0 SWAP1 SSTORE POP PUSH1 0x1 ADD PUSH2 0x12FE JUMP JUMPDEST POP SWAP1 JUMP JUMPDEST PUSH1 0x0 DUP1 REVERT JUMPDEST PUSH1 0x0 DUP2 SWAP1 POP SWAP2 SWAP1 POP JUMP JUMPDEST PUSH2 0x1332 DUP2 PUSH2 0x131F JUMP JUMPDEST DUP2 EQ PUSH2 0x133D JUMPI PUSH1 0x0 DUP1 REVERT JUMPDEST POP JUMP JUMPDEST PUSH1 0x0 DUP2 CALLDATALOAD SWAP1 POP PUSH2 0x134F DUP2 PUSH2 0x1329 JUMP JUMPDEST SWAP3 SWAP2 POP POP JUMP JUMPDEST PUSH1 0x0 PUSH1 0x20 DUP3 DUP5 SUB SLT ISZERO PUSH2 0x136B JUMPI PUSH2 0x136A PUSH2 0x131A JUMP JUMPDEST JUMPDEST PUSH1 0x0 PUSH2 0x1379 DUP5 DUP3 DUP6 ADD PUSH2 0x1340 JUMP JUMPDEST SWAP2 POP POP SWAP3 SWAP2 POP POP JUMP JUMPDEST PUSH2 0x138B DUP2 PUSH2 0x131F JUMP JUMPDEST DUP3 MSTORE POP POP JUMP JUMPDEST PUSH1 0x0 PUSH1 0x20 DUP3 ADD SWAP1 POP PUSH2 0x13A6 PUSH1 0x0 DUP4 ADD DUP5 PUSH2 0x1382 JUMP JUMPDEST SWAP3 SWAP2 POP POP JUMP JUMPDEST PUSH1 0x0 PUSH20 0xFFFFFFFFFFFFFFFFFFFFFFFFFFFFFFFFFFFFFFFF DUP3 AND SWAP1 POP SWAP2 SWAP1 POP JUMP JUMPDEST PUSH1 0x0 PUSH2 0x13D7 DUP3 PUSH2 0x13AC JUMP JUMPDEST SWAP1 POP SWAP2 SWAP1 POP JUMP JUMPDEST PUSH2 0x13E7 DUP2 PUSH2 0x13CC JUMP JUMPDEST DUP2 EQ PUSH2 0x13F2 JUMPI PUSH1 0x0 DUP1 REVERT JUMPDEST POP JUMP JUMPDEST PUSH1 0x0 DUP2 CALLDATALOAD SWAP1 POP PUSH2 0x1404 DUP2 PUSH2 0x13DE JUMP JUMPDEST SWAP3 SWAP2 POP POP JUMP JUMPDEST PUSH1 0x0 PUSH1 0x20 DUP3 DUP5 SUB SLT ISZERO PUSH2 0x1420 JUMPI PUSH2 0x141F PUSH2 0x131A JUMP JUMPDEST JUMPDEST PUSH1 0x0 PUSH2 0x142E DUP5 DUP3 DUP6 ADD PUSH2 0x13F5 JUMP JUMPDEST SWAP2 POP POP SWAP3 SWAP2 POP POP JUMP JUMPDEST PUSH1 0x0 DUP1 PUSH1 0x40 DUP4 DUP6 SUB SLT ISZERO PUSH2 0x144E JUMPI PUSH2 0x144D PUSH2 0x131A JUMP JUMPDEST JUMPDEST PUSH1 0x0 PUSH2 0x145C DUP6 DUP3 DUP7 ADD PUSH2 0x1340 JUMP JUMPDEST SWAP3 POP POP PUSH1 0x20 PUSH2 0x146D DUP6 DUP3 DUP7 ADD PUSH2 0x1340 JUMP JUMPDEST SWAP2 POP POP SWAP3 POP SWAP3 SWAP1 POP JUMP JUMPDEST PUSH1 0x0 DUP1 PUSH1 0x40 DUP4 DUP6 SUB SLT ISZERO PUSH2 0x148E JUMPI PUSH2 0x148D PUSH2 0x131A JUMP JUMPDEST JUMPDEST PUSH1 0x0 PUSH2 0x149C DUP6 DUP3 DUP7 ADD PUSH2 0x13F5 JUMP JUMPDEST SWAP3 POP POP PUSH1 0x20 PUSH2 0x14AD DUP6 DUP3 DUP7 ADD PUSH2 0x1340 JUMP JUMPDEST SWAP2 POP POP SWAP3 POP SWAP3 SWAP1 POP JUMP JUMPDEST PUSH1 0x0 DUP2 MLOAD SWAP1 POP SWAP2 SWAP1 POP JUMP JUMPDEST PUSH1 0x0 DUP3 DUP3 MSTORE PUSH1 0x20 DUP3 ADD SWAP1 POP SWAP3 SWAP2 POP POP JUMP JUMPDEST PUSH1 0x0 JUMPDEST DUP4 DUP2 LT ISZERO PUSH2 0x14F1 JUMPI DUP1 DUP3 ADD MLOAD DUP2 DUP5 ADD MSTORE PUSH1 0x20 DUP2 ADD SWAP1 POP PUSH2 0x14D6 JUMP JUMPDEST PUSH1 0x0 DUP5 DUP5 ADD MSTORE POP POP POP POP JUMP JUMPDEST PUSH1 0x0 PUSH1 0x1F NOT PUSH1 0x1F DUP4 ADD AND SWAP1 POP SWAP2 SWAP1 POP JUMP JUMPDEST PUSH1 0x0 PUSH2 0x1519 DUP3 PUSH2 0x14B7 JUMP JUMPDEST PUSH2 0x1523 DUP2 DUP6 PUSH2 0x14C2 JUMP JUMPDEST SWAP4 POP PUSH2 0x1533 DUP2 DUP6 PUSH1 0x20 DUP7 ADD PUSH2 0x14D3 JUMP JUMPDEST PUSH2 0x153C DUP2 PUSH2 0x14FD JUMP JUMPDEST DUP5 ADD SWAP2 POP POP SWAP3 SWAP2 POP POP JUMP JUMPDEST PUSH1 0x0 PUSH1 0x20 DUP3 ADD SWAP1 POP DUP2 DUP2 SUB PUSH1 0x0 DUP4 ADD MSTORE PUSH2 0x1561 DUP2 DUP5 PUSH2 0x150E JUMP JUMPDEST SWAP1 POP SWAP3 SWAP2 POP POP JUMP JUMPDEST PUSH1 0x0 DUP2 MLOAD SWAP1 POP SWAP2 SWAP1 POP JUMP JUMPDEST PUSH1 0x0 DUP3 DUP3 MSTORE PUSH1 0x20 DUP3 ADD SWAP1 POP SWAP3 SWAP2 POP POP JUMP JUMPDEST PUSH1 0x0 DUP2 SWAP1 POP PUSH1 0x20 DUP3 ADD SWAP1 POP SWAP2 SWAP1 POP JUMP JUMPDEST PUSH2 0x159E DUP2 PUSH2 0x131F JUMP JUMPDEST DUP3 MSTORE POP POP JUMP JUMPDEST PUSH1 0x0 PUSH2 0x15B0 DUP4 DUP4 PUSH2 0x1595 JUMP JUMPDEST PUSH1 0x20 DUP4 ADD SWAP1 POP SWAP3 SWAP2 POP POP JUMP JUMPDEST PUSH1 0x0 PUSH1 0x20 DUP3 ADD SWAP1 POP SWAP2 SWAP1 POP JUMP JUMPDEST PUSH1 0x0 PUSH2 0x15D4 DUP3 PUSH2 0x1569 JUMP JUMPDEST PUSH2 0x15DE DUP2 DUP6 PUSH2 0x1574 JUMP JUMPDEST SWAP4 POP PUSH2 0x15E9 DUP4 PUSH2 0x1585 JUMP JUMPDEST DUP1 PUSH1 0x0 JUMPDEST DUP4 DUP2 LT ISZERO PUSH2 0x161A JUMPI DUP2 MLOAD PUSH2 0x1601 DUP9 DUP3 PUSH2 0x15A4 JUMP JUMPDEST SWAP8 POP PUSH2 0x160C DUP4 PUSH2 0x15BC JUMP JUMPDEST SWAP3 POP POP PUSH1 0x1 DUP2 ADD SWAP1 POP PUSH2 0x15ED JUMP JUMPDEST POP DUP6 SWAP4 POP POP POP POP SWAP3 SWAP2 POP POP JUMP JUMPDEST PUSH1 0x0 PUSH1 0x20 DUP3 ADD SWAP1 POP DUP2 DUP2 SUB PUSH1 0x0 DUP4 ADD MSTORE PUSH2 0x1641 DUP2 DUP5 PUSH2 0x15C9 JUMP JUMPDEST SWAP1 POP SWAP3 SWAP2 POP POP JUMP JUMPDEST PUSH2 0x1652 DUP2 PUSH2 0x13CC JUMP JUMPDEST DUP3 MSTORE POP POP JUMP JUMPDEST PUSH1 0x0 PUSH1 0x20 DUP3 ADD SWAP1 POP PUSH2 0x166D PUSH1 0x0 DUP4 ADD DUP5 PUSH2 0x1649 JUMP JUMPDEST SWAP3 SWAP2 POP POP JUMP JUMPDEST PUSH1 0x0 PUSH2 0x167E DUP3 PUSH2 0x13AC JUMP JUMPDEST SWAP1 POP SWAP2 SWAP1 POP JUMP JUMPDEST PUSH2 0x168E DUP2 PUSH2 0x1673 JUMP JUMPDEST DUP2 EQ PUSH2 0x1699 JUMPI PUSH1 0x0 DUP1 REVERT JUMPDEST POP JUMP JUMPDEST PUSH1 0x0 DUP2 CALLDATALOAD SWAP1 POP PUSH2 0x16AB DUP2 PUSH2 0x1685 JUMP JUMPDEST SWAP3 SWAP2 POP POP JUMP JUMPDEST PUSH1 0x0 DUP1 PUSH1 0x40 DUP4 DUP6 SUB SLT ISZERO PUSH2 0x16C8 JUMPI PUSH2 0x16C7 PUSH2 0x131A JUMP JUMPDEST JUMPDEST PUSH1 0x0 PUSH2 0x16D6 DUP6 DUP3 DUP7 ADD PUSH2 0x169C JUMP JUMPDEST SWAP3 POP POP PUSH1 0x20 PUSH2 0x16E7 DUP6 DUP3 DUP7 ADD PUSH2 0x1340 JUMP JUMPDEST SWAP2 POP POP SWAP3 POP SWAP3 SWAP1 POP JUMP JUMPDEST PUSH32 0x4E487B7100000000000000000000000000000000000000000000000000000000 PUSH1 0x0 MSTORE PUSH1 0x32 PUSH1 0x4 MSTORE PUSH1 0x24 PUSH1 0x0 REVERT JUMPDEST PUSH32 0x4E487B7100000000000000000000000000000000000000000000000000000000 PUSH1 0x0 MSTORE PUSH1 0x11 PUSH1 0x4 MSTORE PUSH1 0x24 PUSH1 0x0 REVERT JUMPDEST PUSH1 0x0 PUSH2 0x175A DUP3 PUSH2 0x131F JUMP JUMPDEST SWAP2 POP PUSH2 0x1765 DUP4 PUSH2 0x131F JUMP JUMPDEST SWAP3 POP DUP3 DUP3 MUL PUSH2 0x1773 DUP2 PUSH2 0x131F JUMP JUMPDEST SWAP2 POP DUP3 DUP3 DIV DUP5 EQ DUP4 ISZERO OR PUSH2 0x178A JUMPI PUSH2 0x1789 PUSH2 0x1720 JUMP JUMPDEST JUMPDEST POP SWAP3 SWAP2 POP POP JUMP JUMPDEST PUSH32 0x4E487B7100000000000000000000000000000000000000000000000000000000 PUSH1 0x0 MSTORE PUSH1 0x12 PUSH1 0x4 MSTORE PUSH1 0x24 PUSH1 0x0 REVERT JUMPDEST PUSH1 0x0 PUSH2 0x17CB DUP3 PUSH2 0x131F JUMP JUMPDEST SWAP2 POP PUSH2 0x17D6 DUP4 PUSH2 0x131F JUMP JUMPDEST SWAP3 POP DUP3 PUSH2 0x17E6 JUMPI PUSH2 0x17E5 PUSH2 0x1791 JUMP JUMPDEST JUMPDEST DUP3 DUP3 DIV SWAP1 POP SWAP3 SWAP2 POP POP JUMP JUMPDEST PUSH1 0x0 PUSH2 0x17FC DUP3 PUSH2 0x131F JUMP JUMPDEST SWAP2 POP PUSH32 0xFFFFFFFFFFFFFFFFFFFFFFFFFFFFFFFFFFFFFFFFFFFFFFFFFFFFFFFFFFFFFFFF DUP3 SUB PUSH2 0x182E JUMPI PUSH2 0x182D PUSH2 0x1720 JUMP JUMPDEST JUMPDEST PUSH1 0x1 DUP3 ADD SWAP1 POP SWAP2 SWAP1 POP JUMP JUMPDEST PUSH1 0x0 PUSH2 0x1844 DUP3 PUSH2 0x131F JUMP JUMPDEST SWAP2 POP PUSH2 0x184F DUP4 PUSH2 0x131F JUMP JUMPDEST SWAP3 POP DUP3 DUP3 ADD SWAP1 POP DUP1 DUP3 GT ISZERO PUSH2 0x1867 JUMPI PUSH2 0x1866 PUSH2 0x1720 JUMP JUMPDEST JUMPDEST SWAP3 SWAP2 POP POP JUMP JUMPDEST PUSH1 0x0 PUSH2 0x1878 DUP3 PUSH2 0x131F JUMP JUMPDEST SWAP2 POP PUSH2 0x1883 DUP4 PUSH2 0x131F JUMP JUMPDEST SWAP3 POP DUP3 PUSH2 0x1893 JUMPI PUSH2 0x1892 PUSH2 0x1791 JUMP JUMPDEST JUMPDEST DUP3 DUP3 MOD SWAP1 POP SWAP3 SWAP2 POP POP JUMP JUMPDEST PUSH1 0x0 PUSH2 0x18A9 DUP3 PUSH2 0x131F JUMP JUMPDEST SWAP2 POP PUSH2 0x18B4 DUP4 PUSH2 0x131F JUMP JUMPDEST SWAP3 POP DUP3 DUP3 SUB SWAP1 POP DUP2 DUP2 GT ISZERO PUSH2 0x18CC JUMPI PUSH2 0x18CB PUSH2 0x1720 JUMP JUMPDEST JUMPDEST SWAP3 SWAP2 POP POP JUMP INVALID LOG2 PUSH5 0x6970667358 0x22 SLT KECCAK256 0xC3 PUSH12 0xDA0ECE8A406DDEB78C70582E 0x49 0xFB DUP6 0xF9 PUSH11 0x2FCA182233041E2EF27F1D 0xCC SWAP15 PUSH5 0x736F6C6343 STOP ADDMOD GT STOP CALLER "},"methodIdentifiers":{"asset_ids(uint256)":"e852cbf3","buyAssetQuantity(uint256,uint256)":"31bccadd","getAssetAbsoluteWeight(uint256)":"0e8a242a","getAssets()":"67e4ac2c","getExistingFundsWei()":"ddf2afba","getPrice(uint256)":"e7572230","holdings(uint256)":"af503309","inputFunds(address,uint256)":"64220c97","last_holding_update_time()":"2b35e77a","min_holding_update_diff_duration()":"99d65d74","outputFunds(address,uint256)":"f039842f","prices(uint256)":"bc31c1c1","refreshAssets()":"b36fdf33","scratch_arr(uint256)":"21e2d94e","sellAssetQuantity(uint256,uint256)":"7148cbec","shareholder_to_share(address)":"7a968f98","shareholder_to_wei(address)":"29f85ab0","shareholders(uint256)":"ab377daa","target_holdings(uint256)":"7aefbd0b","updateHoldings()":"87002c59","updateShareHolderToShare(uint256)":"4b2305c5"}}}}}