{"contracts/IndexFund.sol":{"MockIndexFund":{"abi":[{"inputs":[{"internalType":"uint256","name":"_min_holding_update_diff_duration","type":"uint256"}],"stateMutability":"nonpayable","type":"constructor"},{"stateMutability":"payable","type":"fallback"},{"inputs":[{"internalType":"uint256","name":"","type":"uint256"}],"name":"asset_ids","outputs":[{"internalType":"uint256","name":"","type":"uint256"}],"stateMutability":"view","type":"function"},{"inputs":[{"internalType":"uint256","name":"asset_id","type":"uint256"},{"internalType":"uint256","name":"quantity","type":"uint256"}],"name":"buyAssetQuantity","outputs":[{"internalType":"uint256","name":"","type":"uint256"}],"stateMutability":"view","type":"function"},{"inputs":[{"internalType":"uint256","name":"","type":"uint256"}],"name":"debug_ary1","outputs":[{"internalType":"uint256","name":"","type":"uint256"}],"stateMutability":"view","type":"function"},{"inputs":[{"internalType":"uint256","name":"","type":"uint256"}],"name":"debug_ary2","outputs":[{"internalType":"uint256","name":"","type":"uint256"}],"stateMutability":"view","type":"function"},{"inputs":[],"name":"eth_mktcap","outputs":[{"internalType":"uint256","name":"","type":"uint256"}],"stateMutability":"view","type":"function"},{"inputs":[{"internalType":"uint256","name":"asset_id","type":"uint256"}],"name":"getAssetAbsoluteWeight","outputs":[{"internalType":"uint256","name":"","type":"uint256"}],"stateMutability":"view","type":"function"},{"inputs":[],"name":"getAssets","outputs":[{"internalType":"uint256[]","name":"","type":"uint256[]"}],"stateMutability":"nonpayable","type":"function"},{"inputs":[],"name":"getExistingFundsWei","outputs":[{"internalType":"uint256","name":"","type":"uint256"}],"stateMutability":"view","type":"function"},{"inputs":[],"name":"getHoldingDebugInfo","outputs":[{"internalType":"uint256[]","name":"","type":"uint256[]"},{"internalType":"uint256[]","name":"","type":"uint256[]"}],"stateMutability":"view","type":"function"},{"inputs":[{"internalType":"uint256","name":"asset_id","type":"uint256"}],"name":"getPrice","outputs":[{"internalType":"uint256","name":"","type":"uint256"}],"stateMutability":"view","type":"function"},{"inputs":[{"internalType":"uint256","name":"","type":"uint256"}],"name":"holdings","outputs":[{"internalType":"uint256","name":"","type":"uint256"}],"stateMutability":"view","type":"function"},{"inputs":[{"internalType":"address","name":"depositing_shareholder","type":"address"},{"internalType":"uint256","name":"deposited_wei","type":"uint256"}],"name":"inputFunds","outputs":[{"internalType":"string","name":"","type":"string"}],"stateMutability":"nonpayable","type":"function"},{"inputs":[],"name":"last_holding_update_time","outputs":[{"internalType":"uint256","name":"","type":"uint256"}],"stateMutability":"view","type":"function"},{"inputs":[],"name":"min_holding_update_diff_duration","outputs":[{"internalType":"uint256","name":"","type":"uint256"}],"stateMutability":"view","type":"function"},{"inputs":[{"internalType":"address payable","name":"withdrawing_shareholder","type":"address"},{"internalType":"uint256","name":"withdrawn_share_micro_units","type":"uint256"}],"name":"outputFunds","outputs":[{"internalType":"string","name":"","type":"string"}],"stateMutability":"nonpayable","type":"function"},{"inputs":[{"internalType":"uint256","name":"","type":"uint256"}],"name":"prices","outputs":[{"internalType":"uint256","name":"","type":"uint256"}],"stateMutability":"view","type":"function"},{"inputs":[],"name":"refreshAssets","outputs":[],"stateMutability":"nonpayable","type":"function"},{"inputs":[{"internalType":"uint256","name":"","type":"uint256"}],"name":"scratch_arr","outputs":[{"internalType":"uint256","name":"","type":"uint256"}],"stateMutability":"view","type":"function"},{"inputs":[{"internalType":"uint256","name":"asset_id","type":"uint256"},{"internalType":"uint256","name":"quantity","type":"uint256"}],"name":"sellAssetQuantity","outputs":[{"internalType":"uint256","name":"","type":"uint256"}],"stateMutability":"view","type":"function"},{"inputs":[{"internalType":"uint256","name":"_eth_mktcap","type":"uint256"}],"name":"setETHMktcap","outputs":[],"stateMutability":"nonpayable","type":"function"},{"inputs":[{"internalType":"uint256","name":"_wbtc_mktcap","type":"uint256"}],"name":"setWBTCMktCap","outputs":[],"stateMutability":"nonpayable","type":"function"},{"inputs":[{"internalType":"uint256","name":"_wbtc_price","type":"uint256"}],"name":"setWBTCPrice","outputs":[],"stateMutability":"nonpayable","type":"function"},{"inputs":[{"internalType":"address","name":"","type":"address"}],"name":"shareholder_to_share","outputs":[{"internalType":"uint256","name":"","type":"uint256"}],"stateMutability":"view","type":"function"},{"inputs":[{"internalType":"address","name":"","type":"address"}],"name":"shareholder_to_wei","outputs":[{"internalType":"uint256","name":"","type":"uint256"}],"stateMutability":"view","type":"function"},{"inputs":[{"internalType":"uint256","name":"","type":"uint256"}],"name":"shareholders","outputs":[{"internalType":"address","name":"","type":"address"}],"stateMutability":"view","type":"function"},{"inputs":[{"internalType":"uint256","name":"","type":"uint256"}],"name":"target_holdings","outputs":[{"internalType":"uint256","name":"","type":"uint256"}],"stateMutability":"view","type":"function"},{"inputs":[],"name":"updateHoldings","outputs":[{"internalType":"string","name":"","type":"string"}],"stateMutability":"nonpayable","type":"function"},{"inputs":[{"internalType":"uint256","name":"existing_funds_wei","type":"uint256"}],"name":"updateShareHolderToShare","outputs":[],"stateMutability":"nonpayable","type":"function"},{"inputs":[],"name":"wbtc_mktcap","outputs":[{"internalType":"uint256","name":"","type":"uint256"}],"stateMutability":"view","type":"function"},{"inputs":[],"name":"wbtc_price","outputs":[{"internalType":"uint256","name":"","type":"uint256"}],"stateMutability":"view","type":"function"},{"inputs":[],"name":"writeHoldingsDebugInfo","outputs":[],"stateMutability":"nonpayable","type":"function"},{"stateMutability":"payable","type":"receive"}],"evm":{"bytecode":{"linkReferences":{},"object":"60806040523480156200001157600080fd5b506040516200238e3803806200238e83398181016040528101906200003791906200037c565b80806004819055506200004f6200005760201b60201c565b5050620004dc565b60005b600580549050811015620000b85760006001600060058481548110620000855762000084620003ae565b5b90600052602060002001548152602001908152602001600020819055508080620000af906200040c565b9150506200005a565b5060056000620000c99190620002a8565b620000d96200016a60201b60201c565b60059080519060200190620000f0929190620002cb565b5060005b60058054905081101562000167576000600582815481106200011b576200011a620003ae565b5b9060005260206000200154905062000139816200022860201b60201c565b60016000838152602001908152602001600020819055505080806200015e906200040c565b915050620000f4565b50565b6060600760006200017c9190620002a8565b60076000908060018154018082558091505060019003906000526020600020016000909190919091505560076001908060018154018082558091505060019003906000526020600020016000909190919091505560078054806020026020016040519081016040528092919081815260200182805480156200021e57602002820191906000526020600020905b81548152602001906001019080831162000209575b5050505050905090565b60008082036200024357670de0b6b3a76400009050620002a3565b600182036200025757600c549050620002a3565b60016000116200029e576040517f08c379a00000000000000000000000000000000000000000000000000000000081526004016200029590620004ba565b60405180910390fd5b600090505b919050565b5080546000825590600052602060002090810190620002c891906200031d565b50565b8280548282559060005260206000209081019282156200030a579160200282015b8281111562000309578251825591602001919060010190620002ec565b5b5090506200031991906200031d565b5090565b5b80821115620003385760008160009055506001016200031e565b5090565b600080fd5b6000819050919050565b620003568162000341565b81146200036257600080fd5b50565b60008151905062000376816200034b565b92915050565b6000602082840312156200039557620003946200033c565b5b6000620003a58482850162000365565b91505092915050565b7f4e487b7100000000000000000000000000000000000000000000000000000000600052603260045260246000fd5b7f4e487b7100000000000000000000000000000000000000000000000000000000600052601160045260246000fd5b6000620004198262000341565b91507fffffffffffffffffffffffffffffffffffffffffffffffffffffffffffffffff82036200044e576200044d620003dd565b5b600182019050919050565b600082825260208201905092915050565b7f61737365745f696420697320696e76616c696400000000000000000000000000600082015250565b6000620004a260138362000459565b9150620004af826200046a565b602082019050919050565b60006020820190508181036000830152620004d58162000493565b9050919050565b611ea280620004ec6000396000f3fe6080604052600436106101dc5760003560e01c80637a968f9811610102578063af50330911610095578063e757223011610064578063e75722301461072b578063e852cbf314610768578063f039842f146107a5578063fa1ea211146107e2576101ed565b8063af5033091461066f578063b36fdf33146106ac578063bc31c1c1146106c3578063ddf2afba14610700576101ed565b806387f86d92116100d157806387f86d92146105b25780638a1558e1146105db57806399d65d7414610607578063ab377daa14610632576101ed565b80637a968f98146104e45780637aefbd0b1461052157806387002c591461055e578063875022d214610589576101ed565b80632b35e77a1161017a57806364220c971161014957806364220c971461040257806367e4ac2c1461043f578063706d8a371461046a5780637148cbec146104a7576101ed565b80632b35e77a1461035a57806331bccadd146103855780633acfcb86146103c25780634b2305c5146103d9576101ed565b80630e8a242a116101b65780630e8a242a14610278578063112d2ceb146102b557806321e2d94e146102e057806329f85ab01461031d576101ed565b806303630137146101f957806309b1f3da146102225780630d9054231461024d576101ed565b366101ed576101eb333461081f565b005b6101f7333461081f565b005b34801561020557600080fd5b50610220600480360381019061021b919061187d565b610af0565b005b34801561022e57600080fd5b50610237610afa565b60405161024491906118b9565b60405180910390f35b34801561025957600080fd5b50610262610b00565b60405161026f91906118b9565b60405180910390f35b34801561028457600080fd5b5061029f600480360381019061029a919061187d565b610b06565b6040516102ac91906118b9565b60405180910390f35b3480156102c157600080fd5b506102ca610b79565b6040516102d791906118b9565b60405180910390f35b3480156102ec57600080fd5b506103076004803603810190610302919061187d565b610b7f565b60405161031491906118b9565b60405180910390f35b34801561032957600080fd5b50610344600480360381019061033f9190611932565b610ba3565b60405161035191906118b9565b60405180910390f35b34801561036657600080fd5b5061036f610bbb565b60405161037c91906118b9565b60405180910390f35b34801561039157600080fd5b506103ac60048036038101906103a7919061195f565b610bc1565b6040516103b991906118b9565b60405180910390f35b3480156103ce57600080fd5b506103d7610be4565b005b3480156103e557600080fd5b5061040060048036038101906103fb919061187d565b610c98565b005b34801561040e57600080fd5b506104296004803603810190610424919061199f565b61081f565b6040516104369190611a6f565b60405180910390f35b34801561044b57600080fd5b50610454610de4565b6040516104619190611b4f565b60405180910390f35b34801561047657600080fd5b50610491600480360381019061048c919061187d565b610e9e565b60405161049e91906118b9565b60405180910390f35b3480156104b357600080fd5b506104ce60048036038101906104c9919061195f565b610ec2565b6040516104db91906118b9565b60405180910390f35b3480156104f057600080fd5b5061050b60048036038101906105069190611932565b610ee5565b60405161051891906118b9565b60405180910390f35b34801561052d57600080fd5b506105486004803603810190610543919061187d565b610efd565b60405161055591906118b9565b60405180910390f35b34801561056a57600080fd5b50610573610f15565b6040516105809190611a6f565b60405180910390f35b34801561059557600080fd5b506105b060048036038101906105ab919061187d565b61119d565b005b3480156105be57600080fd5b506105d960048036038101906105d4919061187d565b6111a7565b005b3480156105e757600080fd5b506105f06111b1565b6040516105fe929190611b71565b60405180910390f35b34801561061357600080fd5b5061061c611264565b60405161062991906118b9565b60405180910390f35b34801561063e57600080fd5b506106596004803603810190610654919061187d565b61126a565b6040516106669190611bb7565b60405180910390f35b34801561067b57600080fd5b506106966004803603810190610691919061187d565b6112a9565b6040516106a391906118b9565b60405180910390f35b3480156106b857600080fd5b506106c16112c1565b005b3480156106cf57600080fd5b506106ea60048036038101906106e5919061187d565b6113b2565b6040516106f791906118b9565b60405180910390f35b34801561070c57600080fd5b506107156113ca565b60405161072291906118b9565b60405180910390f35b34801561073757600080fd5b50610752600480360381019061074d919061187d565b611471565b60405161075f91906118b9565b60405180910390f35b34801561077457600080fd5b5061078f600480360381019061078a919061187d565b6114ea565b60405161079c91906118b9565b60405180910390f35b3480156107b157600080fd5b506107cc60048036038101906107c79190611c10565b61150e565b6040516107d99190611a6f565b60405180910390f35b3480156107ee57600080fd5b506108096004803603810190610804919061187d565b611793565b60405161081691906118b9565b60405180910390f35b6060600061082b6113ca565b905060005b6006805490508110156109305760006006828154811061085357610852611c50565b5b9060005260206000200160009054906101000a900473ffffffffffffffffffffffffffffffffffffffff169050620f4240600260008373ffffffffffffffffffffffffffffffffffffffff1673ffffffffffffffffffffffffffffffffffffffff16815260200190815260200160002054846108cf9190611cae565b6108d99190611d1f565b600860008373ffffffffffffffffffffffffffffffffffffffff1673ffffffffffffffffffffffffffffffffffffffff1681526020019081526020016000208190555050808061092890611d50565b915050610830565b5082600860008673ffffffffffffffffffffffffffffffffffffffff1673ffffffffffffffffffffffffffffffffffffffff16815260200190815260200160002060008282546109809190611d98565b9250508190555082816109939190611d98565b90506000805b600680549050811015610a3a576000600682815481106109bc576109bb611c50565b5b9060005260206000200160009054906101000a900473ffffffffffffffffffffffffffffffffffffffff1690508673ffffffffffffffffffffffffffffffffffffffff168173ffffffffffffffffffffffffffffffffffffffff1603610a26576001925050610a3a565b508080610a3290611d50565b915050610999565b5080610aa4576006859080600181540180825580915050600190039060005260206000200160009091909190916101000a81548173ffffffffffffffffffffffffffffffffffffffff021916908373ffffffffffffffffffffffffffffffffffffffff1602179055505b610aad82610c98565b836000808081526020019081526020016000206000828254610acf9190611d98565b92505081905550604051806020016040528060008152509250505092915050565b80600e8190555050565b600c5481565b600d5481565b6000808203610b1957600d549050610b74565b60018203610b2b57600e549050610b74565b6001600011610b6f576040517f08c379a0000000000000000000000000000000000000000000000000000000008152600401610b6690611e18565b60405180910390fd5b600090505b919050565b600e5481565b60078181548110610b8f57600080fd5b906000526020600020016000915090505481565b60086020528060005260406000206000915090505481565b60035481565b600080610bcd84611471565b90508083610bdb9190611cae565b91505092915050565b60005b600580549050811015610c9557600060058281548110610c0a57610c09611c50565b5b906000526020600020015490506000806000838152602001908152602001600020549050600a829080600181540180825580915050600190039060005260206000200160009091909190915055600b81908060018154018082558091505060019003906000526020600020016000909190919091505550508080610c8d90611d50565b915050610be7565b50565b60005b600680549050811015610de057600060068281548110610cbe57610cbd611c50565b5b9060005260206000200160009054906101000a900473ffffffffffffffffffffffffffffffffffffffff16905082600860008373ffffffffffffffffffffffffffffffffffffffff1673ffffffffffffffffffffffffffffffffffffffff16815260200190815260200160002054620f4240610d3a9190611cae565b610d449190611d1f565b600260008373ffffffffffffffffffffffffffffffffffffffff1673ffffffffffffffffffffffffffffffffffffffff168152602001908152602001600020819055506000600860008373ffffffffffffffffffffffffffffffffffffffff1673ffffffffffffffffffffffffffffffffffffffff16815260200190815260200160002081905550508080610dd890611d50565b915050610c9b565b5050565b606060076000610df491906117b7565b6007600090806001815401808255809150506001900390600052602060002001600090919091909150556007600190806001815401808255809150506001900390600052602060002001600090919091909150556007805480602002602001604051908101604052809291908181526020018280548015610e9457602002820191906000526020600020905b815481526020019060010190808311610e80575b5050505050905090565b600b8181548110610eae57600080fd5b906000526020600020016000915090505481565b600080610ece84611471565b90508083610edc9190611cae565b91505092915050565b60026020528060005260406000206000915090505481565b60096020528060005260406000206000915090505481565b6060610f1f6112c1565b6000610f296113ca565b90506000805b600580549050811015610f8f57600060058281548110610f5257610f51611c50565b5b906000526020600020015490506000610f6a82610b06565b90508084610f789190611d98565b935050508080610f8790611d50565b915050610f2f565b5060005b60058054905081101561104a57600060058281548110610fb657610fb5611c50565b5b906000526020600020015490506000610fce82610b06565b905060006001600084815260200190815260200160002054905080858388670de0b6b3a7640000610fff9190611cae565b6110099190611cae565b6110139190611d1f565b61101d9190611d1f565b6009600085815260200190815260200160002081905550505050808061104290611d50565b915050610f93565b5060005b6005805490508110156111855760006005828154811061107157611070611c50565b5b9060005260206000200154905060008060008381526020019081526020016000205490506000600960008481526020019081526020016000205490508082111561110e57600081836110c39190611e38565b90506110e284670de0b6b3a7640000836110dd9190611d1f565b610ec2565b508060008086815260200190815260200160002060008282546111059190611e38565b92505081905550505b8082101561116f57600082826111249190611e38565b905061114384670de0b6b3a76400008361113e9190611d1f565b610bc1565b508060008086815260200190815260200160002060008282546111669190611d98565b92505081905550505b505050808061117d90611d50565b91505061104e565b50604051806020016040528060008152509250505090565b80600d8190555050565b80600c8190555050565b606080600a600b8180548060200260200160405190810160405280929190818152602001828054801561120357602002820191906000526020600020905b8154815260200190600101908083116111ef575b505050505091508080548060200260200160405190810160405280929190818152602001828054801561125557602002820191906000526020600020905b815481526020019060010190808311611241575b50505050509050915091509091565b60045481565b6006818154811061127a57600080fd5b906000526020600020016000915054906101000a900473ffffffffffffffffffffffffffffffffffffffff1681565b60006020528060005260406000206000915090505481565b60005b60058054905081101561131b57600060016000600584815481106112eb576112ea611c50565b5b9060005260206000200154815260200190815260200160002081905550808061131390611d50565b9150506112c4565b506005600061132a91906117b7565b611332610de4565b600590805190602001906113479291906117d8565b5060005b6005805490508110156113af5760006005828154811061136e5761136d611c50565b5b9060005260206000200154905061138481611471565b60016000838152602001908152602001600020819055505080806113a790611d50565b91505061134b565b50565b60016020528060005260406000206000915090505481565b6000806000905060005b600580549050811015611469576000600582815481106113f7576113f6611c50565b5b90600052602060002001549050670de0b6b3a764000060008083815260200190815260200160002054600160008481526020019081526020016000205461143e9190611cae565b6114489190611d1f565b836114539190611d98565b925050808061146190611d50565b9150506113d4565b508091505090565b600080820361148a57670de0b6b3a764000090506114e5565b6001820361149c57600c5490506114e5565b60016000116114e0576040517f08c379a00000000000000000000000000000000000000000000000000000000081526004016114d790611e18565b60405180910390fd5b600090505b919050565b600581815481106114fa57600080fd5b906000526020600020016000915090505481565b6060600061151a6113ca565b905060005b60068054905081101561161f5760006006828154811061154257611541611c50565b5b9060005260206000200160009054906101000a900473ffffffffffffffffffffffffffffffffffffffff169050620f4240600260008373ffffffffffffffffffffffffffffffffffffffff1673ffffffffffffffffffffffffffffffffffffffff16815260200190815260200160002054846115be9190611cae565b6115c89190611d1f565b600860008373ffffffffffffffffffffffffffffffffffffffff1673ffffffffffffffffffffffffffffffffffffffff1681526020019081526020016000208190555050808061161790611d50565b91505061151f565b506000600260008673ffffffffffffffffffffffffffffffffffffffff1673ffffffffffffffffffffffffffffffffffffffff168152602001908152602001600020549050600084620f42406116759190611cae565b82620f42406116849190611cae565b8461168f9190611cae565b6116999190611cae565b905080600860008873ffffffffffffffffffffffffffffffffffffffff1673ffffffffffffffffffffffffffffffffffffffff16815260200190815260200160002060008282546116ea9190611e38565b9250508190555080836116fd9190611e38565b925061170883610c98565b80600080808152602001908152602001600020600082825461172a9190611e38565b925050819055508573ffffffffffffffffffffffffffffffffffffffff166108fc829081150290604051600060405180830381858888f19350505050158015611777573d6000803e3d6000fd5b5060405180602001604052806000815250935050505092915050565b600a81815481106117a357600080fd5b906000526020600020016000915090505481565b50805460008255906000526020600020908101906117d59190611825565b50565b828054828255906000526020600020908101928215611814579160200282015b828111156118135782518255916020019190600101906117f8565b5b5090506118219190611825565b5090565b5b8082111561183e576000816000905550600101611826565b5090565b600080fd5b6000819050919050565b61185a81611847565b811461186557600080fd5b50565b60008135905061187781611851565b92915050565b60006020828403121561189357611892611842565b5b60006118a184828501611868565b91505092915050565b6118b381611847565b82525050565b60006020820190506118ce60008301846118aa565b92915050565b600073ffffffffffffffffffffffffffffffffffffffff82169050919050565b60006118ff826118d4565b9050919050565b61190f816118f4565b811461191a57600080fd5b50565b60008135905061192c81611906565b92915050565b60006020828403121561194857611947611842565b5b60006119568482850161191d565b91505092915050565b6000806040838503121561197657611975611842565b5b600061198485828601611868565b925050602061199585828601611868565b9150509250929050565b600080604083850312156119b6576119b5611842565b5b60006119c48582860161191d565b92505060206119d585828601611868565b9150509250929050565b600081519050919050565b600082825260208201905092915050565b60005b83811015611a195780820151818401526020810190506119fe565b60008484015250505050565b6000601f19601f8301169050919050565b6000611a41826119df565b611a4b81856119ea565b9350611a5b8185602086016119fb565b611a6481611a25565b840191505092915050565b60006020820190508181036000830152611a898184611a36565b905092915050565b600081519050919050565b600082825260208201905092915050565b6000819050602082019050919050565b611ac681611847565b82525050565b6000611ad88383611abd565b60208301905092915050565b6000602082019050919050565b6000611afc82611a91565b611b068185611a9c565b9350611b1183611aad565b8060005b83811015611b42578151611b298882611acc565b9750611b3483611ae4565b925050600181019050611b15565b5085935050505092915050565b60006020820190508181036000830152611b698184611af1565b905092915050565b60006040820190508181036000830152611b8b8185611af1565b90508181036020830152611b9f8184611af1565b90509392505050565b611bb1816118f4565b82525050565b6000602082019050611bcc6000830184611ba8565b92915050565b6000611bdd826118d4565b9050919050565b611bed81611bd2565b8114611bf857600080fd5b50565b600081359050611c0a81611be4565b92915050565b60008060408385031215611c2757611c26611842565b5b6000611c3585828601611bfb565b9250506020611c4685828601611868565b9150509250929050565b7f4e487b7100000000000000000000000000000000000000000000000000000000600052603260045260246000fd5b7f4e487b7100000000000000000000000000000000000000000000000000000000600052601160045260246000fd5b6000611cb982611847565b9150611cc483611847565b9250828202611cd281611847565b91508282048414831517611ce957611ce8611c7f565b5b5092915050565b7f4e487b7100000000000000000000000000000000000000000000000000000000600052601260045260246000fd5b6000611d2a82611847565b9150611d3583611847565b925082611d4557611d44611cf0565b5b828204905092915050565b6000611d5b82611847565b91507fffffffffffffffffffffffffffffffffffffffffffffffffffffffffffffffff8203611d8d57611d8c611c7f565b5b600182019050919050565b6000611da382611847565b9150611dae83611847565b9250828201905080821115611dc657611dc5611c7f565b5b92915050565b7f61737365745f696420697320696e76616c696400000000000000000000000000600082015250565b6000611e026013836119ea565b9150611e0d82611dcc565b602082019050919050565b60006020820190508181036000830152611e3181611df5565b9050919050565b6000611e4382611847565b9150611e4e83611847565b9250828203905081811115611e6657611e65611c7f565b5b9291505056fea2646970667358221220f9099d7d6448529a7b7cc4fc2ed1babb6275210a1a4ff980432826f3f053b40464736f6c63430008110033","opcodes":"PUSH1 0x80 PUSH1 0x40 MSTORE CALLVALUE DUP1 ISZERO PUSH3 0x11 JUMPI PUSH1 0x0 DUP1 REVERT JUMPDEST POP PUSH1 0x40 MLOAD PUSH3 0x238E CODESIZE SUB DUP1 PUSH3 0x238E DUP4 CODECOPY DUP2 DUP2 ADD PUSH1 0x40 MSTORE DUP2 ADD SWAP1 PUSH3 0x37 SWAP2 SWAP1 PUSH3 0x37C JUMP JUMPDEST DUP1 DUP1 PUSH1 0x4 DUP2 SWAP1 SSTORE POP PUSH3 0x4F PUSH3 0x57 PUSH1 0x20 SHL PUSH1 0x20 SHR JUMP JUMPDEST POP POP PUSH3 0x4DC JUMP JUMPDEST PUSH1 0x0 JUMPDEST PUSH1 0x5 DUP1 SLOAD SWAP1 POP DUP2 LT ISZERO PUSH3 0xB8 JUMPI PUSH1 0x0 PUSH1 0x1 PUSH1 0x0 PUSH1 0x5 DUP5 DUP2 SLOAD DUP2 LT PUSH3 0x85 JUMPI PUSH3 0x84 PUSH3 0x3AE JUMP JUMPDEST JUMPDEST SWAP1 PUSH1 0x0 MSTORE PUSH1 0x20 PUSH1 0x0 KECCAK256 ADD SLOAD DUP2 MSTORE PUSH1 0x20 ADD SWAP1 DUP2 MSTORE PUSH1 0x20 ADD PUSH1 0x0 KECCAK256 DUP2 SWAP1 SSTORE POP DUP1 DUP1 PUSH3 0xAF SWAP1 PUSH3 0x40C JUMP JUMPDEST SWAP2 POP POP PUSH3 0x5A JUMP JUMPDEST POP PUSH1 0x5 PUSH1 0x0 PUSH3 0xC9 SWAP2 SWAP1 PUSH3 0x2A8 JUMP JUMPDEST PUSH3 0xD9 PUSH3 0x16A PUSH1 0x20 SHL PUSH1 0x20 SHR JUMP JUMPDEST PUSH1 0x5 SWAP1 DUP1 MLOAD SWAP1 PUSH1 0x20 ADD SWAP1 PUSH3 0xF0 SWAP3 SWAP2 SWAP1 PUSH3 0x2CB JUMP JUMPDEST POP PUSH1 0x0 JUMPDEST PUSH1 0x5 DUP1 SLOAD SWAP1 POP DUP2 LT ISZERO PUSH3 0x167 JUMPI PUSH1 0x0 PUSH1 0x5 DUP3 DUP2 SLOAD DUP2 LT PUSH3 0x11B JUMPI PUSH3 0x11A PUSH3 0x3AE JUMP JUMPDEST JUMPDEST SWAP1 PUSH1 0x0 MSTORE PUSH1 0x20 PUSH1 0x0 KECCAK256 ADD SLOAD SWAP1 POP PUSH3 0x139 DUP2 PUSH3 0x228 PUSH1 0x20 SHL PUSH1 0x20 SHR JUMP JUMPDEST PUSH1 0x1 PUSH1 0x0 DUP4 DUP2 MSTORE PUSH1 0x20 ADD SWAP1 DUP2 MSTORE PUSH1 0x20 ADD PUSH1 0x0 KECCAK256 DUP2 SWAP1 SSTORE POP POP DUP1 DUP1 PUSH3 0x15E SWAP1 PUSH3 0x40C JUMP JUMPDEST SWAP2 POP POP PUSH3 0xF4 JUMP JUMPDEST POP JUMP JUMPDEST PUSH1 0x60 PUSH1 0x7 PUSH1 0x0 PUSH3 0x17C SWAP2 SWAP1 PUSH3 0x2A8 JUMP JUMPDEST PUSH1 0x7 PUSH1 0x0 SWAP1 DUP1 PUSH1 0x1 DUP2 SLOAD ADD DUP1 DUP3 SSTORE DUP1 SWAP2 POP POP PUSH1 0x1 SWAP1 SUB SWAP1 PUSH1 0x0 MSTORE PUSH1 0x20 PUSH1 0x0 KECCAK256 ADD PUSH1 0x0 SWAP1 SWAP2 SWAP1 SWAP2 SWAP1 SWAP2 POP SSTORE PUSH1 0x7 PUSH1 0x1 SWAP1 DUP1 PUSH1 0x1 DUP2 SLOAD ADD DUP1 DUP3 SSTORE DUP1 SWAP2 POP POP PUSH1 0x1 SWAP1 SUB SWAP1 PUSH1 0x0 MSTORE PUSH1 0x20 PUSH1 0x0 KECCAK256 ADD PUSH1 0x0 SWAP1 SWAP2 SWAP1 SWAP2 SWAP1 SWAP2 POP SSTORE PUSH1 0x7 DUP1 SLOAD DUP1 PUSH1 0x20 MUL PUSH1 0x20 ADD PUSH1 0x40 MLOAD SWAP1 DUP2 ADD PUSH1 0x40 MSTORE DUP1 SWAP3 SWAP2 SWAP1 DUP2 DUP2 MSTORE PUSH1 0x20 ADD DUP3 DUP1 SLOAD DUP1 ISZERO PUSH3 0x21E JUMPI PUSH1 0x20 MUL DUP3 ADD SWAP2 SWAP1 PUSH1 0x0 MSTORE PUSH1 0x20 PUSH1 0x0 KECCAK256 SWAP1 JUMPDEST DUP2 SLOAD DUP2 MSTORE PUSH1 0x20 ADD SWAP1 PUSH1 0x1 ADD SWAP1 DUP1 DUP4 GT PUSH3 0x209 JUMPI JUMPDEST POP POP POP POP POP SWAP1 POP SWAP1 JUMP JUMPDEST PUSH1 0x0 DUP1 DUP3 SUB PUSH3 0x243 JUMPI PUSH8 0xDE0B6B3A7640000 SWAP1 POP PUSH3 0x2A3 JUMP JUMPDEST PUSH1 0x1 DUP3 SUB PUSH3 0x257 JUMPI PUSH1 0xC SLOAD SWAP1 POP PUSH3 0x2A3 JUMP JUMPDEST PUSH1 0x1 PUSH1 0x0 GT PUSH3 0x29E JUMPI PUSH1 0x40 MLOAD PUSH32 0x8C379A000000000000000000000000000000000000000000000000000000000 DUP2 MSTORE PUSH1 0x4 ADD PUSH3 0x295 SWAP1 PUSH3 0x4BA JUMP JUMPDEST PUSH1 0x40 MLOAD DUP1 SWAP2 SUB SWAP1 REVERT JUMPDEST PUSH1 0x0 SWAP1 POP JUMPDEST SWAP2 SWAP1 POP JUMP JUMPDEST POP DUP1 SLOAD PUSH1 0x0 DUP3 SSTORE SWAP1 PUSH1 0x0 MSTORE PUSH1 0x20 PUSH1 0x0 KECCAK256 SWAP1 DUP2 ADD SWAP1 PUSH3 0x2C8 SWAP2 SWAP1 PUSH3 0x31D JUMP JUMPDEST POP JUMP JUMPDEST DUP3 DUP1 SLOAD DUP3 DUP3 SSTORE SWAP1 PUSH1 0x0 MSTORE PUSH1 0x20 PUSH1 0x0 KECCAK256 SWAP1 DUP2 ADD SWAP3 DUP3 ISZERO PUSH3 0x30A JUMPI SWAP2 PUSH1 0x20 MUL DUP3 ADD JUMPDEST DUP3 DUP2 GT ISZERO PUSH3 0x309 JUMPI DUP3 MLOAD DUP3 SSTORE SWAP2 PUSH1 0x20 ADD SWAP2 SWAP1 PUSH1 0x1 ADD SWAP1 PUSH3 0x2EC JUMP JUMPDEST JUMPDEST POP SWAP1 POP PUSH3 0x319 SWAP2 SWAP1 PUSH3 0x31D JUMP JUMPDEST POP SWAP1 JUMP JUMPDEST JUMPDEST DUP1 DUP3 GT ISZERO PUSH3 0x338 JUMPI PUSH1 0x0 DUP2 PUSH1 0x0 SWAP1 SSTORE POP PUSH1 0x1 ADD PUSH3 0x31E JUMP JUMPDEST POP SWAP1 JUMP JUMPDEST PUSH1 0x0 DUP1 REVERT JUMPDEST PUSH1 0x0 DUP2 SWAP1 POP SWAP2 SWAP1 POP JUMP JUMPDEST PUSH3 0x356 DUP2 PUSH3 0x341 JUMP JUMPDEST DUP2 EQ PUSH3 0x362 JUMPI PUSH1 0x0 DUP1 REVERT JUMPDEST POP JUMP JUMPDEST PUSH1 0x0 DUP2 MLOAD SWAP1 POP PUSH3 0x376 DUP2 PUSH3 0x34B JUMP JUMPDEST SWAP3 SWAP2 POP POP JUMP JUMPDEST PUSH1 0x0 PUSH1 0x20 DUP3 DUP5 SUB SLT ISZERO PUSH3 0x395 JUMPI PUSH3 0x394 PUSH3 0x33C JUMP JUMPDEST JUMPDEST PUSH1 0x0 PUSH3 0x3A5 DUP5 DUP3 DUP6 ADD PUSH3 0x365 JUMP JUMPDEST SWAP2 POP POP SWAP3 SWAP2 POP POP JUMP JUMPDEST PUSH32 0x4E487B7100000000000000000000000000000000000000000000000000000000 PUSH1 0x0 MSTORE PUSH1 0x32 PUSH1 0x4 MSTORE PUSH1 0x24 PUSH1 0x0 REVERT JUMPDEST PUSH32 0x4E487B7100000000000000000000000000000000000000000000000000000000 PUSH1 0x0 MSTORE PUSH1 0x11 PUSH1 0x4 MSTORE PUSH1 0x24 PUSH1 0x0 REVERT JUMPDEST PUSH1 0x0 PUSH3 0x419 DUP3 PUSH3 0x341 JUMP JUMPDEST SWAP2 POP PUSH32 0xFFFFFFFFFFFFFFFFFFFFFFFFFFFFFFFFFFFFFFFFFFFFFFFFFFFFFFFFFFFFFFFF DUP3 SUB PUSH3 0x44E JUMPI PUSH3 0x44D PUSH3 0x3DD JUMP JUMPDEST JUMPDEST PUSH1 0x1 DUP3 ADD SWAP1 POP SWAP2 SWAP1 POP JUMP JUMPDEST PUSH1 0x0 DUP3 DUP3 MSTORE PUSH1 0x20 DUP3 ADD SWAP1 POP SWAP3 SWAP2 POP POP JUMP JUMPDEST PUSH32 0x61737365745F696420697320696E76616C696400000000000000000000000000 PUSH1 0x0 DUP3 ADD MSTORE POP JUMP JUMPDEST PUSH1 0x0 PUSH3 0x4A2 PUSH1 0x13 DUP4 PUSH3 0x459 JUMP JUMPDEST SWAP2 POP PUSH3 0x4AF DUP3 PUSH3 0x46A JUMP JUMPDEST PUSH1 0x20 DUP3 ADD SWAP1 POP SWAP2 SWAP1 POP JUMP JUMPDEST PUSH1 0x0 PUSH1 0x20 DUP3 ADD SWAP1 POP DUP2 DUP2 SUB PUSH1 0x0 DUP4 ADD MSTORE PUSH3 0x4D5 DUP2 PUSH3 0x493 JUMP JUMPDEST SWAP1 POP SWAP2 SWAP1 POP JUMP JUMPDEST PUSH2 0x1EA2 DUP1 PUSH3 0x4EC PUSH1 0x0 CODECOPY PUSH1 0x0 RETURN INVALID PUSH1 0x80 PUSH1 0x40 MSTORE PUSH1 0x4 CALLDATASIZE LT PUSH2 0x1DC JUMPI PUSH1 0x0 CALLDATALOAD PUSH1 0xE0 SHR DUP1 PUSH4 0x7A968F98 GT PUSH2 0x102 JUMPI DUP1 PUSH4 0xAF503309 GT PUSH2 0x95 JUMPI DUP1 PUSH4 0xE7572230 GT PUSH2 0x64 JUMPI DUP1 PUSH4 0xE7572230 EQ PUSH2 0x72B JUMPI DUP1 PUSH4 0xE852CBF3 EQ PUSH2 0x768 JUMPI DUP1 PUSH4 0xF039842F EQ PUSH2 0x7A5 JUMPI DUP1 PUSH4 0xFA1EA211 EQ PUSH2 0x7E2 JUMPI PUSH2 0x1ED JUMP JUMPDEST DUP1 PUSH4 0xAF503309 EQ PUSH2 0x66F JUMPI DUP1 PUSH4 0xB36FDF33 EQ PUSH2 0x6AC JUMPI DUP1 PUSH4 0xBC31C1C1 EQ PUSH2 0x6C3 JUMPI DUP1 PUSH4 0xDDF2AFBA EQ PUSH2 0x700 JUMPI PUSH2 0x1ED JUMP JUMPDEST DUP1 PUSH4 0x87F86D92 GT PUSH2 0xD1 JUMPI DUP1 PUSH4 0x87F86D92 EQ PUSH2 0x5B2 JUMPI DUP1 PUSH4 0x8A1558E1 EQ PUSH2 0x5DB JUMPI DUP1 PUSH4 0x99D65D74 EQ PUSH2 0x607 JUMPI DUP1 PUSH4 0xAB377DAA EQ PUSH2 0x632 JUMPI PUSH2 0x1ED JUMP JUMPDEST DUP1 PUSH4 0x7A968F98 EQ PUSH2 0x4E4 JUMPI DUP1 PUSH4 0x7AEFBD0B EQ PUSH2 0x521 JUMPI DUP1 PUSH4 0x87002C59 EQ PUSH2 0x55E JUMPI DUP1 PUSH4 0x875022D2 EQ PUSH2 0x589 JUMPI PUSH2 0x1ED JUMP JUMPDEST DUP1 PUSH4 0x2B35E77A GT PUSH2 0x17A JUMPI DUP1 PUSH4 0x64220C97 GT PUSH2 0x149 JUMPI DUP1 PUSH4 0x64220C97 EQ PUSH2 0x402 JUMPI DUP1 PUSH4 0x67E4AC2C EQ PUSH2 0x43F JUMPI DUP1 PUSH4 0x706D8A37 EQ PUSH2 0x46A JUMPI DUP1 PUSH4 0x7148CBEC EQ PUSH2 0x4A7 JUMPI PUSH2 0x1ED JUMP JUMPDEST DUP1 PUSH4 0x2B35E77A EQ PUSH2 0x35A JUMPI DUP1 PUSH4 0x31BCCADD EQ PUSH2 0x385 JUMPI DUP1 PUSH4 0x3ACFCB86 EQ PUSH2 0x3C2 JUMPI DUP1 PUSH4 0x4B2305C5 EQ PUSH2 0x3D9 JUMPI PUSH2 0x1ED JUMP JUMPDEST DUP1 PUSH4 0xE8A242A GT PUSH2 0x1B6 JUMPI DUP1 PUSH4 0xE8A242A EQ PUSH2 0x278 JUMPI DUP1 PUSH4 0x112D2CEB EQ PUSH2 0x2B5 JUMPI DUP1 PUSH4 0x21E2D94E EQ PUSH2 0x2E0 JUMPI DUP1 PUSH4 0x29F85AB0 EQ PUSH2 0x31D JUMPI PUSH2 0x1ED JUMP JUMPDEST DUP1 PUSH4 0x3630137 EQ PUSH2 0x1F9 JUMPI DUP1 PUSH4 0x9B1F3DA EQ PUSH2 0x222 JUMPI DUP1 PUSH4 0xD905423 EQ PUSH2 0x24D JUMPI PUSH2 0x1ED JUMP JUMPDEST CALLDATASIZE PUSH2 0x1ED JUMPI PUSH2 0x1EB CALLER CALLVALUE PUSH2 0x81F JUMP JUMPDEST STOP JUMPDEST PUSH2 0x1F7 CALLER CALLVALUE PUSH2 0x81F JUMP JUMPDEST STOP JUMPDEST CALLVALUE DUP1 ISZERO PUSH2 0x205 JUMPI PUSH1 0x0 DUP1 REVERT JUMPDEST POP PUSH2 0x220 PUSH1 0x4 DUP1 CALLDATASIZE SUB DUP2 ADD SWAP1 PUSH2 0x21B SWAP2 SWAP1 PUSH2 0x187D JUMP JUMPDEST PUSH2 0xAF0 JUMP JUMPDEST STOP JUMPDEST CALLVALUE DUP1 ISZERO PUSH2 0x22E JUMPI PUSH1 0x0 DUP1 REVERT JUMPDEST POP PUSH2 0x237 PUSH2 0xAFA JUMP JUMPDEST PUSH1 0x40 MLOAD PUSH2 0x244 SWAP2 SWAP1 PUSH2 0x18B9 JUMP JUMPDEST PUSH1 0x40 MLOAD DUP1 SWAP2 SUB SWAP1 RETURN JUMPDEST CALLVALUE DUP1 ISZERO PUSH2 0x259 JUMPI PUSH1 0x0 DUP1 REVERT JUMPDEST POP PUSH2 0x262 PUSH2 0xB00 JUMP JUMPDEST PUSH1 0x40 MLOAD PUSH2 0x26F SWAP2 SWAP1 PUSH2 0x18B9 JUMP JUMPDEST PUSH1 0x40 MLOAD DUP1 SWAP2 SUB SWAP1 RETURN JUMPDEST CALLVALUE DUP1 ISZERO PUSH2 0x284 JUMPI PUSH1 0x0 DUP1 REVERT JUMPDEST POP PUSH2 0x29F PUSH1 0x4 DUP1 CALLDATASIZE SUB DUP2 ADD SWAP1 PUSH2 0x29A SWAP2 SWAP1 PUSH2 0x187D JUMP JUMPDEST PUSH2 0xB06 JUMP JUMPDEST PUSH1 0x40 MLOAD PUSH2 0x2AC SWAP2 SWAP1 PUSH2 0x18B9 JUMP JUMPDEST PUSH1 0x40 MLOAD DUP1 SWAP2 SUB SWAP1 RETURN JUMPDEST CALLVALUE DUP1 ISZERO PUSH2 0x2C1 JUMPI PUSH1 0x0 DUP1 REVERT JUMPDEST POP PUSH2 0x2CA PUSH2 0xB79 JUMP JUMPDEST PUSH1 0x40 MLOAD PUSH2 0x2D7 SWAP2 SWAP1 PUSH2 0x18B9 JUMP JUMPDEST PUSH1 0x40 MLOAD DUP1 SWAP2 SUB SWAP1 RETURN JUMPDEST CALLVALUE DUP1 ISZERO PUSH2 0x2EC JUMPI PUSH1 0x0 DUP1 REVERT JUMPDEST POP PUSH2 0x307 PUSH1 0x4 DUP1 CALLDATASIZE SUB DUP2 ADD SWAP1 PUSH2 0x302 SWAP2 SWAP1 PUSH2 0x187D JUMP JUMPDEST PUSH2 0xB7F JUMP JUMPDEST PUSH1 0x40 MLOAD PUSH2 0x314 SWAP2 SWAP1 PUSH2 0x18B9 JUMP JUMPDEST PUSH1 0x40 MLOAD DUP1 SWAP2 SUB SWAP1 RETURN JUMPDEST CALLVALUE DUP1 ISZERO PUSH2 0x329 JUMPI PUSH1 0x0 DUP1 REVERT JUMPDEST POP PUSH2 0x344 PUSH1 0x4 DUP1 CALLDATASIZE SUB DUP2 ADD SWAP1 PUSH2 0x33F SWAP2 SWAP1 PUSH2 0x1932 JUMP JUMPDEST PUSH2 0xBA3 JUMP JUMPDEST PUSH1 0x40 MLOAD PUSH2 0x351 SWAP2 SWAP1 PUSH2 0x18B9 JUMP JUMPDEST PUSH1 0x40 MLOAD DUP1 SWAP2 SUB SWAP1 RETURN JUMPDEST CALLVALUE DUP1 ISZERO PUSH2 0x366 JUMPI PUSH1 0x0 DUP1 REVERT JUMPDEST POP PUSH2 0x36F PUSH2 0xBBB JUMP JUMPDEST PUSH1 0x40 MLOAD PUSH2 0x37C SWAP2 SWAP1 PUSH2 0x18B9 JUMP JUMPDEST PUSH1 0x40 MLOAD DUP1 SWAP2 SUB SWAP1 RETURN JUMPDEST CALLVALUE DUP1 ISZERO PUSH2 0x391 JUMPI PUSH1 0x0 DUP1 REVERT JUMPDEST POP PUSH2 0x3AC PUSH1 0x4 DUP1 CALLDATASIZE SUB DUP2 ADD SWAP1 PUSH2 0x3A7 SWAP2 SWAP1 PUSH2 0x195F JUMP JUMPDEST PUSH2 0xBC1 JUMP JUMPDEST PUSH1 0x40 MLOAD PUSH2 0x3B9 SWAP2 SWAP1 PUSH2 0x18B9 JUMP JUMPDEST PUSH1 0x40 MLOAD DUP1 SWAP2 SUB SWAP1 RETURN JUMPDEST CALLVALUE DUP1 ISZERO PUSH2 0x3CE JUMPI PUSH1 0x0 DUP1 REVERT JUMPDEST POP PUSH2 0x3D7 PUSH2 0xBE4 JUMP JUMPDEST STOP JUMPDEST CALLVALUE DUP1 ISZERO PUSH2 0x3E5 JUMPI PUSH1 0x0 DUP1 REVERT JUMPDEST POP PUSH2 0x400 PUSH1 0x4 DUP1 CALLDATASIZE SUB DUP2 ADD SWAP1 PUSH2 0x3FB SWAP2 SWAP1 PUSH2 0x187D JUMP JUMPDEST PUSH2 0xC98 JUMP JUMPDEST STOP JUMPDEST CALLVALUE DUP1 ISZERO PUSH2 0x40E JUMPI PUSH1 0x0 DUP1 REVERT JUMPDEST POP PUSH2 0x429 PUSH1 0x4 DUP1 CALLDATASIZE SUB DUP2 ADD SWAP1 PUSH2 0x424 SWAP2 SWAP1 PUSH2 0x199F JUMP JUMPDEST PUSH2 0x81F JUMP JUMPDEST PUSH1 0x40 MLOAD PUSH2 0x436 SWAP2 SWAP1 PUSH2 0x1A6F JUMP JUMPDEST PUSH1 0x40 MLOAD DUP1 SWAP2 SUB SWAP1 RETURN JUMPDEST CALLVALUE DUP1 ISZERO PUSH2 0x44B JUMPI PUSH1 0x0 DUP1 REVERT JUMPDEST POP PUSH2 0x454 PUSH2 0xDE4 JUMP JUMPDEST PUSH1 0x40 MLOAD PUSH2 0x461 SWAP2 SWAP1 PUSH2 0x1B4F JUMP JUMPDEST PUSH1 0x40 MLOAD DUP1 SWAP2 SUB SWAP1 RETURN JUMPDEST CALLVALUE DUP1 ISZERO PUSH2 0x476 JUMPI PUSH1 0x0 DUP1 REVERT JUMPDEST POP PUSH2 0x491 PUSH1 0x4 DUP1 CALLDATASIZE SUB DUP2 ADD SWAP1 PUSH2 0x48C SWAP2 SWAP1 PUSH2 0x187D JUMP JUMPDEST PUSH2 0xE9E JUMP JUMPDEST PUSH1 0x40 MLOAD PUSH2 0x49E SWAP2 SWAP1 PUSH2 0x18B9 JUMP JUMPDEST PUSH1 0x40 MLOAD DUP1 SWAP2 SUB SWAP1 RETURN JUMPDEST CALLVALUE DUP1 ISZERO PUSH2 0x4B3 JUMPI PUSH1 0x0 DUP1 REVERT JUMPDEST POP PUSH2 0x4CE PUSH1 0x4 DUP1 CALLDATASIZE SUB DUP2 ADD SWAP1 PUSH2 0x4C9 SWAP2 SWAP1 PUSH2 0x195F JUMP JUMPDEST PUSH2 0xEC2 JUMP JUMPDEST PUSH1 0x40 MLOAD PUSH2 0x4DB SWAP2 SWAP1 PUSH2 0x18B9 JUMP JUMPDEST PUSH1 0x40 MLOAD DUP1 SWAP2 SUB SWAP1 RETURN JUMPDEST CALLVALUE DUP1 ISZERO PUSH2 0x4F0 JUMPI PUSH1 0x0 DUP1 REVERT JUMPDEST POP PUSH2 0x50B PUSH1 0x4 DUP1 CALLDATASIZE SUB DUP2 ADD SWAP1 PUSH2 0x506 SWAP2 SWAP1 PUSH2 0x1932 JUMP JUMPDEST PUSH2 0xEE5 JUMP JUMPDEST PUSH1 0x40 MLOAD PUSH2 0x518 SWAP2 SWAP1 PUSH2 0x18B9 JUMP JUMPDEST PUSH1 0x40 MLOAD DUP1 SWAP2 SUB SWAP1 RETURN JUMPDEST CALLVALUE DUP1 ISZERO PUSH2 0x52D JUMPI PUSH1 0x0 DUP1 REVERT JUMPDEST POP PUSH2 0x548 PUSH1 0x4 DUP1 CALLDATASIZE SUB DUP2 ADD SWAP1 PUSH2 0x543 SWAP2 SWAP1 PUSH2 0x187D JUMP JUMPDEST PUSH2 0xEFD JUMP JUMPDEST PUSH1 0x40 MLOAD PUSH2 0x555 SWAP2 SWAP1 PUSH2 0x18B9 JUMP JUMPDEST PUSH1 0x40 MLOAD DUP1 SWAP2 SUB SWAP1 RETURN JUMPDEST CALLVALUE DUP1 ISZERO PUSH2 0x56A JUMPI PUSH1 0x0 DUP1 REVERT JUMPDEST POP PUSH2 0x573 PUSH2 0xF15 JUMP JUMPDEST PUSH1 0x40 MLOAD PUSH2 0x580 SWAP2 SWAP1 PUSH2 0x1A6F JUMP JUMPDEST PUSH1 0x40 MLOAD DUP1 SWAP2 SUB SWAP1 RETURN JUMPDEST CALLVALUE DUP1 ISZERO PUSH2 0x595 JUMPI PUSH1 0x0 DUP1 REVERT JUMPDEST POP PUSH2 0x5B0 PUSH1 0x4 DUP1 CALLDATASIZE SUB DUP2 ADD SWAP1 PUSH2 0x5AB SWAP2 SWAP1 PUSH2 0x187D JUMP JUMPDEST PUSH2 0x119D JUMP JUMPDEST STOP JUMPDEST CALLVALUE DUP1 ISZERO PUSH2 0x5BE JUMPI PUSH1 0x0 DUP1 REVERT JUMPDEST POP PUSH2 0x5D9 PUSH1 0x4 DUP1 CALLDATASIZE SUB DUP2 ADD SWAP1 PUSH2 0x5D4 SWAP2 SWAP1 PUSH2 0x187D JUMP JUMPDEST PUSH2 0x11A7 JUMP JUMPDEST STOP JUMPDEST CALLVALUE DUP1 ISZERO PUSH2 0x5E7 JUMPI PUSH1 0x0 DUP1 REVERT JUMPDEST POP PUSH2 0x5F0 PUSH2 0x11B1 JUMP JUMPDEST PUSH1 0x40 MLOAD PUSH2 0x5FE SWAP3 SWAP2 SWAP1 PUSH2 0x1B71 JUMP JUMPDEST PUSH1 0x40 MLOAD DUP1 SWAP2 SUB SWAP1 RETURN JUMPDEST CALLVALUE DUP1 ISZERO PUSH2 0x613 JUMPI PUSH1 0x0 DUP1 REVERT JUMPDEST POP PUSH2 0x61C PUSH2 0x1264 JUMP JUMPDEST PUSH1 0x40 MLOAD PUSH2 0x629 SWAP2 SWAP1 PUSH2 0x18B9 JUMP JUMPDEST PUSH1 0x40 MLOAD DUP1 SWAP2 SUB SWAP1 RETURN JUMPDEST CALLVALUE DUP1 ISZERO PUSH2 0x63E JUMPI PUSH1 0x0 DUP1 REVERT JUMPDEST POP PUSH2 0x659 PUSH1 0x4 DUP1 CALLDATASIZE SUB DUP2 ADD SWAP1 PUSH2 0x654 SWAP2 SWAP1 PUSH2 0x187D JUMP JUMPDEST PUSH2 0x126A JUMP JUMPDEST PUSH1 0x40 MLOAD PUSH2 0x666 SWAP2 SWAP1 PUSH2 0x1BB7 JUMP JUMPDEST PUSH1 0x40 MLOAD DUP1 SWAP2 SUB SWAP1 RETURN JUMPDEST CALLVALUE DUP1 ISZERO PUSH2 0x67B JUMPI PUSH1 0x0 DUP1 REVERT JUMPDEST POP PUSH2 0x696 PUSH1 0x4 DUP1 CALLDATASIZE SUB DUP2 ADD SWAP1 PUSH2 0x691 SWAP2 SWAP1 PUSH2 0x187D JUMP JUMPDEST PUSH2 0x12A9 JUMP JUMPDEST PUSH1 0x40 MLOAD PUSH2 0x6A3 SWAP2 SWAP1 PUSH2 0x18B9 JUMP JUMPDEST PUSH1 0x40 MLOAD DUP1 SWAP2 SUB SWAP1 RETURN JUMPDEST CALLVALUE DUP1 ISZERO PUSH2 0x6B8 JUMPI PUSH1 0x0 DUP1 REVERT JUMPDEST POP PUSH2 0x6C1 PUSH2 0x12C1 JUMP JUMPDEST STOP JUMPDEST CALLVALUE DUP1 ISZERO PUSH2 0x6CF JUMPI PUSH1 0x0 DUP1 REVERT JUMPDEST POP PUSH2 0x6EA PUSH1 0x4 DUP1 CALLDATASIZE SUB DUP2 ADD SWAP1 PUSH2 0x6E5 SWAP2 SWAP1 PUSH2 0x187D JUMP JUMPDEST PUSH2 0x13B2 JUMP JUMPDEST PUSH1 0x40 MLOAD PUSH2 0x6F7 SWAP2 SWAP1 PUSH2 0x18B9 JUMP JUMPDEST PUSH1 0x40 MLOAD DUP1 SWAP2 SUB SWAP1 RETURN JUMPDEST CALLVALUE DUP1 ISZERO PUSH2 0x70C JUMPI PUSH1 0x0 DUP1 REVERT JUMPDEST POP PUSH2 0x715 PUSH2 0x13CA JUMP JUMPDEST PUSH1 0x40 MLOAD PUSH2 0x722 SWAP2 SWAP1 PUSH2 0x18B9 JUMP JUMPDEST PUSH1 0x40 MLOAD DUP1 SWAP2 SUB SWAP1 RETURN JUMPDEST CALLVALUE DUP1 ISZERO PUSH2 0x737 JUMPI PUSH1 0x0 DUP1 REVERT JUMPDEST POP PUSH2 0x752 PUSH1 0x4 DUP1 CALLDATASIZE SUB DUP2 ADD SWAP1 PUSH2 0x74D SWAP2 SWAP1 PUSH2 0x187D JUMP JUMPDEST PUSH2 0x1471 JUMP JUMPDEST PUSH1 0x40 MLOAD PUSH2 0x75F SWAP2 SWAP1 PUSH2 0x18B9 JUMP JUMPDEST PUSH1 0x40 MLOAD DUP1 SWAP2 SUB SWAP1 RETURN JUMPDEST CALLVALUE DUP1 ISZERO PUSH2 0x774 JUMPI PUSH1 0x0 DUP1 REVERT JUMPDEST POP PUSH2 0x78F PUSH1 0x4 DUP1 CALLDATASIZE SUB DUP2 ADD SWAP1 PUSH2 0x78A SWAP2 SWAP1 PUSH2 0x187D JUMP JUMPDEST PUSH2 0x14EA JUMP JUMPDEST PUSH1 0x40 MLOAD PUSH2 0x79C SWAP2 SWAP1 PUSH2 0x18B9 JUMP JUMPDEST PUSH1 0x40 MLOAD DUP1 SWAP2 SUB SWAP1 RETURN JUMPDEST CALLVALUE DUP1 ISZERO PUSH2 0x7B1 JUMPI PUSH1 0x0 DUP1 REVERT JUMPDEST POP PUSH2 0x7CC PUSH1 0x4 DUP1 CALLDATASIZE SUB DUP2 ADD SWAP1 PUSH2 0x7C7 SWAP2 SWAP1 PUSH2 0x1C10 JUMP JUMPDEST PUSH2 0x150E JUMP JUMPDEST PUSH1 0x40 MLOAD PUSH2 0x7D9 SWAP2 SWAP1 PUSH2 0x1A6F JUMP JUMPDEST PUSH1 0x40 MLOAD DUP1 SWAP2 SUB SWAP1 RETURN JUMPDEST CALLVALUE DUP1 ISZERO PUSH2 0x7EE JUMPI PUSH1 0x0 DUP1 REVERT JUMPDEST POP PUSH2 0x809 PUSH1 0x4 DUP1 CALLDATASIZE SUB DUP2 ADD SWAP1 PUSH2 0x804 SWAP2 SWAP1 PUSH2 0x187D JUMP JUMPDEST PUSH2 0x1793 JUMP JUMPDEST PUSH1 0x40 MLOAD PUSH2 0x816 SWAP2 SWAP1 PUSH2 0x18B9 JUMP JUMPDEST PUSH1 0x40 MLOAD DUP1 SWAP2 SUB SWAP1 RETURN JUMPDEST PUSH1 0x60 PUSH1 0x0 PUSH2 0x82B PUSH2 0x13CA JUMP JUMPDEST SWAP1 POP PUSH1 0x0 JUMPDEST PUSH1 0x6 DUP1 SLOAD SWAP1 POP DUP2 LT ISZERO PUSH2 0x930 JUMPI PUSH1 0x0 PUSH1 0x6 DUP3 DUP2 SLOAD DUP2 LT PUSH2 0x853 JUMPI PUSH2 0x852 PUSH2 0x1C50 JUMP JUMPDEST JUMPDEST SWAP1 PUSH1 0x0 MSTORE PUSH1 0x20 PUSH1 0x0 KECCAK256 ADD PUSH1 0x0 SWAP1 SLOAD SWAP1 PUSH2 0x100 EXP SWAP1 DIV PUSH20 0xFFFFFFFFFFFFFFFFFFFFFFFFFFFFFFFFFFFFFFFF AND SWAP1 POP PUSH3 0xF4240 PUSH1 0x2 PUSH1 0x0 DUP4 PUSH20 0xFFFFFFFFFFFFFFFFFFFFFFFFFFFFFFFFFFFFFFFF AND PUSH20 0xFFFFFFFFFFFFFFFFFFFFFFFFFFFFFFFFFFFFFFFF AND DUP2 MSTORE PUSH1 0x20 ADD SWAP1 DUP2 MSTORE PUSH1 0x20 ADD PUSH1 0x0 KECCAK256 SLOAD DUP5 PUSH2 0x8CF SWAP2 SWAP1 PUSH2 0x1CAE JUMP JUMPDEST PUSH2 0x8D9 SWAP2 SWAP1 PUSH2 0x1D1F JUMP JUMPDEST PUSH1 0x8 PUSH1 0x0 DUP4 PUSH20 0xFFFFFFFFFFFFFFFFFFFFFFFFFFFFFFFFFFFFFFFF AND PUSH20 0xFFFFFFFFFFFFFFFFFFFFFFFFFFFFFFFFFFFFFFFF AND DUP2 MSTORE PUSH1 0x20 ADD SWAP1 DUP2 MSTORE PUSH1 0x20 ADD PUSH1 0x0 KECCAK256 DUP2 SWAP1 SSTORE POP POP DUP1 DUP1 PUSH2 0x928 SWAP1 PUSH2 0x1D50 JUMP JUMPDEST SWAP2 POP POP PUSH2 0x830 JUMP JUMPDEST POP DUP3 PUSH1 0x8 PUSH1 0x0 DUP7 PUSH20 0xFFFFFFFFFFFFFFFFFFFFFFFFFFFFFFFFFFFFFFFF AND PUSH20 0xFFFFFFFFFFFFFFFFFFFFFFFFFFFFFFFFFFFFFFFF AND DUP2 MSTORE PUSH1 0x20 ADD SWAP1 DUP2 MSTORE PUSH1 0x20 ADD PUSH1 0x0 KECCAK256 PUSH1 0x0 DUP3 DUP3 SLOAD PUSH2 0x980 SWAP2 SWAP1 PUSH2 0x1D98 JUMP JUMPDEST SWAP3 POP POP DUP2 SWAP1 SSTORE POP DUP3 DUP2 PUSH2 0x993 SWAP2 SWAP1 PUSH2 0x1D98 JUMP JUMPDEST SWAP1 POP PUSH1 0x0 DUP1 JUMPDEST PUSH1 0x6 DUP1 SLOAD SWAP1 POP DUP2 LT ISZERO PUSH2 0xA3A JUMPI PUSH1 0x0 PUSH1 0x6 DUP3 DUP2 SLOAD DUP2 LT PUSH2 0x9BC JUMPI PUSH2 0x9BB PUSH2 0x1C50 JUMP JUMPDEST JUMPDEST SWAP1 PUSH1 0x0 MSTORE PUSH1 0x20 PUSH1 0x0 KECCAK256 ADD PUSH1 0x0 SWAP1 SLOAD SWAP1 PUSH2 0x100 EXP SWAP1 DIV PUSH20 0xFFFFFFFFFFFFFFFFFFFFFFFFFFFFFFFFFFFFFFFF AND SWAP1 POP DUP7 PUSH20 0xFFFFFFFFFFFFFFFFFFFFFFFFFFFFFFFFFFFFFFFF AND DUP2 PUSH20 0xFFFFFFFFFFFFFFFFFFFFFFFFFFFFFFFFFFFFFFFF AND SUB PUSH2 0xA26 JUMPI PUSH1 0x1 SWAP3 POP POP PUSH2 0xA3A JUMP JUMPDEST POP DUP1 DUP1 PUSH2 0xA32 SWAP1 PUSH2 0x1D50 JUMP JUMPDEST SWAP2 POP POP PUSH2 0x999 JUMP JUMPDEST POP DUP1 PUSH2 0xAA4 JUMPI PUSH1 0x6 DUP6 SWAP1 DUP1 PUSH1 0x1 DUP2 SLOAD ADD DUP1 DUP3 SSTORE DUP1 SWAP2 POP POP PUSH1 0x1 SWAP1 SUB SWAP1 PUSH1 0x0 MSTORE PUSH1 0x20 PUSH1 0x0 KECCAK256 ADD PUSH1 0x0 SWAP1 SWAP2 SWAP1 SWAP2 SWAP1 SWAP2 PUSH2 0x100 EXP DUP2 SLOAD DUP2 PUSH20 0xFFFFFFFFFFFFFFFFFFFFFFFFFFFFFFFFFFFFFFFF MUL NOT AND SWAP1 DUP4 PUSH20 0xFFFFFFFFFFFFFFFFFFFFFFFFFFFFFFFFFFFFFFFF AND MUL OR SWAP1 SSTORE POP JUMPDEST PUSH2 0xAAD DUP3 PUSH2 0xC98 JUMP JUMPDEST DUP4 PUSH1 0x0 DUP1 DUP1 DUP2 MSTORE PUSH1 0x20 ADD SWAP1 DUP2 MSTORE PUSH1 0x20 ADD PUSH1 0x0 KECCAK256 PUSH1 0x0 DUP3 DUP3 SLOAD PUSH2 0xACF SWAP2 SWAP1 PUSH2 0x1D98 JUMP JUMPDEST SWAP3 POP POP DUP2 SWAP1 SSTORE POP PUSH1 0x40 MLOAD DUP1 PUSH1 0x20 ADD PUSH1 0x40 MSTORE DUP1 PUSH1 0x0 DUP2 MSTORE POP SWAP3 POP POP POP SWAP3 SWAP2 POP POP JUMP JUMPDEST DUP1 PUSH1 0xE DUP2 SWAP1 SSTORE POP POP JUMP JUMPDEST PUSH1 0xC SLOAD DUP2 JUMP JUMPDEST PUSH1 0xD SLOAD DUP2 JUMP JUMPDEST PUSH1 0x0 DUP1 DUP3 SUB PUSH2 0xB19 JUMPI PUSH1 0xD SLOAD SWAP1 POP PUSH2 0xB74 JUMP JUMPDEST PUSH1 0x1 DUP3 SUB PUSH2 0xB2B JUMPI PUSH1 0xE SLOAD SWAP1 POP PUSH2 0xB74 JUMP JUMPDEST PUSH1 0x1 PUSH1 0x0 GT PUSH2 0xB6F JUMPI PUSH1 0x40 MLOAD PUSH32 0x8C379A000000000000000000000000000000000000000000000000000000000 DUP2 MSTORE PUSH1 0x4 ADD PUSH2 0xB66 SWAP1 PUSH2 0x1E18 JUMP JUMPDEST PUSH1 0x40 MLOAD DUP1 SWAP2 SUB SWAP1 REVERT JUMPDEST PUSH1 0x0 SWAP1 POP JUMPDEST SWAP2 SWAP1 POP JUMP JUMPDEST PUSH1 0xE SLOAD DUP2 JUMP JUMPDEST PUSH1 0x7 DUP2 DUP2 SLOAD DUP2 LT PUSH2 0xB8F JUMPI PUSH1 0x0 DUP1 REVERT JUMPDEST SWAP1 PUSH1 0x0 MSTORE PUSH1 0x20 PUSH1 0x0 KECCAK256 ADD PUSH1 0x0 SWAP2 POP SWAP1 POP SLOAD DUP2 JUMP JUMPDEST PUSH1 0x8 PUSH1 0x20 MSTORE DUP1 PUSH1 0x0 MSTORE PUSH1 0x40 PUSH1 0x0 KECCAK256 PUSH1 0x0 SWAP2 POP SWAP1 POP SLOAD DUP2 JUMP JUMPDEST PUSH1 0x3 SLOAD DUP2 JUMP JUMPDEST PUSH1 0x0 DUP1 PUSH2 0xBCD DUP5 PUSH2 0x1471 JUMP JUMPDEST SWAP1 POP DUP1 DUP4 PUSH2 0xBDB SWAP2 SWAP1 PUSH2 0x1CAE JUMP JUMPDEST SWAP2 POP POP SWAP3 SWAP2 POP POP JUMP JUMPDEST PUSH1 0x0 JUMPDEST PUSH1 0x5 DUP1 SLOAD SWAP1 POP DUP2 LT ISZERO PUSH2 0xC95 JUMPI PUSH1 0x0 PUSH1 0x5 DUP3 DUP2 SLOAD DUP2 LT PUSH2 0xC0A JUMPI PUSH2 0xC09 PUSH2 0x1C50 JUMP JUMPDEST JUMPDEST SWAP1 PUSH1 0x0 MSTORE PUSH1 0x20 PUSH1 0x0 KECCAK256 ADD SLOAD SWAP1 POP PUSH1 0x0 DUP1 PUSH1 0x0 DUP4 DUP2 MSTORE PUSH1 0x20 ADD SWAP1 DUP2 MSTORE PUSH1 0x20 ADD PUSH1 0x0 KECCAK256 SLOAD SWAP1 POP PUSH1 0xA DUP3 SWAP1 DUP1 PUSH1 0x1 DUP2 SLOAD ADD DUP1 DUP3 SSTORE DUP1 SWAP2 POP POP PUSH1 0x1 SWAP1 SUB SWAP1 PUSH1 0x0 MSTORE PUSH1 0x20 PUSH1 0x0 KECCAK256 ADD PUSH1 0x0 SWAP1 SWAP2 SWAP1 SWAP2 SWAP1 SWAP2 POP SSTORE PUSH1 0xB DUP2 SWAP1 DUP1 PUSH1 0x1 DUP2 SLOAD ADD DUP1 DUP3 SSTORE DUP1 SWAP2 POP POP PUSH1 0x1 SWAP1 SUB SWAP1 PUSH1 0x0 MSTORE PUSH1 0x20 PUSH1 0x0 KECCAK256 ADD PUSH1 0x0 SWAP1 SWAP2 SWAP1 SWAP2 SWAP1 SWAP2 POP SSTORE POP POP DUP1 DUP1 PUSH2 0xC8D SWAP1 PUSH2 0x1D50 JUMP JUMPDEST SWAP2 POP POP PUSH2 0xBE7 JUMP JUMPDEST POP JUMP JUMPDEST PUSH1 0x0 JUMPDEST PUSH1 0x6 DUP1 SLOAD SWAP1 POP DUP2 LT ISZERO PUSH2 0xDE0 JUMPI PUSH1 0x0 PUSH1 0x6 DUP3 DUP2 SLOAD DUP2 LT PUSH2 0xCBE JUMPI PUSH2 0xCBD PUSH2 0x1C50 JUMP JUMPDEST JUMPDEST SWAP1 PUSH1 0x0 MSTORE PUSH1 0x20 PUSH1 0x0 KECCAK256 ADD PUSH1 0x0 SWAP1 SLOAD SWAP1 PUSH2 0x100 EXP SWAP1 DIV PUSH20 0xFFFFFFFFFFFFFFFFFFFFFFFFFFFFFFFFFFFFFFFF AND SWAP1 POP DUP3 PUSH1 0x8 PUSH1 0x0 DUP4 PUSH20 0xFFFFFFFFFFFFFFFFFFFFFFFFFFFFFFFFFFFFFFFF AND PUSH20 0xFFFFFFFFFFFFFFFFFFFFFFFFFFFFFFFFFFFFFFFF AND DUP2 MSTORE PUSH1 0x20 ADD SWAP1 DUP2 MSTORE PUSH1 0x20 ADD PUSH1 0x0 KECCAK256 SLOAD PUSH3 0xF4240 PUSH2 0xD3A SWAP2 SWAP1 PUSH2 0x1CAE JUMP JUMPDEST PUSH2 0xD44 SWAP2 SWAP1 PUSH2 0x1D1F JUMP JUMPDEST PUSH1 0x2 PUSH1 0x0 DUP4 PUSH20 0xFFFFFFFFFFFFFFFFFFFFFFFFFFFFFFFFFFFFFFFF AND PUSH20 0xFFFFFFFFFFFFFFFFFFFFFFFFFFFFFFFFFFFFFFFF AND DUP2 MSTORE PUSH1 0x20 ADD SWAP1 DUP2 MSTORE PUSH1 0x20 ADD PUSH1 0x0 KECCAK256 DUP2 SWAP1 SSTORE POP PUSH1 0x0 PUSH1 0x8 PUSH1 0x0 DUP4 PUSH20 0xFFFFFFFFFFFFFFFFFFFFFFFFFFFFFFFFFFFFFFFF AND PUSH20 0xFFFFFFFFFFFFFFFFFFFFFFFFFFFFFFFFFFFFFFFF AND DUP2 MSTORE PUSH1 0x20 ADD SWAP1 DUP2 MSTORE PUSH1 0x20 ADD PUSH1 0x0 KECCAK256 DUP2 SWAP1 SSTORE POP POP DUP1 DUP1 PUSH2 0xDD8 SWAP1 PUSH2 0x1D50 JUMP JUMPDEST SWAP2 POP POP PUSH2 0xC9B JUMP JUMPDEST POP POP JUMP JUMPDEST PUSH1 0x60 PUSH1 0x7 PUSH1 0x0 PUSH2 0xDF4 SWAP2 SWAP1 PUSH2 0x17B7 JUMP JUMPDEST PUSH1 0x7 PUSH1 0x0 SWAP1 DUP1 PUSH1 0x1 DUP2 SLOAD ADD DUP1 DUP3 SSTORE DUP1 SWAP2 POP POP PUSH1 0x1 SWAP1 SUB SWAP1 PUSH1 0x0 MSTORE PUSH1 0x20 PUSH1 0x0 KECCAK256 ADD PUSH1 0x0 SWAP1 SWAP2 SWAP1 SWAP2 SWAP1 SWAP2 POP SSTORE PUSH1 0x7 PUSH1 0x1 SWAP1 DUP1 PUSH1 0x1 DUP2 SLOAD ADD DUP1 DUP3 SSTORE DUP1 SWAP2 POP POP PUSH1 0x1 SWAP1 SUB SWAP1 PUSH1 0x0 MSTORE PUSH1 0x20 PUSH1 0x0 KECCAK256 ADD PUSH1 0x0 SWAP1 SWAP2 SWAP1 SWAP2 SWAP1 SWAP2 POP SSTORE PUSH1 0x7 DUP1 SLOAD DUP1 PUSH1 0x20 MUL PUSH1 0x20 ADD PUSH1 0x40 MLOAD SWAP1 DUP2 ADD PUSH1 0x40 MSTORE DUP1 SWAP3 SWAP2 SWAP1 DUP2 DUP2 MSTORE PUSH1 0x20 ADD DUP3 DUP1 SLOAD DUP1 ISZERO PUSH2 0xE94 JUMPI PUSH1 0x20 MUL DUP3 ADD SWAP2 SWAP1 PUSH1 0x0 MSTORE PUSH1 0x20 PUSH1 0x0 KECCAK256 SWAP1 JUMPDEST DUP2 SLOAD DUP2 MSTORE PUSH1 0x20 ADD SWAP1 PUSH1 0x1 ADD SWAP1 DUP1 DUP4 GT PUSH2 0xE80 JUMPI JUMPDEST POP POP POP POP POP SWAP1 POP SWAP1 JUMP JUMPDEST PUSH1 0xB DUP2 DUP2 SLOAD DUP2 LT PUSH2 0xEAE JUMPI PUSH1 0x0 DUP1 REVERT JUMPDEST SWAP1 PUSH1 0x0 MSTORE PUSH1 0x20 PUSH1 0x0 KECCAK256 ADD PUSH1 0x0 SWAP2 POP SWAP1 POP SLOAD DUP2 JUMP JUMPDEST PUSH1 0x0 DUP1 PUSH2 0xECE DUP5 PUSH2 0x1471 JUMP JUMPDEST SWAP1 POP DUP1 DUP4 PUSH2 0xEDC SWAP2 SWAP1 PUSH2 0x1CAE JUMP JUMPDEST SWAP2 POP POP SWAP3 SWAP2 POP POP JUMP JUMPDEST PUSH1 0x2 PUSH1 0x20 MSTORE DUP1 PUSH1 0x0 MSTORE PUSH1 0x40 PUSH1 0x0 KECCAK256 PUSH1 0x0 SWAP2 POP SWAP1 POP SLOAD DUP2 JUMP JUMPDEST PUSH1 0x9 PUSH1 0x20 MSTORE DUP1 PUSH1 0x0 MSTORE PUSH1 0x40 PUSH1 0x0 KECCAK256 PUSH1 0x0 SWAP2 POP SWAP1 POP SLOAD DUP2 JUMP JUMPDEST PUSH1 0x60 PUSH2 0xF1F PUSH2 0x12C1 JUMP JUMPDEST PUSH1 0x0 PUSH2 0xF29 PUSH2 0x13CA JUMP JUMPDEST SWAP1 POP PUSH1 0x0 DUP1 JUMPDEST PUSH1 0x5 DUP1 SLOAD SWAP1 POP DUP2 LT ISZERO PUSH2 0xF8F JUMPI PUSH1 0x0 PUSH1 0x5 DUP3 DUP2 SLOAD DUP2 LT PUSH2 0xF52 JUMPI PUSH2 0xF51 PUSH2 0x1C50 JUMP JUMPDEST JUMPDEST SWAP1 PUSH1 0x0 MSTORE PUSH1 0x20 PUSH1 0x0 KECCAK256 ADD SLOAD SWAP1 POP PUSH1 0x0 PUSH2 0xF6A DUP3 PUSH2 0xB06 JUMP JUMPDEST SWAP1 POP DUP1 DUP5 PUSH2 0xF78 SWAP2 SWAP1 PUSH2 0x1D98 JUMP JUMPDEST SWAP4 POP POP POP DUP1 DUP1 PUSH2 0xF87 SWAP1 PUSH2 0x1D50 JUMP JUMPDEST SWAP2 POP POP PUSH2 0xF2F JUMP JUMPDEST POP PUSH1 0x0 JUMPDEST PUSH1 0x5 DUP1 SLOAD SWAP1 POP DUP2 LT ISZERO PUSH2 0x104A JUMPI PUSH1 0x0 PUSH1 0x5 DUP3 DUP2 SLOAD DUP2 LT PUSH2 0xFB6 JUMPI PUSH2 0xFB5 PUSH2 0x1C50 JUMP JUMPDEST JUMPDEST SWAP1 PUSH1 0x0 MSTORE PUSH1 0x20 PUSH1 0x0 KECCAK256 ADD SLOAD SWAP1 POP PUSH1 0x0 PUSH2 0xFCE DUP3 PUSH2 0xB06 JUMP JUMPDEST SWAP1 POP PUSH1 0x0 PUSH1 0x1 PUSH1 0x0 DUP5 DUP2 MSTORE PUSH1 0x20 ADD SWAP1 DUP2 MSTORE PUSH1 0x20 ADD PUSH1 0x0 KECCAK256 SLOAD SWAP1 POP DUP1 DUP6 DUP4 DUP9 PUSH8 0xDE0B6B3A7640000 PUSH2 0xFFF SWAP2 SWAP1 PUSH2 0x1CAE JUMP JUMPDEST PUSH2 0x1009 SWAP2 SWAP1 PUSH2 0x1CAE JUMP JUMPDEST PUSH2 0x1013 SWAP2 SWAP1 PUSH2 0x1D1F JUMP JUMPDEST PUSH2 0x101D SWAP2 SWAP1 PUSH2 0x1D1F JUMP JUMPDEST PUSH1 0x9 PUSH1 0x0 DUP6 DUP2 MSTORE PUSH1 0x20 ADD SWAP1 DUP2 MSTORE PUSH1 0x20 ADD PUSH1 0x0 KECCAK256 DUP2 SWAP1 SSTORE POP POP POP POP DUP1 DUP1 PUSH2 0x1042 SWAP1 PUSH2 0x1D50 JUMP JUMPDEST SWAP2 POP POP PUSH2 0xF93 JUMP JUMPDEST POP PUSH1 0x0 JUMPDEST PUSH1 0x5 DUP1 SLOAD SWAP1 POP DUP2 LT ISZERO PUSH2 0x1185 JUMPI PUSH1 0x0 PUSH1 0x5 DUP3 DUP2 SLOAD DUP2 LT PUSH2 0x1071 JUMPI PUSH2 0x1070 PUSH2 0x1C50 JUMP JUMPDEST JUMPDEST SWAP1 PUSH1 0x0 MSTORE PUSH1 0x20 PUSH1 0x0 KECCAK256 ADD SLOAD SWAP1 POP PUSH1 0x0 DUP1 PUSH1 0x0 DUP4 DUP2 MSTORE PUSH1 0x20 ADD SWAP1 DUP2 MSTORE PUSH1 0x20 ADD PUSH1 0x0 KECCAK256 SLOAD SWAP1 POP PUSH1 0x0 PUSH1 0x9 PUSH1 0x0 DUP5 DUP2 MSTORE PUSH1 0x20 ADD SWAP1 DUP2 MSTORE PUSH1 0x20 ADD PUSH1 0x0 KECCAK256 SLOAD SWAP1 POP DUP1 DUP3 GT ISZERO PUSH2 0x110E JUMPI PUSH1 0x0 DUP2 DUP4 PUSH2 0x10C3 SWAP2 SWAP1 PUSH2 0x1E38 JUMP JUMPDEST SWAP1 POP PUSH2 0x10E2 DUP5 PUSH8 0xDE0B6B3A7640000 DUP4 PUSH2 0x10DD SWAP2 SWAP1 PUSH2 0x1D1F JUMP JUMPDEST PUSH2 0xEC2 JUMP JUMPDEST POP DUP1 PUSH1 0x0 DUP1 DUP7 DUP2 MSTORE PUSH1 0x20 ADD SWAP1 DUP2 MSTORE PUSH1 0x20 ADD PUSH1 0x0 KECCAK256 PUSH1 0x0 DUP3 DUP3 SLOAD PUSH2 0x1105 SWAP2 SWAP1 PUSH2 0x1E38 JUMP JUMPDEST SWAP3 POP POP DUP2 SWAP1 SSTORE POP POP JUMPDEST DUP1 DUP3 LT ISZERO PUSH2 0x116F JUMPI PUSH1 0x0 DUP3 DUP3 PUSH2 0x1124 SWAP2 SWAP1 PUSH2 0x1E38 JUMP JUMPDEST SWAP1 POP PUSH2 0x1143 DUP5 PUSH8 0xDE0B6B3A7640000 DUP4 PUSH2 0x113E SWAP2 SWAP1 PUSH2 0x1D1F JUMP JUMPDEST PUSH2 0xBC1 JUMP JUMPDEST POP DUP1 PUSH1 0x0 DUP1 DUP7 DUP2 MSTORE PUSH1 0x20 ADD SWAP1 DUP2 MSTORE PUSH1 0x20 ADD PUSH1 0x0 KECCAK256 PUSH1 0x0 DUP3 DUP3 SLOAD PUSH2 0x1166 SWAP2 SWAP1 PUSH2 0x1D98 JUMP JUMPDEST SWAP3 POP POP DUP2 SWAP1 SSTORE POP POP JUMPDEST POP POP POP DUP1 DUP1 PUSH2 0x117D SWAP1 PUSH2 0x1D50 JUMP JUMPDEST SWAP2 POP POP PUSH2 0x104E JUMP JUMPDEST POP PUSH1 0x40 MLOAD DUP1 PUSH1 0x20 ADD PUSH1 0x40 MSTORE DUP1 PUSH1 0x0 DUP2 MSTORE POP SWAP3 POP POP POP SWAP1 JUMP JUMPDEST DUP1 PUSH1 0xD DUP2 SWAP1 SSTORE POP POP JUMP JUMPDEST DUP1 PUSH1 0xC DUP2 SWAP1 SSTORE POP POP JUMP JUMPDEST PUSH1 0x60 DUP1 PUSH1 0xA PUSH1 0xB DUP2 DUP1 SLOAD DUP1 PUSH1 0x20 MUL PUSH1 0x20 ADD PUSH1 0x40 MLOAD SWAP1 DUP2 ADD PUSH1 0x40 MSTORE DUP1 SWAP3 SWAP2 SWAP1 DUP2 DUP2 MSTORE PUSH1 0x20 ADD DUP3 DUP1 SLOAD DUP1 ISZERO PUSH2 0x1203 JUMPI PUSH1 0x20 MUL DUP3 ADD SWAP2 SWAP1 PUSH1 0x0 MSTORE PUSH1 0x20 PUSH1 0x0 KECCAK256 SWAP1 JUMPDEST DUP2 SLOAD DUP2 MSTORE PUSH1 0x20 ADD SWAP1 PUSH1 0x1 ADD SWAP1 DUP1 DUP4 GT PUSH2 0x11EF JUMPI JUMPDEST POP POP POP POP POP SWAP2 POP DUP1 DUP1 SLOAD DUP1 PUSH1 0x20 MUL PUSH1 0x20 ADD PUSH1 0x40 MLOAD SWAP1 DUP2 ADD PUSH1 0x40 MSTORE DUP1 SWAP3 SWAP2 SWAP1 DUP2 DUP2 MSTORE PUSH1 0x20 ADD DUP3 DUP1 SLOAD DUP1 ISZERO PUSH2 0x1255 JUMPI PUSH1 0x20 MUL DUP3 ADD SWAP2 SWAP1 PUSH1 0x0 MSTORE PUSH1 0x20 PUSH1 0x0 KECCAK256 SWAP1 JUMPDEST DUP2 SLOAD DUP2 MSTORE PUSH1 0x20 ADD SWAP1 PUSH1 0x1 ADD SWAP1 DUP1 DUP4 GT PUSH2 0x1241 JUMPI JUMPDEST POP POP POP POP POP SWAP1 POP SWAP2 POP SWAP2 POP SWAP1 SWAP2 JUMP JUMPDEST PUSH1 0x4 SLOAD DUP2 JUMP JUMPDEST PUSH1 0x6 DUP2 DUP2 SLOAD DUP2 LT PUSH2 0x127A JUMPI PUSH1 0x0 DUP1 REVERT JUMPDEST SWAP1 PUSH1 0x0 MSTORE PUSH1 0x20 PUSH1 0x0 KECCAK256 ADD PUSH1 0x0 SWAP2 POP SLOAD SWAP1 PUSH2 0x100 EXP SWAP1 DIV PUSH20 0xFFFFFFFFFFFFFFFFFFFFFFFFFFFFFFFFFFFFFFFF AND DUP2 JUMP JUMPDEST PUSH1 0x0 PUSH1 0x20 MSTORE DUP1 PUSH1 0x0 MSTORE PUSH1 0x40 PUSH1 0x0 KECCAK256 PUSH1 0x0 SWAP2 POP SWAP1 POP SLOAD DUP2 JUMP JUMPDEST PUSH1 0x0 JUMPDEST PUSH1 0x5 DUP1 SLOAD SWAP1 POP DUP2 LT ISZERO PUSH2 0x131B JUMPI PUSH1 0x0 PUSH1 0x1 PUSH1 0x0 PUSH1 0x5 DUP5 DUP2 SLOAD DUP2 LT PUSH2 0x12EB JUMPI PUSH2 0x12EA PUSH2 0x1C50 JUMP JUMPDEST JUMPDEST SWAP1 PUSH1 0x0 MSTORE PUSH1 0x20 PUSH1 0x0 KECCAK256 ADD SLOAD DUP2 MSTORE PUSH1 0x20 ADD SWAP1 DUP2 MSTORE PUSH1 0x20 ADD PUSH1 0x0 KECCAK256 DUP2 SWAP1 SSTORE POP DUP1 DUP1 PUSH2 0x1313 SWAP1 PUSH2 0x1D50 JUMP JUMPDEST SWAP2 POP POP PUSH2 0x12C4 JUMP JUMPDEST POP PUSH1 0x5 PUSH1 0x0 PUSH2 0x132A SWAP2 SWAP1 PUSH2 0x17B7 JUMP JUMPDEST PUSH2 0x1332 PUSH2 0xDE4 JUMP JUMPDEST PUSH1 0x5 SWAP1 DUP1 MLOAD SWAP1 PUSH1 0x20 ADD SWAP1 PUSH2 0x1347 SWAP3 SWAP2 SWAP1 PUSH2 0x17D8 JUMP JUMPDEST POP PUSH1 0x0 JUMPDEST PUSH1 0x5 DUP1 SLOAD SWAP1 POP DUP2 LT ISZERO PUSH2 0x13AF JUMPI PUSH1 0x0 PUSH1 0x5 DUP3 DUP2 SLOAD DUP2 LT PUSH2 0x136E JUMPI PUSH2 0x136D PUSH2 0x1C50 JUMP JUMPDEST JUMPDEST SWAP1 PUSH1 0x0 MSTORE PUSH1 0x20 PUSH1 0x0 KECCAK256 ADD SLOAD SWAP1 POP PUSH2 0x1384 DUP2 PUSH2 0x1471 JUMP JUMPDEST PUSH1 0x1 PUSH1 0x0 DUP4 DUP2 MSTORE PUSH1 0x20 ADD SWAP1 DUP2 MSTORE PUSH1 0x20 ADD PUSH1 0x0 KECCAK256 DUP2 SWAP1 SSTORE POP POP DUP1 DUP1 PUSH2 0x13A7 SWAP1 PUSH2 0x1D50 JUMP JUMPDEST SWAP2 POP POP PUSH2 0x134B JUMP JUMPDEST POP JUMP JUMPDEST PUSH1 0x1 PUSH1 0x20 MSTORE DUP1 PUSH1 0x0 MSTORE PUSH1 0x40 PUSH1 0x0 KECCAK256 PUSH1 0x0 SWAP2 POP SWAP1 POP SLOAD DUP2 JUMP JUMPDEST PUSH1 0x0 DUP1 PUSH1 0x0 SWAP1 POP PUSH1 0x0 JUMPDEST PUSH1 0x5 DUP1 SLOAD SWAP1 POP DUP2 LT ISZERO PUSH2 0x1469 JUMPI PUSH1 0x0 PUSH1 0x5 DUP3 DUP2 SLOAD DUP2 LT PUSH2 0x13F7 JUMPI PUSH2 0x13F6 PUSH2 0x1C50 JUMP JUMPDEST JUMPDEST SWAP1 PUSH1 0x0 MSTORE PUSH1 0x20 PUSH1 0x0 KECCAK256 ADD SLOAD SWAP1 POP PUSH8 0xDE0B6B3A7640000 PUSH1 0x0 DUP1 DUP4 DUP2 MSTORE PUSH1 0x20 ADD SWAP1 DUP2 MSTORE PUSH1 0x20 ADD PUSH1 0x0 KECCAK256 SLOAD PUSH1 0x1 PUSH1 0x0 DUP5 DUP2 MSTORE PUSH1 0x20 ADD SWAP1 DUP2 MSTORE PUSH1 0x20 ADD PUSH1 0x0 KECCAK256 SLOAD PUSH2 0x143E SWAP2 SWAP1 PUSH2 0x1CAE JUMP JUMPDEST PUSH2 0x1448 SWAP2 SWAP1 PUSH2 0x1D1F JUMP JUMPDEST DUP4 PUSH2 0x1453 SWAP2 SWAP1 PUSH2 0x1D98 JUMP JUMPDEST SWAP3 POP POP DUP1 DUP1 PUSH2 0x1461 SWAP1 PUSH2 0x1D50 JUMP JUMPDEST SWAP2 POP POP PUSH2 0x13D4 JUMP JUMPDEST POP DUP1 SWAP2 POP POP SWAP1 JUMP JUMPDEST PUSH1 0x0 DUP1 DUP3 SUB PUSH2 0x148A JUMPI PUSH8 0xDE0B6B3A7640000 SWAP1 POP PUSH2 0x14E5 JUMP JUMPDEST PUSH1 0x1 DUP3 SUB PUSH2 0x149C JUMPI PUSH1 0xC SLOAD SWAP1 POP PUSH2 0x14E5 JUMP JUMPDEST PUSH1 0x1 PUSH1 0x0 GT PUSH2 0x14E0 JUMPI PUSH1 0x40 MLOAD PUSH32 0x8C379A000000000000000000000000000000000000000000000000000000000 DUP2 MSTORE PUSH1 0x4 ADD PUSH2 0x14D7 SWAP1 PUSH2 0x1E18 JUMP JUMPDEST PUSH1 0x40 MLOAD DUP1 SWAP2 SUB SWAP1 REVERT JUMPDEST PUSH1 0x0 SWAP1 POP JUMPDEST SWAP2 SWAP1 POP JUMP JUMPDEST PUSH1 0x5 DUP2 DUP2 SLOAD DUP2 LT PUSH2 0x14FA JUMPI PUSH1 0x0 DUP1 REVERT JUMPDEST SWAP1 PUSH1 0x0 MSTORE PUSH1 0x20 PUSH1 0x0 KECCAK256 ADD PUSH1 0x0 SWAP2 POP SWAP1 POP SLOAD DUP2 JUMP JUMPDEST PUSH1 0x60 PUSH1 0x0 PUSH2 0x151A PUSH2 0x13CA JUMP JUMPDEST SWAP1 POP PUSH1 0x0 JUMPDEST PUSH1 0x6 DUP1 SLOAD SWAP1 POP DUP2 LT ISZERO PUSH2 0x161F JUMPI PUSH1 0x0 PUSH1 0x6 DUP3 DUP2 SLOAD DUP2 LT PUSH2 0x1542 JUMPI PUSH2 0x1541 PUSH2 0x1C50 JUMP JUMPDEST JUMPDEST SWAP1 PUSH1 0x0 MSTORE PUSH1 0x20 PUSH1 0x0 KECCAK256 ADD PUSH1 0x0 SWAP1 SLOAD SWAP1 PUSH2 0x100 EXP SWAP1 DIV PUSH20 0xFFFFFFFFFFFFFFFFFFFFFFFFFFFFFFFFFFFFFFFF AND SWAP1 POP PUSH3 0xF4240 PUSH1 0x2 PUSH1 0x0 DUP4 PUSH20 0xFFFFFFFFFFFFFFFFFFFFFFFFFFFFFFFFFFFFFFFF AND PUSH20 0xFFFFFFFFFFFFFFFFFFFFFFFFFFFFFFFFFFFFFFFF AND DUP2 MSTORE PUSH1 0x20 ADD SWAP1 DUP2 MSTORE PUSH1 0x20 ADD PUSH1 0x0 KECCAK256 SLOAD DUP5 PUSH2 0x15BE SWAP2 SWAP1 PUSH2 0x1CAE JUMP JUMPDEST PUSH2 0x15C8 SWAP2 SWAP1 PUSH2 0x1D1F JUMP JUMPDEST PUSH1 0x8 PUSH1 0x0 DUP4 PUSH20 0xFFFFFFFFFFFFFFFFFFFFFFFFFFFFFFFFFFFFFFFF AND PUSH20 0xFFFFFFFFFFFFFFFFFFFFFFFFFFFFFFFFFFFFFFFF AND DUP2 MSTORE PUSH1 0x20 ADD SWAP1 DUP2 MSTORE PUSH1 0x20 ADD PUSH1 0x0 KECCAK256 DUP2 SWAP1 SSTORE POP POP DUP1 DUP1 PUSH2 0x1617 SWAP1 PUSH2 0x1D50 JUMP JUMPDEST SWAP2 POP POP PUSH2 0x151F JUMP JUMPDEST POP PUSH1 0x0 PUSH1 0x2 PUSH1 0x0 DUP7 PUSH20 0xFFFFFFFFFFFFFFFFFFFFFFFFFFFFFFFFFFFFFFFF AND PUSH20 0xFFFFFFFFFFFFFFFFFFFFFFFFFFFFFFFFFFFFFFFF AND DUP2 MSTORE PUSH1 0x20 ADD SWAP1 DUP2 MSTORE PUSH1 0x20 ADD PUSH1 0x0 KECCAK256 SLOAD SWAP1 POP PUSH1 0x0 DUP5 PUSH3 0xF4240 PUSH2 0x1675 SWAP2 SWAP1 PUSH2 0x1CAE JUMP JUMPDEST DUP3 PUSH3 0xF4240 PUSH2 0x1684 SWAP2 SWAP1 PUSH2 0x1CAE JUMP JUMPDEST DUP5 PUSH2 0x168F SWAP2 SWAP1 PUSH2 0x1CAE JUMP JUMPDEST PUSH2 0x1699 SWAP2 SWAP1 PUSH2 0x1CAE JUMP JUMPDEST SWAP1 POP DUP1 PUSH1 0x8 PUSH1 0x0 DUP9 PUSH20 0xFFFFFFFFFFFFFFFFFFFFFFFFFFFFFFFFFFFFFFFF AND PUSH20 0xFFFFFFFFFFFFFFFFFFFFFFFFFFFFFFFFFFFFFFFF AND DUP2 MSTORE PUSH1 0x20 ADD SWAP1 DUP2 MSTORE PUSH1 0x20 ADD PUSH1 0x0 KECCAK256 PUSH1 0x0 DUP3 DUP3 SLOAD PUSH2 0x16EA SWAP2 SWAP1 PUSH2 0x1E38 JUMP JUMPDEST SWAP3 POP POP DUP2 SWAP1 SSTORE POP DUP1 DUP4 PUSH2 0x16FD SWAP2 SWAP1 PUSH2 0x1E38 JUMP JUMPDEST SWAP3 POP PUSH2 0x1708 DUP4 PUSH2 0xC98 JUMP JUMPDEST DUP1 PUSH1 0x0 DUP1 DUP1 DUP2 MSTORE PUSH1 0x20 ADD SWAP1 DUP2 MSTORE PUSH1 0x20 ADD PUSH1 0x0 KECCAK256 PUSH1 0x0 DUP3 DUP3 SLOAD PUSH2 0x172A SWAP2 SWAP1 PUSH2 0x1E38 JUMP JUMPDEST SWAP3 POP POP DUP2 SWAP1 SSTORE POP DUP6 PUSH20 0xFFFFFFFFFFFFFFFFFFFFFFFFFFFFFFFFFFFFFFFF AND PUSH2 0x8FC DUP3 SWAP1 DUP2 ISZERO MUL SWAP1 PUSH1 0x40 MLOAD PUSH1 0x0 PUSH1 0x40 MLOAD DUP1 DUP4 SUB DUP2 DUP6 DUP9 DUP9 CALL SWAP4 POP POP POP POP ISZERO DUP1 ISZERO PUSH2 0x1777 JUMPI RETURNDATASIZE PUSH1 0x0 DUP1 RETURNDATACOPY RETURNDATASIZE PUSH1 0x0 REVERT JUMPDEST POP PUSH1 0x40 MLOAD DUP1 PUSH1 0x20 ADD PUSH1 0x40 MSTORE DUP1 PUSH1 0x0 DUP2 MSTORE POP SWAP4 POP POP POP POP SWAP3 SWAP2 POP POP JUMP JUMPDEST PUSH1 0xA DUP2 DUP2 SLOAD DUP2 LT PUSH2 0x17A3 JUMPI PUSH1 0x0 DUP1 REVERT JUMPDEST SWAP1 PUSH1 0x0 MSTORE PUSH1 0x20 PUSH1 0x0 KECCAK256 ADD PUSH1 0x0 SWAP2 POP SWAP1 POP SLOAD DUP2 JUMP JUMPDEST POP DUP1 SLOAD PUSH1 0x0 DUP3 SSTORE SWAP1 PUSH1 0x0 MSTORE PUSH1 0x20 PUSH1 0x0 KECCAK256 SWAP1 DUP2 ADD SWAP1 PUSH2 0x17D5 SWAP2 SWAP1 PUSH2 0x1825 JUMP JUMPDEST POP JUMP JUMPDEST DUP3 DUP1 SLOAD DUP3 DUP3 SSTORE SWAP1 PUSH1 0x0 MSTORE PUSH1 0x20 PUSH1 0x0 KECCAK256 SWAP1 DUP2 ADD SWAP3 DUP3 ISZERO PUSH2 0x1814 JUMPI SWAP2 PUSH1 0x20 MUL DUP3 ADD JUMPDEST DUP3 DUP2 GT ISZERO PUSH2 0x1813 JUMPI DUP3 MLOAD DUP3 SSTORE SWAP2 PUSH1 0x20 ADD SWAP2 SWAP1 PUSH1 0x1 ADD SWAP1 PUSH2 0x17F8 JUMP JUMPDEST JUMPDEST POP SWAP1 POP PUSH2 0x1821 SWAP2 SWAP1 PUSH2 0x1825 JUMP JUMPDEST POP SWAP1 JUMP JUMPDEST JUMPDEST DUP1 DUP3 GT ISZERO PUSH2 0x183E JUMPI PUSH1 0x0 DUP2 PUSH1 0x0 SWAP1 SSTORE POP PUSH1 0x1 ADD PUSH2 0x1826 JUMP JUMPDEST POP SWAP1 JUMP JUMPDEST PUSH1 0x0 DUP1 REVERT JUMPDEST PUSH1 0x0 DUP2 SWAP1 POP SWAP2 SWAP1 POP JUMP JUMPDEST PUSH2 0x185A DUP2 PUSH2 0x1847 JUMP JUMPDEST DUP2 EQ PUSH2 0x1865 JUMPI PUSH1 0x0 DUP1 REVERT JUMPDEST POP JUMP JUMPDEST PUSH1 0x0 DUP2 CALLDATALOAD SWAP1 POP PUSH2 0x1877 DUP2 PUSH2 0x1851 JUMP JUMPDEST SWAP3 SWAP2 POP POP JUMP JUMPDEST PUSH1 0x0 PUSH1 0x20 DUP3 DUP5 SUB SLT ISZERO PUSH2 0x1893 JUMPI PUSH2 0x1892 PUSH2 0x1842 JUMP JUMPDEST JUMPDEST PUSH1 0x0 PUSH2 0x18A1 DUP5 DUP3 DUP6 ADD PUSH2 0x1868 JUMP JUMPDEST SWAP2 POP POP SWAP3 SWAP2 POP POP JUMP JUMPDEST PUSH2 0x18B3 DUP2 PUSH2 0x1847 JUMP JUMPDEST DUP3 MSTORE POP POP JUMP JUMPDEST PUSH1 0x0 PUSH1 0x20 DUP3 ADD SWAP1 POP PUSH2 0x18CE PUSH1 0x0 DUP4 ADD DUP5 PUSH2 0x18AA JUMP JUMPDEST SWAP3 SWAP2 POP POP JUMP JUMPDEST PUSH1 0x0 PUSH20 0xFFFFFFFFFFFFFFFFFFFFFFFFFFFFFFFFFFFFFFFF DUP3 AND SWAP1 POP SWAP2 SWAP1 POP JUMP JUMPDEST PUSH1 0x0 PUSH2 0x18FF DUP3 PUSH2 0x18D4 JUMP JUMPDEST SWAP1 POP SWAP2 SWAP1 POP JUMP JUMPDEST PUSH2 0x190F DUP2 PUSH2 0x18F4 JUMP JUMPDEST DUP2 EQ PUSH2 0x191A JUMPI PUSH1 0x0 DUP1 REVERT JUMPDEST POP JUMP JUMPDEST PUSH1 0x0 DUP2 CALLDATALOAD SWAP1 POP PUSH2 0x192C DUP2 PUSH2 0x1906 JUMP JUMPDEST SWAP3 SWAP2 POP POP JUMP JUMPDEST PUSH1 0x0 PUSH1 0x20 DUP3 DUP5 SUB SLT ISZERO PUSH2 0x1948 JUMPI PUSH2 0x1947 PUSH2 0x1842 JUMP JUMPDEST JUMPDEST PUSH1 0x0 PUSH2 0x1956 DUP5 DUP3 DUP6 ADD PUSH2 0x191D JUMP JUMPDEST SWAP2 POP POP SWAP3 SWAP2 POP POP JUMP JUMPDEST PUSH1 0x0 DUP1 PUSH1 0x40 DUP4 DUP6 SUB SLT ISZERO PUSH2 0x1976 JUMPI PUSH2 0x1975 PUSH2 0x1842 JUMP JUMPDEST JUMPDEST PUSH1 0x0 PUSH2 0x1984 DUP6 DUP3 DUP7 ADD PUSH2 0x1868 JUMP JUMPDEST SWAP3 POP POP PUSH1 0x20 PUSH2 0x1995 DUP6 DUP3 DUP7 ADD PUSH2 0x1868 JUMP JUMPDEST SWAP2 POP POP SWAP3 POP SWAP3 SWAP1 POP JUMP JUMPDEST PUSH1 0x0 DUP1 PUSH1 0x40 DUP4 DUP6 SUB SLT ISZERO PUSH2 0x19B6 JUMPI PUSH2 0x19B5 PUSH2 0x1842 JUMP JUMPDEST JUMPDEST PUSH1 0x0 PUSH2 0x19C4 DUP6 DUP3 DUP7 ADD PUSH2 0x191D JUMP JUMPDEST SWAP3 POP POP PUSH1 0x20 PUSH2 0x19D5 DUP6 DUP3 DUP7 ADD PUSH2 0x1868 JUMP JUMPDEST SWAP2 POP POP SWAP3 POP SWAP3 SWAP1 POP JUMP JUMPDEST PUSH1 0x0 DUP2 MLOAD SWAP1 POP SWAP2 SWAP1 POP JUMP JUMPDEST PUSH1 0x0 DUP3 DUP3 MSTORE PUSH1 0x20 DUP3 ADD SWAP1 POP SWAP3 SWAP2 POP POP JUMP JUMPDEST PUSH1 0x0 JUMPDEST DUP4 DUP2 LT ISZERO PUSH2 0x1A19 JUMPI DUP1 DUP3 ADD MLOAD DUP2 DUP5 ADD MSTORE PUSH1 0x20 DUP2 ADD SWAP1 POP PUSH2 0x19FE JUMP JUMPDEST PUSH1 0x0 DUP5 DUP5 ADD MSTORE POP POP POP POP JUMP JUMPDEST PUSH1 0x0 PUSH1 0x1F NOT PUSH1 0x1F DUP4 ADD AND SWAP1 POP SWAP2 SWAP1 POP JUMP JUMPDEST PUSH1 0x0 PUSH2 0x1A41 DUP3 PUSH2 0x19DF JUMP JUMPDEST PUSH2 0x1A4B DUP2 DUP6 PUSH2 0x19EA JUMP JUMPDEST SWAP4 POP PUSH2 0x1A5B DUP2 DUP6 PUSH1 0x20 DUP7 ADD PUSH2 0x19FB JUMP JUMPDEST PUSH2 0x1A64 DUP2 PUSH2 0x1A25 JUMP JUMPDEST DUP5 ADD SWAP2 POP POP SWAP3 SWAP2 POP POP JUMP JUMPDEST PUSH1 0x0 PUSH1 0x20 DUP3 ADD SWAP1 POP DUP2 DUP2 SUB PUSH1 0x0 DUP4 ADD MSTORE PUSH2 0x1A89 DUP2 DUP5 PUSH2 0x1A36 JUMP JUMPDEST SWAP1 POP SWAP3 SWAP2 POP POP JUMP JUMPDEST PUSH1 0x0 DUP2 MLOAD SWAP1 POP SWAP2 SWAP1 POP JUMP JUMPDEST PUSH1 0x0 DUP3 DUP3 MSTORE PUSH1 0x20 DUP3 ADD SWAP1 POP SWAP3 SWAP2 POP POP JUMP JUMPDEST PUSH1 0x0 DUP2 SWAP1 POP PUSH1 0x20 DUP3 ADD SWAP1 POP SWAP2 SWAP1 POP JUMP JUMPDEST PUSH2 0x1AC6 DUP2 PUSH2 0x1847 JUMP JUMPDEST DUP3 MSTORE POP POP JUMP JUMPDEST PUSH1 0x0 PUSH2 0x1AD8 DUP4 DUP4 PUSH2 0x1ABD JUMP JUMPDEST PUSH1 0x20 DUP4 ADD SWAP1 POP SWAP3 SWAP2 POP POP JUMP JUMPDEST PUSH1 0x0 PUSH1 0x20 DUP3 ADD SWAP1 POP SWAP2 SWAP1 POP JUMP JUMPDEST PUSH1 0x0 PUSH2 0x1AFC DUP3 PUSH2 0x1A91 JUMP JUMPDEST PUSH2 0x1B06 DUP2 DUP6 PUSH2 0x1A9C JUMP JUMPDEST SWAP4 POP PUSH2 0x1B11 DUP4 PUSH2 0x1AAD JUMP JUMPDEST DUP1 PUSH1 0x0 JUMPDEST DUP4 DUP2 LT ISZERO PUSH2 0x1B42 JUMPI DUP2 MLOAD PUSH2 0x1B29 DUP9 DUP3 PUSH2 0x1ACC JUMP JUMPDEST SWAP8 POP PUSH2 0x1B34 DUP4 PUSH2 0x1AE4 JUMP JUMPDEST SWAP3 POP POP PUSH1 0x1 DUP2 ADD SWAP1 POP PUSH2 0x1B15 JUMP JUMPDEST POP DUP6 SWAP4 POP POP POP POP SWAP3 SWAP2 POP POP JUMP JUMPDEST PUSH1 0x0 PUSH1 0x20 DUP3 ADD SWAP1 POP DUP2 DUP2 SUB PUSH1 0x0 DUP4 ADD MSTORE PUSH2 0x1B69 DUP2 DUP5 PUSH2 0x1AF1 JUMP JUMPDEST SWAP1 POP SWAP3 SWAP2 POP POP JUMP JUMPDEST PUSH1 0x0 PUSH1 0x40 DUP3 ADD SWAP1 POP DUP2 DUP2 SUB PUSH1 0x0 DUP4 ADD MSTORE PUSH2 0x1B8B DUP2 DUP6 PUSH2 0x1AF1 JUMP JUMPDEST SWAP1 POP DUP2 DUP2 SUB PUSH1 0x20 DUP4 ADD MSTORE PUSH2 0x1B9F DUP2 DUP5 PUSH2 0x1AF1 JUMP JUMPDEST SWAP1 POP SWAP4 SWAP3 POP POP POP JUMP JUMPDEST PUSH2 0x1BB1 DUP2 PUSH2 0x18F4 JUMP JUMPDEST DUP3 MSTORE POP POP JUMP JUMPDEST PUSH1 0x0 PUSH1 0x20 DUP3 ADD SWAP1 POP PUSH2 0x1BCC PUSH1 0x0 DUP4 ADD DUP5 PUSH2 0x1BA8 JUMP JUMPDEST SWAP3 SWAP2 POP POP JUMP JUMPDEST PUSH1 0x0 PUSH2 0x1BDD DUP3 PUSH2 0x18D4 JUMP JUMPDEST SWAP1 POP SWAP2 SWAP1 POP JUMP JUMPDEST PUSH2 0x1BED DUP2 PUSH2 0x1BD2 JUMP JUMPDEST DUP2 EQ PUSH2 0x1BF8 JUMPI PUSH1 0x0 DUP1 REVERT JUMPDEST POP JUMP JUMPDEST PUSH1 0x0 DUP2 CALLDATALOAD SWAP1 POP PUSH2 0x1C0A DUP2 PUSH2 0x1BE4 JUMP JUMPDEST SWAP3 SWAP2 POP POP JUMP JUMPDEST PUSH1 0x0 DUP1 PUSH1 0x40 DUP4 DUP6 SUB SLT ISZERO PUSH2 0x1C27 JUMPI PUSH2 0x1C26 PUSH2 0x1842 JUMP JUMPDEST JUMPDEST PUSH1 0x0 PUSH2 0x1C35 DUP6 DUP3 DUP7 ADD PUSH2 0x1BFB JUMP JUMPDEST SWAP3 POP POP PUSH1 0x20 PUSH2 0x1C46 DUP6 DUP3 DUP7 ADD PUSH2 0x1868 JUMP JUMPDEST SWAP2 POP POP SWAP3 POP SWAP3 SWAP1 POP JUMP JUMPDEST PUSH32 0x4E487B7100000000000000000000000000000000000000000000000000000000 PUSH1 0x0 MSTORE PUSH1 0x32 PUSH1 0x4 MSTORE PUSH1 0x24 PUSH1 0x0 REVERT JUMPDEST PUSH32 0x4E487B7100000000000000000000000000000000000000000000000000000000 PUSH1 0x0 MSTORE PUSH1 0x11 PUSH1 0x4 MSTORE PUSH1 0x24 PUSH1 0x0 REVERT JUMPDEST PUSH1 0x0 PUSH2 0x1CB9 DUP3 PUSH2 0x1847 JUMP JUMPDEST SWAP2 POP PUSH2 0x1CC4 DUP4 PUSH2 0x1847 JUMP JUMPDEST SWAP3 POP DUP3 DUP3 MUL PUSH2 0x1CD2 DUP2 PUSH2 0x1847 JUMP JUMPDEST SWAP2 POP DUP3 DUP3 DIV DUP5 EQ DUP4 ISZERO OR PUSH2 0x1CE9 JUMPI PUSH2 0x1CE8 PUSH2 0x1C7F JUMP JUMPDEST JUMPDEST POP SWAP3 SWAP2 POP POP JUMP JUMPDEST PUSH32 0x4E487B7100000000000000000000000000000000000000000000000000000000 PUSH1 0x0 MSTORE PUSH1 0x12 PUSH1 0x4 MSTORE PUSH1 0x24 PUSH1 0x0 REVERT JUMPDEST PUSH1 0x0 PUSH2 0x1D2A DUP3 PUSH2 0x1847 JUMP JUMPDEST SWAP2 POP PUSH2 0x1D35 DUP4 PUSH2 0x1847 JUMP JUMPDEST SWAP3 POP DUP3 PUSH2 0x1D45 JUMPI PUSH2 0x1D44 PUSH2 0x1CF0 JUMP JUMPDEST JUMPDEST DUP3 DUP3 DIV SWAP1 POP SWAP3 SWAP2 POP POP JUMP JUMPDEST PUSH1 0x0 PUSH2 0x1D5B DUP3 PUSH2 0x1847 JUMP JUMPDEST SWAP2 POP PUSH32 0xFFFFFFFFFFFFFFFFFFFFFFFFFFFFFFFFFFFFFFFFFFFFFFFFFFFFFFFFFFFFFFFF DUP3 SUB PUSH2 0x1D8D JUMPI PUSH2 0x1D8C PUSH2 0x1C7F JUMP JUMPDEST JUMPDEST PUSH1 0x1 DUP3 ADD SWAP1 POP SWAP2 SWAP1 POP JUMP JUMPDEST PUSH1 0x0 PUSH2 0x1DA3 DUP3 PUSH2 0x1847 JUMP JUMPDEST SWAP2 POP PUSH2 0x1DAE DUP4 PUSH2 0x1847 JUMP JUMPDEST SWAP3 POP DUP3 DUP3 ADD SWAP1 POP DUP1 DUP3 GT ISZERO PUSH2 0x1DC6 JUMPI PUSH2 0x1DC5 PUSH2 0x1C7F JUMP JUMPDEST JUMPDEST SWAP3 SWAP2 POP POP JUMP JUMPDEST PUSH32 0x61737365745F696420697320696E76616C696400000000000000000000000000 PUSH1 0x0 DUP3 ADD MSTORE POP JUMP JUMPDEST PUSH1 0x0 PUSH2 0x1E02 PUSH1 0x13 DUP4 PUSH2 0x19EA JUMP JUMPDEST SWAP2 POP PUSH2 0x1E0D DUP3 PUSH2 0x1DCC JUMP JUMPDEST PUSH1 0x20 DUP3 ADD SWAP1 POP SWAP2 SWAP1 POP JUMP JUMPDEST PUSH1 0x0 PUSH1 0x20 DUP3 ADD SWAP1 POP DUP2 DUP2 SUB PUSH1 0x0 DUP4 ADD MSTORE PUSH2 0x1E31 DUP2 PUSH2 0x1DF5 JUMP JUMPDEST SWAP1 POP SWAP2 SWAP1 POP JUMP JUMPDEST PUSH1 0x0 PUSH2 0x1E43 DUP3 PUSH2 0x1847 JUMP JUMPDEST SWAP2 POP PUSH2 0x1E4E DUP4 PUSH2 0x1847 JUMP JUMPDEST SWAP3 POP DUP3 DUP3 SUB SWAP1 POP DUP2 DUP2 GT ISZERO PUSH2 0x1E66 JUMPI PUSH2 0x1E65 PUSH2 0x1C7F JUMP JUMPDEST JUMPDEST SWAP3 SWAP2 POP POP JUMP INVALID LOG2 PUSH5 0x6970667358 0x22 SLT KECCAK256 0xF9 MULMOD SWAP14 PUSH30 0x6448529A7B7CC4FC2ED1BABB6275210A1A4FF980432826F3F053B4046473 PUSH16 0x6C634300081100330000000000000000 "},"methodIdentifiers":{"asset_ids(uint256)":"e852cbf3","buyAssetQuantity(uint256,uint256)":"31bccadd","debug_ary1(uint256)":"fa1ea211","debug_ary2(uint256)":"706d8a37","eth_mktcap()":"0d905423","getAssetAbsoluteWeight(uint256)":"0e8a242a","getAssets()":"67e4ac2c","getExistingFundsWei()":"ddf2afba","getHoldingDebugInfo()":"8a1558e1","getPrice(uint256)":"e7572230","holdings(uint256)":"af503309","inputFunds(address,uint256)":"64220c97","last_holding_update_time()":"2b35e77a","min_holding_update_diff_duration()":"99d65d74","outputFunds(address,uint256)":"f039842f","prices(uint256)":"bc31c1c1","refreshAssets()":"b36fdf33","scratch_arr(uint256)":"21e2d94e","sellAssetQuantity(uint256,uint256)":"7148cbec","setETHMktcap(uint256)":"875022d2","setWBTCMktCap(uint256)":"03630137","setWBTCPrice(uint256)":"87f86d92","shareholder_to_share(address)":"7a968f98","shareholder_to_wei(address)":"29f85ab0","shareholders(uint256)":"ab377daa","target_holdings(uint256)":"7aefbd0b","updateHoldings()":"87002c59","updateShareHolderToShare(uint256)":"4b2305c5","wbtc_mktcap()":"112d2ceb","wbtc_price()":"09b1f3da","writeHoldingsDebugInfo()":"3acfcb86"}}}}}