{
  "_format": "hh-sol-artifact-1",
  "contractName": "UniswapIndexFund",
  "sourceName": "contracts/UniswapIndexFund.sol",
  "abi": [
    {
      "inputs": [
        {
          "internalType": "uint256",
          "name": "_min_holding_update_diff_duration",
          "type": "uint256"
        },
        {
          "internalType": "address",
          "name": "_pair_factory",
          "type": "address"
        },
        {
          "internalType": "address",
          "name": "_router_factory",
          "type": "address"
        }
      ],
      "stateMutability": "nonpayable",
      "type": "constructor"
    },
    {
      "stateMutability": "payable",
      "type": "fallback"
    },
    {
      "inputs": [
        {
          "internalType": "uint256",
          "name": "",
          "type": "uint256"
        }
      ],
      "name": "asset_id_to_addr",
      "outputs": [
        {
          "internalType": "address",
          "name": "",
          "type": "address"
        }
      ],
      "stateMutability": "view",
      "type": "function"
    },
    {
      "inputs": [
        {
          "internalType": "uint256",
          "name": "",
          "type": "uint256"
        }
      ],
      "name": "asset_id_to_name",
      "outputs": [
        {
          "internalType": "string",
          "name": "",
          "type": "string"
        }
      ],
      "stateMutability": "view",
      "type": "function"
    },
    {
      "inputs": [
        {
          "internalType": "uint256",
          "name": "",
          "type": "uint256"
        }
      ],
      "name": "asset_ids",
      "outputs": [
        {
          "internalType": "uint256",
          "name": "",
          "type": "uint256"
        }
      ],
      "stateMutability": "view",
      "type": "function"
    },
    {
      "inputs": [
        {
          "internalType": "uint256",
          "name": "asset_id",
          "type": "uint256"
        },
        {
          "internalType": "uint256",
          "name": "quantity",
          "type": "uint256"
        }
      ],
      "name": "buyAssetQuantity",
      "outputs": [
        {
          "internalType": "uint256",
          "name": "",
          "type": "uint256"
        }
      ],
      "stateMutability": "nonpayable",
      "type": "function"
    },
    {
      "inputs": [
        {
          "internalType": "uint256",
          "name": "",
          "type": "uint256"
        }
      ],
      "name": "debug_ary1",
      "outputs": [
        {
          "internalType": "uint256",
          "name": "",
          "type": "uint256"
        }
      ],
      "stateMutability": "view",
      "type": "function"
    },
    {
      "inputs": [
        {
          "internalType": "uint256",
          "name": "",
          "type": "uint256"
        }
      ],
      "name": "debug_ary2",
      "outputs": [
        {
          "internalType": "uint256",
          "name": "",
          "type": "uint256"
        }
      ],
      "stateMutability": "view",
      "type": "function"
    },
    {
      "inputs": [
        {
          "internalType": "uint256",
          "name": "",
          "type": "uint256"
        }
      ],
      "name": "debug_ary3",
      "outputs": [
        {
          "internalType": "address",
          "name": "",
          "type": "address"
        }
      ],
      "stateMutability": "view",
      "type": "function"
    },
    {
      "inputs": [
        {
          "internalType": "uint256",
          "name": "asset_id",
          "type": "uint256"
        }
      ],
      "name": "getAssetAbsoluteWeight",
      "outputs": [
        {
          "internalType": "uint256",
          "name": "",
          "type": "uint256"
        }
      ],
      "stateMutability": "view",
      "type": "function"
    },
    {
      "inputs": [],
      "name": "getAssets",
      "outputs": [
        {
          "internalType": "uint256[]",
          "name": "",
          "type": "uint256[]"
        }
      ],
      "stateMutability": "nonpayable",
      "type": "function"
    },
    {
      "inputs": [],
      "name": "getExistingFundsWei",
      "outputs": [
        {
          "internalType": "uint256",
          "name": "",
          "type": "uint256"
        }
      ],
      "stateMutability": "view",
      "type": "function"
    },
    {
      "inputs": [],
      "name": "getHoldingDebugInfo",
      "outputs": [
        {
          "internalType": "uint256[]",
          "name": "",
          "type": "uint256[]"
        },
        {
          "internalType": "uint256[]",
          "name": "",
          "type": "uint256[]"
        }
      ],
      "stateMutability": "view",
      "type": "function"
    },
    {
      "inputs": [
        {
          "internalType": "uint256",
          "name": "asset_id",
          "type": "uint256"
        }
      ],
      "name": "getPrice",
      "outputs": [
        {
          "internalType": "uint256",
          "name": "",
          "type": "uint256"
        }
      ],
      "stateMutability": "view",
      "type": "function"
    },
    {
      "inputs": [
        {
          "internalType": "uint256",
          "name": "asset_id",
          "type": "uint256"
        }
      ],
      "name": "getQuoteInfo",
      "outputs": [
        {
          "internalType": "uint256",
          "name": "",
          "type": "uint256"
        },
        {
          "internalType": "uint256",
          "name": "",
          "type": "uint256"
        },
        {
          "internalType": "uint256",
          "name": "",
          "type": "uint256"
        }
      ],
      "stateMutability": "view",
      "type": "function"
    },
    {
      "inputs": [],
      "name": "getShareholderDebugInfo",
      "outputs": [
        {
          "internalType": "address[]",
          "name": "",
          "type": "address[]"
        },
        {
          "internalType": "uint256[]",
          "name": "",
          "type": "uint256[]"
        }
      ],
      "stateMutability": "view",
      "type": "function"
    },
    {
      "inputs": [
        {
          "internalType": "uint256",
          "name": "",
          "type": "uint256"
        }
      ],
      "name": "holdings",
      "outputs": [
        {
          "internalType": "uint256",
          "name": "",
          "type": "uint256"
        }
      ],
      "stateMutability": "view",
      "type": "function"
    },
    {
      "inputs": [
        {
          "internalType": "address",
          "name": "depositing_shareholder",
          "type": "address"
        },
        {
          "internalType": "uint256",
          "name": "deposited_wei",
          "type": "uint256"
        }
      ],
      "name": "inputFunds",
      "outputs": [
        {
          "internalType": "string",
          "name": "",
          "type": "string"
        }
      ],
      "stateMutability": "nonpayable",
      "type": "function"
    },
    {
      "inputs": [],
      "name": "last_holding_update_time",
      "outputs": [
        {
          "internalType": "uint256",
          "name": "",
          "type": "uint256"
        }
      ],
      "stateMutability": "view",
      "type": "function"
    },
    {
      "inputs": [],
      "name": "min_holding_update_diff_duration",
      "outputs": [
        {
          "internalType": "uint256",
          "name": "",
          "type": "uint256"
        }
      ],
      "stateMutability": "view",
      "type": "function"
    },
    {
      "inputs": [
        {
          "internalType": "address payable",
          "name": "withdrawing_shareholder",
          "type": "address"
        },
        {
          "internalType": "uint256",
          "name": "withdrawn_share_micro_units",
          "type": "uint256"
        },
        {
          "internalType": "bool",
          "name": "do_transfer",
          "type": "bool"
        }
      ],
      "name": "outputFunds",
      "outputs": [
        {
          "internalType": "string",
          "name": "",
          "type": "string"
        }
      ],
      "stateMutability": "nonpayable",
      "type": "function"
    },
    {
      "inputs": [],
      "name": "pair_factory",
      "outputs": [
        {
          "internalType": "address",
          "name": "",
          "type": "address"
        }
      ],
      "stateMutability": "view",
      "type": "function"
    },
    {
      "inputs": [
        {
          "internalType": "uint256",
          "name": "",
          "type": "uint256"
        }
      ],
      "name": "prices",
      "outputs": [
        {
          "internalType": "uint256",
          "name": "",
          "type": "uint256"
        }
      ],
      "stateMutability": "view",
      "type": "function"
    },
    {
      "inputs": [],
      "name": "refreshAssets",
      "outputs": [],
      "stateMutability": "nonpayable",
      "type": "function"
    },
    {
      "inputs": [
        {
          "internalType": "uint256",
          "name": "",
          "type": "uint256"
        }
      ],
      "name": "scratch_arr",
      "outputs": [
        {
          "internalType": "uint256",
          "name": "",
          "type": "uint256"
        }
      ],
      "stateMutability": "view",
      "type": "function"
    },
    {
      "inputs": [
        {
          "internalType": "uint256",
          "name": "asset_id",
          "type": "uint256"
        },
        {
          "internalType": "uint256",
          "name": "quantity",
          "type": "uint256"
        }
      ],
      "name": "sellAssetQuantity",
      "outputs": [
        {
          "internalType": "uint256",
          "name": "",
          "type": "uint256"
        }
      ],
      "stateMutability": "nonpayable",
      "type": "function"
    },
    {
      "inputs": [
        {
          "internalType": "address",
          "name": "",
          "type": "address"
        }
      ],
      "name": "shareholder_to_share",
      "outputs": [
        {
          "internalType": "uint256",
          "name": "",
          "type": "uint256"
        }
      ],
      "stateMutability": "view",
      "type": "function"
    },
    {
      "inputs": [
        {
          "internalType": "address",
          "name": "",
          "type": "address"
        }
      ],
      "name": "shareholder_to_wei",
      "outputs": [
        {
          "internalType": "uint256",
          "name": "",
          "type": "uint256"
        }
      ],
      "stateMutability": "view",
      "type": "function"
    },
    {
      "inputs": [
        {
          "internalType": "uint256",
          "name": "",
          "type": "uint256"
        }
      ],
      "name": "shareholders",
      "outputs": [
        {
          "internalType": "address",
          "name": "",
          "type": "address"
        }
      ],
      "stateMutability": "view",
      "type": "function"
    },
    {
      "inputs": [
        {
          "internalType": "uint256",
          "name": "",
          "type": "uint256"
        }
      ],
      "name": "target_holdings",
      "outputs": [
        {
          "internalType": "uint256",
          "name": "",
          "type": "uint256"
        }
      ],
      "stateMutability": "view",
      "type": "function"
    },
    {
      "inputs": [],
      "name": "updateHoldings",
      "outputs": [
        {
          "internalType": "string",
          "name": "",
          "type": "string"
        }
      ],
      "stateMutability": "nonpayable",
      "type": "function"
    },
    {
      "inputs": [
        {
          "internalType": "uint256",
          "name": "existing_funds_wei",
          "type": "uint256"
        }
      ],
      "name": "updateShareHolderToShare",
      "outputs": [],
      "stateMutability": "nonpayable",
      "type": "function"
    },
    {
      "inputs": [],
      "name": "writeHoldingsDebugInfo",
      "outputs": [],
      "stateMutability": "nonpayable",
      "type": "function"
    },
    {
      "inputs": [],
      "name": "writeShareholderDebugInfo",
      "outputs": [],
      "stateMutability": "nonpayable",
      "type": "function"
    },
    {
      "stateMutability": "payable",
      "type": "receive"
    }
  ],
  "bytecode": "0x60806040523480156200001157600080fd5b5060405162003ea538038062003ea5833981810160405260608110156200003757600080fd5b81019080805190602001909291908051906020019092919080519060200190929190505050828060048190555062000074620004e160201b60201c565b5081600d60006101000a81548173ffffffffffffffffffffffffffffffffffffffff021916908373ffffffffffffffffffffffffffffffffffffffff16021790555080600e60006101000a81548173ffffffffffffffffffffffffffffffffffffffff021916908373ffffffffffffffffffffffffffffffffffffffff1602179055506040518060400160405280600481526020017f57455448000000000000000000000000000000000000000000000000000000008152506010600080815260200190815260200160002090805190602001906200015592919062000e40565b506040518060400160405280600481526020017f574953450000000000000000000000000000000000000000000000000000000081525060106000600181526020019081526020016000209080519060200190620001b592919062000e40565b506040518060400160405280600481526020017f48414e5500000000000000000000000000000000000000000000000000000000815250601060006002815260200190815260200160002090805190602001906200021592919062000e40565b506040518060400160405280600381526020017f4143520000000000000000000000000000000000000000000000000000000000815250601060006003815260200190815260200160002090805190602001906200027592919062000e40565b506040518060400160405280600381526020017f464e4b000000000000000000000000000000000000000000000000000000000081525060106000600481526020019081526020016000209080519060200190620002d592919062000e40565b5073c02aaa39b223fe8d0a0e5c4f27ead9083c756cc2600f600080815260200190815260200160002060006101000a81548173ffffffffffffffffffffffffffffffffffffffff021916908373ffffffffffffffffffffffffffffffffffffffff1602179055507366a0f676479cee1d7373f3dc2e2952778bff5bd6600f60006001815260200190815260200160002060006101000a81548173ffffffffffffffffffffffffffffffffffffffff021916908373ffffffffffffffffffffffffffffffffffffffff1602179055507372e5390edb7727e3d4e3436451dadaff675dbcc0600f60006002815260200190815260200160002060006101000a81548173ffffffffffffffffffffffffffffffffffffffff021916908373ffffffffffffffffffffffffffffffffffffffff1602179055507376306f029f8f99effe509534037ba7030999e3cf600f60006003815260200190815260200160002060006101000a81548173ffffffffffffffffffffffffffffffffffffffff021916908373ffffffffffffffffffffffffffffffffffffffff16021790555073b5fe099475d3030dde498c3bb6f3854f762a48ad600f60006004815260200190815260200160002060006101000a81548173ffffffffffffffffffffffffffffffffffffffff021916908373ffffffffffffffffffffffffffffffffffffffff16021790555050505062000f64565b60008090505b6005805490508110156200053457600060016000600584815481106200050957fe5b90600052602060002001548152602001908152602001600020819055508080600101915050620004e7565b506005600062000545919062000ec7565b62000555620005d860201b60201c565b600590805190602001906200056c92919062000eea565b5060008090505b600580549050811015620005d5576000600582815481106200059157fe5b90600052602060002001549050620005af816200071460201b60201c565b600160008381526020019081526020016000208190555050808060010191505062000573565b50565b606060116000620005ea919062000ec7565b60116000908060018154018082558091505060019003906000526020600020016000909190919091505560116001908060018154018082558091505060019003906000526020600020016000909190919091505560116002908060018154018082558091505060019003906000526020600020016000909190919091505560116003908060018154018082558091505060019003906000526020600020016000909190919091505560116004908060018154018082558091505060019003906000526020600020016000909190919091505560118054806020026020016040519081016040528092919081815260200182805480156200070a57602002820191906000526020600020905b815481526020019060010190808311620006f5575b5050505050905090565b6000808214156200073057670de0b6b3a7640000905062000753565b600080600062000746856200075860201b60201c565b9250925092508093505050505b919050565b600080600080600f600080815260200190815260200160002060009054906101000a900473ffffffffffffffffffffffffffffffffffffffff1690506000600f600087815260200190815260200160002060009054906101000a900473ffffffffffffffffffffffffffffffffffffffff169050600062000808600d60009054906101000a900473ffffffffffffffffffffffffffffffffffffffff168484620009d860201b620029181760201c565b90506000808273ffffffffffffffffffffffffffffffffffffffff16630902f1ac6040518163ffffffff1660e01b815260040160606040518083038186803b1580156200085457600080fd5b505afa15801562000869573d6000803e3d6000fd5b505050506040513d60608110156200088057600080fd5b81019080805190602001909291908051906020019092919080519060200190929190505050506dffffffffffffffffffffffffffff1691506dffffffffffffffffffffffffffff1691506000808473ffffffffffffffffffffffffffffffffffffffff16630dfe16816040518163ffffffff1660e01b815260040160206040518083038186803b1580156200091457600080fd5b505afa15801562000929573d6000803e3d6000fd5b505050506040513d60208110156200094057600080fd5b810190808051906020019092919050505073ffffffffffffffffffffffffffffffffffffffff168773ffffffffffffffffffffffffffffffffffffffff16146200098c5782846200098f565b83835b915091506000620009ae6001848462000b3b60201b62002a731760201c565b90506000670de0b6b3a7640000820290508383829b509b509b505050505050505050509193909250565b6000806000620009ef858562000c2c60201b60201c565b91509150858282604051602001808373ffffffffffffffffffffffffffffffffffffffff1673ffffffffffffffffffffffffffffffffffffffff1660601b81526014018273ffffffffffffffffffffffffffffffffffffffff1673ffffffffffffffffffffffffffffffffffffffff1660601b8152601401925050506040516020818303038152906040528051906020012060405160200180807fff000000000000000000000000000000000000000000000000000000000000008152506001018373ffffffffffffffffffffffffffffffffffffffff1673ffffffffffffffffffffffffffffffffffffffff1660601b8152601401828152602001807f96e8ac4277198ff8b6f785478aa9a39f403cb768dd02cbee326c3e7da348845f815250602001925050506040516020818303038152906040528051906020012060001c925050509392505050565b600080841162000b97576040517f08c379a000000000000000000000000000000000000000000000000000000000815260040180806020018281038252602581526020018062003e806025913960400191505060405180910390fd5b60008311801562000ba85750600082115b62000bff576040517f08c379a000000000000000000000000000000000000000000000000000000000815260040180806020018281038252602881526020018062003e586028913960400191505060405180910390fd5b8262000c1a838662000da860201b62002cce1790919060201c565b8162000c2257fe5b0490509392505050565b6000808273ffffffffffffffffffffffffffffffffffffffff168473ffffffffffffffffffffffffffffffffffffffff16141562000cb6576040517f08c379a000000000000000000000000000000000000000000000000000000000815260040180806020018281038252602581526020018062003e336025913960400191505060405180910390fd5b8273ffffffffffffffffffffffffffffffffffffffff168473ffffffffffffffffffffffffffffffffffffffff161062000cf257828462000cf5565b83835b8092508193505050600073ffffffffffffffffffffffffffffffffffffffff168273ffffffffffffffffffffffffffffffffffffffff16141562000da1576040517f08c379a000000000000000000000000000000000000000000000000000000000815260040180806020018281038252601e8152602001807f556e697377617056324c6962726172793a205a45524f5f41444452455353000081525060200191505060405180910390fd5b9250929050565b60008082148062000dc7575082828385029250828162000dc457fe5b04145b62000e3a576040517f08c379a00000000000000000000000000000000000000000000000000000000081526004018080602001828103825260148152602001807f64732d6d6174682d6d756c2d6f766572666c6f7700000000000000000000000081525060200191505060405180910390fd5b92915050565b828054600181600116156101000203166002900490600052602060002090601f016020900481019282601f1062000e8357805160ff191683800117855562000eb4565b8280016001018555821562000eb4579182015b8281111562000eb357825182559160200191906001019062000e96565b5b50905062000ec3919062000f3c565b5090565b508054600082559060005260206000209081019062000ee7919062000f3c565b50565b82805482825590600052602060002090810192821562000f29579160200282015b8281111562000f2857825182559160200191906001019062000f0b565b5b50905062000f38919062000f3c565b5090565b62000f6191905b8082111562000f5d57600081600090555060010162000f43565b5090565b90565b612ebf8062000f746000396000f3fe6080604052600436106101e75760003560e01c80638a1558e111610102578063c606504f11610095578063e93f9add11610064578063e93f9add14610c99578063f4eb9eb614610d14578063fa1ea21114610d71578063fcab007714610dc0576101f9565b8063c606504f14610b79578063ddf2afba14610bd0578063e757223014610bfb578063e852cbf314610c4a576101f9565b8063ab377daa116100d1578063ab377daa14610a49578063af50330914610ac4578063b36fdf3314610b13578063bc31c1c114610b2a576101f9565b80638a1558e1146107d6578063996b798c1461088a57806399d65d741461093e578063a139beb414610969576101f9565b80634b2305c51161017a5780637148cbec116101495780637148cbec146106395780637a968f98146106925780637aefbd0b146106f757806387002c5914610746576101f9565b80634b2305c51461046f57806364220c97146104aa57806367e4ac2c1461057e578063706d8a37146105ea576101f9565b80632b35e77a116101b65780632b35e77a146103bd57806331bccadd146103e857806337d3b94e146104415780633acfcb8614610458576101f9565b80630e8a242a1461020657806321e2d94e1461025557806329f85ab0146102a45780632a0e1a0b14610309576101f9565b366101f9576101f63334610e3b565b50005b6102033334610e3b565b50005b34801561021257600080fd5b5061023f6004803603602081101561022957600080fd5b81019080803590602001909291905050506110d7565b6040518082815260200191505060405180910390f35b34801561026157600080fd5b5061028e6004803603602081101561027857600080fd5b810190808035906020019092919050505061110e565b6040518082815260200191505060405180910390f35b3480156102b057600080fd5b506102f3600480360360208110156102c757600080fd5b81019080803573ffffffffffffffffffffffffffffffffffffffff16906020019092919050505061112f565b6040518082815260200191505060405180910390f35b34801561031557600080fd5b506103426004803603602081101561032c57600080fd5b8101908080359060200190929190505050611147565b6040518080602001828103825283818151815260200191508051906020019080838360005b83811015610382578082015181840152602081019050610367565b50505050905090810190601f1680156103af5780820380516001836020036101000a031916815260200191505b509250505060405180910390f35b3480156103c957600080fd5b506103d26111f7565b6040518082815260200191505060405180910390f35b3480156103f457600080fd5b5061042b6004803603604081101561040b57600080fd5b8101908080359060200190929190803590602001909291905050506111fd565b6040518082815260200191505060405180910390f35b34801561044d57600080fd5b5061045661157c565b005b34801561046457600080fd5b5061046d6116c6565b005b34801561047b57600080fd5b506104a86004803603602081101561049257600080fd5b8101908080359060200190929190505050611789565b005b3480156104b657600080fd5b50610503600480360360408110156104cd57600080fd5b81019080803573ffffffffffffffffffffffffffffffffffffffff16906020019092919080359060200190929190505050610e3b565b6040518080602001828103825283818151815260200191508051906020019080838360005b83811015610543578082015181840152602081019050610528565b50505050905090810190601f1680156105705780820380516001836020036101000a031916815260200191505b509250505060405180910390f35b34801561058a57600080fd5b506105936118c0565b6040518080602001828103825283818151815260200191508051906020019060200280838360005b838110156105d65780820151818401526020810190506105bb565b505050509050019250505060405180910390f35b3480156105f657600080fd5b506106236004803603602081101561060d57600080fd5b81019080803590602001909291905050506119f8565b6040518082815260200191505060405180910390f35b34801561064557600080fd5b5061067c6004803603604081101561065c57600080fd5b810190808035906020019092919080359060200190929190505050611a19565b6040518082815260200191505060405180910390f35b34801561069e57600080fd5b506106e1600480360360208110156106b557600080fd5b81019080803573ffffffffffffffffffffffffffffffffffffffff169060200190929190505050611da0565b6040518082815260200191505060405180910390f35b34801561070357600080fd5b506107306004803603602081101561071a57600080fd5b8101908080359060200190929190505050611db8565b6040518082815260200191505060405180910390f35b34801561075257600080fd5b5061075b611dd0565b6040518080602001828103825283818151815260200191508051906020019080838360005b8381101561079b578082015181840152602081019050610780565b50505050905090810190601f1680156107c85780820380516001836020036101000a031916815260200191505b509250505060405180910390f35b3480156107e257600080fd5b506107eb611fee565b604051808060200180602001838103835285818151815260200191508051906020019060200280838360005b83811015610832578082015181840152602081019050610817565b50505050905001838103825284818151815260200191508051906020019060200280838360005b83811015610874578082015181840152602081019050610859565b5050505090500194505050505060405180910390f35b34801561089657600080fd5b5061089f6120a1565b604051808060200180602001838103835285818151815260200191508051906020019060200280838360005b838110156108e65780820151818401526020810190506108cb565b50505050905001838103825284818151815260200191508051906020019060200280838360005b8381101561092857808201518184015260208101905061090d565b5050505090500194505050505060405180910390f35b34801561094a57600080fd5b5061095361218a565b6040518082815260200191505060405180910390f35b34801561097557600080fd5b506109ce6004803603606081101561098c57600080fd5b81019080803573ffffffffffffffffffffffffffffffffffffffff16906020019092919080359060200190929190803515159060200190929190505050612190565b6040518080602001828103825283818151815260200191508051906020019080838360005b83811015610a0e5780820151818401526020810190506109f3565b50505050905090810190601f168015610a3b5780820380516001836020036101000a031916815260200191505b509250505060405180910390f35b348015610a5557600080fd5b50610a8260048036036020811015610a6c57600080fd5b81019080803590602001909291905050506123d7565b604051808273ffffffffffffffffffffffffffffffffffffffff1673ffffffffffffffffffffffffffffffffffffffff16815260200191505060405180910390f35b348015610ad057600080fd5b50610afd60048036036020811015610ae757600080fd5b8101908080359060200190929190505050612413565b6040518082815260200191505060405180910390f35b348015610b1f57600080fd5b50610b2861242b565b005b348015610b3657600080fd5b50610b6360048036036020811015610b4d57600080fd5b8101908080359060200190929190505050612508565b6040518082815260200191505060405180910390f35b348015610b8557600080fd5b50610b8e612520565b604051808273ffffffffffffffffffffffffffffffffffffffff1673ffffffffffffffffffffffffffffffffffffffff16815260200191505060405180910390f35b348015610bdc57600080fd5b50610be5612546565b6040518082815260200191505060405180910390f35b348015610c0757600080fd5b50610c3460048036036020811015610c1e57600080fd5b81019080803590602001909291905050506125cf565b6040518082815260200191505060405180910390f35b348015610c5657600080fd5b50610c8360048036036020811015610c6d57600080fd5b8101908080359060200190929190505050612609565b6040518082815260200191505060405180910390f35b348015610ca557600080fd5b50610cd260048036036020811015610cbc57600080fd5b810190808035906020019092919050505061262a565b604051808273ffffffffffffffffffffffffffffffffffffffff1673ffffffffffffffffffffffffffffffffffffffff16815260200191505060405180910390f35b348015610d2057600080fd5b50610d4d60048036036020811015610d3757600080fd5b810190808035906020019092919050505061265d565b60405180848152602001838152602001828152602001935050505060405180910390f35b348015610d7d57600080fd5b50610daa60048036036020811015610d9457600080fd5b81019080803590602001909291905050506128bb565b6040518082815260200191505060405180910390f35b348015610dcc57600080fd5b50610df960048036036020811015610de357600080fd5b81019080803590602001909291905050506128dc565b604051808273ffffffffffffffffffffffffffffffffffffffff1673ffffffffffffffffffffffffffffffffffffffff16815260200191505060405180910390f35b60606000610e47612546565b905060008090505b600680549050811015610f3757600060068281548110610e6b57fe5b9060005260206000200160009054906101000a900473ffffffffffffffffffffffffffffffffffffffff169050620f4240600260008373ffffffffffffffffffffffffffffffffffffffff1673ffffffffffffffffffffffffffffffffffffffff16815260200190815260200160002054840281610ee557fe5b04600860008373ffffffffffffffffffffffffffffffffffffffff1673ffffffffffffffffffffffffffffffffffffffff16815260200190815260200160002081905550508080600101915050610e4f565b5082600860008673ffffffffffffffffffffffffffffffffffffffff1673ffffffffffffffffffffffffffffffffffffffff168152602001908152602001600020600082825401925050819055508281019050600080905060008090505b60068054905081101561102a57600060068281548110610fb157fe5b9060005260206000200160009054906101000a900473ffffffffffffffffffffffffffffffffffffffff1690508673ffffffffffffffffffffffffffffffffffffffff168173ffffffffffffffffffffffffffffffffffffffff16141561101c57600192505061102a565b508080600101915050610f95565b5080611094576006859080600181540180825580915050600190039060005260206000200160009091909190916101000a81548173ffffffffffffffffffffffffffffffffffffffff021916908373ffffffffffffffffffffffffffffffffffffffff1602179055505b61109d82611789565b8360008080815260200190815260200160002060008282540192505081905550604051806020016040528060008152509250505092915050565b6000806000806110e68561265d565b925092509250600085141561110157670de0b6b3a764000090505b8181029350505050919050565b6007818154811061111b57fe5b906000526020600020016000915090505481565b60086020528060005260406000206000915090505481565b60106020528060005260406000206000915090508054600181600116156101000203166002900480601f0160208091040260200160405190810160405280929190818152602001828054600181600116156101000203166002900480156111ef5780601f106111c4576101008083540402835291602001916111ef565b820191906000526020600020905b8154815290600101906020018083116111d257829003601f168201915b505050505081565b60035481565b60008060008061120c8661265d565b9250925092506012600f600080815260200190815260200160002060009054906101000a900473ffffffffffffffffffffffffffffffffffffffff169080600181540180825580915050600190039060005260206000200160009091909190916101000a81548173ffffffffffffffffffffffffffffffffffffffff021916908373ffffffffffffffffffffffffffffffffffffffff1602179055506012600f600088815260200190815260200160002060009054906101000a900473ffffffffffffffffffffffffffffffffffffffff169080600181540180825580915050600190039060005260206000200160009091909190916101000a81548173ffffffffffffffffffffffffffffffffffffffff021916908373ffffffffffffffffffffffffffffffffffffffff1602179055506000670de0b6b3a76400008287020290506060600e60009054906101000a900473ffffffffffffffffffffffffffffffffffffffff1673ffffffffffffffffffffffffffffffffffffffff1663fb3bdb418860123061025842016040518563ffffffff1660e01b815260040180858152602001806020018473ffffffffffffffffffffffffffffffffffffffff1673ffffffffffffffffffffffffffffffffffffffff168152602001838152602001828103825285818154815260200191508054801561146057602002820191906000526020600020905b8160009054906101000a900473ffffffffffffffffffffffffffffffffffffffff1673ffffffffffffffffffffffffffffffffffffffff1681526020019060010190808311611416575b505095505050505050600060405180830381600087803b15801561148357600080fd5b505af1158015611497573d6000803e3d6000fd5b505050506040513d6000823e3d601f19601f8201168201806040525060208110156114c157600080fd5b81019080805160405193929190846401000000008211156114e157600080fd5b838201915060208201858111156114f757600080fd5b825186602082028301116401000000008211171561151457600080fd5b8083526020830192505050908051906020019060200280838360005b8381101561154b578082015181840152602081019050611530565b5050505090500160405250505090508060018151811061156757fe5b60200260200101519550505050505092915050565b600c600061158a9190612d63565b600a60006115989190612d84565b60005b6006805490508110156116c3576000600682815481106115b757fe5b9060005260206000200160009054906101000a900473ffffffffffffffffffffffffffffffffffffffff1690506000600260008373ffffffffffffffffffffffffffffffffffffffff1673ffffffffffffffffffffffffffffffffffffffff168152602001908152602001600020549050600c829080600181540180825580915050600190039060005260206000200160009091909190916101000a81548173ffffffffffffffffffffffffffffffffffffffff021916908373ffffffffffffffffffffffffffffffffffffffff160217905550600a8190806001815401808255809150506001900390600052602060002001600090919091909150555050808060010191505061159b565b50565b600a60006116d49190612d84565b600b60006116e29190612d84565b60005b6005805490508110156117865760006005828154811061170157fe5b906000526020600020015490506000806000838152602001908152602001600020549050600a829080600181540180825580915050600190039060005260206000200160009091909190915055600b819080600181540180825580915050600190039060005260206000200160009091909190915055505080806001019150506116e5565b50565b60008090505b6006805490508110156118bc576000600682815481106117ab57fe5b9060005260206000200160009054906101000a900473ffffffffffffffffffffffffffffffffffffffff16905082600860008373ffffffffffffffffffffffffffffffffffffffff1673ffffffffffffffffffffffffffffffffffffffff16815260200190815260200160002054620f4240028161182557fe5b04600260008373ffffffffffffffffffffffffffffffffffffffff1673ffffffffffffffffffffffffffffffffffffffff168152602001908152602001600020819055506000600860008373ffffffffffffffffffffffffffffffffffffffff1673ffffffffffffffffffffffffffffffffffffffff1681526020019081526020016000208190555050808060010191505061178f565b5050565b6060601160006118d09190612d84565b60116000908060018154018082558091505060019003906000526020600020016000909190919091505560116001908060018154018082558091505060019003906000526020600020016000909190919091505560116002908060018154018082558091505060019003906000526020600020016000909190919091505560116003908060018154018082558091505060019003906000526020600020016000909190919091505560116004908060018154018082558091505060019003906000526020600020016000909190919091505560118054806020026020016040519081016040528092919081815260200182805480156119ee57602002820191906000526020600020905b8154815260200190600101908083116119da575b5050505050905090565b600b8181548110611a0557fe5b906000526020600020016000915090505481565b600080600080611a288661265d565b9250925092506012600f600088815260200190815260200160002060009054906101000a900473ffffffffffffffffffffffffffffffffffffffff169080600181540180825580915050600190039060005260206000200160009091909190916101000a81548173ffffffffffffffffffffffffffffffffffffffff021916908373ffffffffffffffffffffffffffffffffffffffff1602179055506012600f600080815260200190815260200160002060009054906101000a900473ffffffffffffffffffffffffffffffffffffffff169080600181540180825580915050600190039060005260206000200160009091909190916101000a81548173ffffffffffffffffffffffffffffffffffffffff021916908373ffffffffffffffffffffffffffffffffffffffff1602179055506000670de0b6b3a76400008287020290506060600e60009054906101000a900473ffffffffffffffffffffffffffffffffffffffff1673ffffffffffffffffffffffffffffffffffffffff166318cbafe5888460123061025842016040518663ffffffff1660e01b815260040180868152602001858152602001806020018473ffffffffffffffffffffffffffffffffffffffff1673ffffffffffffffffffffffffffffffffffffffff1681526020018381526020018281038252858181548152602001915080548015611c8357602002820191906000526020600020905b8160009054906101000a900473ffffffffffffffffffffffffffffffffffffffff1673ffffffffffffffffffffffffffffffffffffffff1681526020019060010190808311611c39575b50509650505050505050600060405180830381600087803b158015611ca757600080fd5b505af1158015611cbb573d6000803e3d6000fd5b505050506040513d6000823e3d601f19601f820116820180604052506020811015611ce557600080fd5b8101908080516040519392919084640100000000821115611d0557600080fd5b83820191506020820185811115611d1b57600080fd5b8251866020820283011164010000000082111715611d3857600080fd5b8083526020830192505050908051906020019060200280838360005b83811015611d6f578082015181840152602081019050611d54565b50505050905001604052505050905080600081518110611d8b57fe5b60200260200101519550505050505092915050565b60026020528060005260406000206000915090505481565b60096020528060005260406000206000915090505481565b6060611dda61242b565b6000611de4612546565b9050600080905060005b600580549050811015611e3857600060058281548110611e0a57fe5b906000526020600020015490506000611e22826110d7565b9050808401935050508080600101915050611dee565b5060005b600580549050811015611ed057600060058281548110611e5857fe5b906000526020600020015490506000611e70826110d7565b905060006001600084815260200190815260200160002054905080858388670de0b6b3a7640000020281611ea057fe5b0481611ea857fe5b0460096000858152602001908152602001600020819055505050508080600101915050611e3c565b5060005b600580549050811015611fd657600060058281548110611ef057fe5b90600052602060002001549050600080600083815260200190815260200160002054905060006009600084815260200190815260200160002054905080821115611f795760008183039050611f5684670de0b6b3a76400008381611f5057fe5b04611a19565b508060008086815260200190815260200160002060008282540392505081905550505b80821015611fc65760008282039050611fa384670de0b6b3a76400008381611f9d57fe5b046111fd565b508060008086815260200190815260200160002060008282540192505081905550505b5050508080600101915050611ed4565b50604051806020016040528060008152509250505090565b606080600a600b8180548060200260200160405190810160405280929190818152602001828054801561204057602002820191906000526020600020905b81548152602001906001019080831161202c575b505050505091508080548060200260200160405190810160405280929190818152602001828054801561209257602002820191906000526020600020905b81548152602001906001019080831161207e575b50505050509050915091509091565b606080600c600a8180548060200260200160405190810160405280929190818152602001828054801561212957602002820191906000526020600020905b8160009054906101000a900473ffffffffffffffffffffffffffffffffffffffff1673ffffffffffffffffffffffffffffffffffffffff16815260200190600101908083116120df575b505050505091508080548060200260200160405190810160405280929190818152602001828054801561217b57602002820191906000526020600020905b815481526020019060010190808311612167575b50505050509050915091509091565b60045481565b6060600061219c612546565b905060008090505b60068054905081101561228c576000600682815481106121c057fe5b9060005260206000200160009054906101000a900473ffffffffffffffffffffffffffffffffffffffff169050620f4240600260008373ffffffffffffffffffffffffffffffffffffffff1673ffffffffffffffffffffffffffffffffffffffff1681526020019081526020016000205484028161223a57fe5b04600860008373ffffffffffffffffffffffffffffffffffffffff1673ffffffffffffffffffffffffffffffffffffffff168152602001908152602001600020819055505080806001019150506121a4565b506000600260008773ffffffffffffffffffffffffffffffffffffffff1673ffffffffffffffffffffffffffffffffffffffff1681526020019081526020016000205490506000620f424086620f4240848602816122e657fe5b0402816122ef57fe5b04905080600860008973ffffffffffffffffffffffffffffffffffffffff1673ffffffffffffffffffffffffffffffffffffffff16815260200190815260200160002060008282540392505081905550808303925061234d83611789565b806000808081526020019081526020016000206000828254039250508190555084156123bb578673ffffffffffffffffffffffffffffffffffffffff166108fc829081150290604051600060405180830381858888f193505050501580156123b9573d6000803e3d6000fd5b505b6040518060200160405280600081525093505050509392505050565b600681815481106123e457fe5b906000526020600020016000915054906101000a900473ffffffffffffffffffffffffffffffffffffffff1681565b60006020528060005260406000206000915090505481565b60008090505b60058054905081101561247b576000600160006005848154811061245157fe5b90600052602060002001548152602001908152602001600020819055508080600101915050612431565b506005600061248a9190612d84565b6124926118c0565b600590805190602001906124a7929190612da5565b5060008090505b600580549050811015612505576000600582815481106124ca57fe5b906000526020600020015490506124e0816125cf565b60016000838152602001908152602001600020819055505080806001019150506124ae565b50565b60016020528060005260406000206000915090505481565b600d60009054906101000a900473ffffffffffffffffffffffffffffffffffffffff1681565b6000806000905060008090505b6005805490508110156125c75760006005828154811061256f57fe5b90600052602060002001549050670de0b6b3a764000060008083815260200190815260200160002054600160008481526020019081526020016000205402816125b457fe5b0483019250508080600101915050612553565b508091505090565b6000808214156125e957670de0b6b3a76400009050612604565b60008060006125f78561265d565b9250925092508093505050505b919050565b6005818154811061261657fe5b906000526020600020016000915090505481565b600f6020528060005260406000206000915054906101000a900473ffffffffffffffffffffffffffffffffffffffff1681565b600080600080600f600080815260200190815260200160002060009054906101000a900473ffffffffffffffffffffffffffffffffffffffff1690506000600f600087815260200190815260200160002060009054906101000a900473ffffffffffffffffffffffffffffffffffffffff1690506000612700600d60009054906101000a900473ffffffffffffffffffffffffffffffffffffffff168484612918565b90506000808273ffffffffffffffffffffffffffffffffffffffff16630902f1ac6040518163ffffffff1660e01b815260040160606040518083038186803b15801561274b57600080fd5b505afa15801561275f573d6000803e3d6000fd5b505050506040513d606081101561277557600080fd5b81019080805190602001909291908051906020019092919080519060200190929190505050506dffffffffffffffffffffffffffff1691506dffffffffffffffffffffffffffff1691506000808473ffffffffffffffffffffffffffffffffffffffff16630dfe16816040518163ffffffff1660e01b815260040160206040518083038186803b15801561280857600080fd5b505afa15801561281c573d6000803e3d6000fd5b505050506040513d602081101561283257600080fd5b810190808051906020019092919050505073ffffffffffffffffffffffffffffffffffffffff168773ffffffffffffffffffffffffffffffffffffffff161461287c57828461287f565b83835b91509150600061289160018484612a73565b90506000670de0b6b3a7640000820290508383829b509b509b505050505050505050509193909250565b600a81815481106128c857fe5b906000526020600020016000915090505481565b600c81815481106128e957fe5b906000526020600020016000915054906101000a900473ffffffffffffffffffffffffffffffffffffffff1681565b60008060006129278585612b57565b91509150858282604051602001808373ffffffffffffffffffffffffffffffffffffffff1673ffffffffffffffffffffffffffffffffffffffff1660601b81526014018273ffffffffffffffffffffffffffffffffffffffff1673ffffffffffffffffffffffffffffffffffffffff1660601b8152601401925050506040516020818303038152906040528051906020012060405160200180807fff000000000000000000000000000000000000000000000000000000000000008152506001018373ffffffffffffffffffffffffffffffffffffffff1673ffffffffffffffffffffffffffffffffffffffff1660601b8152601401828152602001807f96e8ac4277198ff8b6f785478aa9a39f403cb768dd02cbee326c3e7da348845f815250602001925050506040516020818303038152906040528051906020012060001c925050509392505050565b6000808411612acd576040517f08c379a0000000000000000000000000000000000000000000000000000000008152600401808060200182810382526025815260200180612e656025913960400191505060405180910390fd5b600083118015612add5750600082115b612b32576040517f08c379a0000000000000000000000000000000000000000000000000000000008152600401808060200182810382526028815260200180612e3d6028913960400191505060405180910390fd5b82612b468386612cce90919063ffffffff16565b81612b4d57fe5b0490509392505050565b6000808273ffffffffffffffffffffffffffffffffffffffff168473ffffffffffffffffffffffffffffffffffffffff161415612bdf576040517f08c379a0000000000000000000000000000000000000000000000000000000008152600401808060200182810382526025815260200180612e186025913960400191505060405180910390fd5b8273ffffffffffffffffffffffffffffffffffffffff168473ffffffffffffffffffffffffffffffffffffffff1610612c19578284612c1c565b83835b8092508193505050600073ffffffffffffffffffffffffffffffffffffffff168273ffffffffffffffffffffffffffffffffffffffff161415612cc7576040517f08c379a000000000000000000000000000000000000000000000000000000000815260040180806020018281038252601e8152602001807f556e697377617056324c6962726172793a205a45524f5f41444452455353000081525060200191505060405180910390fd5b9250929050565b600080821480612ceb5750828283850292508281612ce857fe5b04145b612d5d576040517f08c379a00000000000000000000000000000000000000000000000000000000081526004018080602001828103825260148152602001807f64732d6d6174682d6d756c2d6f766572666c6f7700000000000000000000000081525060200191505060405180910390fd5b92915050565b5080546000825590600052602060002090810190612d819190612df2565b50565b5080546000825590600052602060002090810190612da29190612df2565b50565b828054828255906000526020600020908101928215612de1579160200282015b82811115612de0578251825591602001919060010190612dc5565b5b509050612dee9190612df2565b5090565b612e1491905b80821115612e10576000816000905550600101612df8565b5090565b9056fe556e697377617056324c6962726172793a204944454e544943414c5f414444524553534553556e697377617056324c6962726172793a20494e53554646494349454e545f4c4951554944495459556e697377617056324c6962726172793a20494e53554646494349454e545f414d4f554e54a26469706673582212201d1be80d53290133aa5de768f09f93a0ece51b11a748de83c3bb8b63d21a4a8064736f6c63430006060033556e697377617056324c6962726172793a204944454e544943414c5f414444524553534553556e697377617056324c6962726172793a20494e53554646494349454e545f4c4951554944495459556e697377617056324c6962726172793a20494e53554646494349454e545f414d4f554e54",
  "linkReferences": {},
  "deployedLinkReferences": {}
}