{
  "_format": "hh-sol-artifact-1",
  "contractName": "MockIndexFund",
  "sourceName": "contracts/IndexFund.sol",
  "abi": [
    {
      "inputs": [
        {
          "internalType": "uint64",
          "name": "_min_holding_update_diff_duration",
          "type": "uint64"
        }
      ],
      "stateMutability": "nonpayable",
      "type": "constructor"
    },
    {
      "inputs": [
        {
          "internalType": "uint64",
          "name": "asset_id",
          "type": "uint64"
        },
        {
          "internalType": "uint64",
          "name": "price",
          "type": "uint64"
        }
      ],
      "name": "addAsset",
      "outputs": [
        {
          "internalType": "string",
          "name": "",
          "type": "string"
        }
      ],
      "stateMutability": "nonpayable",
      "type": "function"
    },
    {
      "inputs": [
        {
          "internalType": "uint256",
          "name": "",
          "type": "uint256"
        }
      ],
      "name": "asset_ids",
      "outputs": [
        {
          "internalType": "uint64",
          "name": "",
          "type": "uint64"
        }
      ],
      "stateMutability": "view",
      "type": "function"
    },
    {
      "inputs": [
        {
          "internalType": "uint64",
          "name": "asset_id",
          "type": "uint64"
        },
        {
          "internalType": "uint64",
          "name": "quantity",
          "type": "uint64"
        }
      ],
      "name": "buyAssetQuantity",
      "outputs": [
        {
          "internalType": "uint64",
          "name": "",
          "type": "uint64"
        }
      ],
      "stateMutability": "view",
      "type": "function"
    },
    {
      "inputs": [
        {
          "internalType": "uint64",
          "name": "asset_id",
          "type": "uint64"
        }
      ],
      "name": "getAssetAbsoluteWeight",
      "outputs": [
        {
          "internalType": "uint64",
          "name": "",
          "type": "uint64"
        }
      ],
      "stateMutability": "view",
      "type": "function"
    },
    {
      "inputs": [],
      "name": "getAssets",
      "outputs": [
        {
          "internalType": "uint64[]",
          "name": "",
          "type": "uint64[]"
        }
      ],
      "stateMutability": "nonpayable",
      "type": "function"
    },
    {
      "inputs": [
        {
          "internalType": "uint64",
          "name": "asset_id",
          "type": "uint64"
        }
      ],
      "name": "getPrice",
      "outputs": [
        {
          "internalType": "uint64",
          "name": "",
          "type": "uint64"
        }
      ],
      "stateMutability": "view",
      "type": "function"
    },
    {
      "inputs": [
        {
          "internalType": "uint64",
          "name": "",
          "type": "uint64"
        }
      ],
      "name": "holdings",
      "outputs": [
        {
          "internalType": "uint64",
          "name": "",
          "type": "uint64"
        }
      ],
      "stateMutability": "view",
      "type": "function"
    },
    {
      "inputs": [
        {
          "internalType": "address",
          "name": "shareholder",
          "type": "address"
        },
        {
          "internalType": "uint64",
          "name": "eth_micro_units",
          "type": "uint64"
        }
      ],
      "name": "inputFunds",
      "outputs": [
        {
          "internalType": "string",
          "name": "",
          "type": "string"
        }
      ],
      "stateMutability": "nonpayable",
      "type": "function"
    },
    {
      "inputs": [],
      "name": "last_holding_update_time",
      "outputs": [
        {
          "internalType": "uint64",
          "name": "",
          "type": "uint64"
        }
      ],
      "stateMutability": "view",
      "type": "function"
    },
    {
      "inputs": [],
      "name": "min_holding_update_diff_duration",
      "outputs": [
        {
          "internalType": "uint64",
          "name": "",
          "type": "uint64"
        }
      ],
      "stateMutability": "view",
      "type": "function"
    },
    {
      "inputs": [
        {
          "internalType": "address",
          "name": "shareholder",
          "type": "address"
        },
        {
          "internalType": "uint64",
          "name": "share_micro_units",
          "type": "uint64"
        }
      ],
      "name": "outputFunds",
      "outputs": [
        {
          "internalType": "string",
          "name": "",
          "type": "string"
        }
      ],
      "stateMutability": "nonpayable",
      "type": "function"
    },
    {
      "inputs": [
        {
          "internalType": "uint64",
          "name": "",
          "type": "uint64"
        }
      ],
      "name": "prices",
      "outputs": [
        {
          "internalType": "uint64",
          "name": "",
          "type": "uint64"
        }
      ],
      "stateMutability": "view",
      "type": "function"
    },
    {
      "inputs": [
        {
          "internalType": "uint64",
          "name": "asset_id",
          "type": "uint64"
        },
        {
          "internalType": "uint64",
          "name": "quantity",
          "type": "uint64"
        }
      ],
      "name": "sellAssetQuantity",
      "outputs": [
        {
          "internalType": "uint64",
          "name": "",
          "type": "uint64"
        }
      ],
      "stateMutability": "view",
      "type": "function"
    },
    {
      "inputs": [
        {
          "internalType": "address",
          "name": "",
          "type": "address"
        }
      ],
      "name": "shareholders",
      "outputs": [
        {
          "internalType": "uint64",
          "name": "",
          "type": "uint64"
        }
      ],
      "stateMutability": "view",
      "type": "function"
    },
    {
      "inputs": [],
      "name": "updateHoldings",
      "outputs": [
        {
          "internalType": "string",
          "name": "",
          "type": "string"
        }
      ],
      "stateMutability": "nonpayable",
      "type": "function"
    }
  ],
  "bytecode": "0x60806040523480156200001157600080fd5b506040516200129c3803806200129c833981810160405281019062000037919062000441565b8080600360086101000a81548167ffffffffffffffff021916908367ffffffffffffffff160217905550600062000073620000fc60201b60201c565b905060005b81518167ffffffffffffffff161015620000f2576000828267ffffffffffffffff1681518110620000ae57620000ad62000473565b5b60200260200101519050620000da81620000ce83620001f160201b60201c565b6200023760201b60201c565b50508080620000e990620004d1565b91505062000078565b50505050620005b3565b6060600560006200010e9190620003ae565b6005600090806001815401808255809150506001900390600052602060002090600491828204019190066008029091909190916101000a81548167ffffffffffffffff021916908367ffffffffffffffff1602179055506005805480602002602001604051908101604052809291908181526020018280548015620001e757602002820191906000526020600020906000905b82829054906101000a900467ffffffffffffffff1667ffffffffffffffff1681526020019060080190602082600701049283019260010382029150808411620001a15790505b5050505050905090565b6000808267ffffffffffffffff16036200021157620f4240905062000232565b600a8262000220919062000535565b6103e86200022f91906200056d565b90505b919050565b606060005b6004805490508167ffffffffffffffff161015620002f057600060048267ffffffffffffffff168154811062000277576200027662000473565b5b90600052602060002090600491828204019190066008029054906101000a900467ffffffffffffffff1690508467ffffffffffffffff168167ffffffffffffffff1603620002d9576040518060200160405280600081525092505050620003a8565b508080620002e790620004d1565b9150506200023c565b5060048390806001815401808255809150506001900390600052602060002090600491828204019190066008029091909190916101000a81548167ffffffffffffffff021916908367ffffffffffffffff16021790555081600160008567ffffffffffffffff1667ffffffffffffffff16815260200190815260200160002060006101000a81548167ffffffffffffffff021916908367ffffffffffffffff1602179055506040518060200160405280600081525090505b92915050565b508054600082556003016004900490600052602060002090810190620003d59190620003d8565b50565b5b80821115620003f3576000816000905550600101620003d9565b5090565b600080fd5b600067ffffffffffffffff82169050919050565b6200041b81620003fc565b81146200042757600080fd5b50565b6000815190506200043b8162000410565b92915050565b6000602082840312156200045a5762000459620003f7565b5b60006200046a848285016200042a565b91505092915050565b7f4e487b7100000000000000000000000000000000000000000000000000000000600052603260045260246000fd5b7f4e487b7100000000000000000000000000000000000000000000000000000000600052601160045260246000fd5b6000620004de82620003fc565b915067ffffffffffffffff8203620004fb57620004fa620004a2565b5b600182019050919050565b7f4e487b7100000000000000000000000000000000000000000000000000000000600052601260045260246000fd5b60006200054282620003fc565b91506200054f83620003fc565b92508262000562576200056162000506565b5b828206905092915050565b60006200057a82620003fc565b91506200058783620003fc565b92508282026200059781620003fc565b9150808214620005ac57620005ab620004a2565b5b5092915050565b610cd980620005c36000396000f3fe608060405234801561001057600080fd5b50600436106100f55760003560e01c806387002c5911610097578063d181cbbb11610066578063d181cbbb146102c2578063e852cbf3146102f2578063f31d2afc14610322578063f532d02a14610352576100f5565b806387002c59146102265780638caeb8331461024457806399d65d7414610274578063b33430ab14610292576100f5565b80635c9d3c7d116100d35780635c9d3c7d146101785780635fe98d4f146101a8578063601db715146101d857806367e4ac2c14610208576100f5565b80632b35e77a146100fa578063520bcf4b146101185780635c2930ad14610148575b600080fd5b610102610382565b60405161010f91906107ff565b60405180910390f35b610132600480360381019061012d919061084b565b61039c565b60405161013f91906107ff565b60405180910390f35b610162600480360381019061015d91906108d6565b6103dc565b60405161016f91906107ff565b60405180910390f35b610192600480360381019061018d919061084b565b610403565b60405161019f91906107ff565b60405180910390f35b6101c260048036038101906101bd919061084b565b61042a565b6040516101cf91906107ff565b60405180910390f35b6101f260048036038101906101ed9190610903565b61044c565b6040516101ff91906107ff565b60405180910390f35b61021061046f565b60405161021d9190610a01565b60405180910390f35b61022e610560565b60405161023b9190610ab3565b60405180910390f35b61025e6004803603810190610259919061084b565b610577565b60405161026b91906107ff565b60405180910390f35b61027c61059e565b60405161028991906107ff565b60405180910390f35b6102ac60048036038101906102a79190610903565b6105b8565b6040516102b99190610ab3565b60405180910390f35b6102dc60048036038101906102d79190610903565b610726565b6040516102e991906107ff565b60405180910390f35b61030c60048036038101906103079190610b0b565b610749565b60405161031991906107ff565b60405180910390f35b61033c60048036038101906103379190610b38565b610787565b6040516103499190610ab3565b60405180910390f35b61036c60048036038101906103679190610b38565b61078f565b6040516103799190610ab3565b60405180910390f35b600360009054906101000a900467ffffffffffffffff1681565b6000808267ffffffffffffffff16036103ba57620f424090506103d7565b600a826103c79190610ba7565b6103e86103d49190610c07565b90505b919050565b60026020528060005260406000206000915054906101000a900467ffffffffffffffff1681565b60006020528060005260406000206000915054906101000a900467ffffffffffffffff1681565b6000600a826104399190610ba7565b60646104459190610c07565b9050919050565b6000806104588461039c565b905080836104669190610c07565b91505092915050565b60606005600061047f9190610797565b6005600090806001815401808255809150506001900390600052602060002090600491828204019190066008029091909190916101000a81548167ffffffffffffffff021916908367ffffffffffffffff160217905550600580548060200260200160405190810160405280929190818152602001828054801561055657602002820191906000526020600020906000905b82829054906101000a900467ffffffffffffffff1667ffffffffffffffff16815260200190600801906020826007010492830192600103820291508084116105115790505b5050505050905090565b606060405180602001604052806000815250905090565b60016020528060005260406000206000915054906101000a900467ffffffffffffffff1681565b600360089054906101000a900467ffffffffffffffff1681565b606060005b6004805490508167ffffffffffffffff16101561066857600060048267ffffffffffffffff16815481106105f4576105f3610c44565b5b90600052602060002090600491828204019190066008029054906101000a900467ffffffffffffffff1690508467ffffffffffffffff168167ffffffffffffffff1603610654576040518060200160405280600081525092505050610720565b50808061066090610c73565b9150506105bd565b5060048390806001815401808255809150506001900390600052602060002090600491828204019190066008029091909190916101000a81548167ffffffffffffffff021916908367ffffffffffffffff16021790555081600160008567ffffffffffffffff1667ffffffffffffffff16815260200190815260200160002060006101000a81548167ffffffffffffffff021916908367ffffffffffffffff1602179055506040518060200160405280600081525090505b92915050565b6000806107328461039c565b905080836107409190610c07565b91505092915050565b6004818154811061075957600080fd5b9060005260206000209060049182820401919006600802915054906101000a900467ffffffffffffffff1681565b606092915050565b606092915050565b5080546000825560030160049004906000526020600020908101906107bc91906107bf565b50565b5b808211156107d85760008160009055506001016107c0565b5090565b600067ffffffffffffffff82169050919050565b6107f9816107dc565b82525050565b600060208201905061081460008301846107f0565b92915050565b600080fd5b610828816107dc565b811461083357600080fd5b50565b6000813590506108458161081f565b92915050565b6000602082840312156108615761086061081a565b5b600061086f84828501610836565b91505092915050565b600073ffffffffffffffffffffffffffffffffffffffff82169050919050565b60006108a382610878565b9050919050565b6108b381610898565b81146108be57600080fd5b50565b6000813590506108d0816108aa565b92915050565b6000602082840312156108ec576108eb61081a565b5b60006108fa848285016108c1565b91505092915050565b6000806040838503121561091a5761091961081a565b5b600061092885828601610836565b925050602061093985828601610836565b9150509250929050565b600081519050919050565b600082825260208201905092915050565b6000819050602082019050919050565b610978816107dc565b82525050565b600061098a838361096f565b60208301905092915050565b6000602082019050919050565b60006109ae82610943565b6109b8818561094e565b93506109c38361095f565b8060005b838110156109f45781516109db888261097e565b97506109e683610996565b9250506001810190506109c7565b5085935050505092915050565b60006020820190508181036000830152610a1b81846109a3565b905092915050565b600081519050919050565b600082825260208201905092915050565b60005b83811015610a5d578082015181840152602081019050610a42565b60008484015250505050565b6000601f19601f8301169050919050565b6000610a8582610a23565b610a8f8185610a2e565b9350610a9f818560208601610a3f565b610aa881610a69565b840191505092915050565b60006020820190508181036000830152610acd8184610a7a565b905092915050565b6000819050919050565b610ae881610ad5565b8114610af357600080fd5b50565b600081359050610b0581610adf565b92915050565b600060208284031215610b2157610b2061081a565b5b6000610b2f84828501610af6565b91505092915050565b60008060408385031215610b4f57610b4e61081a565b5b6000610b5d858286016108c1565b9250506020610b6e85828601610836565b9150509250929050565b7f4e487b7100000000000000000000000000000000000000000000000000000000600052601260045260246000fd5b6000610bb2826107dc565b9150610bbd836107dc565b925082610bcd57610bcc610b78565b5b828206905092915050565b7f4e487b7100000000000000000000000000000000000000000000000000000000600052601160045260246000fd5b6000610c12826107dc565b9150610c1d836107dc565b9250828202610c2b816107dc565b9150808214610c3d57610c3c610bd8565b5b5092915050565b7f4e487b7100000000000000000000000000000000000000000000000000000000600052603260045260246000fd5b6000610c7e826107dc565b915067ffffffffffffffff8203610c9857610c97610bd8565b5b60018201905091905056fea2646970667358221220c1777287d1ddc370dc337739bedcb1c58e5f45ec8653e1d5192538607662da4064736f6c63430008110033",
  "linkReferences": {},
  "deployedLinkReferences": {}
}