{
  "_format": "hh-sol-artifact-1",
  "contractName": "MockIndexFund",
  "sourceName": "contracts/IndexFund.sol",
  "abi": [
    {
      "inputs": [
        {
          "internalType": "uint256",
          "name": "_min_holding_update_diff_duration",
          "type": "uint256"
        }
      ],
      "stateMutability": "nonpayable",
      "type": "constructor"
    },
    {
      "stateMutability": "payable",
      "type": "fallback"
    },
    {
      "inputs": [
        {
          "internalType": "uint256",
          "name": "",
          "type": "uint256"
        }
      ],
      "name": "asset_ids",
      "outputs": [
        {
          "internalType": "uint256",
          "name": "",
          "type": "uint256"
        }
      ],
      "stateMutability": "view",
      "type": "function"
    },
    {
      "inputs": [
        {
          "internalType": "uint256",
          "name": "asset_id",
          "type": "uint256"
        },
        {
          "internalType": "uint256",
          "name": "quantity",
          "type": "uint256"
        }
      ],
      "name": "buyAssetQuantity",
      "outputs": [
        {
          "internalType": "uint256",
          "name": "",
          "type": "uint256"
        }
      ],
      "stateMutability": "view",
      "type": "function"
    },
    {
      "inputs": [
        {
          "internalType": "uint256",
          "name": "",
          "type": "uint256"
        }
      ],
      "name": "debug_ary1",
      "outputs": [
        {
          "internalType": "uint256",
          "name": "",
          "type": "uint256"
        }
      ],
      "stateMutability": "view",
      "type": "function"
    },
    {
      "inputs": [
        {
          "internalType": "uint256",
          "name": "",
          "type": "uint256"
        }
      ],
      "name": "debug_ary2",
      "outputs": [
        {
          "internalType": "uint256",
          "name": "",
          "type": "uint256"
        }
      ],
      "stateMutability": "view",
      "type": "function"
    },
    {
      "inputs": [],
      "name": "eth_mktcap",
      "outputs": [
        {
          "internalType": "uint256",
          "name": "",
          "type": "uint256"
        }
      ],
      "stateMutability": "view",
      "type": "function"
    },
    {
      "inputs": [
        {
          "internalType": "uint256",
          "name": "asset_id",
          "type": "uint256"
        }
      ],
      "name": "getAssetAbsoluteWeight",
      "outputs": [
        {
          "internalType": "uint256",
          "name": "",
          "type": "uint256"
        }
      ],
      "stateMutability": "view",
      "type": "function"
    },
    {
      "inputs": [],
      "name": "getAssets",
      "outputs": [
        {
          "internalType": "uint256[]",
          "name": "",
          "type": "uint256[]"
        }
      ],
      "stateMutability": "nonpayable",
      "type": "function"
    },
    {
      "inputs": [],
      "name": "getExistingFundsWei",
      "outputs": [
        {
          "internalType": "uint256",
          "name": "",
          "type": "uint256"
        }
      ],
      "stateMutability": "view",
      "type": "function"
    },
    {
      "inputs": [],
      "name": "getHoldingDebugInfo",
      "outputs": [
        {
          "internalType": "uint256[]",
          "name": "",
          "type": "uint256[]"
        },
        {
          "internalType": "uint256[]",
          "name": "",
          "type": "uint256[]"
        }
      ],
      "stateMutability": "view",
      "type": "function"
    },
    {
      "inputs": [
        {
          "internalType": "uint256",
          "name": "asset_id",
          "type": "uint256"
        }
      ],
      "name": "getPrice",
      "outputs": [
        {
          "internalType": "uint256",
          "name": "",
          "type": "uint256"
        }
      ],
      "stateMutability": "view",
      "type": "function"
    },
    {
      "inputs": [
        {
          "internalType": "uint256",
          "name": "",
          "type": "uint256"
        }
      ],
      "name": "holdings",
      "outputs": [
        {
          "internalType": "uint256",
          "name": "",
          "type": "uint256"
        }
      ],
      "stateMutability": "view",
      "type": "function"
    },
    {
      "inputs": [
        {
          "internalType": "address",
          "name": "depositing_shareholder",
          "type": "address"
        },
        {
          "internalType": "uint256",
          "name": "deposited_wei",
          "type": "uint256"
        }
      ],
      "name": "inputFunds",
      "outputs": [
        {
          "internalType": "string",
          "name": "",
          "type": "string"
        }
      ],
      "stateMutability": "nonpayable",
      "type": "function"
    },
    {
      "inputs": [],
      "name": "last_holding_update_time",
      "outputs": [
        {
          "internalType": "uint256",
          "name": "",
          "type": "uint256"
        }
      ],
      "stateMutability": "view",
      "type": "function"
    },
    {
      "inputs": [],
      "name": "min_holding_update_diff_duration",
      "outputs": [
        {
          "internalType": "uint256",
          "name": "",
          "type": "uint256"
        }
      ],
      "stateMutability": "view",
      "type": "function"
    },
    {
      "inputs": [
        {
          "internalType": "address payable",
          "name": "withdrawing_shareholder",
          "type": "address"
        },
        {
          "internalType": "uint256",
          "name": "withdrawn_share_micro_units",
          "type": "uint256"
        }
      ],
      "name": "outputFunds",
      "outputs": [
        {
          "internalType": "string",
          "name": "",
          "type": "string"
        }
      ],
      "stateMutability": "nonpayable",
      "type": "function"
    },
    {
      "inputs": [
        {
          "internalType": "uint256",
          "name": "",
          "type": "uint256"
        }
      ],
      "name": "prices",
      "outputs": [
        {
          "internalType": "uint256",
          "name": "",
          "type": "uint256"
        }
      ],
      "stateMutability": "view",
      "type": "function"
    },
    {
      "inputs": [],
      "name": "refreshAssets",
      "outputs": [],
      "stateMutability": "nonpayable",
      "type": "function"
    },
    {
      "inputs": [
        {
          "internalType": "uint256",
          "name": "",
          "type": "uint256"
        }
      ],
      "name": "scratch_arr",
      "outputs": [
        {
          "internalType": "uint256",
          "name": "",
          "type": "uint256"
        }
      ],
      "stateMutability": "view",
      "type": "function"
    },
    {
      "inputs": [
        {
          "internalType": "uint256",
          "name": "asset_id",
          "type": "uint256"
        },
        {
          "internalType": "uint256",
          "name": "quantity",
          "type": "uint256"
        }
      ],
      "name": "sellAssetQuantity",
      "outputs": [
        {
          "internalType": "uint256",
          "name": "",
          "type": "uint256"
        }
      ],
      "stateMutability": "view",
      "type": "function"
    },
    {
      "inputs": [
        {
          "internalType": "uint256",
          "name": "_eth_mktcap",
          "type": "uint256"
        }
      ],
      "name": "setETHMktcap",
      "outputs": [],
      "stateMutability": "nonpayable",
      "type": "function"
    },
    {
      "inputs": [
        {
          "internalType": "uint256",
          "name": "_wbtc_mktcap",
          "type": "uint256"
        }
      ],
      "name": "setWBTCMktCap",
      "outputs": [],
      "stateMutability": "nonpayable",
      "type": "function"
    },
    {
      "inputs": [
        {
          "internalType": "uint256",
          "name": "_wbtc_price",
          "type": "uint256"
        }
      ],
      "name": "setWBTCPrice",
      "outputs": [],
      "stateMutability": "nonpayable",
      "type": "function"
    },
    {
      "inputs": [
        {
          "internalType": "address",
          "name": "",
          "type": "address"
        }
      ],
      "name": "shareholder_to_share",
      "outputs": [
        {
          "internalType": "uint256",
          "name": "",
          "type": "uint256"
        }
      ],
      "stateMutability": "view",
      "type": "function"
    },
    {
      "inputs": [
        {
          "internalType": "address",
          "name": "",
          "type": "address"
        }
      ],
      "name": "shareholder_to_wei",
      "outputs": [
        {
          "internalType": "uint256",
          "name": "",
          "type": "uint256"
        }
      ],
      "stateMutability": "view",
      "type": "function"
    },
    {
      "inputs": [
        {
          "internalType": "uint256",
          "name": "",
          "type": "uint256"
        }
      ],
      "name": "shareholders",
      "outputs": [
        {
          "internalType": "address",
          "name": "",
          "type": "address"
        }
      ],
      "stateMutability": "view",
      "type": "function"
    },
    {
      "inputs": [
        {
          "internalType": "uint256",
          "name": "",
          "type": "uint256"
        }
      ],
      "name": "target_holdings",
      "outputs": [
        {
          "internalType": "uint256",
          "name": "",
          "type": "uint256"
        }
      ],
      "stateMutability": "view",
      "type": "function"
    },
    {
      "inputs": [],
      "name": "updateHoldings",
      "outputs": [
        {
          "internalType": "string",
          "name": "",
          "type": "string"
        }
      ],
      "stateMutability": "nonpayable",
      "type": "function"
    },
    {
      "inputs": [
        {
          "internalType": "uint256",
          "name": "existing_funds_wei",
          "type": "uint256"
        }
      ],
      "name": "updateShareHolderToShare",
      "outputs": [],
      "stateMutability": "nonpayable",
      "type": "function"
    },
    {
      "inputs": [],
      "name": "wbtc_mktcap",
      "outputs": [
        {
          "internalType": "uint256",
          "name": "",
          "type": "uint256"
        }
      ],
      "stateMutability": "view",
      "type": "function"
    },
    {
      "inputs": [],
      "name": "wbtc_price",
      "outputs": [
        {
          "internalType": "uint256",
          "name": "",
          "type": "uint256"
        }
      ],
      "stateMutability": "view",
      "type": "function"
    },
    {
      "inputs": [],
      "name": "writeHoldingsDebugInfo",
      "outputs": [],
      "stateMutability": "nonpayable",
      "type": "function"
    },
    {
      "stateMutability": "payable",
      "type": "receive"
    }
  ],
  "bytecode": "0x60806040523480156200001157600080fd5b506040516200238e3803806200238e83398181016040528101906200003791906200037c565b80806004819055506200004f6200005760201b60201c565b5050620004dc565b60005b600580549050811015620000b85760006001600060058481548110620000855762000084620003ae565b5b90600052602060002001548152602001908152602001600020819055508080620000af906200040c565b9150506200005a565b5060056000620000c99190620002a8565b620000d96200016a60201b60201c565b60059080519060200190620000f0929190620002cb565b5060005b60058054905081101562000167576000600582815481106200011b576200011a620003ae565b5b9060005260206000200154905062000139816200022860201b60201c565b60016000838152602001908152602001600020819055505080806200015e906200040c565b915050620000f4565b50565b6060600760006200017c9190620002a8565b60076000908060018154018082558091505060019003906000526020600020016000909190919091505560076001908060018154018082558091505060019003906000526020600020016000909190919091505560078054806020026020016040519081016040528092919081815260200182805480156200021e57602002820191906000526020600020905b81548152602001906001019080831162000209575b5050505050905090565b60008082036200024357670de0b6b3a76400009050620002a3565b600182036200025757600c549050620002a3565b60016000116200029e576040517f08c379a00000000000000000000000000000000000000000000000000000000081526004016200029590620004ba565b60405180910390fd5b600090505b919050565b5080546000825590600052602060002090810190620002c891906200031d565b50565b8280548282559060005260206000209081019282156200030a579160200282015b8281111562000309578251825591602001919060010190620002ec565b5b5090506200031991906200031d565b5090565b5b80821115620003385760008160009055506001016200031e565b5090565b600080fd5b6000819050919050565b620003568162000341565b81146200036257600080fd5b50565b60008151905062000376816200034b565b92915050565b6000602082840312156200039557620003946200033c565b5b6000620003a58482850162000365565b91505092915050565b7f4e487b7100000000000000000000000000000000000000000000000000000000600052603260045260246000fd5b7f4e487b7100000000000000000000000000000000000000000000000000000000600052601160045260246000fd5b6000620004198262000341565b91507fffffffffffffffffffffffffffffffffffffffffffffffffffffffffffffffff82036200044e576200044d620003dd565b5b600182019050919050565b600082825260208201905092915050565b7f61737365745f696420697320696e76616c696400000000000000000000000000600082015250565b6000620004a260138362000459565b9150620004af826200046a565b602082019050919050565b60006020820190508181036000830152620004d58162000493565b9050919050565b611ea280620004ec6000396000f3fe6080604052600436106101dc5760003560e01c80637a968f9811610102578063af50330911610095578063e757223011610064578063e75722301461072b578063e852cbf314610768578063f039842f146107a5578063fa1ea211146107e2576101ed565b8063af5033091461066f578063b36fdf33146106ac578063bc31c1c1146106c3578063ddf2afba14610700576101ed565b806387f86d92116100d157806387f86d92146105b25780638a1558e1146105db57806399d65d7414610607578063ab377daa14610632576101ed565b80637a968f98146104e45780637aefbd0b1461052157806387002c591461055e578063875022d214610589576101ed565b80632b35e77a1161017a57806364220c971161014957806364220c971461040257806367e4ac2c1461043f578063706d8a371461046a5780637148cbec146104a7576101ed565b80632b35e77a1461035a57806331bccadd146103855780633acfcb86146103c25780634b2305c5146103d9576101ed565b80630e8a242a116101b65780630e8a242a14610278578063112d2ceb146102b557806321e2d94e146102e057806329f85ab01461031d576101ed565b806303630137146101f957806309b1f3da146102225780630d9054231461024d576101ed565b366101ed576101eb333461081f565b005b6101f7333461081f565b005b34801561020557600080fd5b50610220600480360381019061021b919061187d565b610af0565b005b34801561022e57600080fd5b50610237610afa565b60405161024491906118b9565b60405180910390f35b34801561025957600080fd5b50610262610b00565b60405161026f91906118b9565b60405180910390f35b34801561028457600080fd5b5061029f600480360381019061029a919061187d565b610b06565b6040516102ac91906118b9565b60405180910390f35b3480156102c157600080fd5b506102ca610b79565b6040516102d791906118b9565b60405180910390f35b3480156102ec57600080fd5b506103076004803603810190610302919061187d565b610b7f565b60405161031491906118b9565b60405180910390f35b34801561032957600080fd5b50610344600480360381019061033f9190611932565b610ba3565b60405161035191906118b9565b60405180910390f35b34801561036657600080fd5b5061036f610bbb565b60405161037c91906118b9565b60405180910390f35b34801561039157600080fd5b506103ac60048036038101906103a7919061195f565b610bc1565b6040516103b991906118b9565b60405180910390f35b3480156103ce57600080fd5b506103d7610be4565b005b3480156103e557600080fd5b5061040060048036038101906103fb919061187d565b610c98565b005b34801561040e57600080fd5b506104296004803603810190610424919061199f565b61081f565b6040516104369190611a6f565b60405180910390f35b34801561044b57600080fd5b50610454610de4565b6040516104619190611b4f565b60405180910390f35b34801561047657600080fd5b50610491600480360381019061048c919061187d565b610e9e565b60405161049e91906118b9565b60405180910390f35b3480156104b357600080fd5b506104ce60048036038101906104c9919061195f565b610ec2565b6040516104db91906118b9565b60405180910390f35b3480156104f057600080fd5b5061050b60048036038101906105069190611932565b610ee5565b60405161051891906118b9565b60405180910390f35b34801561052d57600080fd5b506105486004803603810190610543919061187d565b610efd565b60405161055591906118b9565b60405180910390f35b34801561056a57600080fd5b50610573610f15565b6040516105809190611a6f565b60405180910390f35b34801561059557600080fd5b506105b060048036038101906105ab919061187d565b61119d565b005b3480156105be57600080fd5b506105d960048036038101906105d4919061187d565b6111a7565b005b3480156105e757600080fd5b506105f06111b1565b6040516105fe929190611b71565b60405180910390f35b34801561061357600080fd5b5061061c611264565b60405161062991906118b9565b60405180910390f35b34801561063e57600080fd5b506106596004803603810190610654919061187d565b61126a565b6040516106669190611bb7565b60405180910390f35b34801561067b57600080fd5b506106966004803603810190610691919061187d565b6112a9565b6040516106a391906118b9565b60405180910390f35b3480156106b857600080fd5b506106c16112c1565b005b3480156106cf57600080fd5b506106ea60048036038101906106e5919061187d565b6113b2565b6040516106f791906118b9565b60405180910390f35b34801561070c57600080fd5b506107156113ca565b60405161072291906118b9565b60405180910390f35b34801561073757600080fd5b50610752600480360381019061074d919061187d565b611471565b60405161075f91906118b9565b60405180910390f35b34801561077457600080fd5b5061078f600480360381019061078a919061187d565b6114ea565b60405161079c91906118b9565b60405180910390f35b3480156107b157600080fd5b506107cc60048036038101906107c79190611c10565b61150e565b6040516107d99190611a6f565b60405180910390f35b3480156107ee57600080fd5b506108096004803603810190610804919061187d565b611793565b60405161081691906118b9565b60405180910390f35b6060600061082b6113ca565b905060005b6006805490508110156109305760006006828154811061085357610852611c50565b5b9060005260206000200160009054906101000a900473ffffffffffffffffffffffffffffffffffffffff169050620f4240600260008373ffffffffffffffffffffffffffffffffffffffff1673ffffffffffffffffffffffffffffffffffffffff16815260200190815260200160002054846108cf9190611cae565b6108d99190611d1f565b600860008373ffffffffffffffffffffffffffffffffffffffff1673ffffffffffffffffffffffffffffffffffffffff1681526020019081526020016000208190555050808061092890611d50565b915050610830565b5082600860008673ffffffffffffffffffffffffffffffffffffffff1673ffffffffffffffffffffffffffffffffffffffff16815260200190815260200160002060008282546109809190611d98565b9250508190555082816109939190611d98565b90506000805b600680549050811015610a3a576000600682815481106109bc576109bb611c50565b5b9060005260206000200160009054906101000a900473ffffffffffffffffffffffffffffffffffffffff1690508673ffffffffffffffffffffffffffffffffffffffff168173ffffffffffffffffffffffffffffffffffffffff1603610a26576001925050610a3a565b508080610a3290611d50565b915050610999565b5080610aa4576006859080600181540180825580915050600190039060005260206000200160009091909190916101000a81548173ffffffffffffffffffffffffffffffffffffffff021916908373ffffffffffffffffffffffffffffffffffffffff1602179055505b610aad82610c98565b836000808081526020019081526020016000206000828254610acf9190611d98565b92505081905550604051806020016040528060008152509250505092915050565b80600e8190555050565b600c5481565b600d5481565b6000808203610b1957600d549050610b74565b60018203610b2b57600e549050610b74565b6001600011610b6f576040517f08c379a0000000000000000000000000000000000000000000000000000000008152600401610b6690611e18565b60405180910390fd5b600090505b919050565b600e5481565b60078181548110610b8f57600080fd5b906000526020600020016000915090505481565b60086020528060005260406000206000915090505481565b60035481565b600080610bcd84611471565b90508083610bdb9190611cae565b91505092915050565b60005b600580549050811015610c9557600060058281548110610c0a57610c09611c50565b5b906000526020600020015490506000806000838152602001908152602001600020549050600a829080600181540180825580915050600190039060005260206000200160009091909190915055600b81908060018154018082558091505060019003906000526020600020016000909190919091505550508080610c8d90611d50565b915050610be7565b50565b60005b600680549050811015610de057600060068281548110610cbe57610cbd611c50565b5b9060005260206000200160009054906101000a900473ffffffffffffffffffffffffffffffffffffffff16905082600860008373ffffffffffffffffffffffffffffffffffffffff1673ffffffffffffffffffffffffffffffffffffffff16815260200190815260200160002054620f4240610d3a9190611cae565b610d449190611d1f565b600260008373ffffffffffffffffffffffffffffffffffffffff1673ffffffffffffffffffffffffffffffffffffffff168152602001908152602001600020819055506000600860008373ffffffffffffffffffffffffffffffffffffffff1673ffffffffffffffffffffffffffffffffffffffff16815260200190815260200160002081905550508080610dd890611d50565b915050610c9b565b5050565b606060076000610df491906117b7565b6007600090806001815401808255809150506001900390600052602060002001600090919091909150556007600190806001815401808255809150506001900390600052602060002001600090919091909150556007805480602002602001604051908101604052809291908181526020018280548015610e9457602002820191906000526020600020905b815481526020019060010190808311610e80575b5050505050905090565b600b8181548110610eae57600080fd5b906000526020600020016000915090505481565b600080610ece84611471565b90508083610edc9190611cae565b91505092915050565b60026020528060005260406000206000915090505481565b60096020528060005260406000206000915090505481565b6060610f1f6112c1565b6000610f296113ca565b90506000805b600580549050811015610f8f57600060058281548110610f5257610f51611c50565b5b906000526020600020015490506000610f6a82610b06565b90508084610f789190611d98565b935050508080610f8790611d50565b915050610f2f565b5060005b60058054905081101561104a57600060058281548110610fb657610fb5611c50565b5b906000526020600020015490506000610fce82610b06565b905060006001600084815260200190815260200160002054905080858388670de0b6b3a7640000610fff9190611cae565b6110099190611cae565b6110139190611d1f565b61101d9190611d1f565b6009600085815260200190815260200160002081905550505050808061104290611d50565b915050610f93565b5060005b6005805490508110156111855760006005828154811061107157611070611c50565b5b9060005260206000200154905060008060008381526020019081526020016000205490506000600960008481526020019081526020016000205490508082111561110e57600081836110c39190611e38565b90506110e284670de0b6b3a7640000836110dd9190611d1f565b610ec2565b508060008086815260200190815260200160002060008282546111059190611e38565b92505081905550505b8082101561116f57600082826111249190611e38565b905061114384670de0b6b3a76400008361113e9190611d1f565b610bc1565b508060008086815260200190815260200160002060008282546111669190611d98565b92505081905550505b505050808061117d90611d50565b91505061104e565b50604051806020016040528060008152509250505090565b80600d8190555050565b80600c8190555050565b606080600a600b8180548060200260200160405190810160405280929190818152602001828054801561120357602002820191906000526020600020905b8154815260200190600101908083116111ef575b505050505091508080548060200260200160405190810160405280929190818152602001828054801561125557602002820191906000526020600020905b815481526020019060010190808311611241575b50505050509050915091509091565b60045481565b6006818154811061127a57600080fd5b906000526020600020016000915054906101000a900473ffffffffffffffffffffffffffffffffffffffff1681565b60006020528060005260406000206000915090505481565b60005b60058054905081101561131b57600060016000600584815481106112eb576112ea611c50565b5b9060005260206000200154815260200190815260200160002081905550808061131390611d50565b9150506112c4565b506005600061132a91906117b7565b611332610de4565b600590805190602001906113479291906117d8565b5060005b6005805490508110156113af5760006005828154811061136e5761136d611c50565b5b9060005260206000200154905061138481611471565b60016000838152602001908152602001600020819055505080806113a790611d50565b91505061134b565b50565b60016020528060005260406000206000915090505481565b6000806000905060005b600580549050811015611469576000600582815481106113f7576113f6611c50565b5b90600052602060002001549050670de0b6b3a764000060008083815260200190815260200160002054600160008481526020019081526020016000205461143e9190611cae565b6114489190611d1f565b836114539190611d98565b925050808061146190611d50565b9150506113d4565b508091505090565b600080820361148a57670de0b6b3a764000090506114e5565b6001820361149c57600c5490506114e5565b60016000116114e0576040517f08c379a00000000000000000000000000000000000000000000000000000000081526004016114d790611e18565b60405180910390fd5b600090505b919050565b600581815481106114fa57600080fd5b906000526020600020016000915090505481565b6060600061151a6113ca565b905060005b60068054905081101561161f5760006006828154811061154257611541611c50565b5b9060005260206000200160009054906101000a900473ffffffffffffffffffffffffffffffffffffffff169050620f4240600260008373ffffffffffffffffffffffffffffffffffffffff1673ffffffffffffffffffffffffffffffffffffffff16815260200190815260200160002054846115be9190611cae565b6115c89190611d1f565b600860008373ffffffffffffffffffffffffffffffffffffffff1673ffffffffffffffffffffffffffffffffffffffff1681526020019081526020016000208190555050808061161790611d50565b91505061151f565b506000600260008673ffffffffffffffffffffffffffffffffffffffff1673ffffffffffffffffffffffffffffffffffffffff168152602001908152602001600020549050600084620f42406116759190611cae565b82620f42406116849190611cae565b8461168f9190611cae565b6116999190611cae565b905080600860008873ffffffffffffffffffffffffffffffffffffffff1673ffffffffffffffffffffffffffffffffffffffff16815260200190815260200160002060008282546116ea9190611e38565b9250508190555080836116fd9190611e38565b925061170883610c98565b80600080808152602001908152602001600020600082825461172a9190611e38565b925050819055508573ffffffffffffffffffffffffffffffffffffffff166108fc829081150290604051600060405180830381858888f19350505050158015611777573d6000803e3d6000fd5b5060405180602001604052806000815250935050505092915050565b600a81815481106117a357600080fd5b906000526020600020016000915090505481565b50805460008255906000526020600020908101906117d59190611825565b50565b828054828255906000526020600020908101928215611814579160200282015b828111156118135782518255916020019190600101906117f8565b5b5090506118219190611825565b5090565b5b8082111561183e576000816000905550600101611826565b5090565b600080fd5b6000819050919050565b61185a81611847565b811461186557600080fd5b50565b60008135905061187781611851565b92915050565b60006020828403121561189357611892611842565b5b60006118a184828501611868565b91505092915050565b6118b381611847565b82525050565b60006020820190506118ce60008301846118aa565b92915050565b600073ffffffffffffffffffffffffffffffffffffffff82169050919050565b60006118ff826118d4565b9050919050565b61190f816118f4565b811461191a57600080fd5b50565b60008135905061192c81611906565b92915050565b60006020828403121561194857611947611842565b5b60006119568482850161191d565b91505092915050565b6000806040838503121561197657611975611842565b5b600061198485828601611868565b925050602061199585828601611868565b9150509250929050565b600080604083850312156119b6576119b5611842565b5b60006119c48582860161191d565b92505060206119d585828601611868565b9150509250929050565b600081519050919050565b600082825260208201905092915050565b60005b83811015611a195780820151818401526020810190506119fe565b60008484015250505050565b6000601f19601f8301169050919050565b6000611a41826119df565b611a4b81856119ea565b9350611a5b8185602086016119fb565b611a6481611a25565b840191505092915050565b60006020820190508181036000830152611a898184611a36565b905092915050565b600081519050919050565b600082825260208201905092915050565b6000819050602082019050919050565b611ac681611847565b82525050565b6000611ad88383611abd565b60208301905092915050565b6000602082019050919050565b6000611afc82611a91565b611b068185611a9c565b9350611b1183611aad565b8060005b83811015611b42578151611b298882611acc565b9750611b3483611ae4565b925050600181019050611b15565b5085935050505092915050565b60006020820190508181036000830152611b698184611af1565b905092915050565b60006040820190508181036000830152611b8b8185611af1565b90508181036020830152611b9f8184611af1565b90509392505050565b611bb1816118f4565b82525050565b6000602082019050611bcc6000830184611ba8565b92915050565b6000611bdd826118d4565b9050919050565b611bed81611bd2565b8114611bf857600080fd5b50565b600081359050611c0a81611be4565b92915050565b60008060408385031215611c2757611c26611842565b5b6000611c3585828601611bfb565b9250506020611c4685828601611868565b9150509250929050565b7f4e487b7100000000000000000000000000000000000000000000000000000000600052603260045260246000fd5b7f4e487b7100000000000000000000000000000000000000000000000000000000600052601160045260246000fd5b6000611cb982611847565b9150611cc483611847565b9250828202611cd281611847565b91508282048414831517611ce957611ce8611c7f565b5b5092915050565b7f4e487b7100000000000000000000000000000000000000000000000000000000600052601260045260246000fd5b6000611d2a82611847565b9150611d3583611847565b925082611d4557611d44611cf0565b5b828204905092915050565b6000611d5b82611847565b91507fffffffffffffffffffffffffffffffffffffffffffffffffffffffffffffffff8203611d8d57611d8c611c7f565b5b600182019050919050565b6000611da382611847565b9150611dae83611847565b9250828201905080821115611dc657611dc5611c7f565b5b92915050565b7f61737365745f696420697320696e76616c696400000000000000000000000000600082015250565b6000611e026013836119ea565b9150611e0d82611dcc565b602082019050919050565b60006020820190508181036000830152611e3181611df5565b9050919050565b6000611e4382611847565b9150611e4e83611847565b9250828203905081811115611e6657611e65611c7f565b5b9291505056fea2646970667358221220f9099d7d6448529a7b7cc4fc2ed1babb6275210a1a4ff980432826f3f053b40464736f6c63430008110033",
  "linkReferences": {},
  "deployedLinkReferences": {}
}