{
  "_format": "hh-sol-artifact-1",
  "contractName": "MockIndexFund",
  "sourceName": "contracts/IndexFund.sol",
  "abi": [
    {
      "inputs": [
        {
          "internalType": "uint256",
          "name": "_min_holding_update_diff_duration",
          "type": "uint256"
        }
      ],
      "stateMutability": "nonpayable",
      "type": "constructor"
    },
    {
      "stateMutability": "payable",
      "type": "fallback"
    },
    {
      "inputs": [
        {
          "internalType": "uint256",
          "name": "",
          "type": "uint256"
        }
      ],
      "name": "asset_ids",
      "outputs": [
        {
          "internalType": "uint256",
          "name": "",
          "type": "uint256"
        }
      ],
      "stateMutability": "view",
      "type": "function"
    },
    {
      "inputs": [
        {
          "internalType": "uint256",
          "name": "asset_id",
          "type": "uint256"
        },
        {
          "internalType": "uint256",
          "name": "quantity",
          "type": "uint256"
        }
      ],
      "name": "buyAssetQuantity",
      "outputs": [
        {
          "internalType": "uint256",
          "name": "",
          "type": "uint256"
        }
      ],
      "stateMutability": "view",
      "type": "function"
    },
    {
      "inputs": [
        {
          "internalType": "uint256",
          "name": "asset_id",
          "type": "uint256"
        }
      ],
      "name": "getAssetAbsoluteWeight",
      "outputs": [
        {
          "internalType": "uint256",
          "name": "",
          "type": "uint256"
        }
      ],
      "stateMutability": "view",
      "type": "function"
    },
    {
      "inputs": [],
      "name": "getAssets",
      "outputs": [
        {
          "internalType": "uint256[]",
          "name": "",
          "type": "uint256[]"
        }
      ],
      "stateMutability": "nonpayable",
      "type": "function"
    },
    {
      "inputs": [],
      "name": "getExistingFundsWei",
      "outputs": [
        {
          "internalType": "uint256",
          "name": "",
          "type": "uint256"
        }
      ],
      "stateMutability": "view",
      "type": "function"
    },
    {
      "inputs": [
        {
          "internalType": "uint256",
          "name": "asset_id",
          "type": "uint256"
        }
      ],
      "name": "getPrice",
      "outputs": [
        {
          "internalType": "uint256",
          "name": "",
          "type": "uint256"
        }
      ],
      "stateMutability": "view",
      "type": "function"
    },
    {
      "inputs": [
        {
          "internalType": "uint256",
          "name": "",
          "type": "uint256"
        }
      ],
      "name": "holdings",
      "outputs": [
        {
          "internalType": "uint256",
          "name": "",
          "type": "uint256"
        }
      ],
      "stateMutability": "view",
      "type": "function"
    },
    {
      "inputs": [
        {
          "internalType": "address",
          "name": "depositing_shareholder",
          "type": "address"
        },
        {
          "internalType": "uint256",
          "name": "deposited_wei",
          "type": "uint256"
        }
      ],
      "name": "inputFunds",
      "outputs": [
        {
          "internalType": "string",
          "name": "",
          "type": "string"
        }
      ],
      "stateMutability": "nonpayable",
      "type": "function"
    },
    {
      "inputs": [],
      "name": "last_holding_update_time",
      "outputs": [
        {
          "internalType": "uint256",
          "name": "",
          "type": "uint256"
        }
      ],
      "stateMutability": "view",
      "type": "function"
    },
    {
      "inputs": [],
      "name": "min_holding_update_diff_duration",
      "outputs": [
        {
          "internalType": "uint256",
          "name": "",
          "type": "uint256"
        }
      ],
      "stateMutability": "view",
      "type": "function"
    },
    {
      "inputs": [
        {
          "internalType": "address payable",
          "name": "withdrawing_shareholder",
          "type": "address"
        },
        {
          "internalType": "uint256",
          "name": "withdrawn_share_micro_units",
          "type": "uint256"
        }
      ],
      "name": "outputFunds",
      "outputs": [
        {
          "internalType": "string",
          "name": "",
          "type": "string"
        }
      ],
      "stateMutability": "nonpayable",
      "type": "function"
    },
    {
      "inputs": [
        {
          "internalType": "uint256",
          "name": "",
          "type": "uint256"
        }
      ],
      "name": "prices",
      "outputs": [
        {
          "internalType": "uint256",
          "name": "",
          "type": "uint256"
        }
      ],
      "stateMutability": "view",
      "type": "function"
    },
    {
      "inputs": [],
      "name": "refreshAssets",
      "outputs": [],
      "stateMutability": "nonpayable",
      "type": "function"
    },
    {
      "inputs": [
        {
          "internalType": "uint256",
          "name": "",
          "type": "uint256"
        }
      ],
      "name": "scratch_arr",
      "outputs": [
        {
          "internalType": "uint256",
          "name": "",
          "type": "uint256"
        }
      ],
      "stateMutability": "view",
      "type": "function"
    },
    {
      "inputs": [
        {
          "internalType": "uint256",
          "name": "asset_id",
          "type": "uint256"
        },
        {
          "internalType": "uint256",
          "name": "quantity",
          "type": "uint256"
        }
      ],
      "name": "sellAssetQuantity",
      "outputs": [
        {
          "internalType": "uint256",
          "name": "",
          "type": "uint256"
        }
      ],
      "stateMutability": "view",
      "type": "function"
    },
    {
      "inputs": [
        {
          "internalType": "address",
          "name": "",
          "type": "address"
        }
      ],
      "name": "shareholder_to_share",
      "outputs": [
        {
          "internalType": "uint256",
          "name": "",
          "type": "uint256"
        }
      ],
      "stateMutability": "view",
      "type": "function"
    },
    {
      "inputs": [
        {
          "internalType": "address",
          "name": "",
          "type": "address"
        }
      ],
      "name": "shareholder_to_wei",
      "outputs": [
        {
          "internalType": "uint256",
          "name": "",
          "type": "uint256"
        }
      ],
      "stateMutability": "view",
      "type": "function"
    },
    {
      "inputs": [
        {
          "internalType": "uint256",
          "name": "",
          "type": "uint256"
        }
      ],
      "name": "shareholders",
      "outputs": [
        {
          "internalType": "address",
          "name": "",
          "type": "address"
        }
      ],
      "stateMutability": "view",
      "type": "function"
    },
    {
      "inputs": [
        {
          "internalType": "uint256",
          "name": "",
          "type": "uint256"
        }
      ],
      "name": "target_holdings",
      "outputs": [
        {
          "internalType": "uint256",
          "name": "",
          "type": "uint256"
        }
      ],
      "stateMutability": "view",
      "type": "function"
    },
    {
      "inputs": [],
      "name": "updateHoldings",
      "outputs": [
        {
          "internalType": "string",
          "name": "",
          "type": "string"
        }
      ],
      "stateMutability": "nonpayable",
      "type": "function"
    },
    {
      "inputs": [
        {
          "internalType": "uint256",
          "name": "existing_funds_wei",
          "type": "uint256"
        }
      ],
      "name": "updateShareHolderToShare",
      "outputs": [],
      "stateMutability": "nonpayable",
      "type": "function"
    },
    {
      "stateMutability": "payable",
      "type": "receive"
    }
  ],
  "bytecode": "0x60806040523480156200001157600080fd5b5060405162001db538038062001db583398181016040528101906200003791906200030e565b80806004819055506200004f6200005760201b60201c565b50506200049d565b60005b600580549050811015620000b8576000600160006005848154811062000085576200008462000340565b5b90600052602060002001548152602001908152602001600020819055508080620000af906200039e565b9150506200005a565b5060056000620000c991906200023a565b620000d96200016a60201b60201c565b60059080519060200190620000f09291906200025d565b5060005b60058054905081101562000167576000600582815481106200011b576200011a62000340565b5b906000526020600020015490506200013981620001fe60201b60201c565b60016000838152602001908152602001600020819055505080806200015e906200039e565b915050620000f4565b50565b6060600760006200017c91906200023a565b6007600090806001815401808255809150506001900390600052602060002001600090919091909150556007805480602002602001604051908101604052809291908181526020018280548015620001f457602002820191906000526020600020905b815481526020019060010190808311620001df575b5050505050905090565b60008082036200021457620f4240905062000235565b600a826200022391906200041a565b6103e862000232919062000452565b90505b919050565b50805460008255906000526020600020908101906200025a9190620002af565b50565b8280548282559060005260206000209081019282156200029c579160200282015b828111156200029b5782518255916020019190600101906200027e565b5b509050620002ab9190620002af565b5090565b5b80821115620002ca576000816000905550600101620002b0565b5090565b600080fd5b6000819050919050565b620002e881620002d3565b8114620002f457600080fd5b50565b6000815190506200030881620002dd565b92915050565b600060208284031215620003275762000326620002ce565b5b60006200033784828501620002f7565b91505092915050565b7f4e487b7100000000000000000000000000000000000000000000000000000000600052603260045260246000fd5b7f4e487b7100000000000000000000000000000000000000000000000000000000600052601160045260246000fd5b6000620003ab82620002d3565b91507fffffffffffffffffffffffffffffffffffffffffffffffffffffffffffffffff8203620003e057620003df6200036f565b5b600182019050919050565b7f4e487b7100000000000000000000000000000000000000000000000000000000600052601260045260246000fd5b60006200042782620002d3565b91506200043483620002d3565b925082620004475762000446620003eb565b5b828206905092915050565b60006200045f82620002d3565b91506200046c83620002d3565b92508282026200047c81620002d3565b915082820484148315176200049657620004956200036f565b5b5092915050565b61190880620004ad6000396000f3fe60806040526004361061012e5760003560e01c80637aefbd0b116100ab578063b36fdf331161006f578063b36fdf3314610482578063bc31c1c114610499578063ddf2afba146104d6578063e757223014610501578063e852cbf31461053e578063f039842f1461057b5761013f565b80637aefbd0b1461037557806387002c59146103b257806399d65d74146103dd578063ab377daa14610408578063af503309146104455761013f565b80634b2305c5116100f25780634b2305c51461026a57806364220c971461029357806367e4ac2c146102d05780637148cbec146102fb5780637a968f98146103385761013f565b80630e8a242a1461014b57806321e2d94e1461018857806329f85ab0146101c55780632b35e77a1461020257806331bccadd1461022d5761013f565b3661013f5761013d33346105b8565b005b61014933346105b8565b005b34801561015757600080fd5b50610172600480360381019061016d9190611355565b610889565b60405161017f9190611391565b60405180910390f35b34801561019457600080fd5b506101af60048036038101906101aa9190611355565b6108ab565b6040516101bc9190611391565b60405180910390f35b3480156101d157600080fd5b506101ec60048036038101906101e7919061140a565b6108cf565b6040516101f99190611391565b60405180910390f35b34801561020e57600080fd5b506102176108e7565b6040516102249190611391565b60405180910390f35b34801561023957600080fd5b50610254600480360381019061024f9190611437565b6108ed565b6040516102619190611391565b60405180910390f35b34801561027657600080fd5b50610291600480360381019061028c9190611355565b610910565b005b34801561029f57600080fd5b506102ba60048036038101906102b59190611477565b6105b8565b6040516102c79190611547565b60405180910390f35b3480156102dc57600080fd5b506102e5610a5c565b6040516102f29190611627565b60405180910390f35b34801561030757600080fd5b50610322600480360381019061031d9190611437565b610aec565b60405161032f9190611391565b60405180910390f35b34801561034457600080fd5b5061035f600480360381019061035a919061140a565b610b0f565b60405161036c9190611391565b60405180910390f35b34801561038157600080fd5b5061039c60048036038101906103979190611355565b610b27565b6040516103a99190611391565b60405180910390f35b3480156103be57600080fd5b506103c7610b3f565b6040516103d49190611547565b60405180910390f35b3480156103e957600080fd5b506103f2610da3565b6040516103ff9190611391565b60405180910390f35b34801561041457600080fd5b5061042f600480360381019061042a9190611355565b610da9565b60405161043c9190611658565b60405180910390f35b34801561045157600080fd5b5061046c60048036038101906104679190611355565b610de8565b6040516104799190611391565b60405180910390f35b34801561048e57600080fd5b50610497610e00565b005b3480156104a557600080fd5b506104c060048036038101906104bb9190611355565b610ef1565b6040516104cd9190611391565b60405180910390f35b3480156104e257600080fd5b506104eb610f09565b6040516104f89190611391565b60405180910390f35b34801561050d57600080fd5b5061052860048036038101906105239190611355565b610fb0565b6040516105359190611391565b60405180910390f35b34801561054a57600080fd5b5061056560048036038101906105609190611355565b610fe6565b6040516105729190611391565b60405180910390f35b34801561058757600080fd5b506105a2600480360381019061059d91906116b1565b61100a565b6040516105af9190611547565b60405180910390f35b606060006105c4610f09565b905060005b6006805490508110156106c9576000600682815481106105ec576105eb6116f1565b5b9060005260206000200160009054906101000a900473ffffffffffffffffffffffffffffffffffffffff169050620f4240600260008373ffffffffffffffffffffffffffffffffffffffff1673ffffffffffffffffffffffffffffffffffffffff1681526020019081526020016000205484610668919061174f565b61067291906117c0565b600860008373ffffffffffffffffffffffffffffffffffffffff1673ffffffffffffffffffffffffffffffffffffffff168152602001908152602001600020819055505080806106c1906117f1565b9150506105c9565b5082600860008673ffffffffffffffffffffffffffffffffffffffff1673ffffffffffffffffffffffffffffffffffffffff16815260200190815260200160002060008282546107199190611839565b92505081905550828161072c9190611839565b90506000805b6006805490508110156107d357600060068281548110610755576107546116f1565b5b9060005260206000200160009054906101000a900473ffffffffffffffffffffffffffffffffffffffff1690508673ffffffffffffffffffffffffffffffffffffffff168173ffffffffffffffffffffffffffffffffffffffff16036107bf5760019250506107d3565b5080806107cb906117f1565b915050610732565b508061083d576006859080600181540180825580915050600190039060005260206000200160009091909190916101000a81548173ffffffffffffffffffffffffffffffffffffffff021916908373ffffffffffffffffffffffffffffffffffffffff1602179055505b61084682610910565b8360008080815260200190815260200160002060008282546108689190611839565b92505081905550604051806020016040528060008152509250505092915050565b6000600a82610898919061186d565b60646108a4919061174f565b9050919050565b600781815481106108bb57600080fd5b906000526020600020016000915090505481565b60086020528060005260406000206000915090505481565b60035481565b6000806108f984610fb0565b90508083610907919061174f565b91505092915050565b60005b600680549050811015610a5857600060068281548110610936576109356116f1565b5b9060005260206000200160009054906101000a900473ffffffffffffffffffffffffffffffffffffffff16905082600860008373ffffffffffffffffffffffffffffffffffffffff1673ffffffffffffffffffffffffffffffffffffffff16815260200190815260200160002054620f42406109b2919061174f565b6109bc91906117c0565b600260008373ffffffffffffffffffffffffffffffffffffffff1673ffffffffffffffffffffffffffffffffffffffff168152602001908152602001600020819055506000600860008373ffffffffffffffffffffffffffffffffffffffff1673ffffffffffffffffffffffffffffffffffffffff16815260200190815260200160002081905550508080610a50906117f1565b915050610913565b5050565b606060076000610a6c919061128f565b6007600090806001815401808255809150506001900390600052602060002001600090919091909150556007805480602002602001604051908101604052809291908181526020018280548015610ae257602002820191906000526020600020905b815481526020019060010190808311610ace575b5050505050905090565b600080610af884610fb0565b90508083610b06919061174f565b91505092915050565b60026020528060005260406000206000915090505481565b60096020528060005260406000206000915090505481565b6060610b49610e00565b6000805b600580549050811015610bc557600060058281548110610b7057610b6f6116f1565b5b906000526020600020015490506000610b8882610889565b90508084610b969190611839565b935080600960008481526020019081526020016000208190555050508080610bbd906117f1565b915050610b4d565b5060005b600580549050811015610c5157600060058281548110610bec57610beb6116f1565b5b906000526020600020015490506000610c0482610889565b905083670de0b6b3a764000082610c1b919061174f565b610c2591906117c0565b600960008481526020019081526020016000208190555050508080610c49906117f1565b915050610bc9565b5060005b600580549050811015610d8c57600060058281548110610c7857610c776116f1565b5b90600052602060002001549050600080600083815260200190815260200160002054905060006009600084815260200190815260200160002054905080821115610d155760008183610cca919061189e565b9050610ce984670de0b6b3a764000083610ce491906117c0565b610aec565b50806000808681526020019081526020016000206000828254610d0c919061189e565b92505081905550505b80821015610d765760008282610d2b919061189e565b9050610d4a84670de0b6b3a764000083610d4591906117c0565b6108ed565b50806000808681526020019081526020016000206000828254610d6d9190611839565b92505081905550505b5050508080610d84906117f1565b915050610c55565b506040518060200160405280600081525091505090565b60045481565b60068181548110610db957600080fd5b906000526020600020016000915054906101000a900473ffffffffffffffffffffffffffffffffffffffff1681565b60006020528060005260406000206000915090505481565b60005b600580549050811015610e5a5760006001600060058481548110610e2a57610e296116f1565b5b90600052602060002001548152602001908152602001600020819055508080610e52906117f1565b915050610e03565b5060056000610e69919061128f565b610e71610a5c565b60059080519060200190610e869291906112b0565b5060005b600580549050811015610eee57600060058281548110610ead57610eac6116f1565b5b90600052602060002001549050610ec381610fb0565b6001600083815260200190815260200160002081905550508080610ee6906117f1565b915050610e8a565b50565b60016020528060005260406000206000915090505481565b6000806000905060005b600580549050811015610fa857600060058281548110610f3657610f356116f1565b5b90600052602060002001549050670de0b6b3a7640000600080838152602001908152602001600020546001600084815260200190815260200160002054610f7d919061174f565b610f8791906117c0565b83610f929190611839565b9250508080610fa0906117f1565b915050610f13565b508091505090565b6000808203610fc457620f42409050610fe1565b600a82610fd1919061186d565b6103e8610fde919061174f565b90505b919050565b60058181548110610ff657600080fd5b906000526020600020016000915090505481565b60606000611016610f09565b905060005b60068054905081101561111b5760006006828154811061103e5761103d6116f1565b5b9060005260206000200160009054906101000a900473ffffffffffffffffffffffffffffffffffffffff169050620f4240600260008373ffffffffffffffffffffffffffffffffffffffff1673ffffffffffffffffffffffffffffffffffffffff16815260200190815260200160002054846110ba919061174f565b6110c491906117c0565b600860008373ffffffffffffffffffffffffffffffffffffffff1673ffffffffffffffffffffffffffffffffffffffff16815260200190815260200160002081905550508080611113906117f1565b91505061101b565b506000600260008673ffffffffffffffffffffffffffffffffffffffff1673ffffffffffffffffffffffffffffffffffffffff168152602001908152602001600020549050600084620f4240611171919061174f565b82620f4240611180919061174f565b8461118b919061174f565b611195919061174f565b905080600860008873ffffffffffffffffffffffffffffffffffffffff1673ffffffffffffffffffffffffffffffffffffffff16815260200190815260200160002060008282546111e6919061189e565b9250508190555080836111f9919061189e565b925061120483610910565b806000808081526020019081526020016000206000828254611226919061189e565b925050819055508573ffffffffffffffffffffffffffffffffffffffff166108fc829081150290604051600060405180830381858888f19350505050158015611273573d6000803e3d6000fd5b5060405180602001604052806000815250935050505092915050565b50805460008255906000526020600020908101906112ad91906112fd565b50565b8280548282559060005260206000209081019282156112ec579160200282015b828111156112eb5782518255916020019190600101906112d0565b5b5090506112f991906112fd565b5090565b5b808211156113165760008160009055506001016112fe565b5090565b600080fd5b6000819050919050565b6113328161131f565b811461133d57600080fd5b50565b60008135905061134f81611329565b92915050565b60006020828403121561136b5761136a61131a565b5b600061137984828501611340565b91505092915050565b61138b8161131f565b82525050565b60006020820190506113a66000830184611382565b92915050565b600073ffffffffffffffffffffffffffffffffffffffff82169050919050565b60006113d7826113ac565b9050919050565b6113e7816113cc565b81146113f257600080fd5b50565b600081359050611404816113de565b92915050565b6000602082840312156114205761141f61131a565b5b600061142e848285016113f5565b91505092915050565b6000806040838503121561144e5761144d61131a565b5b600061145c85828601611340565b925050602061146d85828601611340565b9150509250929050565b6000806040838503121561148e5761148d61131a565b5b600061149c858286016113f5565b92505060206114ad85828601611340565b9150509250929050565b600081519050919050565b600082825260208201905092915050565b60005b838110156114f15780820151818401526020810190506114d6565b60008484015250505050565b6000601f19601f8301169050919050565b6000611519826114b7565b61152381856114c2565b93506115338185602086016114d3565b61153c816114fd565b840191505092915050565b60006020820190508181036000830152611561818461150e565b905092915050565b600081519050919050565b600082825260208201905092915050565b6000819050602082019050919050565b61159e8161131f565b82525050565b60006115b08383611595565b60208301905092915050565b6000602082019050919050565b60006115d482611569565b6115de8185611574565b93506115e983611585565b8060005b8381101561161a57815161160188826115a4565b975061160c836115bc565b9250506001810190506115ed565b5085935050505092915050565b6000602082019050818103600083015261164181846115c9565b905092915050565b611652816113cc565b82525050565b600060208201905061166d6000830184611649565b92915050565b600061167e826113ac565b9050919050565b61168e81611673565b811461169957600080fd5b50565b6000813590506116ab81611685565b92915050565b600080604083850312156116c8576116c761131a565b5b60006116d68582860161169c565b92505060206116e785828601611340565b9150509250929050565b7f4e487b7100000000000000000000000000000000000000000000000000000000600052603260045260246000fd5b7f4e487b7100000000000000000000000000000000000000000000000000000000600052601160045260246000fd5b600061175a8261131f565b91506117658361131f565b92508282026117738161131f565b9150828204841483151761178a57611789611720565b5b5092915050565b7f4e487b7100000000000000000000000000000000000000000000000000000000600052601260045260246000fd5b60006117cb8261131f565b91506117d68361131f565b9250826117e6576117e5611791565b5b828204905092915050565b60006117fc8261131f565b91507fffffffffffffffffffffffffffffffffffffffffffffffffffffffffffffffff820361182e5761182d611720565b5b600182019050919050565b60006118448261131f565b915061184f8361131f565b925082820190508082111561186757611866611720565b5b92915050565b60006118788261131f565b91506118838361131f565b92508261189357611892611791565b5b828206905092915050565b60006118a98261131f565b91506118b48361131f565b92508282039050818111156118cc576118cb611720565b5b9291505056fea2646970667358221220c36bda0ece8a406ddeb78c70582e49fb85f96a2fca182233041e2ef27f1dcc9e64736f6c63430008110033",
  "linkReferences": {},
  "deployedLinkReferences": {}
}