{
  "_format": "hh-sol-artifact-1",
  "contractName": "MockIndexFund",
  "sourceName": "contracts/IndexFund.sol",
  "abi": [
    {
      "inputs": [
        {
          "internalType": "uint256",
          "name": "_min_holding_update_diff_duration",
          "type": "uint256"
        }
      ],
      "stateMutability": "nonpayable",
      "type": "constructor"
    },
    {
      "stateMutability": "payable",
      "type": "fallback"
    },
    {
      "inputs": [
        {
          "internalType": "uint256",
          "name": "",
          "type": "uint256"
        }
      ],
      "name": "asset_ids",
      "outputs": [
        {
          "internalType": "uint256",
          "name": "",
          "type": "uint256"
        }
      ],
      "stateMutability": "view",
      "type": "function"
    },
    {
      "inputs": [
        {
          "internalType": "uint256",
          "name": "asset_id",
          "type": "uint256"
        },
        {
          "internalType": "uint256",
          "name": "quantity",
          "type": "uint256"
        }
      ],
      "name": "buyAssetQuantity",
      "outputs": [
        {
          "internalType": "uint256",
          "name": "",
          "type": "uint256"
        }
      ],
      "stateMutability": "view",
      "type": "function"
    },
    {
      "inputs": [
        {
          "internalType": "uint256",
          "name": "",
          "type": "uint256"
        }
      ],
      "name": "debug_ary1",
      "outputs": [
        {
          "internalType": "uint256",
          "name": "",
          "type": "uint256"
        }
      ],
      "stateMutability": "view",
      "type": "function"
    },
    {
      "inputs": [
        {
          "internalType": "uint256",
          "name": "",
          "type": "uint256"
        }
      ],
      "name": "debug_ary2",
      "outputs": [
        {
          "internalType": "uint256",
          "name": "",
          "type": "uint256"
        }
      ],
      "stateMutability": "view",
      "type": "function"
    },
    {
      "inputs": [
        {
          "internalType": "uint256",
          "name": "",
          "type": "uint256"
        }
      ],
      "name": "debug_ary3",
      "outputs": [
        {
          "internalType": "address",
          "name": "",
          "type": "address"
        }
      ],
      "stateMutability": "view",
      "type": "function"
    },
    {
      "inputs": [],
      "name": "eth_mktcap",
      "outputs": [
        {
          "internalType": "uint256",
          "name": "",
          "type": "uint256"
        }
      ],
      "stateMutability": "view",
      "type": "function"
    },
    {
      "inputs": [
        {
          "internalType": "uint256",
          "name": "asset_id",
          "type": "uint256"
        }
      ],
      "name": "getAssetAbsoluteWeight",
      "outputs": [
        {
          "internalType": "uint256",
          "name": "",
          "type": "uint256"
        }
      ],
      "stateMutability": "view",
      "type": "function"
    },
    {
      "inputs": [],
      "name": "getAssets",
      "outputs": [
        {
          "internalType": "uint256[]",
          "name": "",
          "type": "uint256[]"
        }
      ],
      "stateMutability": "nonpayable",
      "type": "function"
    },
    {
      "inputs": [],
      "name": "getExistingFundsWei",
      "outputs": [
        {
          "internalType": "uint256",
          "name": "",
          "type": "uint256"
        }
      ],
      "stateMutability": "view",
      "type": "function"
    },
    {
      "inputs": [],
      "name": "getHoldingDebugInfo",
      "outputs": [
        {
          "internalType": "uint256[]",
          "name": "",
          "type": "uint256[]"
        },
        {
          "internalType": "uint256[]",
          "name": "",
          "type": "uint256[]"
        }
      ],
      "stateMutability": "view",
      "type": "function"
    },
    {
      "inputs": [
        {
          "internalType": "uint256",
          "name": "asset_id",
          "type": "uint256"
        }
      ],
      "name": "getPrice",
      "outputs": [
        {
          "internalType": "uint256",
          "name": "",
          "type": "uint256"
        }
      ],
      "stateMutability": "view",
      "type": "function"
    },
    {
      "inputs": [],
      "name": "getShareholderDebugInfo",
      "outputs": [
        {
          "internalType": "address[]",
          "name": "",
          "type": "address[]"
        },
        {
          "internalType": "uint256[]",
          "name": "",
          "type": "uint256[]"
        }
      ],
      "stateMutability": "view",
      "type": "function"
    },
    {
      "inputs": [
        {
          "internalType": "uint256",
          "name": "",
          "type": "uint256"
        }
      ],
      "name": "holdings",
      "outputs": [
        {
          "internalType": "uint256",
          "name": "",
          "type": "uint256"
        }
      ],
      "stateMutability": "view",
      "type": "function"
    },
    {
      "inputs": [
        {
          "internalType": "address",
          "name": "depositing_shareholder",
          "type": "address"
        },
        {
          "internalType": "uint256",
          "name": "deposited_wei",
          "type": "uint256"
        }
      ],
      "name": "inputFunds",
      "outputs": [
        {
          "internalType": "string",
          "name": "",
          "type": "string"
        }
      ],
      "stateMutability": "nonpayable",
      "type": "function"
    },
    {
      "inputs": [],
      "name": "last_holding_update_time",
      "outputs": [
        {
          "internalType": "uint256",
          "name": "",
          "type": "uint256"
        }
      ],
      "stateMutability": "view",
      "type": "function"
    },
    {
      "inputs": [],
      "name": "min_holding_update_diff_duration",
      "outputs": [
        {
          "internalType": "uint256",
          "name": "",
          "type": "uint256"
        }
      ],
      "stateMutability": "view",
      "type": "function"
    },
    {
      "inputs": [
        {
          "internalType": "address payable",
          "name": "withdrawing_shareholder",
          "type": "address"
        },
        {
          "internalType": "uint256",
          "name": "withdrawn_share_micro_units",
          "type": "uint256"
        },
        {
          "internalType": "bool",
          "name": "do_transfer",
          "type": "bool"
        }
      ],
      "name": "outputFunds",
      "outputs": [
        {
          "internalType": "string",
          "name": "",
          "type": "string"
        }
      ],
      "stateMutability": "nonpayable",
      "type": "function"
    },
    {
      "inputs": [
        {
          "internalType": "uint256",
          "name": "",
          "type": "uint256"
        }
      ],
      "name": "prices",
      "outputs": [
        {
          "internalType": "uint256",
          "name": "",
          "type": "uint256"
        }
      ],
      "stateMutability": "view",
      "type": "function"
    },
    {
      "inputs": [],
      "name": "refreshAssets",
      "outputs": [],
      "stateMutability": "nonpayable",
      "type": "function"
    },
    {
      "inputs": [
        {
          "internalType": "uint256",
          "name": "",
          "type": "uint256"
        }
      ],
      "name": "scratch_arr",
      "outputs": [
        {
          "internalType": "uint256",
          "name": "",
          "type": "uint256"
        }
      ],
      "stateMutability": "view",
      "type": "function"
    },
    {
      "inputs": [
        {
          "internalType": "uint256",
          "name": "asset_id",
          "type": "uint256"
        },
        {
          "internalType": "uint256",
          "name": "quantity",
          "type": "uint256"
        }
      ],
      "name": "sellAssetQuantity",
      "outputs": [
        {
          "internalType": "uint256",
          "name": "",
          "type": "uint256"
        }
      ],
      "stateMutability": "view",
      "type": "function"
    },
    {
      "inputs": [
        {
          "internalType": "uint256",
          "name": "_eth_mktcap",
          "type": "uint256"
        }
      ],
      "name": "setETHMktcap",
      "outputs": [],
      "stateMutability": "nonpayable",
      "type": "function"
    },
    {
      "inputs": [
        {
          "internalType": "uint256",
          "name": "_wbtc_mktcap",
          "type": "uint256"
        }
      ],
      "name": "setWBTCMktCap",
      "outputs": [],
      "stateMutability": "nonpayable",
      "type": "function"
    },
    {
      "inputs": [
        {
          "internalType": "uint256",
          "name": "_wbtc_price",
          "type": "uint256"
        }
      ],
      "name": "setWBTCPrice",
      "outputs": [],
      "stateMutability": "nonpayable",
      "type": "function"
    },
    {
      "inputs": [
        {
          "internalType": "address",
          "name": "",
          "type": "address"
        }
      ],
      "name": "shareholder_to_share",
      "outputs": [
        {
          "internalType": "uint256",
          "name": "",
          "type": "uint256"
        }
      ],
      "stateMutability": "view",
      "type": "function"
    },
    {
      "inputs": [
        {
          "internalType": "address",
          "name": "",
          "type": "address"
        }
      ],
      "name": "shareholder_to_wei",
      "outputs": [
        {
          "internalType": "uint256",
          "name": "",
          "type": "uint256"
        }
      ],
      "stateMutability": "view",
      "type": "function"
    },
    {
      "inputs": [
        {
          "internalType": "uint256",
          "name": "",
          "type": "uint256"
        }
      ],
      "name": "shareholders",
      "outputs": [
        {
          "internalType": "address",
          "name": "",
          "type": "address"
        }
      ],
      "stateMutability": "view",
      "type": "function"
    },
    {
      "inputs": [
        {
          "internalType": "uint256",
          "name": "",
          "type": "uint256"
        }
      ],
      "name": "target_holdings",
      "outputs": [
        {
          "internalType": "uint256",
          "name": "",
          "type": "uint256"
        }
      ],
      "stateMutability": "view",
      "type": "function"
    },
    {
      "inputs": [],
      "name": "updateHoldings",
      "outputs": [
        {
          "internalType": "string",
          "name": "",
          "type": "string"
        }
      ],
      "stateMutability": "nonpayable",
      "type": "function"
    },
    {
      "inputs": [
        {
          "internalType": "uint256",
          "name": "existing_funds_wei",
          "type": "uint256"
        }
      ],
      "name": "updateShareHolderToShare",
      "outputs": [],
      "stateMutability": "nonpayable",
      "type": "function"
    },
    {
      "inputs": [],
      "name": "wbtc_mktcap",
      "outputs": [
        {
          "internalType": "uint256",
          "name": "",
          "type": "uint256"
        }
      ],
      "stateMutability": "view",
      "type": "function"
    },
    {
      "inputs": [],
      "name": "wbtc_price",
      "outputs": [
        {
          "internalType": "uint256",
          "name": "",
          "type": "uint256"
        }
      ],
      "stateMutability": "view",
      "type": "function"
    },
    {
      "inputs": [],
      "name": "writeHoldingsDebugInfo",
      "outputs": [],
      "stateMutability": "nonpayable",
      "type": "function"
    },
    {
      "inputs": [],
      "name": "writeShareholderDebugInfo",
      "outputs": [],
      "stateMutability": "nonpayable",
      "type": "function"
    },
    {
      "stateMutability": "payable",
      "type": "receive"
    }
  ],
  "bytecode": "0x60806040523480156200001157600080fd5b50604051620028333803806200283383398181016040528101906200003791906200037c565b80806004819055506200004f6200005760201b60201c565b5050620004dc565b60005b600580549050811015620000b85760006001600060058481548110620000855762000084620003ae565b5b90600052602060002001548152602001908152602001600020819055508080620000af906200040c565b9150506200005a565b5060056000620000c99190620002a8565b620000d96200016a60201b60201c565b60059080519060200190620000f0929190620002cb565b5060005b60058054905081101562000167576000600582815481106200011b576200011a620003ae565b5b9060005260206000200154905062000139816200022860201b60201c565b60016000838152602001908152602001600020819055505080806200015e906200040c565b915050620000f4565b50565b6060600760006200017c9190620002a8565b60076000908060018154018082558091505060019003906000526020600020016000909190919091505560076001908060018154018082558091505060019003906000526020600020016000909190919091505560078054806020026020016040519081016040528092919081815260200182805480156200021e57602002820191906000526020600020905b81548152602001906001019080831162000209575b5050505050905090565b60008082036200024357670de0b6b3a76400009050620002a3565b600182036200025757600d549050620002a3565b60016000116200029e576040517f08c379a00000000000000000000000000000000000000000000000000000000081526004016200029590620004ba565b60405180910390fd5b600090505b919050565b5080546000825590600052602060002090810190620002c891906200031d565b50565b8280548282559060005260206000209081019282156200030a579160200282015b8281111562000309578251825591602001919060010190620002ec565b5b5090506200031991906200031d565b5090565b5b80821115620003385760008160009055506001016200031e565b5090565b600080fd5b6000819050919050565b620003568162000341565b81146200036257600080fd5b50565b60008151905062000376816200034b565b92915050565b6000602082840312156200039557620003946200033c565b5b6000620003a58482850162000365565b91505092915050565b7f4e487b7100000000000000000000000000000000000000000000000000000000600052603260045260246000fd5b7f4e487b7100000000000000000000000000000000000000000000000000000000600052601160045260246000fd5b6000620004198262000341565b91507fffffffffffffffffffffffffffffffffffffffffffffffffffffffffffffffff82036200044e576200044d620003dd565b5b600182019050919050565b600082825260208201905092915050565b7f61737365745f696420697320696e76616c696400000000000000000000000000600082015250565b6000620004a260138362000459565b9150620004af826200046a565b602082019050919050565b60006020820190508181036000830152620004d58162000493565b9050919050565b61234780620004ec6000396000f3fe6080604052600436106101fd5760003560e01c80637aefbd0b1161010d578063ab377daa116100a0578063ddf2afba1161006f578063ddf2afba146107a1578063e7572230146107cc578063e852cbf314610809578063fa1ea21114610846578063fcab0077146108835761020e565b8063ab377daa146106d3578063af50330914610710578063b36fdf331461074d578063bc31c1c1146107645761020e565b80638a1558e1116100dc5780638a1558e114610613578063996b798c1461063f57806399d65d741461066b578063a139beb4146106965761020e565b80637aefbd0b1461055957806387002c5914610596578063875022d2146105c157806387f86d92146105ea5761020e565b806331bccadd1161019057806364220c971161015f57806364220c971461043a57806367e4ac2c14610477578063706d8a37146104a25780637148cbec146104df5780637a968f981461051c5761020e565b806331bccadd146103a657806337d3b94e146103e35780633acfcb86146103fa5780634b2305c5146104115761020e565b8063112d2ceb116101cc578063112d2ceb146102d657806321e2d94e1461030157806329f85ab01461033e5780632b35e77a1461037b5761020e565b8063036301371461021a57806309b1f3da146102435780630d9054231461026e5780630e8a242a146102995761020e565b3661020e5761020c33346108c0565b005b61021833346108c0565b005b34801561022657600080fd5b50610241600480360381019061023c9190611be2565b610b91565b005b34801561024f57600080fd5b50610258610b9b565b6040516102659190611c1e565b60405180910390f35b34801561027a57600080fd5b50610283610ba1565b6040516102909190611c1e565b60405180910390f35b3480156102a557600080fd5b506102c060048036038101906102bb9190611be2565b610ba7565b6040516102cd9190611c1e565b60405180910390f35b3480156102e257600080fd5b506102eb610c1a565b6040516102f89190611c1e565b60405180910390f35b34801561030d57600080fd5b5061032860048036038101906103239190611be2565b610c20565b6040516103359190611c1e565b60405180910390f35b34801561034a57600080fd5b5061036560048036038101906103609190611c97565b610c44565b6040516103729190611c1e565b60405180910390f35b34801561038757600080fd5b50610390610c5c565b60405161039d9190611c1e565b60405180910390f35b3480156103b257600080fd5b506103cd60048036038101906103c89190611cc4565b610c62565b6040516103da9190611c1e565b60405180910390f35b3480156103ef57600080fd5b506103f8610c85565b005b34801561040657600080fd5b5061040f610ddc565b005b34801561041d57600080fd5b5061043860048036038101906104339190611be2565b610eac565b005b34801561044657600080fd5b50610461600480360381019061045c9190611d04565b6108c0565b60405161046e9190611dd4565b60405180910390f35b34801561048357600080fd5b5061048c610ff8565b6040516104999190611eb4565b60405180910390f35b3480156104ae57600080fd5b506104c960048036038101906104c49190611be2565b6110b2565b6040516104d69190611c1e565b60405180910390f35b3480156104eb57600080fd5b5061050660048036038101906105019190611cc4565b6110d6565b6040516105139190611c1e565b60405180910390f35b34801561052857600080fd5b50610543600480360381019061053e9190611c97565b6110f9565b6040516105509190611c1e565b60405180910390f35b34801561056557600080fd5b50610580600480360381019061057b9190611be2565b611111565b60405161058d9190611c1e565b60405180910390f35b3480156105a257600080fd5b506105ab611129565b6040516105b89190611dd4565b60405180910390f35b3480156105cd57600080fd5b506105e860048036038101906105e39190611be2565b6113b1565b005b3480156105f657600080fd5b50610611600480360381019061060c9190611be2565b6113bb565b005b34801561061f57600080fd5b506106286113c5565b604051610636929190611ed6565b60405180910390f35b34801561064b57600080fd5b50610654611478565b604051610662929190611fcb565b60405180910390f35b34801561067757600080fd5b50610680611561565b60405161068d9190611c1e565b60405180910390f35b3480156106a257600080fd5b506106bd60048036038101906106b89190612078565b611567565b6040516106ca9190611dd4565b60405180910390f35b3480156106df57600080fd5b506106fa60048036038101906106f59190611be2565b6117f4565b60405161070791906120da565b60405180910390f35b34801561071c57600080fd5b5061073760048036038101906107329190611be2565b611833565b6040516107449190611c1e565b60405180910390f35b34801561075957600080fd5b5061076261184b565b005b34801561077057600080fd5b5061078b60048036038101906107869190611be2565b61193c565b6040516107989190611c1e565b60405180910390f35b3480156107ad57600080fd5b506107b6611954565b6040516107c39190611c1e565b60405180910390f35b3480156107d857600080fd5b506107f360048036038101906107ee9190611be2565b6119fb565b6040516108009190611c1e565b60405180910390f35b34801561081557600080fd5b50610830600480360381019061082b9190611be2565b611a74565b60405161083d9190611c1e565b60405180910390f35b34801561085257600080fd5b5061086d60048036038101906108689190611be2565b611a98565b60405161087a9190611c1e565b60405180910390f35b34801561088f57600080fd5b506108aa60048036038101906108a59190611be2565b611abc565b6040516108b791906120da565b60405180910390f35b606060006108cc611954565b905060005b6006805490508110156109d1576000600682815481106108f4576108f36120f5565b5b9060005260206000200160009054906101000a900473ffffffffffffffffffffffffffffffffffffffff169050620f4240600260008373ffffffffffffffffffffffffffffffffffffffff1673ffffffffffffffffffffffffffffffffffffffff16815260200190815260200160002054846109709190612153565b61097a91906121c4565b600860008373ffffffffffffffffffffffffffffffffffffffff1673ffffffffffffffffffffffffffffffffffffffff168152602001908152602001600020819055505080806109c9906121f5565b9150506108d1565b5082600860008673ffffffffffffffffffffffffffffffffffffffff1673ffffffffffffffffffffffffffffffffffffffff1681526020019081526020016000206000828254610a21919061223d565b925050819055508281610a34919061223d565b90506000805b600680549050811015610adb57600060068281548110610a5d57610a5c6120f5565b5b9060005260206000200160009054906101000a900473ffffffffffffffffffffffffffffffffffffffff1690508673ffffffffffffffffffffffffffffffffffffffff168173ffffffffffffffffffffffffffffffffffffffff1603610ac7576001925050610adb565b508080610ad3906121f5565b915050610a3a565b5080610b45576006859080600181540180825580915050600190039060005260206000200160009091909190916101000a81548173ffffffffffffffffffffffffffffffffffffffff021916908373ffffffffffffffffffffffffffffffffffffffff1602179055505b610b4e82610eac565b836000808081526020019081526020016000206000828254610b70919061223d565b92505081905550604051806020016040528060008152509250505092915050565b80600f8190555050565b600d5481565b600e5481565b6000808203610bba57600e549050610c15565b60018203610bcc57600f549050610c15565b6001600011610c10576040517f08c379a0000000000000000000000000000000000000000000000000000000008152600401610c07906122bd565b60405180910390fd5b600090505b919050565b600f5481565b60078181548110610c3057600080fd5b906000526020600020016000915090505481565b60086020528060005260406000206000915090505481565b60035481565b600080610c6e846119fb565b90508083610c7c9190612153565b91505092915050565b600c6000610c939190611afb565b600a6000610ca19190611b1c565b60005b600680549050811015610dd957600060068281548110610cc757610cc66120f5565b5b9060005260206000200160009054906101000a900473ffffffffffffffffffffffffffffffffffffffff1690506000600260008373ffffffffffffffffffffffffffffffffffffffff1673ffffffffffffffffffffffffffffffffffffffff168152602001908152602001600020549050600c829080600181540180825580915050600190039060005260206000200160009091909190916101000a81548173ffffffffffffffffffffffffffffffffffffffff021916908373ffffffffffffffffffffffffffffffffffffffff160217905550600a81908060018154018082558091505060019003906000526020600020016000909190919091505550508080610dd1906121f5565b915050610ca4565b50565b600a6000610dea9190611b1c565b600b6000610df89190611b1c565b60005b600580549050811015610ea957600060058281548110610e1e57610e1d6120f5565b5b906000526020600020015490506000806000838152602001908152602001600020549050600a829080600181540180825580915050600190039060005260206000200160009091909190915055600b81908060018154018082558091505060019003906000526020600020016000909190919091505550508080610ea1906121f5565b915050610dfb565b50565b60005b600680549050811015610ff457600060068281548110610ed257610ed16120f5565b5b9060005260206000200160009054906101000a900473ffffffffffffffffffffffffffffffffffffffff16905082600860008373ffffffffffffffffffffffffffffffffffffffff1673ffffffffffffffffffffffffffffffffffffffff16815260200190815260200160002054620f4240610f4e9190612153565b610f5891906121c4565b600260008373ffffffffffffffffffffffffffffffffffffffff1673ffffffffffffffffffffffffffffffffffffffff168152602001908152602001600020819055506000600860008373ffffffffffffffffffffffffffffffffffffffff1673ffffffffffffffffffffffffffffffffffffffff16815260200190815260200160002081905550508080610fec906121f5565b915050610eaf565b5050565b6060600760006110089190611b1c565b60076000908060018154018082558091505060019003906000526020600020016000909190919091505560076001908060018154018082558091505060019003906000526020600020016000909190919091505560078054806020026020016040519081016040528092919081815260200182805480156110a857602002820191906000526020600020905b815481526020019060010190808311611094575b5050505050905090565b600b81815481106110c257600080fd5b906000526020600020016000915090505481565b6000806110e2846119fb565b905080836110f09190612153565b91505092915050565b60026020528060005260406000206000915090505481565b60096020528060005260406000206000915090505481565b606061113361184b565b600061113d611954565b90506000805b6005805490508110156111a357600060058281548110611166576111656120f5565b5b90600052602060002001549050600061117e82610ba7565b9050808461118c919061223d565b93505050808061119b906121f5565b915050611143565b5060005b60058054905081101561125e576000600582815481106111ca576111c96120f5565b5b9060005260206000200154905060006111e282610ba7565b905060006001600084815260200190815260200160002054905080858388670de0b6b3a76400006112139190612153565b61121d9190612153565b61122791906121c4565b61123191906121c4565b60096000858152602001908152602001600020819055505050508080611256906121f5565b9150506111a7565b5060005b60058054905081101561139957600060058281548110611285576112846120f5565b5b9060005260206000200154905060008060008381526020019081526020016000205490506000600960008481526020019081526020016000205490508082111561132257600081836112d791906122dd565b90506112f684670de0b6b3a7640000836112f191906121c4565b6110d6565b5080600080868152602001908152602001600020600082825461131991906122dd565b92505081905550505b80821015611383576000828261133891906122dd565b905061135784670de0b6b3a76400008361135291906121c4565b610c62565b5080600080868152602001908152602001600020600082825461137a919061223d565b92505081905550505b5050508080611391906121f5565b915050611262565b50604051806020016040528060008152509250505090565b80600e8190555050565b80600d8190555050565b606080600a600b8180548060200260200160405190810160405280929190818152602001828054801561141757602002820191906000526020600020905b815481526020019060010190808311611403575b505050505091508080548060200260200160405190810160405280929190818152602001828054801561146957602002820191906000526020600020905b815481526020019060010190808311611455575b50505050509050915091509091565b606080600c600a8180548060200260200160405190810160405280929190818152602001828054801561150057602002820191906000526020600020905b8160009054906101000a900473ffffffffffffffffffffffffffffffffffffffff1673ffffffffffffffffffffffffffffffffffffffff16815260200190600101908083116114b6575b505050505091508080548060200260200160405190810160405280929190818152602001828054801561155257602002820191906000526020600020905b81548152602001906001019080831161153e575b50505050509050915091509091565b60045481565b60606000611573611954565b905060005b6006805490508110156116785760006006828154811061159b5761159a6120f5565b5b9060005260206000200160009054906101000a900473ffffffffffffffffffffffffffffffffffffffff169050620f4240600260008373ffffffffffffffffffffffffffffffffffffffff1673ffffffffffffffffffffffffffffffffffffffff16815260200190815260200160002054846116179190612153565b61162191906121c4565b600860008373ffffffffffffffffffffffffffffffffffffffff1673ffffffffffffffffffffffffffffffffffffffff16815260200190815260200160002081905550508080611670906121f5565b915050611578565b506000600260008773ffffffffffffffffffffffffffffffffffffffff1673ffffffffffffffffffffffffffffffffffffffff1681526020019081526020016000205490506000620f424086620f424084866116d49190612153565b6116de91906121c4565b6116e89190612153565b6116f291906121c4565b905080600860008973ffffffffffffffffffffffffffffffffffffffff1673ffffffffffffffffffffffffffffffffffffffff168152602001908152602001600020600082825461174391906122dd565b92505081905550808361175691906122dd565b925061176183610eac565b80600080808152602001908152602001600020600082825461178391906122dd565b9250508190555084156117d8578673ffffffffffffffffffffffffffffffffffffffff166108fc829081150290604051600060405180830381858888f193505050501580156117d6573d6000803e3d6000fd5b505b6040518060200160405280600081525093505050509392505050565b6006818154811061180457600080fd5b906000526020600020016000915054906101000a900473ffffffffffffffffffffffffffffffffffffffff1681565b60006020528060005260406000206000915090505481565b60005b6005805490508110156118a55760006001600060058481548110611875576118746120f5565b5b9060005260206000200154815260200190815260200160002081905550808061189d906121f5565b91505061184e565b50600560006118b49190611b1c565b6118bc610ff8565b600590805190602001906118d1929190611b3d565b5060005b600580549050811015611939576000600582815481106118f8576118f76120f5565b5b9060005260206000200154905061190e816119fb565b6001600083815260200190815260200160002081905550508080611931906121f5565b9150506118d5565b50565b60016020528060005260406000206000915090505481565b6000806000905060005b6005805490508110156119f357600060058281548110611981576119806120f5565b5b90600052602060002001549050670de0b6b3a76400006000808381526020019081526020016000205460016000848152602001908152602001600020546119c89190612153565b6119d291906121c4565b836119dd919061223d565b92505080806119eb906121f5565b91505061195e565b508091505090565b6000808203611a1457670de0b6b3a76400009050611a6f565b60018203611a2657600d549050611a6f565b6001600011611a6a576040517f08c379a0000000000000000000000000000000000000000000000000000000008152600401611a61906122bd565b60405180910390fd5b600090505b919050565b60058181548110611a8457600080fd5b906000526020600020016000915090505481565b600a8181548110611aa857600080fd5b906000526020600020016000915090505481565b600c8181548110611acc57600080fd5b906000526020600020016000915054906101000a900473ffffffffffffffffffffffffffffffffffffffff1681565b5080546000825590600052602060002090810190611b199190611b8a565b50565b5080546000825590600052602060002090810190611b3a9190611b8a565b50565b828054828255906000526020600020908101928215611b79579160200282015b82811115611b78578251825591602001919060010190611b5d565b5b509050611b869190611b8a565b5090565b5b80821115611ba3576000816000905550600101611b8b565b5090565b600080fd5b6000819050919050565b611bbf81611bac565b8114611bca57600080fd5b50565b600081359050611bdc81611bb6565b92915050565b600060208284031215611bf857611bf7611ba7565b5b6000611c0684828501611bcd565b91505092915050565b611c1881611bac565b82525050565b6000602082019050611c336000830184611c0f565b92915050565b600073ffffffffffffffffffffffffffffffffffffffff82169050919050565b6000611c6482611c39565b9050919050565b611c7481611c59565b8114611c7f57600080fd5b50565b600081359050611c9181611c6b565b92915050565b600060208284031215611cad57611cac611ba7565b5b6000611cbb84828501611c82565b91505092915050565b60008060408385031215611cdb57611cda611ba7565b5b6000611ce985828601611bcd565b9250506020611cfa85828601611bcd565b9150509250929050565b60008060408385031215611d1b57611d1a611ba7565b5b6000611d2985828601611c82565b9250506020611d3a85828601611bcd565b9150509250929050565b600081519050919050565b600082825260208201905092915050565b60005b83811015611d7e578082015181840152602081019050611d63565b60008484015250505050565b6000601f19601f8301169050919050565b6000611da682611d44565b611db08185611d4f565b9350611dc0818560208601611d60565b611dc981611d8a565b840191505092915050565b60006020820190508181036000830152611dee8184611d9b565b905092915050565b600081519050919050565b600082825260208201905092915050565b6000819050602082019050919050565b611e2b81611bac565b82525050565b6000611e3d8383611e22565b60208301905092915050565b6000602082019050919050565b6000611e6182611df6565b611e6b8185611e01565b9350611e7683611e12565b8060005b83811015611ea7578151611e8e8882611e31565b9750611e9983611e49565b925050600181019050611e7a565b5085935050505092915050565b60006020820190508181036000830152611ece8184611e56565b905092915050565b60006040820190508181036000830152611ef08185611e56565b90508181036020830152611f048184611e56565b90509392505050565b600081519050919050565b600082825260208201905092915050565b6000819050602082019050919050565b611f4281611c59565b82525050565b6000611f548383611f39565b60208301905092915050565b6000602082019050919050565b6000611f7882611f0d565b611f828185611f18565b9350611f8d83611f29565b8060005b83811015611fbe578151611fa58882611f48565b9750611fb083611f60565b925050600181019050611f91565b5085935050505092915050565b60006040820190508181036000830152611fe58185611f6d565b90508181036020830152611ff98184611e56565b90509392505050565b600061200d82611c39565b9050919050565b61201d81612002565b811461202857600080fd5b50565b60008135905061203a81612014565b92915050565b60008115159050919050565b61205581612040565b811461206057600080fd5b50565b6000813590506120728161204c565b92915050565b60008060006060848603121561209157612090611ba7565b5b600061209f8682870161202b565b93505060206120b086828701611bcd565b92505060406120c186828701612063565b9150509250925092565b6120d481611c59565b82525050565b60006020820190506120ef60008301846120cb565b92915050565b7f4e487b7100000000000000000000000000000000000000000000000000000000600052603260045260246000fd5b7f4e487b7100000000000000000000000000000000000000000000000000000000600052601160045260246000fd5b600061215e82611bac565b915061216983611bac565b925082820261217781611bac565b9150828204841483151761218e5761218d612124565b5b5092915050565b7f4e487b7100000000000000000000000000000000000000000000000000000000600052601260045260246000fd5b60006121cf82611bac565b91506121da83611bac565b9250826121ea576121e9612195565b5b828204905092915050565b600061220082611bac565b91507fffffffffffffffffffffffffffffffffffffffffffffffffffffffffffffffff820361223257612231612124565b5b600182019050919050565b600061224882611bac565b915061225383611bac565b925082820190508082111561226b5761226a612124565b5b92915050565b7f61737365745f696420697320696e76616c696400000000000000000000000000600082015250565b60006122a7601383611d4f565b91506122b282612271565b602082019050919050565b600060208201905081810360008301526122d68161229a565b9050919050565b60006122e882611bac565b91506122f383611bac565b925082820390508181111561230b5761230a612124565b5b9291505056fea2646970667358221220947a8cfb3300c637e674cc920772df6cdd7dcfead53eab364ce8b9f86157d73b64736f6c63430008110033",
  "linkReferences": {},
  "deployedLinkReferences": {}
}