{
  "_format": "hh-sol-artifact-1",
  "contractName": "MockIndexFund",
  "sourceName": "contracts/IndexFund.sol",
  "abi": [
    {
      "inputs": [
        {
          "internalType": "uint256",
          "name": "_min_holding_update_diff_duration",
          "type": "uint256"
        }
      ],
      "stateMutability": "nonpayable",
      "type": "constructor"
    },
    {
      "stateMutability": "payable",
      "type": "fallback"
    },
    {
      "inputs": [
        {
          "internalType": "uint256",
          "name": "",
          "type": "uint256"
        }
      ],
      "name": "asset_ids",
      "outputs": [
        {
          "internalType": "uint256",
          "name": "",
          "type": "uint256"
        }
      ],
      "stateMutability": "view",
      "type": "function"
    },
    {
      "inputs": [
        {
          "internalType": "uint256",
          "name": "asset_id",
          "type": "uint256"
        },
        {
          "internalType": "uint256",
          "name": "quantity",
          "type": "uint256"
        }
      ],
      "name": "buyAssetQuantity",
      "outputs": [
        {
          "internalType": "uint256",
          "name": "",
          "type": "uint256"
        }
      ],
      "stateMutability": "nonpayable",
      "type": "function"
    },
    {
      "inputs": [
        {
          "internalType": "uint256",
          "name": "",
          "type": "uint256"
        }
      ],
      "name": "debug_ary1",
      "outputs": [
        {
          "internalType": "uint256",
          "name": "",
          "type": "uint256"
        }
      ],
      "stateMutability": "view",
      "type": "function"
    },
    {
      "inputs": [
        {
          "internalType": "uint256",
          "name": "",
          "type": "uint256"
        }
      ],
      "name": "debug_ary2",
      "outputs": [
        {
          "internalType": "uint256",
          "name": "",
          "type": "uint256"
        }
      ],
      "stateMutability": "view",
      "type": "function"
    },
    {
      "inputs": [
        {
          "internalType": "uint256",
          "name": "",
          "type": "uint256"
        }
      ],
      "name": "debug_ary3",
      "outputs": [
        {
          "internalType": "address",
          "name": "",
          "type": "address"
        }
      ],
      "stateMutability": "view",
      "type": "function"
    },
    {
      "inputs": [],
      "name": "eth_mktcap",
      "outputs": [
        {
          "internalType": "uint256",
          "name": "",
          "type": "uint256"
        }
      ],
      "stateMutability": "view",
      "type": "function"
    },
    {
      "inputs": [
        {
          "internalType": "uint256",
          "name": "asset_id",
          "type": "uint256"
        }
      ],
      "name": "getAssetAbsoluteWeight",
      "outputs": [
        {
          "internalType": "uint256",
          "name": "",
          "type": "uint256"
        }
      ],
      "stateMutability": "view",
      "type": "function"
    },
    {
      "inputs": [],
      "name": "getAssets",
      "outputs": [
        {
          "internalType": "uint256[]",
          "name": "",
          "type": "uint256[]"
        }
      ],
      "stateMutability": "nonpayable",
      "type": "function"
    },
    {
      "inputs": [],
      "name": "getExistingFundsWei",
      "outputs": [
        {
          "internalType": "uint256",
          "name": "",
          "type": "uint256"
        }
      ],
      "stateMutability": "view",
      "type": "function"
    },
    {
      "inputs": [],
      "name": "getHoldingDebugInfo",
      "outputs": [
        {
          "internalType": "uint256[]",
          "name": "",
          "type": "uint256[]"
        },
        {
          "internalType": "uint256[]",
          "name": "",
          "type": "uint256[]"
        }
      ],
      "stateMutability": "view",
      "type": "function"
    },
    {
      "inputs": [
        {
          "internalType": "uint256",
          "name": "asset_id",
          "type": "uint256"
        }
      ],
      "name": "getPrice",
      "outputs": [
        {
          "internalType": "uint256",
          "name": "",
          "type": "uint256"
        }
      ],
      "stateMutability": "view",
      "type": "function"
    },
    {
      "inputs": [],
      "name": "getShareholderDebugInfo",
      "outputs": [
        {
          "internalType": "address[]",
          "name": "",
          "type": "address[]"
        },
        {
          "internalType": "uint256[]",
          "name": "",
          "type": "uint256[]"
        }
      ],
      "stateMutability": "view",
      "type": "function"
    },
    {
      "inputs": [
        {
          "internalType": "uint256",
          "name": "",
          "type": "uint256"
        }
      ],
      "name": "holdings",
      "outputs": [
        {
          "internalType": "uint256",
          "name": "",
          "type": "uint256"
        }
      ],
      "stateMutability": "view",
      "type": "function"
    },
    {
      "inputs": [
        {
          "internalType": "address",
          "name": "depositing_shareholder",
          "type": "address"
        },
        {
          "internalType": "uint256",
          "name": "deposited_wei",
          "type": "uint256"
        }
      ],
      "name": "inputFunds",
      "outputs": [
        {
          "internalType": "string",
          "name": "",
          "type": "string"
        }
      ],
      "stateMutability": "nonpayable",
      "type": "function"
    },
    {
      "inputs": [],
      "name": "last_holding_update_time",
      "outputs": [
        {
          "internalType": "uint256",
          "name": "",
          "type": "uint256"
        }
      ],
      "stateMutability": "view",
      "type": "function"
    },
    {
      "inputs": [],
      "name": "min_holding_update_diff_duration",
      "outputs": [
        {
          "internalType": "uint256",
          "name": "",
          "type": "uint256"
        }
      ],
      "stateMutability": "view",
      "type": "function"
    },
    {
      "inputs": [
        {
          "internalType": "address payable",
          "name": "withdrawing_shareholder",
          "type": "address"
        },
        {
          "internalType": "uint256",
          "name": "withdrawn_share_micro_units",
          "type": "uint256"
        },
        {
          "internalType": "bool",
          "name": "do_transfer",
          "type": "bool"
        }
      ],
      "name": "outputFunds",
      "outputs": [
        {
          "internalType": "string",
          "name": "",
          "type": "string"
        }
      ],
      "stateMutability": "nonpayable",
      "type": "function"
    },
    {
      "inputs": [
        {
          "internalType": "uint256",
          "name": "",
          "type": "uint256"
        }
      ],
      "name": "prices",
      "outputs": [
        {
          "internalType": "uint256",
          "name": "",
          "type": "uint256"
        }
      ],
      "stateMutability": "view",
      "type": "function"
    },
    {
      "inputs": [],
      "name": "refreshAssets",
      "outputs": [],
      "stateMutability": "nonpayable",
      "type": "function"
    },
    {
      "inputs": [
        {
          "internalType": "uint256",
          "name": "",
          "type": "uint256"
        }
      ],
      "name": "scratch_arr",
      "outputs": [
        {
          "internalType": "uint256",
          "name": "",
          "type": "uint256"
        }
      ],
      "stateMutability": "view",
      "type": "function"
    },
    {
      "inputs": [
        {
          "internalType": "uint256",
          "name": "asset_id",
          "type": "uint256"
        },
        {
          "internalType": "uint256",
          "name": "quantity",
          "type": "uint256"
        }
      ],
      "name": "sellAssetQuantity",
      "outputs": [
        {
          "internalType": "uint256",
          "name": "",
          "type": "uint256"
        }
      ],
      "stateMutability": "nonpayable",
      "type": "function"
    },
    {
      "inputs": [
        {
          "internalType": "uint256",
          "name": "_eth_mktcap",
          "type": "uint256"
        }
      ],
      "name": "setETHMktcap",
      "outputs": [],
      "stateMutability": "nonpayable",
      "type": "function"
    },
    {
      "inputs": [
        {
          "internalType": "uint256",
          "name": "_wbtc_mktcap",
          "type": "uint256"
        }
      ],
      "name": "setWBTCMktCap",
      "outputs": [],
      "stateMutability": "nonpayable",
      "type": "function"
    },
    {
      "inputs": [
        {
          "internalType": "uint256",
          "name": "_wbtc_price",
          "type": "uint256"
        }
      ],
      "name": "setWBTCPrice",
      "outputs": [],
      "stateMutability": "nonpayable",
      "type": "function"
    },
    {
      "inputs": [
        {
          "internalType": "address",
          "name": "",
          "type": "address"
        }
      ],
      "name": "shareholder_to_share",
      "outputs": [
        {
          "internalType": "uint256",
          "name": "",
          "type": "uint256"
        }
      ],
      "stateMutability": "view",
      "type": "function"
    },
    {
      "inputs": [
        {
          "internalType": "address",
          "name": "",
          "type": "address"
        }
      ],
      "name": "shareholder_to_wei",
      "outputs": [
        {
          "internalType": "uint256",
          "name": "",
          "type": "uint256"
        }
      ],
      "stateMutability": "view",
      "type": "function"
    },
    {
      "inputs": [
        {
          "internalType": "uint256",
          "name": "",
          "type": "uint256"
        }
      ],
      "name": "shareholders",
      "outputs": [
        {
          "internalType": "address",
          "name": "",
          "type": "address"
        }
      ],
      "stateMutability": "view",
      "type": "function"
    },
    {
      "inputs": [
        {
          "internalType": "uint256",
          "name": "",
          "type": "uint256"
        }
      ],
      "name": "target_holdings",
      "outputs": [
        {
          "internalType": "uint256",
          "name": "",
          "type": "uint256"
        }
      ],
      "stateMutability": "view",
      "type": "function"
    },
    {
      "inputs": [],
      "name": "updateHoldings",
      "outputs": [
        {
          "internalType": "string",
          "name": "",
          "type": "string"
        }
      ],
      "stateMutability": "nonpayable",
      "type": "function"
    },
    {
      "inputs": [
        {
          "internalType": "uint256",
          "name": "existing_funds_wei",
          "type": "uint256"
        }
      ],
      "name": "updateShareHolderToShare",
      "outputs": [],
      "stateMutability": "nonpayable",
      "type": "function"
    },
    {
      "inputs": [],
      "name": "wbtc_mktcap",
      "outputs": [
        {
          "internalType": "uint256",
          "name": "",
          "type": "uint256"
        }
      ],
      "stateMutability": "view",
      "type": "function"
    },
    {
      "inputs": [],
      "name": "wbtc_price",
      "outputs": [
        {
          "internalType": "uint256",
          "name": "",
          "type": "uint256"
        }
      ],
      "stateMutability": "view",
      "type": "function"
    },
    {
      "inputs": [],
      "name": "writeHoldingsDebugInfo",
      "outputs": [],
      "stateMutability": "nonpayable",
      "type": "function"
    },
    {
      "inputs": [],
      "name": "writeShareholderDebugInfo",
      "outputs": [],
      "stateMutability": "nonpayable",
      "type": "function"
    },
    {
      "stateMutability": "payable",
      "type": "receive"
    }
  ],
  "bytecode": "0x60806040523480156200001157600080fd5b506040516200234238038062002342833981810160405260208110156200003757600080fd5b81019080805190602001909291905050508080600481905550620000606200006860201b60201c565b50506200036d565b60008090505b600580549050811015620000bb57600060016000600584815481106200009057fe5b906000526020600020015481526020019081526020016000208190555080806001019150506200006e565b5060056000620000cc9190620002d0565b620000dc6200015f60201b60201c565b60059080519060200190620000f3929190620002f3565b5060008090505b6005805490508110156200015c576000600582815481106200011857fe5b9060005260206000200154905062000136816200021d60201b60201c565b6001600083815260200190815260200160002081905550508080600101915050620000fa565b50565b606060076000620001719190620002d0565b60076000908060018154018082558091505060019003906000526020600020016000909190919091505560076001908060018154018082558091505060019003906000526020600020016000909190919091505560078054806020026020016040519081016040528092919081815260200182805480156200021357602002820191906000526020600020905b815481526020019060010190808311620001fe575b5050505050905090565b6000808214156200023957670de0b6b3a76400009050620002cb565b60018214156200024e57600d549050620002cb565b6001600011620002c6576040517f08c379a00000000000000000000000000000000000000000000000000000000081526004018080602001828103825260138152602001807f61737365745f696420697320696e76616c69640000000000000000000000000081525060200191505060405180910390fd5b600090505b919050565b5080546000825590600052602060002090810190620002f0919062000345565b50565b82805482825590600052602060002090810192821562000332579160200282015b828111156200033157825182559160200191906001019062000314565b5b50905062000341919062000345565b5090565b6200036a91905b80821115620003665760008160009055506001016200034c565b5090565b90565b611fc5806200037d6000396000f3fe6080604052600436106101fd5760003560e01c80637aefbd0b1161010d578063ab377daa116100a0578063ddf2afba1161006f578063ddf2afba14610c0d578063e757223014610c38578063e852cbf314610c87578063fa1ea21114610cd6578063fcab007714610d255761020f565b8063ab377daa14610add578063af50330914610b58578063b36fdf3314610ba7578063bc31c1c114610bbe5761020f565b80638a1558e1116100dc5780638a1558e11461086a578063996b798c1461091e57806399d65d74146109d2578063a139beb4146109fd5761020f565b80637aefbd0b1461071557806387002c5914610764578063875022d2146107f457806387f86d921461082f5761020f565b806331bccadd1161019057806364220c971161015f57806364220c97146104c857806367e4ac2c1461059c578063706d8a37146106085780637148cbec146106575780637a968f98146106b05761020f565b806331bccadd1461040657806337d3b94e1461045f5780633acfcb86146104765780634b2305c51461048d5761020f565b8063112d2ceb116101cc578063112d2ceb146102fc57806321e2d94e1461032757806329f85ab0146103765780632b35e77a146103db5761020f565b8063036301371461021c57806309b1f3da146102575780630d905423146102825780630e8a242a146102ad5761020f565b3661020f5761020c3334610da0565b50005b6102193334610da0565b50005b34801561022857600080fd5b506102556004803603602081101561023f57600080fd5b810190808035906020019092919050505061103c565b005b34801561026357600080fd5b5061026c611046565b6040518082815260200191505060405180910390f35b34801561028e57600080fd5b5061029761104c565b6040518082815260200191505060405180910390f35b3480156102b957600080fd5b506102e6600480360360208110156102d057600080fd5b8101908080359060200190929190505050611052565b6040518082815260200191505060405180910390f35b34801561030857600080fd5b506103116110fa565b6040518082815260200191505060405180910390f35b34801561033357600080fd5b506103606004803603602081101561034a57600080fd5b8101908080359060200190929190505050611100565b6040518082815260200191505060405180910390f35b34801561038257600080fd5b506103c56004803603602081101561039957600080fd5b81019080803573ffffffffffffffffffffffffffffffffffffffff169060200190929190505050611121565b6040518082815260200191505060405180910390f35b3480156103e757600080fd5b506103f0611139565b6040518082815260200191505060405180910390f35b34801561041257600080fd5b506104496004803603604081101561042957600080fd5b81019080803590602001909291908035906020019092919050505061113f565b6040518082815260200191505060405180910390f35b34801561046b57600080fd5b50610474611159565b005b34801561048257600080fd5b5061048b6112a3565b005b34801561049957600080fd5b506104c6600480360360208110156104b057600080fd5b8101908080359060200190929190505050611366565b005b3480156104d457600080fd5b50610521600480360360408110156104eb57600080fd5b81019080803573ffffffffffffffffffffffffffffffffffffffff16906020019092919080359060200190929190505050610da0565b6040518080602001828103825283818151815260200191508051906020019080838360005b83811015610561578082015181840152602081019050610546565b50505050905090810190601f16801561058e5780820380516001836020036101000a031916815260200191505b509250505060405180910390f35b3480156105a857600080fd5b506105b161149d565b6040518080602001828103825283818151815260200191508051906020019060200280838360005b838110156105f45780820151818401526020810190506105d9565b505050509050019250505060405180910390f35b34801561061457600080fd5b506106416004803603602081101561062b57600080fd5b8101908080359060200190929190505050611557565b6040518082815260200191505060405180910390f35b34801561066357600080fd5b5061069a6004803603604081101561067a57600080fd5b810190808035906020019092919080359060200190929190505050611578565b6040518082815260200191505060405180910390f35b3480156106bc57600080fd5b506106ff600480360360208110156106d357600080fd5b81019080803573ffffffffffffffffffffffffffffffffffffffff169060200190929190505050611592565b6040518082815260200191505060405180910390f35b34801561072157600080fd5b5061074e6004803603602081101561073857600080fd5b81019080803590602001909291905050506115aa565b6040518082815260200191505060405180910390f35b34801561077057600080fd5b506107796115c2565b6040518080602001828103825283818151815260200191508051906020019080838360005b838110156107b957808201518184015260208101905061079e565b50505050905090810190601f1680156107e65780820380516001836020036101000a031916815260200191505b509250505060405180910390f35b34801561080057600080fd5b5061082d6004803603602081101561081757600080fd5b81019080803590602001909291905050506117e0565b005b34801561083b57600080fd5b506108686004803603602081101561085257600080fd5b81019080803590602001909291905050506117ea565b005b34801561087657600080fd5b5061087f6117f4565b604051808060200180602001838103835285818151815260200191508051906020019060200280838360005b838110156108c65780820151818401526020810190506108ab565b50505050905001838103825284818151815260200191508051906020019060200280838360005b838110156109085780820151818401526020810190506108ed565b5050505090500194505050505060405180910390f35b34801561092a57600080fd5b506109336118a7565b604051808060200180602001838103835285818151815260200191508051906020019060200280838360005b8381101561097a57808201518184015260208101905061095f565b50505050905001838103825284818151815260200191508051906020019060200280838360005b838110156109bc5780820151818401526020810190506109a1565b5050505090500194505050505060405180910390f35b3480156109de57600080fd5b506109e7611990565b6040518082815260200191505060405180910390f35b348015610a0957600080fd5b50610a6260048036036060811015610a2057600080fd5b81019080803573ffffffffffffffffffffffffffffffffffffffff16906020019092919080359060200190929190803515159060200190929190505050611996565b6040518080602001828103825283818151815260200191508051906020019080838360005b83811015610aa2578082015181840152602081019050610a87565b50505050905090810190601f168015610acf5780820380516001836020036101000a031916815260200191505b509250505060405180910390f35b348015610ae957600080fd5b50610b1660048036036020811015610b0057600080fd5b8101908080359060200190929190505050611bdd565b604051808273ffffffffffffffffffffffffffffffffffffffff1673ffffffffffffffffffffffffffffffffffffffff16815260200191505060405180910390f35b348015610b6457600080fd5b50610b9160048036036020811015610b7b57600080fd5b8101908080359060200190929190505050611c19565b6040518082815260200191505060405180910390f35b348015610bb357600080fd5b50610bbc611c31565b005b348015610bca57600080fd5b50610bf760048036036020811015610be157600080fd5b8101908080359060200190929190505050611d0e565b6040518082815260200191505060405180910390f35b348015610c1957600080fd5b50610c22611d26565b6040518082815260200191505060405180910390f35b348015610c4457600080fd5b50610c7160048036036020811015610c5b57600080fd5b8101908080359060200190929190505050611daf565b6040518082815260200191505060405180910390f35b348015610c9357600080fd5b50610cc060048036036020811015610caa57600080fd5b8101908080359060200190929190505050611e5d565b6040518082815260200191505060405180910390f35b348015610ce257600080fd5b50610d0f60048036036020811015610cf957600080fd5b8101908080359060200190929190505050611e7e565b6040518082815260200191505060405180910390f35b348015610d3157600080fd5b50610d5e60048036036020811015610d4857600080fd5b8101908080359060200190929190505050611e9f565b604051808273ffffffffffffffffffffffffffffffffffffffff1673ffffffffffffffffffffffffffffffffffffffff16815260200191505060405180910390f35b60606000610dac611d26565b905060008090505b600680549050811015610e9c57600060068281548110610dd057fe5b9060005260206000200160009054906101000a900473ffffffffffffffffffffffffffffffffffffffff169050620f4240600260008373ffffffffffffffffffffffffffffffffffffffff1673ffffffffffffffffffffffffffffffffffffffff16815260200190815260200160002054840281610e4a57fe5b04600860008373ffffffffffffffffffffffffffffffffffffffff1673ffffffffffffffffffffffffffffffffffffffff16815260200190815260200160002081905550508080600101915050610db4565b5082600860008673ffffffffffffffffffffffffffffffffffffffff1673ffffffffffffffffffffffffffffffffffffffff168152602001908152602001600020600082825401925050819055508281019050600080905060008090505b600680549050811015610f8f57600060068281548110610f1657fe5b9060005260206000200160009054906101000a900473ffffffffffffffffffffffffffffffffffffffff1690508673ffffffffffffffffffffffffffffffffffffffff168173ffffffffffffffffffffffffffffffffffffffff161415610f81576001925050610f8f565b508080600101915050610efa565b5080610ff9576006859080600181540180825580915050600190039060005260206000200160009091909190916101000a81548173ffffffffffffffffffffffffffffffffffffffff021916908373ffffffffffffffffffffffffffffffffffffffff1602179055505b61100282611366565b8360008080815260200190815260200160002060008282540192505081905550604051806020016040528060008152509250505092915050565b80600f8190555050565b600d5481565b600e5481565b60008082141561106657600e5490506110f5565b600182141561107957600f5490506110f5565b60016000116110f0576040517f08c379a00000000000000000000000000000000000000000000000000000000081526004018080602001828103825260138152602001807f61737365745f696420697320696e76616c69640000000000000000000000000081525060200191505060405180910390fd5b600090505b919050565b600f5481565b6007818154811061110d57fe5b906000526020600020016000915090505481565b60086020528060005260406000206000915090505481565b60035481565b60008061114b84611daf565b905080830291505092915050565b600c60006111679190611edb565b600a60006111759190611efc565b60005b6006805490508110156112a05760006006828154811061119457fe5b9060005260206000200160009054906101000a900473ffffffffffffffffffffffffffffffffffffffff1690506000600260008373ffffffffffffffffffffffffffffffffffffffff1673ffffffffffffffffffffffffffffffffffffffff168152602001908152602001600020549050600c829080600181540180825580915050600190039060005260206000200160009091909190916101000a81548173ffffffffffffffffffffffffffffffffffffffff021916908373ffffffffffffffffffffffffffffffffffffffff160217905550600a81908060018154018082558091505060019003906000526020600020016000909190919091505550508080600101915050611178565b50565b600a60006112b19190611efc565b600b60006112bf9190611efc565b60005b600580549050811015611363576000600582815481106112de57fe5b906000526020600020015490506000806000838152602001908152602001600020549050600a829080600181540180825580915050600190039060005260206000200160009091909190915055600b819080600181540180825580915050600190039060005260206000200160009091909190915055505080806001019150506112c2565b50565b60008090505b6006805490508110156114995760006006828154811061138857fe5b9060005260206000200160009054906101000a900473ffffffffffffffffffffffffffffffffffffffff16905082600860008373ffffffffffffffffffffffffffffffffffffffff1673ffffffffffffffffffffffffffffffffffffffff16815260200190815260200160002054620f4240028161140257fe5b04600260008373ffffffffffffffffffffffffffffffffffffffff1673ffffffffffffffffffffffffffffffffffffffff168152602001908152602001600020819055506000600860008373ffffffffffffffffffffffffffffffffffffffff1673ffffffffffffffffffffffffffffffffffffffff1681526020019081526020016000208190555050808060010191505061136c565b5050565b6060600760006114ad9190611efc565b600760009080600181540180825580915050600190039060005260206000200160009091909190915055600760019080600181540180825580915050600190039060005260206000200160009091909190915055600780548060200260200160405190810160405280929190818152602001828054801561154d57602002820191906000526020600020905b815481526020019060010190808311611539575b5050505050905090565b600b818154811061156457fe5b906000526020600020016000915090505481565b60008061158484611daf565b905080830291505092915050565b60026020528060005260406000206000915090505481565b60096020528060005260406000206000915090505481565b60606115cc611c31565b60006115d6611d26565b9050600080905060005b60058054905081101561162a576000600582815481106115fc57fe5b90600052602060002001549050600061161482611052565b90508084019350505080806001019150506115e0565b5060005b6005805490508110156116c25760006005828154811061164a57fe5b90600052602060002001549050600061166282611052565b905060006001600084815260200190815260200160002054905080858388670de0b6b3a764000002028161169257fe5b048161169a57fe5b046009600085815260200190815260200160002081905550505050808060010191505061162e565b5060005b6005805490508110156117c8576000600582815481106116e257fe5b9060005260206000200154905060008060008381526020019081526020016000205490506000600960008481526020019081526020016000205490508082111561176b576000818303905061174884670de0b6b3a7640000838161174257fe5b04611578565b508060008086815260200190815260200160002060008282540392505081905550505b808210156117b8576000828203905061179584670de0b6b3a7640000838161178f57fe5b0461113f565b508060008086815260200190815260200160002060008282540192505081905550505b50505080806001019150506116c6565b50604051806020016040528060008152509250505090565b80600e8190555050565b80600d8190555050565b606080600a600b8180548060200260200160405190810160405280929190818152602001828054801561184657602002820191906000526020600020905b815481526020019060010190808311611832575b505050505091508080548060200260200160405190810160405280929190818152602001828054801561189857602002820191906000526020600020905b815481526020019060010190808311611884575b50505050509050915091509091565b606080600c600a8180548060200260200160405190810160405280929190818152602001828054801561192f57602002820191906000526020600020905b8160009054906101000a900473ffffffffffffffffffffffffffffffffffffffff1673ffffffffffffffffffffffffffffffffffffffff16815260200190600101908083116118e5575b505050505091508080548060200260200160405190810160405280929190818152602001828054801561198157602002820191906000526020600020905b81548152602001906001019080831161196d575b50505050509050915091509091565b60045481565b606060006119a2611d26565b905060008090505b600680549050811015611a92576000600682815481106119c657fe5b9060005260206000200160009054906101000a900473ffffffffffffffffffffffffffffffffffffffff169050620f4240600260008373ffffffffffffffffffffffffffffffffffffffff1673ffffffffffffffffffffffffffffffffffffffff16815260200190815260200160002054840281611a4057fe5b04600860008373ffffffffffffffffffffffffffffffffffffffff1673ffffffffffffffffffffffffffffffffffffffff168152602001908152602001600020819055505080806001019150506119aa565b506000600260008773ffffffffffffffffffffffffffffffffffffffff1673ffffffffffffffffffffffffffffffffffffffff1681526020019081526020016000205490506000620f424086620f424084860281611aec57fe5b040281611af557fe5b04905080600860008973ffffffffffffffffffffffffffffffffffffffff1673ffffffffffffffffffffffffffffffffffffffff168152602001908152602001600020600082825403925050819055508083039250611b5383611366565b80600080808152602001908152602001600020600082825403925050819055508415611bc1578673ffffffffffffffffffffffffffffffffffffffff166108fc829081150290604051600060405180830381858888f19350505050158015611bbf573d6000803e3d6000fd5b505b6040518060200160405280600081525093505050509392505050565b60068181548110611bea57fe5b906000526020600020016000915054906101000a900473ffffffffffffffffffffffffffffffffffffffff1681565b60006020528060005260406000206000915090505481565b60008090505b600580549050811015611c815760006001600060058481548110611c5757fe5b90600052602060002001548152602001908152602001600020819055508080600101915050611c37565b5060056000611c909190611efc565b611c9861149d565b60059080519060200190611cad929190611f1d565b5060008090505b600580549050811015611d0b57600060058281548110611cd057fe5b90600052602060002001549050611ce681611daf565b6001600083815260200190815260200160002081905550508080600101915050611cb4565b50565b60016020528060005260406000206000915090505481565b6000806000905060008090505b600580549050811015611da757600060058281548110611d4f57fe5b90600052602060002001549050670de0b6b3a76400006000808381526020019081526020016000205460016000848152602001908152602001600020540281611d9457fe5b0483019250508080600101915050611d33565b508091505090565b600080821415611dc957670de0b6b3a76400009050611e58565b6001821415611ddc57600d549050611e58565b6001600011611e53576040517f08c379a00000000000000000000000000000000000000000000000000000000081526004018080602001828103825260138152602001807f61737365745f696420697320696e76616c69640000000000000000000000000081525060200191505060405180910390fd5b600090505b919050565b60058181548110611e6a57fe5b906000526020600020016000915090505481565b600a8181548110611e8b57fe5b906000526020600020016000915090505481565b600c8181548110611eac57fe5b906000526020600020016000915054906101000a900473ffffffffffffffffffffffffffffffffffffffff1681565b5080546000825590600052602060002090810190611ef99190611f6a565b50565b5080546000825590600052602060002090810190611f1a9190611f6a565b50565b828054828255906000526020600020908101928215611f59579160200282015b82811115611f58578251825591602001919060010190611f3d565b5b509050611f669190611f6a565b5090565b611f8c91905b80821115611f88576000816000905550600101611f70565b5090565b9056fea264697066735822122004b6952b8ab5d08420eff0d07920432a1f818652dd546d4d30737bca648fa0a164736f6c63430006060033",
  "linkReferences": {},
  "deployedLinkReferences": {}
}