{
  "_format": "hh-sol-artifact-1",
  "contractName": "MockIndexFund",
  "sourceName": "contracts/IndexFund.sol",
  "abi": [
    {
      "inputs": [
        {
          "internalType": "uint256",
          "name": "_min_holding_update_diff_duration",
          "type": "uint256"
        }
      ],
      "stateMutability": "nonpayable",
      "type": "constructor"
    },
    {
      "stateMutability": "payable",
      "type": "fallback"
    },
    {
      "inputs": [
        {
          "internalType": "uint256",
          "name": "",
          "type": "uint256"
        }
      ],
      "name": "asset_ids",
      "outputs": [
        {
          "internalType": "uint256",
          "name": "",
          "type": "uint256"
        }
      ],
      "stateMutability": "view",
      "type": "function"
    },
    {
      "inputs": [
        {
          "internalType": "uint256",
          "name": "asset_id",
          "type": "uint256"
        },
        {
          "internalType": "uint256",
          "name": "quantity",
          "type": "uint256"
        }
      ],
      "name": "buyAssetQuantity",
      "outputs": [
        {
          "internalType": "uint256",
          "name": "",
          "type": "uint256"
        }
      ],
      "stateMutability": "view",
      "type": "function"
    },
    {
      "inputs": [
        {
          "internalType": "uint256",
          "name": "asset_id",
          "type": "uint256"
        }
      ],
      "name": "getAssetAbsoluteWeight",
      "outputs": [
        {
          "internalType": "uint256",
          "name": "",
          "type": "uint256"
        }
      ],
      "stateMutability": "view",
      "type": "function"
    },
    {
      "inputs": [],
      "name": "getAssets",
      "outputs": [
        {
          "internalType": "uint256[]",
          "name": "",
          "type": "uint256[]"
        }
      ],
      "stateMutability": "nonpayable",
      "type": "function"
    },
    {
      "inputs": [],
      "name": "getExistingFundsWei",
      "outputs": [
        {
          "internalType": "uint256",
          "name": "",
          "type": "uint256"
        }
      ],
      "stateMutability": "view",
      "type": "function"
    },
    {
      "inputs": [
        {
          "internalType": "uint256",
          "name": "asset_id",
          "type": "uint256"
        }
      ],
      "name": "getPrice",
      "outputs": [
        {
          "internalType": "uint256",
          "name": "",
          "type": "uint256"
        }
      ],
      "stateMutability": "view",
      "type": "function"
    },
    {
      "inputs": [
        {
          "internalType": "uint256",
          "name": "",
          "type": "uint256"
        }
      ],
      "name": "holdings",
      "outputs": [
        {
          "internalType": "uint256",
          "name": "",
          "type": "uint256"
        }
      ],
      "stateMutability": "view",
      "type": "function"
    },
    {
      "inputs": [
        {
          "internalType": "address",
          "name": "depositing_shareholder",
          "type": "address"
        },
        {
          "internalType": "uint256",
          "name": "deposited_wei",
          "type": "uint256"
        }
      ],
      "name": "inputFunds",
      "outputs": [
        {
          "internalType": "string",
          "name": "",
          "type": "string"
        }
      ],
      "stateMutability": "nonpayable",
      "type": "function"
    },
    {
      "inputs": [],
      "name": "last_holding_update_time",
      "outputs": [
        {
          "internalType": "uint256",
          "name": "",
          "type": "uint256"
        }
      ],
      "stateMutability": "view",
      "type": "function"
    },
    {
      "inputs": [],
      "name": "min_holding_update_diff_duration",
      "outputs": [
        {
          "internalType": "uint256",
          "name": "",
          "type": "uint256"
        }
      ],
      "stateMutability": "view",
      "type": "function"
    },
    {
      "inputs": [
        {
          "internalType": "address payable",
          "name": "withdrawing_shareholder",
          "type": "address"
        },
        {
          "internalType": "uint256",
          "name": "withdrawn_share_micro_units",
          "type": "uint256"
        }
      ],
      "name": "outputFunds",
      "outputs": [
        {
          "internalType": "string",
          "name": "",
          "type": "string"
        }
      ],
      "stateMutability": "nonpayable",
      "type": "function"
    },
    {
      "inputs": [
        {
          "internalType": "uint256",
          "name": "",
          "type": "uint256"
        }
      ],
      "name": "prices",
      "outputs": [
        {
          "internalType": "uint256",
          "name": "",
          "type": "uint256"
        }
      ],
      "stateMutability": "view",
      "type": "function"
    },
    {
      "inputs": [],
      "name": "refreshAssets",
      "outputs": [],
      "stateMutability": "nonpayable",
      "type": "function"
    },
    {
      "inputs": [
        {
          "internalType": "uint256",
          "name": "",
          "type": "uint256"
        }
      ],
      "name": "scratch_arr",
      "outputs": [
        {
          "internalType": "uint256",
          "name": "",
          "type": "uint256"
        }
      ],
      "stateMutability": "view",
      "type": "function"
    },
    {
      "inputs": [
        {
          "internalType": "uint256",
          "name": "asset_id",
          "type": "uint256"
        },
        {
          "internalType": "uint256",
          "name": "quantity",
          "type": "uint256"
        }
      ],
      "name": "sellAssetQuantity",
      "outputs": [
        {
          "internalType": "uint256",
          "name": "",
          "type": "uint256"
        }
      ],
      "stateMutability": "view",
      "type": "function"
    },
    {
      "inputs": [
        {
          "internalType": "uint256",
          "name": "_eth_mktcap",
          "type": "uint256"
        }
      ],
      "name": "setETHMktcap",
      "outputs": [],
      "stateMutability": "nonpayable",
      "type": "function"
    },
    {
      "inputs": [
        {
          "internalType": "uint256",
          "name": "_wbtc_mktcap",
          "type": "uint256"
        }
      ],
      "name": "setWBTCMktCap",
      "outputs": [],
      "stateMutability": "nonpayable",
      "type": "function"
    },
    {
      "inputs": [
        {
          "internalType": "uint256",
          "name": "_wbtc_price",
          "type": "uint256"
        }
      ],
      "name": "setWBTCPrice",
      "outputs": [],
      "stateMutability": "nonpayable",
      "type": "function"
    },
    {
      "inputs": [
        {
          "internalType": "address",
          "name": "",
          "type": "address"
        }
      ],
      "name": "shareholder_to_share",
      "outputs": [
        {
          "internalType": "uint256",
          "name": "",
          "type": "uint256"
        }
      ],
      "stateMutability": "view",
      "type": "function"
    },
    {
      "inputs": [
        {
          "internalType": "address",
          "name": "",
          "type": "address"
        }
      ],
      "name": "shareholder_to_wei",
      "outputs": [
        {
          "internalType": "uint256",
          "name": "",
          "type": "uint256"
        }
      ],
      "stateMutability": "view",
      "type": "function"
    },
    {
      "inputs": [
        {
          "internalType": "uint256",
          "name": "",
          "type": "uint256"
        }
      ],
      "name": "shareholders",
      "outputs": [
        {
          "internalType": "address",
          "name": "",
          "type": "address"
        }
      ],
      "stateMutability": "view",
      "type": "function"
    },
    {
      "inputs": [
        {
          "internalType": "uint256",
          "name": "",
          "type": "uint256"
        }
      ],
      "name": "target_holdings",
      "outputs": [
        {
          "internalType": "uint256",
          "name": "",
          "type": "uint256"
        }
      ],
      "stateMutability": "view",
      "type": "function"
    },
    {
      "inputs": [],
      "name": "updateHoldings",
      "outputs": [
        {
          "internalType": "string",
          "name": "",
          "type": "string"
        }
      ],
      "stateMutability": "nonpayable",
      "type": "function"
    },
    {
      "inputs": [
        {
          "internalType": "uint256",
          "name": "existing_funds_wei",
          "type": "uint256"
        }
      ],
      "name": "updateShareHolderToShare",
      "outputs": [],
      "stateMutability": "nonpayable",
      "type": "function"
    },
    {
      "stateMutability": "payable",
      "type": "receive"
    }
  ],
  "bytecode": "0x60806040523480156200001157600080fd5b5060405162001fcb38038062001fcb83398181016040528101906200003791906200037c565b80806004819055506200004f6200005760201b60201c565b5050620004dc565b60005b600580549050811015620000b85760006001600060058481548110620000855762000084620003ae565b5b90600052602060002001548152602001908152602001600020819055508080620000af906200040c565b9150506200005a565b5060056000620000c99190620002a8565b620000d96200016a60201b60201c565b60059080519060200190620000f0929190620002cb565b5060005b60058054905081101562000167576000600582815481106200011b576200011a620003ae565b5b9060005260206000200154905062000139816200022860201b60201c565b60016000838152602001908152602001600020819055505080806200015e906200040c565b915050620000f4565b50565b6060600760006200017c9190620002a8565b60076000908060018154018082558091505060019003906000526020600020016000909190919091505560076001908060018154018082558091505060019003906000526020600020016000909190919091505560078054806020026020016040519081016040528092919081815260200182805480156200021e57602002820191906000526020600020905b81548152602001906001019080831162000209575b5050505050905090565b60008082036200024357670de0b6b3a76400009050620002a3565b600182036200025757600a549050620002a3565b60016000116200029e576040517f08c379a00000000000000000000000000000000000000000000000000000000081526004016200029590620004ba565b60405180910390fd5b600090505b919050565b5080546000825590600052602060002090810190620002c891906200031d565b50565b8280548282559060005260206000209081019282156200030a579160200282015b8281111562000309578251825591602001919060010190620002ec565b5b5090506200031991906200031d565b5090565b5b80821115620003385760008160009055506001016200031e565b5090565b600080fd5b6000819050919050565b620003568162000341565b81146200036257600080fd5b50565b60008151905062000376816200034b565b92915050565b6000602082840312156200039557620003946200033c565b5b6000620003a58482850162000365565b91505092915050565b7f4e487b7100000000000000000000000000000000000000000000000000000000600052603260045260246000fd5b7f4e487b7100000000000000000000000000000000000000000000000000000000600052601160045260246000fd5b6000620004198262000341565b91507fffffffffffffffffffffffffffffffffffffffffffffffffffffffffffffffff82036200044e576200044d620003dd565b5b600182019050919050565b600082825260208201905092915050565b7f61737365745f696420697320696e76616c696400000000000000000000000000600082015250565b6000620004a260138362000459565b9150620004af826200046a565b602082019050919050565b60006020820190508181036000830152620004d58162000493565b9050919050565b611adf80620004ec6000396000f3fe60806040526004361061014f5760003560e01c806387002c59116100b6578063b36fdf331161006f578063b36fdf331461051e578063bc31c1c114610535578063ddf2afba14610572578063e75722301461059d578063e852cbf3146105da578063f039842f1461061757610160565b806387002c59146103fc578063875022d21461042757806387f86d921461045057806399d65d7414610479578063ab377daa146104a4578063af503309146104e157610160565b80634b2305c5116101085780634b2305c5146102b457806364220c97146102dd57806367e4ac2c1461031a5780637148cbec146103455780637a968f98146103825780637aefbd0b146103bf57610160565b8063036301371461016c5780630e8a242a1461019557806321e2d94e146101d257806329f85ab01461020f5780632b35e77a1461024c57806331bccadd1461027757610160565b366101605761015e3334610654565b005b61016a3334610654565b005b34801561017857600080fd5b50610193600480360381019061018e91906114f1565b610925565b005b3480156101a157600080fd5b506101bc60048036038101906101b791906114f1565b61092f565b6040516101c9919061152d565b60405180910390f35b3480156101de57600080fd5b506101f960048036038101906101f491906114f1565b6109a2565b604051610206919061152d565b60405180910390f35b34801561021b57600080fd5b50610236600480360381019061023191906115a6565b6109c6565b604051610243919061152d565b60405180910390f35b34801561025857600080fd5b506102616109de565b60405161026e919061152d565b60405180910390f35b34801561028357600080fd5b5061029e600480360381019061029991906115d3565b6109e4565b6040516102ab919061152d565b60405180910390f35b3480156102c057600080fd5b506102db60048036038101906102d691906114f1565b610a07565b005b3480156102e957600080fd5b5061030460048036038101906102ff9190611613565b610654565b60405161031191906116e3565b60405180910390f35b34801561032657600080fd5b5061032f610b53565b60405161033c91906117c3565b60405180910390f35b34801561035157600080fd5b5061036c600480360381019061036791906115d3565b610c0d565b604051610379919061152d565b60405180910390f35b34801561038e57600080fd5b506103a960048036038101906103a491906115a6565b610c30565b6040516103b6919061152d565b60405180910390f35b3480156103cb57600080fd5b506103e660048036038101906103e191906114f1565b610c48565b6040516103f3919061152d565b60405180910390f35b34801561040857600080fd5b50610411610c60565b60405161041e91906116e3565b60405180910390f35b34801561043357600080fd5b5061044e600480360381019061044991906114f1565b610ee8565b005b34801561045c57600080fd5b50610477600480360381019061047291906114f1565b610ef2565b005b34801561048557600080fd5b5061048e610efc565b60405161049b919061152d565b60405180910390f35b3480156104b057600080fd5b506104cb60048036038101906104c691906114f1565b610f02565b6040516104d891906117f4565b60405180910390f35b3480156104ed57600080fd5b50610508600480360381019061050391906114f1565b610f41565b604051610515919061152d565b60405180910390f35b34801561052a57600080fd5b50610533610f59565b005b34801561054157600080fd5b5061055c600480360381019061055791906114f1565b61104a565b604051610569919061152d565b60405180910390f35b34801561057e57600080fd5b50610587611062565b604051610594919061152d565b60405180910390f35b3480156105a957600080fd5b506105c460048036038101906105bf91906114f1565b611109565b6040516105d1919061152d565b60405180910390f35b3480156105e657600080fd5b5061060160048036038101906105fc91906114f1565b611182565b60405161060e919061152d565b60405180910390f35b34801561062357600080fd5b5061063e6004803603810190610639919061184d565b6111a6565b60405161064b91906116e3565b60405180910390f35b60606000610660611062565b905060005b600680549050811015610765576000600682815481106106885761068761188d565b5b9060005260206000200160009054906101000a900473ffffffffffffffffffffffffffffffffffffffff169050620f4240600260008373ffffffffffffffffffffffffffffffffffffffff1673ffffffffffffffffffffffffffffffffffffffff168152602001908152602001600020548461070491906118eb565b61070e919061195c565b600860008373ffffffffffffffffffffffffffffffffffffffff1673ffffffffffffffffffffffffffffffffffffffff1681526020019081526020016000208190555050808061075d9061198d565b915050610665565b5082600860008673ffffffffffffffffffffffffffffffffffffffff1673ffffffffffffffffffffffffffffffffffffffff16815260200190815260200160002060008282546107b591906119d5565b9250508190555082816107c891906119d5565b90506000805b60068054905081101561086f576000600682815481106107f1576107f061188d565b5b9060005260206000200160009054906101000a900473ffffffffffffffffffffffffffffffffffffffff1690508673ffffffffffffffffffffffffffffffffffffffff168173ffffffffffffffffffffffffffffffffffffffff160361085b57600192505061086f565b5080806108679061198d565b9150506107ce565b50806108d9576006859080600181540180825580915050600190039060005260206000200160009091909190916101000a81548173ffffffffffffffffffffffffffffffffffffffff021916908373ffffffffffffffffffffffffffffffffffffffff1602179055505b6108e282610a07565b83600080808152602001908152602001600020600082825461090491906119d5565b92505081905550604051806020016040528060008152509250505092915050565b80600c8190555050565b600080820361094257600b54905061099d565b6001820361095457600c54905061099d565b6001600011610998576040517f08c379a000000000000000000000000000000000000000000000000000000000815260040161098f90611a55565b60405180910390fd5b600090505b919050565b600781815481106109b257600080fd5b906000526020600020016000915090505481565b60086020528060005260406000206000915090505481565b60035481565b6000806109f084611109565b905080836109fe91906118eb565b91505092915050565b60005b600680549050811015610b4f57600060068281548110610a2d57610a2c61188d565b5b9060005260206000200160009054906101000a900473ffffffffffffffffffffffffffffffffffffffff16905082600860008373ffffffffffffffffffffffffffffffffffffffff1673ffffffffffffffffffffffffffffffffffffffff16815260200190815260200160002054620f4240610aa991906118eb565b610ab3919061195c565b600260008373ffffffffffffffffffffffffffffffffffffffff1673ffffffffffffffffffffffffffffffffffffffff168152602001908152602001600020819055506000600860008373ffffffffffffffffffffffffffffffffffffffff1673ffffffffffffffffffffffffffffffffffffffff16815260200190815260200160002081905550508080610b479061198d565b915050610a0a565b5050565b606060076000610b63919061142b565b6007600090806001815401808255809150506001900390600052602060002001600090919091909150556007600190806001815401808255809150506001900390600052602060002001600090919091909150556007805480602002602001604051908101604052809291908181526020018280548015610c0357602002820191906000526020600020905b815481526020019060010190808311610bef575b5050505050905090565b600080610c1984611109565b90508083610c2791906118eb565b91505092915050565b60026020528060005260406000206000915090505481565b60096020528060005260406000206000915090505481565b6060610c6a610f59565b6000610c74611062565b90506000805b600580549050811015610cda57600060058281548110610c9d57610c9c61188d565b5b906000526020600020015490506000610cb58261092f565b90508084610cc391906119d5565b935050508080610cd29061198d565b915050610c7a565b5060005b600580549050811015610d9557600060058281548110610d0157610d0061188d565b5b906000526020600020015490506000610d198261092f565b905060006001600084815260200190815260200160002054905080858388670de0b6b3a7640000610d4a91906118eb565b610d5491906118eb565b610d5e919061195c565b610d68919061195c565b60096000858152602001908152602001600020819055505050508080610d8d9061198d565b915050610cde565b5060005b600580549050811015610ed057600060058281548110610dbc57610dbb61188d565b5b90600052602060002001549050600080600083815260200190815260200160002054905060006009600084815260200190815260200160002054905080821115610e595760008183610e0e9190611a75565b9050610e2d84670de0b6b3a764000083610e28919061195c565b610c0d565b50806000808681526020019081526020016000206000828254610e509190611a75565b92505081905550505b80821015610eba5760008282610e6f9190611a75565b9050610e8e84670de0b6b3a764000083610e89919061195c565b6109e4565b50806000808681526020019081526020016000206000828254610eb191906119d5565b92505081905550505b5050508080610ec89061198d565b915050610d99565b50604051806020016040528060008152509250505090565b80600b8190555050565b80600a8190555050565b60045481565b60068181548110610f1257600080fd5b906000526020600020016000915054906101000a900473ffffffffffffffffffffffffffffffffffffffff1681565b60006020528060005260406000206000915090505481565b60005b600580549050811015610fb35760006001600060058481548110610f8357610f8261188d565b5b90600052602060002001548152602001908152602001600020819055508080610fab9061198d565b915050610f5c565b5060056000610fc2919061142b565b610fca610b53565b60059080519060200190610fdf92919061144c565b5060005b600580549050811015611047576000600582815481106110065761100561188d565b5b9060005260206000200154905061101c81611109565b600160008381526020019081526020016000208190555050808061103f9061198d565b915050610fe3565b50565b60016020528060005260406000206000915090505481565b6000806000905060005b6005805490508110156111015760006005828154811061108f5761108e61188d565b5b90600052602060002001549050670de0b6b3a76400006000808381526020019081526020016000205460016000848152602001908152602001600020546110d691906118eb565b6110e0919061195c565b836110eb91906119d5565b92505080806110f99061198d565b91505061106c565b508091505090565b600080820361112257670de0b6b3a7640000905061117d565b6001820361113457600a54905061117d565b6001600011611178576040517f08c379a000000000000000000000000000000000000000000000000000000000815260040161116f90611a55565b60405180910390fd5b600090505b919050565b6005818154811061119257600080fd5b906000526020600020016000915090505481565b606060006111b2611062565b905060005b6006805490508110156112b7576000600682815481106111da576111d961188d565b5b9060005260206000200160009054906101000a900473ffffffffffffffffffffffffffffffffffffffff169050620f4240600260008373ffffffffffffffffffffffffffffffffffffffff1673ffffffffffffffffffffffffffffffffffffffff168152602001908152602001600020548461125691906118eb565b611260919061195c565b600860008373ffffffffffffffffffffffffffffffffffffffff1673ffffffffffffffffffffffffffffffffffffffff168152602001908152602001600020819055505080806112af9061198d565b9150506111b7565b506000600260008673ffffffffffffffffffffffffffffffffffffffff1673ffffffffffffffffffffffffffffffffffffffff168152602001908152602001600020549050600084620f424061130d91906118eb565b82620f424061131c91906118eb565b8461132791906118eb565b61133191906118eb565b905080600860008873ffffffffffffffffffffffffffffffffffffffff1673ffffffffffffffffffffffffffffffffffffffff16815260200190815260200160002060008282546113829190611a75565b9250508190555080836113959190611a75565b92506113a083610a07565b8060008080815260200190815260200160002060008282546113c29190611a75565b925050819055508573ffffffffffffffffffffffffffffffffffffffff166108fc829081150290604051600060405180830381858888f1935050505015801561140f573d6000803e3d6000fd5b5060405180602001604052806000815250935050505092915050565b50805460008255906000526020600020908101906114499190611499565b50565b828054828255906000526020600020908101928215611488579160200282015b8281111561148757825182559160200191906001019061146c565b5b5090506114959190611499565b5090565b5b808211156114b257600081600090555060010161149a565b5090565b600080fd5b6000819050919050565b6114ce816114bb565b81146114d957600080fd5b50565b6000813590506114eb816114c5565b92915050565b600060208284031215611507576115066114b6565b5b6000611515848285016114dc565b91505092915050565b611527816114bb565b82525050565b6000602082019050611542600083018461151e565b92915050565b600073ffffffffffffffffffffffffffffffffffffffff82169050919050565b600061157382611548565b9050919050565b61158381611568565b811461158e57600080fd5b50565b6000813590506115a08161157a565b92915050565b6000602082840312156115bc576115bb6114b6565b5b60006115ca84828501611591565b91505092915050565b600080604083850312156115ea576115e96114b6565b5b60006115f8858286016114dc565b9250506020611609858286016114dc565b9150509250929050565b6000806040838503121561162a576116296114b6565b5b600061163885828601611591565b9250506020611649858286016114dc565b9150509250929050565b600081519050919050565b600082825260208201905092915050565b60005b8381101561168d578082015181840152602081019050611672565b60008484015250505050565b6000601f19601f8301169050919050565b60006116b582611653565b6116bf818561165e565b93506116cf81856020860161166f565b6116d881611699565b840191505092915050565b600060208201905081810360008301526116fd81846116aa565b905092915050565b600081519050919050565b600082825260208201905092915050565b6000819050602082019050919050565b61173a816114bb565b82525050565b600061174c8383611731565b60208301905092915050565b6000602082019050919050565b600061177082611705565b61177a8185611710565b935061178583611721565b8060005b838110156117b657815161179d8882611740565b97506117a883611758565b925050600181019050611789565b5085935050505092915050565b600060208201905081810360008301526117dd8184611765565b905092915050565b6117ee81611568565b82525050565b600060208201905061180960008301846117e5565b92915050565b600061181a82611548565b9050919050565b61182a8161180f565b811461183557600080fd5b50565b60008135905061184781611821565b92915050565b60008060408385031215611864576118636114b6565b5b600061187285828601611838565b9250506020611883858286016114dc565b9150509250929050565b7f4e487b7100000000000000000000000000000000000000000000000000000000600052603260045260246000fd5b7f4e487b7100000000000000000000000000000000000000000000000000000000600052601160045260246000fd5b60006118f6826114bb565b9150611901836114bb565b925082820261190f816114bb565b91508282048414831517611926576119256118bc565b5b5092915050565b7f4e487b7100000000000000000000000000000000000000000000000000000000600052601260045260246000fd5b6000611967826114bb565b9150611972836114bb565b9250826119825761198161192d565b5b828204905092915050565b6000611998826114bb565b91507fffffffffffffffffffffffffffffffffffffffffffffffffffffffffffffffff82036119ca576119c96118bc565b5b600182019050919050565b60006119e0826114bb565b91506119eb836114bb565b9250828201905080821115611a0357611a026118bc565b5b92915050565b7f61737365745f696420697320696e76616c696400000000000000000000000000600082015250565b6000611a3f60138361165e565b9150611a4a82611a09565b602082019050919050565b60006020820190508181036000830152611a6e81611a32565b9050919050565b6000611a80826114bb565b9150611a8b836114bb565b9250828203905081811115611aa357611aa26118bc565b5b9291505056fea264697066735822122034ac9ece68ec0de64ee7f01707763701863c85b362ef527808ea8bd33a7a9c1364736f6c63430008110033",
  "linkReferences": {},
  "deployedLinkReferences": {}
}